{
	"contract/SupplyChain.sol": {
		"SupplyChain": {
			"abi": [
				{
					"anonymous": false,
					"inputs": [
						{
							"indexed": false,
							"internalType": "uint256",
							"name": "id",
							"type": "uint256"
						},
						{
							"indexed": false,
							"internalType": "string",
							"name": "name",
							"type": "string"
						},
						{
							"indexed": false,
							"internalType": "string",
							"name": "origin",
							"type": "string"
						}
					],
					"name": "ProductCreated",
					"type": "event"
				},
				{
					"anonymous": false,
					"inputs": [
						{
							"indexed": false,
							"internalType": "uint256",
							"name": "id",
							"type": "uint256"
						},
						{
							"indexed": false,
							"internalType": "string",
							"name": "location",
							"type": "string"
						},
						{
							"indexed": false,
							"internalType": "string",
							"name": "status",
							"type": "string"
						}
					],
					"name": "ProductUpdated",
					"type": "event"
				},
				{
					"inputs": [
						{
							"internalType": "uint256",
							"name": "_id",
							"type": "uint256"
						},
						{
							"internalType": "string",
							"name": "_name",
							"type": "string"
						},
						{
							"internalType": "string",
							"name": "_origin",
							"type": "string"
						}
					],
					"name": "createProduct",
					"outputs": [],
					"stateMutability": "nonpayable",
					"type": "function"
				},
				{
					"inputs": [
						{
							"internalType": "uint256",
							"name": "_id",
							"type": "uint256"
						}
					],
					"name": "getProduct",
					"outputs": [
						{
							"internalType": "uint256",
							"name": "id",
							"type": "uint256"
						},
						{
							"internalType": "string",
							"name": "name",
							"type": "string"
						},
						{
							"internalType": "string",
							"name": "origin",
							"type": "string"
						},
						{
							"internalType": "string",
							"name": "currentLocation",
							"type": "string"
						},
						{
							"internalType": "string",
							"name": "status",
							"type": "string"
						},
						{
							"internalType": "uint256",
							"name": "createdAt",
							"type": "uint256"
						}
					],
					"stateMutability": "view",
					"type": "function"
				},
				{
					"inputs": [
						{
							"internalType": "uint256",
							"name": "_id",
							"type": "uint256"
						}
					],
					"name": "getProductHistoryCount",
					"outputs": [
						{
							"internalType": "uint256",
							"name": "",
							"type": "uint256"
						}
					],
					"stateMutability": "view",
					"type": "function"
				},
				{
					"inputs": [
						{
							"internalType": "uint256",
							"name": "_id",
							"type": "uint256"
						},
						{
							"internalType": "uint256",
							"name": "_index",
							"type": "uint256"
						}
					],
					"name": "getProductHistoryItem",
					"outputs": [
						{
							"internalType": "string",
							"name": "location",
							"type": "string"
						},
						{
							"internalType": "string",
							"name": "status",
							"type": "string"
						},
						{
							"internalType": "address",
							"name": "updatedBy",
							"type": "address"
						},
						{
							"internalType": "uint256",
							"name": "timestamp",
							"type": "uint256"
						}
					],
					"stateMutability": "view",
					"type": "function"
				},
				{
					"inputs": [
						{
							"internalType": "uint256",
							"name": "",
							"type": "uint256"
						}
					],
					"name": "products",
					"outputs": [
						{
							"internalType": "uint256",
							"name": "id",
							"type": "uint256"
						},
						{
							"internalType": "string",
							"name": "name",
							"type": "string"
						},
						{
							"internalType": "string",
							"name": "origin",
							"type": "string"
						},
						{
							"internalType": "string",
							"name": "currentLocation",
							"type": "string"
						},
						{
							"internalType": "string",
							"name": "status",
							"type": "string"
						},
						{
							"internalType": "uint256",
							"name": "createdAt",
							"type": "uint256"
						},
						{
							"internalType": "bool",
							"name": "exists",
							"type": "bool"
						}
					],
					"stateMutability": "view",
					"type": "function"
				},
				{
					"inputs": [
						{
							"internalType": "uint256",
							"name": "_id",
							"type": "uint256"
						},
						{
							"internalType": "string",
							"name": "_location",
							"type": "string"
						},
						{
							"internalType": "string",
							"name": "_status",
							"type": "string"
						}
					],
					"name": "updateProduct",
					"outputs": [],
					"stateMutability": "nonpayable",
					"type": "function"
				}
			],
			"devdoc": {
				"kind": "dev",
				"methods": {},
				"version": 1
			},
			"evm": {
				"assembly": "    /* \"contract/SupplyChain.sol\":26:3353  contract SupplyChain {... */\n  mstore(0x40, 0x80)\n  callvalue\n  dup1\n  iszero\n  tag_1\n  jumpi\n  0x00\n  dup1\n  revert\ntag_1:\n  pop\n  dataSize(sub_0)\n  dup1\n  dataOffset(sub_0)\n  0x00\n  codecopy\n  0x00\n  return\nstop\n\nsub_0: assembly {\n        /* \"contract/SupplyChain.sol\":26:3353  contract SupplyChain {... */\n      mstore(0x40, 0x80)\n      callvalue\n      dup1\n      iszero\n      tag_1\n      jumpi\n      0x00\n      dup1\n      revert\n    tag_1:\n      pop\n      jumpi(tag_2, lt(calldatasize, 0x04))\n      shr(0xe0, calldataload(0x00))\n      dup1\n      0x0ecbabff\n      eq\n      tag_3\n      jumpi\n      dup1\n      0x42a333ef\n      eq\n      tag_4\n      jumpi\n      dup1\n      0x78347712\n      eq\n      tag_5\n      jumpi\n      dup1\n      0x787da881\n      eq\n      tag_6\n      jumpi\n      dup1\n      0x7acc0b20\n      eq\n      tag_7\n      jumpi\n      dup1\n      0xb9db15b4\n      eq\n      tag_8\n      jumpi\n    tag_2:\n      0x00\n      dup1\n      revert\n        /* \"contract/SupplyChain.sol\":1508:2044  function updateProduct(... */\n    tag_3:\n      tag_9\n      0x04\n      dup1\n      calldatasize\n      sub\n      dup2\n      add\n      swap1\n      tag_10\n      swap2\n      swap1\n      tag_11\n      jump\t// in\n    tag_10:\n      tag_12\n      jump\t// in\n    tag_9:\n      stop\n        /* \"contract/SupplyChain.sol\":2774:3351  function getProductHistoryItem(uint256 _id, uint256 _index)... */\n    tag_4:\n      tag_13\n      0x04\n      dup1\n      calldatasize\n      sub\n      dup2\n      add\n      swap1\n      tag_14\n      swap2\n      swap1\n      tag_15\n      jump\t// in\n    tag_14:\n      tag_16\n      jump\t// in\n    tag_13:\n      mload(0x40)\n      tag_17\n      swap5\n      swap4\n      swap3\n      swap2\n      swap1\n      tag_18\n      jump\t// in\n    tag_17:\n      mload(0x40)\n      dup1\n      swap2\n      sub\n      swap1\n      return\n        /* \"contract/SupplyChain.sol\":2588:2768  function getProductHistoryCount(uint256 _id)... */\n    tag_5:\n      tag_19\n      0x04\n      dup1\n      calldatasize\n      sub\n      dup2\n      add\n      swap1\n      tag_20\n      swap2\n      swap1\n      tag_21\n      jump\t// in\n    tag_20:\n      tag_22\n      jump\t// in\n    tag_19:\n      mload(0x40)\n      tag_23\n      swap2\n      swap1\n      tag_24\n      jump\t// in\n    tag_23:\n      mload(0x40)\n      dup1\n      swap2\n      sub\n      swap1\n      return\n        /* \"contract/SupplyChain.sol\":763:1502  function createProduct(... */\n    tag_6:\n      tag_25\n      0x04\n      dup1\n      calldatasize\n      sub\n      dup2\n      add\n      swap1\n      tag_26\n      swap2\n      swap1\n      tag_11\n      jump\t// in\n    tag_26:\n      tag_27\n      jump\t// in\n    tag_25:\n      stop\n        /* \"contract/SupplyChain.sol\":386:429  mapping(uint256 => Product) public products */\n    tag_7:\n      tag_28\n      0x04\n      dup1\n      calldatasize\n      sub\n      dup2\n      add\n      swap1\n      tag_29\n      swap2\n      swap1\n      tag_21\n      jump\t// in\n    tag_29:\n      tag_30\n      jump\t// in\n    tag_28:\n      mload(0x40)\n      tag_31\n      swap8\n      swap7\n      swap6\n      swap5\n      swap4\n      swap3\n      swap2\n      swap1\n      tag_32\n      jump\t// in\n    tag_31:\n      mload(0x40)\n      dup1\n      swap2\n      sub\n      swap1\n      return\n        /* \"contract/SupplyChain.sol\":2050:2582  function getProduct(uint256 _id)... */\n    tag_8:\n      tag_33\n      0x04\n      dup1\n      calldatasize\n      sub\n      dup2\n      add\n      swap1\n      tag_34\n      swap2\n      swap1\n      tag_21\n      jump\t// in\n    tag_34:\n      tag_35\n      jump\t// in\n    tag_33:\n      mload(0x40)\n      tag_36\n      swap7\n      swap6\n      swap5\n      swap4\n      swap3\n      swap2\n      swap1\n      tag_37\n      jump\t// in\n    tag_36:\n      mload(0x40)\n      dup1\n      swap2\n      sub\n      swap1\n      return\n        /* \"contract/SupplyChain.sol\":1508:2044  function updateProduct(... */\n    tag_12:\n        /* \"contract/SupplyChain.sol\":1643:1646  _id */\n      dup3\n        /* \"contract/SupplyChain.sol\":692:700  products */\n      0x00\n        /* \"contract/SupplyChain.sol\":692:705  products[_id] */\n      dup1\n        /* \"contract/SupplyChain.sol\":701:704  _id */\n      dup3\n        /* \"contract/SupplyChain.sol\":692:705  products[_id] */\n      dup2\n      mstore\n      0x20\n      add\n      swap1\n      dup2\n      mstore\n      0x20\n      add\n      0x00\n      keccak256\n        /* \"contract/SupplyChain.sol\":692:712  products[_id].exists */\n      0x06\n      add\n      0x00\n      swap1\n      sload\n      swap1\n      0x0100\n      exp\n      swap1\n      div\n      0xff\n      and\n        /* \"contract/SupplyChain.sol\":684:739  require(products[_id].exists, \"Product does not exist\") */\n      tag_39\n      jumpi\n      mload(0x40)\n      0x08c379a000000000000000000000000000000000000000000000000000000000\n      dup2\n      mstore\n      0x04\n      add\n      tag_40\n      swap1\n      tag_41\n      jump\t// in\n    tag_40:\n      mload(0x40)\n      dup1\n      swap2\n      sub\n      swap1\n      revert\n    tag_39:\n        /* \"contract/SupplyChain.sol\":1691:1700  _location */\n      dup3\n        /* \"contract/SupplyChain.sol\":1659:1667  products */\n      0x00\n        /* \"contract/SupplyChain.sol\":1659:1672  products[_id] */\n      dup1\n        /* \"contract/SupplyChain.sol\":1668:1671  _id */\n      dup7\n        /* \"contract/SupplyChain.sol\":1659:1672  products[_id] */\n      dup2\n      mstore\n      0x20\n      add\n      swap1\n      dup2\n      mstore\n      0x20\n      add\n      0x00\n      keccak256\n        /* \"contract/SupplyChain.sol\":1659:1688  products[_id].currentLocation */\n      0x03\n      add\n        /* \"contract/SupplyChain.sol\":1659:1700  products[_id].currentLocation = _location */\n      swap1\n      dup2\n      tag_43\n      swap2\n      swap1\n      tag_44\n      jump\t// in\n    tag_43:\n      pop\n        /* \"contract/SupplyChain.sol\":1733:1740  _status */\n      dup2\n        /* \"contract/SupplyChain.sol\":1710:1718  products */\n      0x00\n        /* \"contract/SupplyChain.sol\":1710:1723  products[_id] */\n      dup1\n        /* \"contract/SupplyChain.sol\":1719:1722  _id */\n      dup7\n        /* \"contract/SupplyChain.sol\":1710:1723  products[_id] */\n      dup2\n      mstore\n      0x20\n      add\n      swap1\n      dup2\n      mstore\n      0x20\n      add\n      0x00\n      keccak256\n        /* \"contract/SupplyChain.sol\":1710:1730  products[_id].status */\n      0x04\n      add\n        /* \"contract/SupplyChain.sol\":1710:1740  products[_id].status = _status */\n      swap1\n      dup2\n      tag_45\n      swap2\n      swap1\n      tag_44\n      jump\t// in\n    tag_45:\n      pop\n        /* \"contract/SupplyChain.sol\":1751:1765  productHistory */\n      0x01\n        /* \"contract/SupplyChain.sol\":1751:1770  productHistory[_id] */\n      0x00\n        /* \"contract/SupplyChain.sol\":1766:1769  _id */\n      dup6\n        /* \"contract/SupplyChain.sol\":1751:1770  productHistory[_id] */\n      dup2\n      mstore\n      0x20\n      add\n      swap1\n      dup2\n      mstore\n      0x20\n      add\n      0x00\n      keccak256\n        /* \"contract/SupplyChain.sol\":1789:1972  TrackingUpdate({... */\n      mload(0x40)\n      dup1\n      0x80\n      add\n      0x40\n      mstore\n      dup1\n        /* \"contract/SupplyChain.sol\":1832:1841  _location */\n      dup6\n        /* \"contract/SupplyChain.sol\":1789:1972  TrackingUpdate({... */\n      dup2\n      mstore\n      0x20\n      add\n        /* \"contract/SupplyChain.sol\":1867:1874  _status */\n      dup5\n        /* \"contract/SupplyChain.sol\":1789:1972  TrackingUpdate({... */\n      dup2\n      mstore\n      0x20\n      add\n        /* \"contract/SupplyChain.sol\":1903:1913  msg.sender */\n      caller\n        /* \"contract/SupplyChain.sol\":1789:1972  TrackingUpdate({... */\n      0xffffffffffffffffffffffffffffffffffffffff\n      and\n      dup2\n      mstore\n      0x20\n      add\n        /* \"contract/SupplyChain.sol\":1942:1957  block.timestamp */\n      timestamp\n        /* \"contract/SupplyChain.sol\":1789:1972  TrackingUpdate({... */\n      dup2\n      mstore\n      pop\n        /* \"contract/SupplyChain.sol\":1751:1982  productHistory[_id].push(... */\n      swap1\n      dup1\n      0x01\n      dup2\n      sload\n      add\n      dup1\n      dup3\n      sstore\n      dup1\n      swap2\n      pop\n      pop\n      0x01\n      swap1\n      sub\n      swap1\n      0x00\n      mstore\n      keccak256(0x00, 0x20)\n      swap1\n      0x04\n      mul\n      add\n      0x00\n      swap1\n      swap2\n      swap1\n      swap2\n      swap1\n      swap2\n      pop\n      0x00\n      dup3\n      add\n      mload\n      dup2\n      0x00\n      add\n      swap1\n      dup2\n      tag_47\n      swap2\n      swap1\n      tag_44\n      jump\t// in\n    tag_47:\n      pop\n      0x20\n      dup3\n      add\n      mload\n      dup2\n      0x01\n      add\n      swap1\n      dup2\n      tag_48\n      swap2\n      swap1\n      tag_44\n      jump\t// in\n    tag_48:\n      pop\n      0x40\n      dup3\n      add\n      mload\n      dup2\n      0x02\n      add\n      exp(0x0100, 0x00)\n      dup2\n      sload\n      dup2\n      0xffffffffffffffffffffffffffffffffffffffff\n      mul\n      not\n      and\n      swap1\n      dup4\n      0xffffffffffffffffffffffffffffffffffffffff\n      and\n      mul\n      or\n      swap1\n      sstore\n      pop\n      0x60\n      dup3\n      add\n      mload\n      dup2\n      0x03\n      add\n      sstore\n      pop\n      pop\n        /* \"contract/SupplyChain.sol\":1998:2037  ProductUpdated(_id, _location, _status) */\n      0x7271245d4c0e6ecb7b215a1e937a2779d1aeb51318c042c9b05d0a446a588009\n        /* \"contract/SupplyChain.sol\":2013:2016  _id */\n      dup5\n        /* \"contract/SupplyChain.sol\":2018:2027  _location */\n      dup5\n        /* \"contract/SupplyChain.sol\":2029:2036  _status */\n      dup5\n        /* \"contract/SupplyChain.sol\":1998:2037  ProductUpdated(_id, _location, _status) */\n      mload(0x40)\n      tag_49\n      swap4\n      swap3\n      swap2\n      swap1\n      tag_50\n      jump\t// in\n    tag_49:\n      mload(0x40)\n      dup1\n      swap2\n      sub\n      swap1\n      log1\n        /* \"contract/SupplyChain.sol\":1508:2044  function updateProduct(... */\n      pop\n      pop\n      pop\n      pop\n      jump\t// out\n        /* \"contract/SupplyChain.sol\":2774:3351  function getProductHistoryItem(uint256 _id, uint256 _index)... */\n    tag_16:\n        /* \"contract/SupplyChain.sol\":2919:2941  string memory location */\n      0x60\n        /* \"contract/SupplyChain.sol\":2955:2975  string memory status */\n      dup1\n        /* \"contract/SupplyChain.sol\":2989:3006  address updatedBy */\n      0x00\n        /* \"contract/SupplyChain.sol\":3020:3037  uint256 timestamp */\n      dup1\n        /* \"contract/SupplyChain.sol\":2884:2887  _id */\n      dup6\n        /* \"contract/SupplyChain.sol\":692:700  products */\n      0x00\n        /* \"contract/SupplyChain.sol\":692:705  products[_id] */\n      dup1\n        /* \"contract/SupplyChain.sol\":701:704  _id */\n      dup3\n        /* \"contract/SupplyChain.sol\":692:705  products[_id] */\n      dup2\n      mstore\n      0x20\n      add\n      swap1\n      dup2\n      mstore\n      0x20\n      add\n      0x00\n      keccak256\n        /* \"contract/SupplyChain.sol\":692:712  products[_id].exists */\n      0x06\n      add\n      0x00\n      swap1\n      sload\n      swap1\n      0x0100\n      exp\n      swap1\n      div\n      0xff\n      and\n        /* \"contract/SupplyChain.sol\":684:739  require(products[_id].exists, \"Product does not exist\") */\n      tag_52\n      jumpi\n      mload(0x40)\n      0x08c379a000000000000000000000000000000000000000000000000000000000\n      dup2\n      mstore\n      0x04\n      add\n      tag_53\n      swap1\n      tag_41\n      jump\t// in\n    tag_53:\n      mload(0x40)\n      dup1\n      swap2\n      sub\n      swap1\n      revert\n    tag_52:\n        /* \"contract/SupplyChain.sol\":3079:3093  productHistory */\n      0x01\n        /* \"contract/SupplyChain.sol\":3079:3098  productHistory[_id] */\n      0x00\n        /* \"contract/SupplyChain.sol\":3094:3097  _id */\n      dup9\n        /* \"contract/SupplyChain.sol\":3079:3098  productHistory[_id] */\n      dup2\n      mstore\n      0x20\n      add\n      swap1\n      dup2\n      mstore\n      0x20\n      add\n      0x00\n      keccak256\n        /* \"contract/SupplyChain.sol\":3079:3105  productHistory[_id].length */\n      dup1\n      sload\n      swap1\n      pop\n        /* \"contract/SupplyChain.sol\":3070:3076  _index */\n      dup7\n        /* \"contract/SupplyChain.sol\":3070:3105  _index < productHistory[_id].length */\n      lt\n        /* \"contract/SupplyChain.sol\":3062:3131  require(_index < productHistory[_id].length, \"Invalid history index\") */\n      tag_55\n      jumpi\n      mload(0x40)\n      0x08c379a000000000000000000000000000000000000000000000000000000000\n      dup2\n      mstore\n      0x04\n      add\n      tag_56\n      swap1\n      tag_57\n      jump\t// in\n    tag_56:\n      mload(0x40)\n      dup1\n      swap2\n      sub\n      swap1\n      revert\n    tag_55:\n        /* \"contract/SupplyChain.sol\":3142:3170  TrackingUpdate memory update */\n      0x00\n        /* \"contract/SupplyChain.sol\":3173:3187  productHistory */\n      0x01\n        /* \"contract/SupplyChain.sol\":3173:3192  productHistory[_id] */\n      0x00\n        /* \"contract/SupplyChain.sol\":3188:3191  _id */\n      dup10\n        /* \"contract/SupplyChain.sol\":3173:3192  productHistory[_id] */\n      dup2\n      mstore\n      0x20\n      add\n      swap1\n      dup2\n      mstore\n      0x20\n      add\n      0x00\n      keccak256\n        /* \"contract/SupplyChain.sol\":3193:3199  _index */\n      dup8\n        /* \"contract/SupplyChain.sol\":3173:3200  productHistory[_id][_index] */\n      dup2\n      sload\n      dup2\n      lt\n      tag_58\n      jumpi\n      tag_59\n      tag_60\n      jump\t// in\n    tag_59:\n    tag_58:\n      swap1\n      0x00\n      mstore\n      keccak256(0x00, 0x20)\n      swap1\n      0x04\n      mul\n      add\n        /* \"contract/SupplyChain.sol\":3142:3200  TrackingUpdate memory update = productHistory[_id][_index] */\n      mload(0x40)\n      dup1\n      0x80\n      add\n      0x40\n      mstore\n      swap1\n      dup2\n      0x00\n      dup3\n      add\n      dup1\n      sload\n      tag_62\n      swap1\n      tag_63\n      jump\t// in\n    tag_62:\n      dup1\n      0x1f\n      add\n      0x20\n      dup1\n      swap2\n      div\n      mul\n      0x20\n      add\n      mload(0x40)\n      swap1\n      dup2\n      add\n      0x40\n      mstore\n      dup1\n      swap3\n      swap2\n      swap1\n      dup2\n      dup2\n      mstore\n      0x20\n      add\n      dup3\n      dup1\n      sload\n      tag_64\n      swap1\n      tag_63\n      jump\t// in\n    tag_64:\n      dup1\n      iszero\n      tag_65\n      jumpi\n      dup1\n      0x1f\n      lt\n      tag_66\n      jumpi\n      0x0100\n      dup1\n      dup4\n      sload\n      div\n      mul\n      dup4\n      mstore\n      swap2\n      0x20\n      add\n      swap2\n      jump(tag_65)\n    tag_66:\n      dup3\n      add\n      swap2\n      swap1\n      0x00\n      mstore\n      keccak256(0x00, 0x20)\n      swap1\n    tag_67:\n      dup2\n      sload\n      dup2\n      mstore\n      swap1\n      0x01\n      add\n      swap1\n      0x20\n      add\n      dup1\n      dup4\n      gt\n      tag_67\n      jumpi\n      dup3\n      swap1\n      sub\n      0x1f\n      and\n      dup3\n      add\n      swap2\n    tag_65:\n      pop\n      pop\n      pop\n      pop\n      pop\n      dup2\n      mstore\n      0x20\n      add\n      0x01\n      dup3\n      add\n      dup1\n      sload\n      tag_68\n      swap1\n      tag_63\n      jump\t// in\n    tag_68:\n      dup1\n      0x1f\n      add\n      0x20\n      dup1\n      swap2\n      div\n      mul\n      0x20\n      add\n      mload(0x40)\n      swap1\n      dup2\n      add\n      0x40\n      mstore\n      dup1\n      swap3\n      swap2\n      swap1\n      dup2\n      dup2\n      mstore\n      0x20\n      add\n      dup3\n      dup1\n      sload\n      tag_69\n      swap1\n      tag_63\n      jump\t// in\n    tag_69:\n      dup1\n      iszero\n      tag_70\n      jumpi\n      dup1\n      0x1f\n      lt\n      tag_71\n      jumpi\n      0x0100\n      dup1\n      dup4\n      sload\n      div\n      mul\n      dup4\n      mstore\n      swap2\n      0x20\n      add\n      swap2\n      jump(tag_70)\n    tag_71:\n      dup3\n      add\n      swap2\n      swap1\n      0x00\n      mstore\n      keccak256(0x00, 0x20)\n      swap1\n    tag_72:\n      dup2\n      sload\n      dup2\n      mstore\n      swap1\n      0x01\n      add\n      swap1\n      0x20\n      add\n      dup1\n      dup4\n      gt\n      tag_72\n      jumpi\n      dup3\n      swap1\n      sub\n      0x1f\n      and\n      dup3\n      add\n      swap2\n    tag_70:\n      pop\n      pop\n      pop\n      pop\n      pop\n      dup2\n      mstore\n      0x20\n      add\n      0x02\n      dup3\n      add\n      0x00\n      swap1\n      sload\n      swap1\n      0x0100\n      exp\n      swap1\n      div\n      0xffffffffffffffffffffffffffffffffffffffff\n      and\n      0xffffffffffffffffffffffffffffffffffffffff\n      and\n      0xffffffffffffffffffffffffffffffffffffffff\n      and\n      dup2\n      mstore\n      0x20\n      add\n      0x03\n      dup3\n      add\n      sload\n      dup2\n      mstore\n      pop\n      pop\n      swap1\n      pop\n        /* \"contract/SupplyChain.sol\":3232:3238  update */\n      dup1\n        /* \"contract/SupplyChain.sol\":3232:3247  update.location */\n      0x00\n      add\n      mload\n        /* \"contract/SupplyChain.sol\":3261:3267  update */\n      dup2\n        /* \"contract/SupplyChain.sol\":3261:3274  update.status */\n      0x20\n      add\n      mload\n        /* \"contract/SupplyChain.sol\":3288:3294  update */\n      dup3\n        /* \"contract/SupplyChain.sol\":3288:3304  update.updatedBy */\n      0x40\n      add\n      mload\n        /* \"contract/SupplyChain.sol\":3318:3324  update */\n      dup4\n        /* \"contract/SupplyChain.sol\":3318:3334  update.timestamp */\n      0x60\n      add\n      mload\n        /* \"contract/SupplyChain.sol\":3211:3344  return (... */\n      swap6\n      pop\n      swap6\n      pop\n      swap6\n      pop\n      swap6\n      pop\n      pop\n        /* \"contract/SupplyChain.sol\":2774:3351  function getProductHistoryItem(uint256 _id, uint256 _index)... */\n      pop\n      swap3\n      swap6\n      swap2\n      swap5\n      pop\n      swap3\n      pop\n      jump\t// out\n        /* \"contract/SupplyChain.sol\":2588:2768  function getProductHistoryCount(uint256 _id)... */\n    tag_22:\n        /* \"contract/SupplyChain.sol\":2705:2712  uint256 */\n      0x00\n        /* \"contract/SupplyChain.sol\":2683:2686  _id */\n      dup2\n        /* \"contract/SupplyChain.sol\":692:700  products */\n      0x00\n        /* \"contract/SupplyChain.sol\":692:705  products[_id] */\n      dup1\n        /* \"contract/SupplyChain.sol\":701:704  _id */\n      dup3\n        /* \"contract/SupplyChain.sol\":692:705  products[_id] */\n      dup2\n      mstore\n      0x20\n      add\n      swap1\n      dup2\n      mstore\n      0x20\n      add\n      0x00\n      keccak256\n        /* \"contract/SupplyChain.sol\":692:712  products[_id].exists */\n      0x06\n      add\n      0x00\n      swap1\n      sload\n      swap1\n      0x0100\n      exp\n      swap1\n      div\n      0xff\n      and\n        /* \"contract/SupplyChain.sol\":684:739  require(products[_id].exists, \"Product does not exist\") */\n      tag_74\n      jumpi\n      mload(0x40)\n      0x08c379a000000000000000000000000000000000000000000000000000000000\n      dup2\n      mstore\n      0x04\n      add\n      tag_75\n      swap1\n      tag_41\n      jump\t// in\n    tag_75:\n      mload(0x40)\n      dup1\n      swap2\n      sub\n      swap1\n      revert\n    tag_74:\n        /* \"contract/SupplyChain.sol\":2735:2749  productHistory */\n      0x01\n        /* \"contract/SupplyChain.sol\":2735:2754  productHistory[_id] */\n      0x00\n        /* \"contract/SupplyChain.sol\":2750:2753  _id */\n      dup5\n        /* \"contract/SupplyChain.sol\":2735:2754  productHistory[_id] */\n      dup2\n      mstore\n      0x20\n      add\n      swap1\n      dup2\n      mstore\n      0x20\n      add\n      0x00\n      keccak256\n        /* \"contract/SupplyChain.sol\":2735:2761  productHistory[_id].length */\n      dup1\n      sload\n      swap1\n      pop\n        /* \"contract/SupplyChain.sol\":2728:2761  return productHistory[_id].length */\n      swap2\n      pop\n        /* \"contract/SupplyChain.sol\":2588:2768  function getProductHistoryCount(uint256 _id)... */\n      pop\n      swap2\n      swap1\n      pop\n      jump\t// out\n        /* \"contract/SupplyChain.sol\":763:1502  function createProduct(... */\n    tag_27:\n        /* \"contract/SupplyChain.sol\":899:907  products */\n      0x00\n        /* \"contract/SupplyChain.sol\":899:912  products[_id] */\n      dup1\n        /* \"contract/SupplyChain.sol\":908:911  _id */\n      dup5\n        /* \"contract/SupplyChain.sol\":899:912  products[_id] */\n      dup2\n      mstore\n      0x20\n      add\n      swap1\n      dup2\n      mstore\n      0x20\n      add\n      0x00\n      keccak256\n        /* \"contract/SupplyChain.sol\":899:919  products[_id].exists */\n      0x06\n      add\n      0x00\n      swap1\n      sload\n      swap1\n      0x0100\n      exp\n      swap1\n      div\n      0xff\n      and\n        /* \"contract/SupplyChain.sol\":898:919  !products[_id].exists */\n      iszero\n        /* \"contract/SupplyChain.sol\":890:946  require(!products[_id].exists, \"Product already exists\") */\n      tag_78\n      jumpi\n      mload(0x40)\n      0x08c379a000000000000000000000000000000000000000000000000000000000\n      dup2\n      mstore\n      0x04\n      add\n      tag_79\n      swap1\n      tag_80\n      jump\t// in\n    tag_79:\n      mload(0x40)\n      dup1\n      swap2\n      sub\n      swap1\n      revert\n    tag_78:\n        /* \"contract/SupplyChain.sol\":973:1202  Product({... */\n      mload(0x40)\n      dup1\n      0xe0\n      add\n      0x40\n      mstore\n      dup1\n        /* \"contract/SupplyChain.sol\":999:1002  _id */\n      dup5\n        /* \"contract/SupplyChain.sol\":973:1202  Product({... */\n      dup2\n      mstore\n      0x20\n      add\n        /* \"contract/SupplyChain.sol\":1022:1027  _name */\n      dup4\n        /* \"contract/SupplyChain.sol\":973:1202  Product({... */\n      dup2\n      mstore\n      0x20\n      add\n        /* \"contract/SupplyChain.sol\":1049:1056  _origin */\n      dup3\n        /* \"contract/SupplyChain.sol\":973:1202  Product({... */\n      dup2\n      mstore\n      0x20\n      add\n        /* \"contract/SupplyChain.sol\":1087:1094  _origin */\n      dup3\n        /* \"contract/SupplyChain.sol\":973:1202  Product({... */\n      dup2\n      mstore\n      0x20\n      add\n      mload(0x40)\n      dup1\n      0x40\n      add\n      0x40\n      mstore\n      dup1\n      0x07\n      dup2\n      mstore\n      0x20\n      add\n      0x4372656174656400000000000000000000000000000000000000000000000000\n      dup2\n      mstore\n      pop\n      dup2\n      mstore\n      0x20\n      add\n        /* \"contract/SupplyChain.sol\":1150:1165  block.timestamp */\n      timestamp\n        /* \"contract/SupplyChain.sol\":973:1202  Product({... */\n      dup2\n      mstore\n      0x20\n      add\n        /* \"contract/SupplyChain.sol\":1187:1191  true */\n      0x01\n        /* \"contract/SupplyChain.sol\":973:1202  Product({... */\n      iszero\n      iszero\n      dup2\n      mstore\n      pop\n        /* \"contract/SupplyChain.sol\":957:965  products */\n      0x00\n        /* \"contract/SupplyChain.sol\":957:970  products[_id] */\n      dup1\n        /* \"contract/SupplyChain.sol\":966:969  _id */\n      dup6\n        /* \"contract/SupplyChain.sol\":957:970  products[_id] */\n      dup2\n      mstore\n      0x20\n      add\n      swap1\n      dup2\n      mstore\n      0x20\n      add\n      0x00\n      keccak256\n        /* \"contract/SupplyChain.sol\":957:1202  products[_id] = Product({... */\n      0x00\n      dup3\n      add\n      mload\n      dup2\n      0x00\n      add\n      sstore\n      0x20\n      dup3\n      add\n      mload\n      dup2\n      0x01\n      add\n      swap1\n      dup2\n      tag_81\n      swap2\n      swap1\n      tag_44\n      jump\t// in\n    tag_81:\n      pop\n      0x40\n      dup3\n      add\n      mload\n      dup2\n      0x02\n      add\n      swap1\n      dup2\n      tag_82\n      swap2\n      swap1\n      tag_44\n      jump\t// in\n    tag_82:\n      pop\n      0x60\n      dup3\n      add\n      mload\n      dup2\n      0x03\n      add\n      swap1\n      dup2\n      tag_83\n      swap2\n      swap1\n      tag_44\n      jump\t// in\n    tag_83:\n      pop\n      0x80\n      dup3\n      add\n      mload\n      dup2\n      0x04\n      add\n      swap1\n      dup2\n      tag_84\n      swap2\n      swap1\n      tag_44\n      jump\t// in\n    tag_84:\n      pop\n      0xa0\n      dup3\n      add\n      mload\n      dup2\n      0x05\n      add\n      sstore\n      0xc0\n      dup3\n      add\n      mload\n      dup2\n      0x06\n      add\n      exp(0x0100, 0x00)\n      dup2\n      sload\n      dup2\n      0xff\n      mul\n      not\n      and\n      swap1\n      dup4\n      iszero\n      iszero\n      mul\n      or\n      swap1\n      sstore\n      pop\n      swap1\n      pop\n      pop\n        /* \"contract/SupplyChain.sol\":1213:1227  productHistory */\n      0x01\n        /* \"contract/SupplyChain.sol\":1213:1232  productHistory[_id] */\n      0x00\n        /* \"contract/SupplyChain.sol\":1228:1231  _id */\n      dup5\n        /* \"contract/SupplyChain.sol\":1213:1232  productHistory[_id] */\n      dup2\n      mstore\n      0x20\n      add\n      swap1\n      dup2\n      mstore\n      0x20\n      add\n      0x00\n      keccak256\n        /* \"contract/SupplyChain.sol\":1251:1434  TrackingUpdate({... */\n      mload(0x40)\n      dup1\n      0x80\n      add\n      0x40\n      mstore\n      dup1\n        /* \"contract/SupplyChain.sol\":1294:1301  _origin */\n      dup4\n        /* \"contract/SupplyChain.sol\":1251:1434  TrackingUpdate({... */\n      dup2\n      mstore\n      0x20\n      add\n      mload(0x40)\n      dup1\n      0x40\n      add\n      0x40\n      mstore\n      dup1\n      0x07\n      dup2\n      mstore\n      0x20\n      add\n      0x4372656174656400000000000000000000000000000000000000000000000000\n      dup2\n      mstore\n      pop\n      dup2\n      mstore\n      0x20\n      add\n        /* \"contract/SupplyChain.sol\":1365:1375  msg.sender */\n      caller\n        /* \"contract/SupplyChain.sol\":1251:1434  TrackingUpdate({... */\n      0xffffffffffffffffffffffffffffffffffffffff\n      and\n      dup2\n      mstore\n      0x20\n      add\n        /* \"contract/SupplyChain.sol\":1404:1419  block.timestamp */\n      timestamp\n        /* \"contract/SupplyChain.sol\":1251:1434  TrackingUpdate({... */\n      dup2\n      mstore\n      pop\n        /* \"contract/SupplyChain.sol\":1213:1444  productHistory[_id].push(... */\n      swap1\n      dup1\n      0x01\n      dup2\n      sload\n      add\n      dup1\n      dup3\n      sstore\n      dup1\n      swap2\n      pop\n      pop\n      0x01\n      swap1\n      sub\n      swap1\n      0x00\n      mstore\n      keccak256(0x00, 0x20)\n      swap1\n      0x04\n      mul\n      add\n      0x00\n      swap1\n      swap2\n      swap1\n      swap2\n      swap1\n      swap2\n      pop\n      0x00\n      dup3\n      add\n      mload\n      dup2\n      0x00\n      add\n      swap1\n      dup2\n      tag_86\n      swap2\n      swap1\n      tag_44\n      jump\t// in\n    tag_86:\n      pop\n      0x20\n      dup3\n      add\n      mload\n      dup2\n      0x01\n      add\n      swap1\n      dup2\n      tag_87\n      swap2\n      swap1\n      tag_44\n      jump\t// in\n    tag_87:\n      pop\n      0x40\n      dup3\n      add\n      mload\n      dup2\n      0x02\n      add\n      exp(0x0100, 0x00)\n      dup2\n      sload\n      dup2\n      0xffffffffffffffffffffffffffffffffffffffff\n      mul\n      not\n      and\n      swap1\n      dup4\n      0xffffffffffffffffffffffffffffffffffffffff\n      and\n      mul\n      or\n      swap1\n      sstore\n      pop\n      0x60\n      dup3\n      add\n      mload\n      dup2\n      0x03\n      add\n      sstore\n      pop\n      pop\n        /* \"contract/SupplyChain.sol\":1460:1495  ProductCreated(_id, _name, _origin) */\n      0x2bc22403ccd085646fd0acc393542b3ca6d3f180f4fde70629d5087364decbb5\n        /* \"contract/SupplyChain.sol\":1475:1478  _id */\n      dup4\n        /* \"contract/SupplyChain.sol\":1480:1485  _name */\n      dup4\n        /* \"contract/SupplyChain.sol\":1487:1494  _origin */\n      dup4\n        /* \"contract/SupplyChain.sol\":1460:1495  ProductCreated(_id, _name, _origin) */\n      mload(0x40)\n      tag_88\n      swap4\n      swap3\n      swap2\n      swap1\n      tag_50\n      jump\t// in\n    tag_88:\n      mload(0x40)\n      dup1\n      swap2\n      sub\n      swap1\n      log1\n        /* \"contract/SupplyChain.sol\":763:1502  function createProduct(... */\n      pop\n      pop\n      pop\n      jump\t// out\n        /* \"contract/SupplyChain.sol\":386:429  mapping(uint256 => Product) public products */\n    tag_30:\n      mstore(0x20, 0x00)\n      dup1\n      0x00\n      mstore\n      keccak256(0x00, 0x40)\n      0x00\n      swap2\n      pop\n      swap1\n      pop\n      dup1\n      0x00\n      add\n      sload\n      swap1\n      dup1\n      0x01\n      add\n      dup1\n      sload\n      tag_89\n      swap1\n      tag_63\n      jump\t// in\n    tag_89:\n      dup1\n      0x1f\n      add\n      0x20\n      dup1\n      swap2\n      div\n      mul\n      0x20\n      add\n      mload(0x40)\n      swap1\n      dup2\n      add\n      0x40\n      mstore\n      dup1\n      swap3\n      swap2\n      swap1\n      dup2\n      dup2\n      mstore\n      0x20\n      add\n      dup3\n      dup1\n      sload\n      tag_90\n      swap1\n      tag_63\n      jump\t// in\n    tag_90:\n      dup1\n      iszero\n      tag_91\n      jumpi\n      dup1\n      0x1f\n      lt\n      tag_92\n      jumpi\n      0x0100\n      dup1\n      dup4\n      sload\n      div\n      mul\n      dup4\n      mstore\n      swap2\n      0x20\n      add\n      swap2\n      jump(tag_91)\n    tag_92:\n      dup3\n      add\n      swap2\n      swap1\n      0x00\n      mstore\n      keccak256(0x00, 0x20)\n      swap1\n    tag_93:\n      dup2\n      sload\n      dup2\n      mstore\n      swap1\n      0x01\n      add\n      swap1\n      0x20\n      add\n      dup1\n      dup4\n      gt\n      tag_93\n      jumpi\n      dup3\n      swap1\n      sub\n      0x1f\n      and\n      dup3\n      add\n      swap2\n    tag_91:\n      pop\n      pop\n      pop\n      pop\n      pop\n      swap1\n      dup1\n      0x02\n      add\n      dup1\n      sload\n      tag_94\n      swap1\n      tag_63\n      jump\t// in\n    tag_94:\n      dup1\n      0x1f\n      add\n      0x20\n      dup1\n      swap2\n      div\n      mul\n      0x20\n      add\n      mload(0x40)\n      swap1\n      dup2\n      add\n      0x40\n      mstore\n      dup1\n      swap3\n      swap2\n      swap1\n      dup2\n      dup2\n      mstore\n      0x20\n      add\n      dup3\n      dup1\n      sload\n      tag_95\n      swap1\n      tag_63\n      jump\t// in\n    tag_95:\n      dup1\n      iszero\n      tag_96\n      jumpi\n      dup1\n      0x1f\n      lt\n      tag_97\n      jumpi\n      0x0100\n      dup1\n      dup4\n      sload\n      div\n      mul\n      dup4\n      mstore\n      swap2\n      0x20\n      add\n      swap2\n      jump(tag_96)\n    tag_97:\n      dup3\n      add\n      swap2\n      swap1\n      0x00\n      mstore\n      keccak256(0x00, 0x20)\n      swap1\n    tag_98:\n      dup2\n      sload\n      dup2\n      mstore\n      swap1\n      0x01\n      add\n      swap1\n      0x20\n      add\n      dup1\n      dup4\n      gt\n      tag_98\n      jumpi\n      dup3\n      swap1\n      sub\n      0x1f\n      and\n      dup3\n      add\n      swap2\n    tag_96:\n      pop\n      pop\n      pop\n      pop\n      pop\n      swap1\n      dup1\n      0x03\n      add\n      dup1\n      sload\n      tag_99\n      swap1\n      tag_63\n      jump\t// in\n    tag_99:\n      dup1\n      0x1f\n      add\n      0x20\n      dup1\n      swap2\n      div\n      mul\n      0x20\n      add\n      mload(0x40)\n      swap1\n      dup2\n      add\n      0x40\n      mstore\n      dup1\n      swap3\n      swap2\n      swap1\n      dup2\n      dup2\n      mstore\n      0x20\n      add\n      dup3\n      dup1\n      sload\n      tag_100\n      swap1\n      tag_63\n      jump\t// in\n    tag_100:\n      dup1\n      iszero\n      tag_101\n      jumpi\n      dup1\n      0x1f\n      lt\n      tag_102\n      jumpi\n      0x0100\n      dup1\n      dup4\n      sload\n      div\n      mul\n      dup4\n      mstore\n      swap2\n      0x20\n      add\n      swap2\n      jump(tag_101)\n    tag_102:\n      dup3\n      add\n      swap2\n      swap1\n      0x00\n      mstore\n      keccak256(0x00, 0x20)\n      swap1\n    tag_103:\n      dup2\n      sload\n      dup2\n      mstore\n      swap1\n      0x01\n      add\n      swap1\n      0x20\n      add\n      dup1\n      dup4\n      gt\n      tag_103\n      jumpi\n      dup3\n      swap1\n      sub\n      0x1f\n      and\n      dup3\n      add\n      swap2\n    tag_101:\n      pop\n      pop\n      pop\n      pop\n      pop\n      swap1\n      dup1\n      0x04\n      add\n      dup1\n      sload\n      tag_104\n      swap1\n      tag_63\n      jump\t// in\n    tag_104:\n      dup1\n      0x1f\n      add\n      0x20\n      dup1\n      swap2\n      div\n      mul\n      0x20\n      add\n      mload(0x40)\n      swap1\n      dup2\n      add\n      0x40\n      mstore\n      dup1\n      swap3\n      swap2\n      swap1\n      dup2\n      dup2\n      mstore\n      0x20\n      add\n      dup3\n      dup1\n      sload\n      tag_105\n      swap1\n      tag_63\n      jump\t// in\n    tag_105:\n      dup1\n      iszero\n      tag_106\n      jumpi\n      dup1\n      0x1f\n      lt\n      tag_107\n      jumpi\n      0x0100\n      dup1\n      dup4\n      sload\n      div\n      mul\n      dup4\n      mstore\n      swap2\n      0x20\n      add\n      swap2\n      jump(tag_106)\n    tag_107:\n      dup3\n      add\n      swap2\n      swap1\n      0x00\n      mstore\n      keccak256(0x00, 0x20)\n      swap1\n    tag_108:\n      dup2\n      sload\n      dup2\n      mstore\n      swap1\n      0x01\n      add\n      swap1\n      0x20\n      add\n      dup1\n      dup4\n      gt\n      tag_108\n      jumpi\n      dup3\n      swap1\n      sub\n      0x1f\n      and\n      dup3\n      add\n      swap2\n    tag_106:\n      pop\n      pop\n      pop\n      pop\n      pop\n      swap1\n      dup1\n      0x05\n      add\n      sload\n      swap1\n      dup1\n      0x06\n      add\n      0x00\n      swap1\n      sload\n      swap1\n      0x0100\n      exp\n      swap1\n      div\n      0xff\n      and\n      swap1\n      pop\n      dup8\n      jump\t// out\n        /* \"contract/SupplyChain.sol\":2050:2582  function getProduct(uint256 _id)... */\n    tag_35:\n        /* \"contract/SupplyChain.sol\":2168:2178  uint256 id */\n      0x00\n        /* \"contract/SupplyChain.sol\":2192:2210  string memory name */\n      0x60\n        /* \"contract/SupplyChain.sol\":2224:2244  string memory origin */\n      dup1\n        /* \"contract/SupplyChain.sol\":2258:2287  string memory currentLocation */\n      0x60\n        /* \"contract/SupplyChain.sol\":2301:2321  string memory status */\n      dup1\n        /* \"contract/SupplyChain.sol\":2335:2352  uint256 createdAt */\n      0x00\n        /* \"contract/SupplyChain.sol\":2133:2136  _id */\n      dup7\n        /* \"contract/SupplyChain.sol\":692:700  products */\n      0x00\n        /* \"contract/SupplyChain.sol\":692:705  products[_id] */\n      dup1\n        /* \"contract/SupplyChain.sol\":701:704  _id */\n      dup3\n        /* \"contract/SupplyChain.sol\":692:705  products[_id] */\n      dup2\n      mstore\n      0x20\n      add\n      swap1\n      dup2\n      mstore\n      0x20\n      add\n      0x00\n      keccak256\n        /* \"contract/SupplyChain.sol\":692:712  products[_id].exists */\n      0x06\n      add\n      0x00\n      swap1\n      sload\n      swap1\n      0x0100\n      exp\n      swap1\n      div\n      0xff\n      and\n        /* \"contract/SupplyChain.sol\":684:739  require(products[_id].exists, \"Product does not exist\") */\n      tag_110\n      jumpi\n      mload(0x40)\n      0x08c379a000000000000000000000000000000000000000000000000000000000\n      dup2\n      mstore\n      0x04\n      add\n      tag_111\n      swap1\n      tag_41\n      jump\t// in\n    tag_111:\n      mload(0x40)\n      dup1\n      swap2\n      sub\n      swap1\n      revert\n    tag_110:\n        /* \"contract/SupplyChain.sol\":2377:2393  Product memory p */\n      0x00\n        /* \"contract/SupplyChain.sol\":2396:2404  products */\n      dup1\n        /* \"contract/SupplyChain.sol\":2396:2409  products[_id] */\n      0x00\n        /* \"contract/SupplyChain.sol\":2405:2408  _id */\n      dup11\n        /* \"contract/SupplyChain.sol\":2396:2409  products[_id] */\n      dup2\n      mstore\n      0x20\n      add\n      swap1\n      dup2\n      mstore\n      0x20\n      add\n      0x00\n      keccak256\n        /* \"contract/SupplyChain.sol\":2377:2409  Product memory p = products[_id] */\n      mload(0x40)\n      dup1\n      0xe0\n      add\n      0x40\n      mstore\n      swap1\n      dup2\n      0x00\n      dup3\n      add\n      sload\n      dup2\n      mstore\n      0x20\n      add\n      0x01\n      dup3\n      add\n      dup1\n      sload\n      tag_113\n      swap1\n      tag_63\n      jump\t// in\n    tag_113:\n      dup1\n      0x1f\n      add\n      0x20\n      dup1\n      swap2\n      div\n      mul\n      0x20\n      add\n      mload(0x40)\n      swap1\n      dup2\n      add\n      0x40\n      mstore\n      dup1\n      swap3\n      swap2\n      swap1\n      dup2\n      dup2\n      mstore\n      0x20\n      add\n      dup3\n      dup1\n      sload\n      tag_114\n      swap1\n      tag_63\n      jump\t// in\n    tag_114:\n      dup1\n      iszero\n      tag_115\n      jumpi\n      dup1\n      0x1f\n      lt\n      tag_116\n      jumpi\n      0x0100\n      dup1\n      dup4\n      sload\n      div\n      mul\n      dup4\n      mstore\n      swap2\n      0x20\n      add\n      swap2\n      jump(tag_115)\n    tag_116:\n      dup3\n      add\n      swap2\n      swap1\n      0x00\n      mstore\n      keccak256(0x00, 0x20)\n      swap1\n    tag_117:\n      dup2\n      sload\n      dup2\n      mstore\n      swap1\n      0x01\n      add\n      swap1\n      0x20\n      add\n      dup1\n      dup4\n      gt\n      tag_117\n      jumpi\n      dup3\n      swap1\n      sub\n      0x1f\n      and\n      dup3\n      add\n      swap2\n    tag_115:\n      pop\n      pop\n      pop\n      pop\n      pop\n      dup2\n      mstore\n      0x20\n      add\n      0x02\n      dup3\n      add\n      dup1\n      sload\n      tag_118\n      swap1\n      tag_63\n      jump\t// in\n    tag_118:\n      dup1\n      0x1f\n      add\n      0x20\n      dup1\n      swap2\n      div\n      mul\n      0x20\n      add\n      mload(0x40)\n      swap1\n      dup2\n      add\n      0x40\n      mstore\n      dup1\n      swap3\n      swap2\n      swap1\n      dup2\n      dup2\n      mstore\n      0x20\n      add\n      dup3\n      dup1\n      sload\n      tag_119\n      swap1\n      tag_63\n      jump\t// in\n    tag_119:\n      dup1\n      iszero\n      tag_120\n      jumpi\n      dup1\n      0x1f\n      lt\n      tag_121\n      jumpi\n      0x0100\n      dup1\n      dup4\n      sload\n      div\n      mul\n      dup4\n      mstore\n      swap2\n      0x20\n      add\n      swap2\n      jump(tag_120)\n    tag_121:\n      dup3\n      add\n      swap2\n      swap1\n      0x00\n      mstore\n      keccak256(0x00, 0x20)\n      swap1\n    tag_122:\n      dup2\n      sload\n      dup2\n      mstore\n      swap1\n      0x01\n      add\n      swap1\n      0x20\n      add\n      dup1\n      dup4\n      gt\n      tag_122\n      jumpi\n      dup3\n      swap1\n      sub\n      0x1f\n      and\n      dup3\n      add\n      swap2\n    tag_120:\n      pop\n      pop\n      pop\n      pop\n      pop\n      dup2\n      mstore\n      0x20\n      add\n      0x03\n      dup3\n      add\n      dup1\n      sload\n      tag_123\n      swap1\n      tag_63\n      jump\t// in\n    tag_123:\n      dup1\n      0x1f\n      add\n      0x20\n      dup1\n      swap2\n      div\n      mul\n      0x20\n      add\n      mload(0x40)\n      swap1\n      dup2\n      add\n      0x40\n      mstore\n      dup1\n      swap3\n      swap2\n      swap1\n      dup2\n      dup2\n      mstore\n      0x20\n      add\n      dup3\n      dup1\n      sload\n      tag_124\n      swap1\n      tag_63\n      jump\t// in\n    tag_124:\n      dup1\n      iszero\n      tag_125\n      jumpi\n      dup1\n      0x1f\n      lt\n      tag_126\n      jumpi\n      0x0100\n      dup1\n      dup4\n      sload\n      div\n      mul\n      dup4\n      mstore\n      swap2\n      0x20\n      add\n      swap2\n      jump(tag_125)\n    tag_126:\n      dup3\n      add\n      swap2\n      swap1\n      0x00\n      mstore\n      keccak256(0x00, 0x20)\n      swap1\n    tag_127:\n      dup2\n      sload\n      dup2\n      mstore\n      swap1\n      0x01\n      add\n      swap1\n      0x20\n      add\n      dup1\n      dup4\n      gt\n      tag_127\n      jumpi\n      dup3\n      swap1\n      sub\n      0x1f\n      and\n      dup3\n      add\n      swap2\n    tag_125:\n      pop\n      pop\n      pop\n      pop\n      pop\n      dup2\n      mstore\n      0x20\n      add\n      0x04\n      dup3\n      add\n      dup1\n      sload\n      tag_128\n      swap1\n      tag_63\n      jump\t// in\n    tag_128:\n      dup1\n      0x1f\n      add\n      0x20\n      dup1\n      swap2\n      div\n      mul\n      0x20\n      add\n      mload(0x40)\n      swap1\n      dup2\n      add\n      0x40\n      mstore\n      dup1\n      swap3\n      swap2\n      swap1\n      dup2\n      dup2\n      mstore\n      0x20\n      add\n      dup3\n      dup1\n      sload\n      tag_129\n      swap1\n      tag_63\n      jump\t// in\n    tag_129:\n      dup1\n      iszero\n      tag_130\n      jumpi\n      dup1\n      0x1f\n      lt\n      tag_131\n      jumpi\n      0x0100\n      dup1\n      dup4\n      sload\n      div\n      mul\n      dup4\n      mstore\n      swap2\n      0x20\n      add\n      swap2\n      jump(tag_130)\n    tag_131:\n      dup3\n      add\n      swap2\n      swap1\n      0x00\n      mstore\n      keccak256(0x00, 0x20)\n      swap1\n    tag_132:\n      dup2\n      sload\n      dup2\n      mstore\n      swap1\n      0x01\n      add\n      swap1\n      0x20\n      add\n      dup1\n      dup4\n      gt\n      tag_132\n      jumpi\n      dup3\n      swap1\n      sub\n      0x1f\n      and\n      dup3\n      add\n      swap2\n    tag_130:\n      pop\n      pop\n      pop\n      pop\n      pop\n      dup2\n      mstore\n      0x20\n      add\n      0x05\n      dup3\n      add\n      sload\n      dup2\n      mstore\n      0x20\n      add\n      0x06\n      dup3\n      add\n      0x00\n      swap1\n      sload\n      swap1\n      0x0100\n      exp\n      swap1\n      div\n      0xff\n      and\n      iszero\n      iszero\n      iszero\n      iszero\n      dup2\n      mstore\n      pop\n      pop\n      swap1\n      pop\n        /* \"contract/SupplyChain.sol\":2441:2442  p */\n      dup1\n        /* \"contract/SupplyChain.sol\":2441:2445  p.id */\n      0x00\n      add\n      mload\n        /* \"contract/SupplyChain.sol\":2459:2460  p */\n      dup2\n        /* \"contract/SupplyChain.sol\":2459:2465  p.name */\n      0x20\n      add\n      mload\n        /* \"contract/SupplyChain.sol\":2479:2480  p */\n      dup3\n        /* \"contract/SupplyChain.sol\":2479:2487  p.origin */\n      0x40\n      add\n      mload\n        /* \"contract/SupplyChain.sol\":2501:2502  p */\n      dup4\n        /* \"contract/SupplyChain.sol\":2501:2518  p.currentLocation */\n      0x60\n      add\n      mload\n        /* \"contract/SupplyChain.sol\":2532:2533  p */\n      dup5\n        /* \"contract/SupplyChain.sol\":2532:2540  p.status */\n      0x80\n      add\n      mload\n        /* \"contract/SupplyChain.sol\":2554:2555  p */\n      dup6\n        /* \"contract/SupplyChain.sol\":2554:2565  p.createdAt */\n      0xa0\n      add\n      mload\n        /* \"contract/SupplyChain.sol\":2420:2575  return (... */\n      swap8\n      pop\n      swap8\n      pop\n      swap8\n      pop\n      swap8\n      pop\n      swap8\n      pop\n      swap8\n      pop\n      pop\n        /* \"contract/SupplyChain.sol\":2050:2582  function getProduct(uint256 _id)... */\n      pop\n      swap2\n      swap4\n      swap6\n      pop\n      swap2\n      swap4\n      swap6\n      jump\t// out\n        /* \"#utility.yul\":7:82   */\n    tag_133:\n        /* \"#utility.yul\":40:46   */\n      0x00\n        /* \"#utility.yul\":73:75   */\n      0x40\n        /* \"#utility.yul\":67:76   */\n      mload\n        /* \"#utility.yul\":57:76   */\n      swap1\n      pop\n        /* \"#utility.yul\":7:82   */\n      swap1\n      jump\t// out\n        /* \"#utility.yul\":88:205   */\n    tag_134:\n        /* \"#utility.yul\":197:198   */\n      0x00\n        /* \"#utility.yul\":194:195   */\n      dup1\n        /* \"#utility.yul\":187:199   */\n      revert\n        /* \"#utility.yul\":211:328   */\n    tag_135:\n        /* \"#utility.yul\":320:321   */\n      0x00\n        /* \"#utility.yul\":317:318   */\n      dup1\n        /* \"#utility.yul\":310:322   */\n      revert\n        /* \"#utility.yul\":334:411   */\n    tag_136:\n        /* \"#utility.yul\":371:378   */\n      0x00\n        /* \"#utility.yul\":400:405   */\n      dup2\n        /* \"#utility.yul\":389:405   */\n      swap1\n      pop\n        /* \"#utility.yul\":334:411   */\n      swap2\n      swap1\n      pop\n      jump\t// out\n        /* \"#utility.yul\":417:539   */\n    tag_137:\n        /* \"#utility.yul\":490:514   */\n      tag_187\n        /* \"#utility.yul\":508:513   */\n      dup2\n        /* \"#utility.yul\":490:514   */\n      tag_136\n      jump\t// in\n    tag_187:\n        /* \"#utility.yul\":483:488   */\n      dup2\n        /* \"#utility.yul\":480:515   */\n      eq\n        /* \"#utility.yul\":470:533   */\n      tag_188\n      jumpi\n        /* \"#utility.yul\":529:530   */\n      0x00\n        /* \"#utility.yul\":526:527   */\n      dup1\n        /* \"#utility.yul\":519:531   */\n      revert\n        /* \"#utility.yul\":470:533   */\n    tag_188:\n        /* \"#utility.yul\":417:539   */\n      pop\n      jump\t// out\n        /* \"#utility.yul\":545:684   */\n    tag_138:\n        /* \"#utility.yul\":591:596   */\n      0x00\n        /* \"#utility.yul\":629:635   */\n      dup2\n        /* \"#utility.yul\":616:636   */\n      calldataload\n        /* \"#utility.yul\":607:636   */\n      swap1\n      pop\n        /* \"#utility.yul\":645:678   */\n      tag_190\n        /* \"#utility.yul\":672:677   */\n      dup2\n        /* \"#utility.yul\":645:678   */\n      tag_137\n      jump\t// in\n    tag_190:\n        /* \"#utility.yul\":545:684   */\n      swap3\n      swap2\n      pop\n      pop\n      jump\t// out\n        /* \"#utility.yul\":690:807   */\n    tag_139:\n        /* \"#utility.yul\":799:800   */\n      0x00\n        /* \"#utility.yul\":796:797   */\n      dup1\n        /* \"#utility.yul\":789:801   */\n      revert\n        /* \"#utility.yul\":813:930   */\n    tag_140:\n        /* \"#utility.yul\":922:923   */\n      0x00\n        /* \"#utility.yul\":919:920   */\n      dup1\n        /* \"#utility.yul\":912:924   */\n      revert\n        /* \"#utility.yul\":936:1038   */\n    tag_141:\n        /* \"#utility.yul\":977:983   */\n      0x00\n        /* \"#utility.yul\":1028:1030   */\n      0x1f\n        /* \"#utility.yul\":1024:1031   */\n      not\n        /* \"#utility.yul\":1019:1021   */\n      0x1f\n        /* \"#utility.yul\":1012:1017   */\n      dup4\n        /* \"#utility.yul\":1008:1022   */\n      add\n        /* \"#utility.yul\":1004:1032   */\n      and\n        /* \"#utility.yul\":994:1032   */\n      swap1\n      pop\n        /* \"#utility.yul\":936:1038   */\n      swap2\n      swap1\n      pop\n      jump\t// out\n        /* \"#utility.yul\":1044:1224   */\n    tag_142:\n        /* \"#utility.yul\":1092:1169   */\n      0x4e487b7100000000000000000000000000000000000000000000000000000000\n        /* \"#utility.yul\":1089:1090   */\n      0x00\n        /* \"#utility.yul\":1082:1170   */\n      mstore\n        /* \"#utility.yul\":1189:1193   */\n      0x41\n        /* \"#utility.yul\":1186:1187   */\n      0x04\n        /* \"#utility.yul\":1179:1194   */\n      mstore\n        /* \"#utility.yul\":1213:1217   */\n      0x24\n        /* \"#utility.yul\":1210:1211   */\n      0x00\n        /* \"#utility.yul\":1203:1218   */\n      revert\n        /* \"#utility.yul\":1230:1511   */\n    tag_143:\n        /* \"#utility.yul\":1313:1340   */\n      tag_196\n        /* \"#utility.yul\":1335:1339   */\n      dup3\n        /* \"#utility.yul\":1313:1340   */\n      tag_141\n      jump\t// in\n    tag_196:\n        /* \"#utility.yul\":1305:1311   */\n      dup2\n        /* \"#utility.yul\":1301:1341   */\n      add\n        /* \"#utility.yul\":1443:1449   */\n      dup2\n        /* \"#utility.yul\":1431:1441   */\n      dup2\n        /* \"#utility.yul\":1428:1450   */\n      lt\n        /* \"#utility.yul\":1407:1425   */\n      0xffffffffffffffff\n        /* \"#utility.yul\":1395:1405   */\n      dup3\n        /* \"#utility.yul\":1392:1426   */\n      gt\n        /* \"#utility.yul\":1389:1451   */\n      or\n        /* \"#utility.yul\":1386:1474   */\n      iszero\n      tag_197\n      jumpi\n        /* \"#utility.yul\":1454:1472   */\n      tag_198\n      tag_142\n      jump\t// in\n    tag_198:\n        /* \"#utility.yul\":1386:1474   */\n    tag_197:\n        /* \"#utility.yul\":1494:1504   */\n      dup1\n        /* \"#utility.yul\":1490:1492   */\n      0x40\n        /* \"#utility.yul\":1483:1505   */\n      mstore\n        /* \"#utility.yul\":1273:1511   */\n      pop\n        /* \"#utility.yul\":1230:1511   */\n      pop\n      pop\n      jump\t// out\n        /* \"#utility.yul\":1517:1646   */\n    tag_144:\n        /* \"#utility.yul\":1551:1557   */\n      0x00\n        /* \"#utility.yul\":1578:1598   */\n      tag_200\n      tag_133\n      jump\t// in\n    tag_200:\n        /* \"#utility.yul\":1568:1598   */\n      swap1\n      pop\n        /* \"#utility.yul\":1607:1640   */\n      tag_201\n        /* \"#utility.yul\":1635:1639   */\n      dup3\n        /* \"#utility.yul\":1627:1633   */\n      dup3\n        /* \"#utility.yul\":1607:1640   */\n      tag_143\n      jump\t// in\n    tag_201:\n        /* \"#utility.yul\":1517:1646   */\n      swap2\n      swap1\n      pop\n      jump\t// out\n        /* \"#utility.yul\":1652:1960   */\n    tag_145:\n        /* \"#utility.yul\":1714:1718   */\n      0x00\n        /* \"#utility.yul\":1804:1822   */\n      0xffffffffffffffff\n        /* \"#utility.yul\":1796:1802   */\n      dup3\n        /* \"#utility.yul\":1793:1823   */\n      gt\n        /* \"#utility.yul\":1790:1846   */\n      iszero\n      tag_203\n      jumpi\n        /* \"#utility.yul\":1826:1844   */\n      tag_204\n      tag_142\n      jump\t// in\n    tag_204:\n        /* \"#utility.yul\":1790:1846   */\n    tag_203:\n        /* \"#utility.yul\":1864:1893   */\n      tag_205\n        /* \"#utility.yul\":1886:1892   */\n      dup3\n        /* \"#utility.yul\":1864:1893   */\n      tag_141\n      jump\t// in\n    tag_205:\n        /* \"#utility.yul\":1856:1893   */\n      swap1\n      pop\n        /* \"#utility.yul\":1948:1952   */\n      0x20\n        /* \"#utility.yul\":1942:1946   */\n      dup2\n        /* \"#utility.yul\":1938:1953   */\n      add\n        /* \"#utility.yul\":1930:1953   */\n      swap1\n      pop\n        /* \"#utility.yul\":1652:1960   */\n      swap2\n      swap1\n      pop\n      jump\t// out\n        /* \"#utility.yul\":1966:2112   */\n    tag_146:\n        /* \"#utility.yul\":2063:2069   */\n      dup3\n        /* \"#utility.yul\":2058:2061   */\n      dup2\n        /* \"#utility.yul\":2053:2056   */\n      dup4\n        /* \"#utility.yul\":2040:2070   */\n      calldatacopy\n        /* \"#utility.yul\":2104:2105   */\n      0x00\n        /* \"#utility.yul\":2095:2101   */\n      dup4\n        /* \"#utility.yul\":2090:2093   */\n      dup4\n        /* \"#utility.yul\":2086:2102   */\n      add\n        /* \"#utility.yul\":2079:2106   */\n      mstore\n        /* \"#utility.yul\":1966:2112   */\n      pop\n      pop\n      pop\n      jump\t// out\n        /* \"#utility.yul\":2118:2543   */\n    tag_147:\n        /* \"#utility.yul\":2196:2201   */\n      0x00\n        /* \"#utility.yul\":2221:2287   */\n      tag_208\n        /* \"#utility.yul\":2237:2286   */\n      tag_209\n        /* \"#utility.yul\":2279:2285   */\n      dup5\n        /* \"#utility.yul\":2237:2286   */\n      tag_145\n      jump\t// in\n    tag_209:\n        /* \"#utility.yul\":2221:2287   */\n      tag_144\n      jump\t// in\n    tag_208:\n        /* \"#utility.yul\":2212:2287   */\n      swap1\n      pop\n        /* \"#utility.yul\":2310:2316   */\n      dup3\n        /* \"#utility.yul\":2303:2308   */\n      dup2\n        /* \"#utility.yul\":2296:2317   */\n      mstore\n        /* \"#utility.yul\":2348:2352   */\n      0x20\n        /* \"#utility.yul\":2341:2346   */\n      dup2\n        /* \"#utility.yul\":2337:2353   */\n      add\n        /* \"#utility.yul\":2386:2389   */\n      dup5\n        /* \"#utility.yul\":2377:2383   */\n      dup5\n        /* \"#utility.yul\":2372:2375   */\n      dup5\n        /* \"#utility.yul\":2368:2384   */\n      add\n        /* \"#utility.yul\":2365:2390   */\n      gt\n        /* \"#utility.yul\":2362:2474   */\n      iszero\n      tag_210\n      jumpi\n        /* \"#utility.yul\":2393:2472   */\n      tag_211\n      tag_140\n      jump\t// in\n    tag_211:\n        /* \"#utility.yul\":2362:2474   */\n    tag_210:\n        /* \"#utility.yul\":2483:2537   */\n      tag_212\n        /* \"#utility.yul\":2530:2536   */\n      dup5\n        /* \"#utility.yul\":2525:2528   */\n      dup3\n        /* \"#utility.yul\":2520:2523   */\n      dup6\n        /* \"#utility.yul\":2483:2537   */\n      tag_146\n      jump\t// in\n    tag_212:\n        /* \"#utility.yul\":2202:2543   */\n      pop\n        /* \"#utility.yul\":2118:2543   */\n      swap4\n      swap3\n      pop\n      pop\n      pop\n      jump\t// out\n        /* \"#utility.yul\":2563:2903   */\n    tag_148:\n        /* \"#utility.yul\":2619:2624   */\n      0x00\n        /* \"#utility.yul\":2668:2671   */\n      dup3\n        /* \"#utility.yul\":2661:2665   */\n      0x1f\n        /* \"#utility.yul\":2653:2659   */\n      dup4\n        /* \"#utility.yul\":2649:2666   */\n      add\n        /* \"#utility.yul\":2645:2672   */\n      slt\n        /* \"#utility.yul\":2635:2757   */\n      tag_214\n      jumpi\n        /* \"#utility.yul\":2676:2755   */\n      tag_215\n      tag_139\n      jump\t// in\n    tag_215:\n        /* \"#utility.yul\":2635:2757   */\n    tag_214:\n        /* \"#utility.yul\":2793:2799   */\n      dup2\n        /* \"#utility.yul\":2780:2800   */\n      calldataload\n        /* \"#utility.yul\":2818:2897   */\n      tag_216\n        /* \"#utility.yul\":2893:2896   */\n      dup5\n        /* \"#utility.yul\":2885:2891   */\n      dup3\n        /* \"#utility.yul\":2878:2882   */\n      0x20\n        /* \"#utility.yul\":2870:2876   */\n      dup7\n        /* \"#utility.yul\":2866:2883   */\n      add\n        /* \"#utility.yul\":2818:2897   */\n      tag_147\n      jump\t// in\n    tag_216:\n        /* \"#utility.yul\":2809:2897   */\n      swap2\n      pop\n        /* \"#utility.yul\":2625:2903   */\n      pop\n        /* \"#utility.yul\":2563:2903   */\n      swap3\n      swap2\n      pop\n      pop\n      jump\t// out\n        /* \"#utility.yul\":2909:3888   */\n    tag_11:\n        /* \"#utility.yul\":3006:3012   */\n      0x00\n        /* \"#utility.yul\":3014:3020   */\n      dup1\n        /* \"#utility.yul\":3022:3028   */\n      0x00\n        /* \"#utility.yul\":3071:3073   */\n      0x60\n        /* \"#utility.yul\":3059:3068   */\n      dup5\n        /* \"#utility.yul\":3050:3057   */\n      dup7\n        /* \"#utility.yul\":3046:3069   */\n      sub\n        /* \"#utility.yul\":3042:3074   */\n      slt\n        /* \"#utility.yul\":3039:3158   */\n      iszero\n      tag_218\n      jumpi\n        /* \"#utility.yul\":3077:3156   */\n      tag_219\n      tag_134\n      jump\t// in\n    tag_219:\n        /* \"#utility.yul\":3039:3158   */\n    tag_218:\n        /* \"#utility.yul\":3197:3198   */\n      0x00\n        /* \"#utility.yul\":3222:3275   */\n      tag_220\n        /* \"#utility.yul\":3267:3274   */\n      dup7\n        /* \"#utility.yul\":3258:3264   */\n      dup3\n        /* \"#utility.yul\":3247:3256   */\n      dup8\n        /* \"#utility.yul\":3243:3265   */\n      add\n        /* \"#utility.yul\":3222:3275   */\n      tag_138\n      jump\t// in\n    tag_220:\n        /* \"#utility.yul\":3212:3275   */\n      swap4\n      pop\n        /* \"#utility.yul\":3168:3285   */\n      pop\n        /* \"#utility.yul\":3352:3354   */\n      0x20\n        /* \"#utility.yul\":3341:3350   */\n      dup5\n        /* \"#utility.yul\":3337:3355   */\n      add\n        /* \"#utility.yul\":3324:3356   */\n      calldataload\n        /* \"#utility.yul\":3383:3401   */\n      0xffffffffffffffff\n        /* \"#utility.yul\":3375:3381   */\n      dup2\n        /* \"#utility.yul\":3372:3402   */\n      gt\n        /* \"#utility.yul\":3369:3486   */\n      iszero\n      tag_221\n      jumpi\n        /* \"#utility.yul\":3405:3484   */\n      tag_222\n      tag_135\n      jump\t// in\n    tag_222:\n        /* \"#utility.yul\":3369:3486   */\n    tag_221:\n        /* \"#utility.yul\":3510:3573   */\n      tag_223\n        /* \"#utility.yul\":3565:3572   */\n      dup7\n        /* \"#utility.yul\":3556:3562   */\n      dup3\n        /* \"#utility.yul\":3545:3554   */\n      dup8\n        /* \"#utility.yul\":3541:3563   */\n      add\n        /* \"#utility.yul\":3510:3573   */\n      tag_148\n      jump\t// in\n    tag_223:\n        /* \"#utility.yul\":3500:3573   */\n      swap3\n      pop\n        /* \"#utility.yul\":3295:3583   */\n      pop\n        /* \"#utility.yul\":3650:3652   */\n      0x40\n        /* \"#utility.yul\":3639:3648   */\n      dup5\n        /* \"#utility.yul\":3635:3653   */\n      add\n        /* \"#utility.yul\":3622:3654   */\n      calldataload\n        /* \"#utility.yul\":3681:3699   */\n      0xffffffffffffffff\n        /* \"#utility.yul\":3673:3679   */\n      dup2\n        /* \"#utility.yul\":3670:3700   */\n      gt\n        /* \"#utility.yul\":3667:3784   */\n      iszero\n      tag_224\n      jumpi\n        /* \"#utility.yul\":3703:3782   */\n      tag_225\n      tag_135\n      jump\t// in\n    tag_225:\n        /* \"#utility.yul\":3667:3784   */\n    tag_224:\n        /* \"#utility.yul\":3808:3871   */\n      tag_226\n        /* \"#utility.yul\":3863:3870   */\n      dup7\n        /* \"#utility.yul\":3854:3860   */\n      dup3\n        /* \"#utility.yul\":3843:3852   */\n      dup8\n        /* \"#utility.yul\":3839:3861   */\n      add\n        /* \"#utility.yul\":3808:3871   */\n      tag_148\n      jump\t// in\n    tag_226:\n        /* \"#utility.yul\":3798:3871   */\n      swap2\n      pop\n        /* \"#utility.yul\":3593:3881   */\n      pop\n        /* \"#utility.yul\":2909:3888   */\n      swap3\n      pop\n      swap3\n      pop\n      swap3\n      jump\t// out\n        /* \"#utility.yul\":3894:4368   */\n    tag_15:\n        /* \"#utility.yul\":3962:3968   */\n      0x00\n        /* \"#utility.yul\":3970:3976   */\n      dup1\n        /* \"#utility.yul\":4019:4021   */\n      0x40\n        /* \"#utility.yul\":4007:4016   */\n      dup4\n        /* \"#utility.yul\":3998:4005   */\n      dup6\n        /* \"#utility.yul\":3994:4017   */\n      sub\n        /* \"#utility.yul\":3990:4022   */\n      slt\n        /* \"#utility.yul\":3987:4106   */\n      iszero\n      tag_228\n      jumpi\n        /* \"#utility.yul\":4025:4104   */\n      tag_229\n      tag_134\n      jump\t// in\n    tag_229:\n        /* \"#utility.yul\":3987:4106   */\n    tag_228:\n        /* \"#utility.yul\":4145:4146   */\n      0x00\n        /* \"#utility.yul\":4170:4223   */\n      tag_230\n        /* \"#utility.yul\":4215:4222   */\n      dup6\n        /* \"#utility.yul\":4206:4212   */\n      dup3\n        /* \"#utility.yul\":4195:4204   */\n      dup7\n        /* \"#utility.yul\":4191:4213   */\n      add\n        /* \"#utility.yul\":4170:4223   */\n      tag_138\n      jump\t// in\n    tag_230:\n        /* \"#utility.yul\":4160:4223   */\n      swap3\n      pop\n        /* \"#utility.yul\":4116:4233   */\n      pop\n        /* \"#utility.yul\":4272:4274   */\n      0x20\n        /* \"#utility.yul\":4298:4351   */\n      tag_231\n        /* \"#utility.yul\":4343:4350   */\n      dup6\n        /* \"#utility.yul\":4334:4340   */\n      dup3\n        /* \"#utility.yul\":4323:4332   */\n      dup7\n        /* \"#utility.yul\":4319:4341   */\n      add\n        /* \"#utility.yul\":4298:4351   */\n      tag_138\n      jump\t// in\n    tag_231:\n        /* \"#utility.yul\":4288:4351   */\n      swap2\n      pop\n        /* \"#utility.yul\":4243:4361   */\n      pop\n        /* \"#utility.yul\":3894:4368   */\n      swap3\n      pop\n      swap3\n      swap1\n      pop\n      jump\t// out\n        /* \"#utility.yul\":4374:4473   */\n    tag_149:\n        /* \"#utility.yul\":4426:4432   */\n      0x00\n        /* \"#utility.yul\":4460:4465   */\n      dup2\n        /* \"#utility.yul\":4454:4466   */\n      mload\n        /* \"#utility.yul\":4444:4466   */\n      swap1\n      pop\n        /* \"#utility.yul\":4374:4473   */\n      swap2\n      swap1\n      pop\n      jump\t// out\n        /* \"#utility.yul\":4479:4648   */\n    tag_150:\n        /* \"#utility.yul\":4563:4574   */\n      0x00\n        /* \"#utility.yul\":4597:4603   */\n      dup3\n        /* \"#utility.yul\":4592:4595   */\n      dup3\n        /* \"#utility.yul\":4585:4604   */\n      mstore\n        /* \"#utility.yul\":4637:4641   */\n      0x20\n        /* \"#utility.yul\":4632:4635   */\n      dup3\n        /* \"#utility.yul\":4628:4642   */\n      add\n        /* \"#utility.yul\":4613:4642   */\n      swap1\n      pop\n        /* \"#utility.yul\":4479:4648   */\n      swap3\n      swap2\n      pop\n      pop\n      jump\t// out\n        /* \"#utility.yul\":4654:4900   */\n    tag_151:\n        /* \"#utility.yul\":4735:4736   */\n      0x00\n        /* \"#utility.yul\":4745:4858   */\n    tag_235:\n        /* \"#utility.yul\":4759:4765   */\n      dup4\n        /* \"#utility.yul\":4756:4757   */\n      dup2\n        /* \"#utility.yul\":4753:4766   */\n      lt\n        /* \"#utility.yul\":4745:4858   */\n      iszero\n      tag_237\n      jumpi\n        /* \"#utility.yul\":4844:4845   */\n      dup1\n        /* \"#utility.yul\":4839:4842   */\n      dup3\n        /* \"#utility.yul\":4835:4846   */\n      add\n        /* \"#utility.yul\":4829:4847   */\n      mload\n        /* \"#utility.yul\":4825:4826   */\n      dup2\n        /* \"#utility.yul\":4820:4823   */\n      dup5\n        /* \"#utility.yul\":4816:4827   */\n      add\n        /* \"#utility.yul\":4809:4848   */\n      mstore\n        /* \"#utility.yul\":4781:4783   */\n      0x20\n        /* \"#utility.yul\":4778:4779   */\n      dup2\n        /* \"#utility.yul\":4774:4784   */\n      add\n        /* \"#utility.yul\":4769:4784   */\n      swap1\n      pop\n        /* \"#utility.yul\":4745:4858   */\n      jump(tag_235)\n    tag_237:\n        /* \"#utility.yul\":4892:4893   */\n      0x00\n        /* \"#utility.yul\":4883:4889   */\n      dup5\n        /* \"#utility.yul\":4878:4881   */\n      dup5\n        /* \"#utility.yul\":4874:4890   */\n      add\n        /* \"#utility.yul\":4867:4894   */\n      mstore\n        /* \"#utility.yul\":4716:4900   */\n      pop\n        /* \"#utility.yul\":4654:4900   */\n      pop\n      pop\n      pop\n      jump\t// out\n        /* \"#utility.yul\":4906:5283   */\n    tag_152:\n        /* \"#utility.yul\":4994:4997   */\n      0x00\n        /* \"#utility.yul\":5022:5061   */\n      tag_239\n        /* \"#utility.yul\":5055:5060   */\n      dup3\n        /* \"#utility.yul\":5022:5061   */\n      tag_149\n      jump\t// in\n    tag_239:\n        /* \"#utility.yul\":5077:5148   */\n      tag_240\n        /* \"#utility.yul\":5141:5147   */\n      dup2\n        /* \"#utility.yul\":5136:5139   */\n      dup6\n        /* \"#utility.yul\":5077:5148   */\n      tag_150\n      jump\t// in\n    tag_240:\n        /* \"#utility.yul\":5070:5148   */\n      swap4\n      pop\n        /* \"#utility.yul\":5157:5222   */\n      tag_241\n        /* \"#utility.yul\":5215:5221   */\n      dup2\n        /* \"#utility.yul\":5210:5213   */\n      dup6\n        /* \"#utility.yul\":5203:5207   */\n      0x20\n        /* \"#utility.yul\":5196:5201   */\n      dup7\n        /* \"#utility.yul\":5192:5208   */\n      add\n        /* \"#utility.yul\":5157:5222   */\n      tag_151\n      jump\t// in\n    tag_241:\n        /* \"#utility.yul\":5247:5276   */\n      tag_242\n        /* \"#utility.yul\":5269:5275   */\n      dup2\n        /* \"#utility.yul\":5247:5276   */\n      tag_141\n      jump\t// in\n    tag_242:\n        /* \"#utility.yul\":5242:5245   */\n      dup5\n        /* \"#utility.yul\":5238:5277   */\n      add\n        /* \"#utility.yul\":5231:5277   */\n      swap2\n      pop\n        /* \"#utility.yul\":4998:5283   */\n      pop\n        /* \"#utility.yul\":4906:5283   */\n      swap3\n      swap2\n      pop\n      pop\n      jump\t// out\n        /* \"#utility.yul\":5289:5415   */\n    tag_153:\n        /* \"#utility.yul\":5326:5333   */\n      0x00\n        /* \"#utility.yul\":5366:5408   */\n      0xffffffffffffffffffffffffffffffffffffffff\n        /* \"#utility.yul\":5359:5364   */\n      dup3\n        /* \"#utility.yul\":5355:5409   */\n      and\n        /* \"#utility.yul\":5344:5409   */\n      swap1\n      pop\n        /* \"#utility.yul\":5289:5415   */\n      swap2\n      swap1\n      pop\n      jump\t// out\n        /* \"#utility.yul\":5421:5517   */\n    tag_154:\n        /* \"#utility.yul\":5458:5465   */\n      0x00\n        /* \"#utility.yul\":5487:5511   */\n      tag_245\n        /* \"#utility.yul\":5505:5510   */\n      dup3\n        /* \"#utility.yul\":5487:5511   */\n      tag_153\n      jump\t// in\n    tag_245:\n        /* \"#utility.yul\":5476:5511   */\n      swap1\n      pop\n        /* \"#utility.yul\":5421:5517   */\n      swap2\n      swap1\n      pop\n      jump\t// out\n        /* \"#utility.yul\":5523:5641   */\n    tag_155:\n        /* \"#utility.yul\":5610:5634   */\n      tag_247\n        /* \"#utility.yul\":5628:5633   */\n      dup2\n        /* \"#utility.yul\":5610:5634   */\n      tag_154\n      jump\t// in\n    tag_247:\n        /* \"#utility.yul\":5605:5608   */\n      dup3\n        /* \"#utility.yul\":5598:5635   */\n      mstore\n        /* \"#utility.yul\":5523:5641   */\n      pop\n      pop\n      jump\t// out\n        /* \"#utility.yul\":5647:5765   */\n    tag_156:\n        /* \"#utility.yul\":5734:5758   */\n      tag_249\n        /* \"#utility.yul\":5752:5757   */\n      dup2\n        /* \"#utility.yul\":5734:5758   */\n      tag_136\n      jump\t// in\n    tag_249:\n        /* \"#utility.yul\":5729:5732   */\n      dup3\n        /* \"#utility.yul\":5722:5759   */\n      mstore\n        /* \"#utility.yul\":5647:5765   */\n      pop\n      pop\n      jump\t// out\n        /* \"#utility.yul\":5771:6506   */\n    tag_18:\n        /* \"#utility.yul\":5988:5992   */\n      0x00\n        /* \"#utility.yul\":6026:6029   */\n      0x80\n        /* \"#utility.yul\":6015:6024   */\n      dup3\n        /* \"#utility.yul\":6011:6030   */\n      add\n        /* \"#utility.yul\":6003:6030   */\n      swap1\n      pop\n        /* \"#utility.yul\":6076:6085   */\n      dup2\n        /* \"#utility.yul\":6070:6074   */\n      dup2\n        /* \"#utility.yul\":6066:6086   */\n      sub\n        /* \"#utility.yul\":6062:6063   */\n      0x00\n        /* \"#utility.yul\":6051:6060   */\n      dup4\n        /* \"#utility.yul\":6047:6064   */\n      add\n        /* \"#utility.yul\":6040:6087   */\n      mstore\n        /* \"#utility.yul\":6104:6182   */\n      tag_251\n        /* \"#utility.yul\":6177:6181   */\n      dup2\n        /* \"#utility.yul\":6168:6174   */\n      dup8\n        /* \"#utility.yul\":6104:6182   */\n      tag_152\n      jump\t// in\n    tag_251:\n        /* \"#utility.yul\":6096:6182   */\n      swap1\n      pop\n        /* \"#utility.yul\":6229:6238   */\n      dup2\n        /* \"#utility.yul\":6223:6227   */\n      dup2\n        /* \"#utility.yul\":6219:6239   */\n      sub\n        /* \"#utility.yul\":6214:6216   */\n      0x20\n        /* \"#utility.yul\":6203:6212   */\n      dup4\n        /* \"#utility.yul\":6199:6217   */\n      add\n        /* \"#utility.yul\":6192:6240   */\n      mstore\n        /* \"#utility.yul\":6257:6335   */\n      tag_252\n        /* \"#utility.yul\":6330:6334   */\n      dup2\n        /* \"#utility.yul\":6321:6327   */\n      dup7\n        /* \"#utility.yul\":6257:6335   */\n      tag_152\n      jump\t// in\n    tag_252:\n        /* \"#utility.yul\":6249:6335   */\n      swap1\n      pop\n        /* \"#utility.yul\":6345:6417   */\n      tag_253\n        /* \"#utility.yul\":6413:6415   */\n      0x40\n        /* \"#utility.yul\":6402:6411   */\n      dup4\n        /* \"#utility.yul\":6398:6416   */\n      add\n        /* \"#utility.yul\":6389:6395   */\n      dup6\n        /* \"#utility.yul\":6345:6417   */\n      tag_155\n      jump\t// in\n    tag_253:\n        /* \"#utility.yul\":6427:6499   */\n      tag_254\n        /* \"#utility.yul\":6495:6497   */\n      0x60\n        /* \"#utility.yul\":6484:6493   */\n      dup4\n        /* \"#utility.yul\":6480:6498   */\n      add\n        /* \"#utility.yul\":6471:6477   */\n      dup5\n        /* \"#utility.yul\":6427:6499   */\n      tag_156\n      jump\t// in\n    tag_254:\n        /* \"#utility.yul\":5771:6506   */\n      swap6\n      swap5\n      pop\n      pop\n      pop\n      pop\n      pop\n      jump\t// out\n        /* \"#utility.yul\":6512:6841   */\n    tag_21:\n        /* \"#utility.yul\":6571:6577   */\n      0x00\n        /* \"#utility.yul\":6620:6622   */\n      0x20\n        /* \"#utility.yul\":6608:6617   */\n      dup3\n        /* \"#utility.yul\":6599:6606   */\n      dup5\n        /* \"#utility.yul\":6595:6618   */\n      sub\n        /* \"#utility.yul\":6591:6623   */\n      slt\n        /* \"#utility.yul\":6588:6707   */\n      iszero\n      tag_256\n      jumpi\n        /* \"#utility.yul\":6626:6705   */\n      tag_257\n      tag_134\n      jump\t// in\n    tag_257:\n        /* \"#utility.yul\":6588:6707   */\n    tag_256:\n        /* \"#utility.yul\":6746:6747   */\n      0x00\n        /* \"#utility.yul\":6771:6824   */\n      tag_258\n        /* \"#utility.yul\":6816:6823   */\n      dup5\n        /* \"#utility.yul\":6807:6813   */\n      dup3\n        /* \"#utility.yul\":6796:6805   */\n      dup6\n        /* \"#utility.yul\":6792:6814   */\n      add\n        /* \"#utility.yul\":6771:6824   */\n      tag_138\n      jump\t// in\n    tag_258:\n        /* \"#utility.yul\":6761:6824   */\n      swap2\n      pop\n        /* \"#utility.yul\":6717:6834   */\n      pop\n        /* \"#utility.yul\":6512:6841   */\n      swap3\n      swap2\n      pop\n      pop\n      jump\t// out\n        /* \"#utility.yul\":6847:7069   */\n    tag_24:\n        /* \"#utility.yul\":6940:6944   */\n      0x00\n        /* \"#utility.yul\":6978:6980   */\n      0x20\n        /* \"#utility.yul\":6967:6976   */\n      dup3\n        /* \"#utility.yul\":6963:6981   */\n      add\n        /* \"#utility.yul\":6955:6981   */\n      swap1\n      pop\n        /* \"#utility.yul\":6991:7062   */\n      tag_260\n        /* \"#utility.yul\":7059:7060   */\n      0x00\n        /* \"#utility.yul\":7048:7057   */\n      dup4\n        /* \"#utility.yul\":7044:7061   */\n      add\n        /* \"#utility.yul\":7035:7041   */\n      dup5\n        /* \"#utility.yul\":6991:7062   */\n      tag_156\n      jump\t// in\n    tag_260:\n        /* \"#utility.yul\":6847:7069   */\n      swap3\n      swap2\n      pop\n      pop\n      jump\t// out\n        /* \"#utility.yul\":7075:7165   */\n    tag_157:\n        /* \"#utility.yul\":7109:7116   */\n      0x00\n        /* \"#utility.yul\":7152:7157   */\n      dup2\n        /* \"#utility.yul\":7145:7158   */\n      iszero\n        /* \"#utility.yul\":7138:7159   */\n      iszero\n        /* \"#utility.yul\":7127:7159   */\n      swap1\n      pop\n        /* \"#utility.yul\":7075:7165   */\n      swap2\n      swap1\n      pop\n      jump\t// out\n        /* \"#utility.yul\":7171:7280   */\n    tag_158:\n        /* \"#utility.yul\":7252:7273   */\n      tag_263\n        /* \"#utility.yul\":7267:7272   */\n      dup2\n        /* \"#utility.yul\":7252:7273   */\n      tag_157\n      jump\t// in\n    tag_263:\n        /* \"#utility.yul\":7247:7250   */\n      dup3\n        /* \"#utility.yul\":7240:7274   */\n      mstore\n        /* \"#utility.yul\":7171:7280   */\n      pop\n      pop\n      jump\t// out\n        /* \"#utility.yul\":7286:8524   */\n    tag_32:\n        /* \"#utility.yul\":7621:7625   */\n      0x00\n        /* \"#utility.yul\":7659:7662   */\n      0xe0\n        /* \"#utility.yul\":7648:7657   */\n      dup3\n        /* \"#utility.yul\":7644:7663   */\n      add\n        /* \"#utility.yul\":7636:7663   */\n      swap1\n      pop\n        /* \"#utility.yul\":7673:7744   */\n      tag_265\n        /* \"#utility.yul\":7741:7742   */\n      0x00\n        /* \"#utility.yul\":7730:7739   */\n      dup4\n        /* \"#utility.yul\":7726:7743   */\n      add\n        /* \"#utility.yul\":7717:7723   */\n      dup11\n        /* \"#utility.yul\":7673:7744   */\n      tag_156\n      jump\t// in\n    tag_265:\n        /* \"#utility.yul\":7791:7800   */\n      dup2\n        /* \"#utility.yul\":7785:7789   */\n      dup2\n        /* \"#utility.yul\":7781:7801   */\n      sub\n        /* \"#utility.yul\":7776:7778   */\n      0x20\n        /* \"#utility.yul\":7765:7774   */\n      dup4\n        /* \"#utility.yul\":7761:7779   */\n      add\n        /* \"#utility.yul\":7754:7802   */\n      mstore\n        /* \"#utility.yul\":7819:7897   */\n      tag_266\n        /* \"#utility.yul\":7892:7896   */\n      dup2\n        /* \"#utility.yul\":7883:7889   */\n      dup10\n        /* \"#utility.yul\":7819:7897   */\n      tag_152\n      jump\t// in\n    tag_266:\n        /* \"#utility.yul\":7811:7897   */\n      swap1\n      pop\n        /* \"#utility.yul\":7944:7953   */\n      dup2\n        /* \"#utility.yul\":7938:7942   */\n      dup2\n        /* \"#utility.yul\":7934:7954   */\n      sub\n        /* \"#utility.yul\":7929:7931   */\n      0x40\n        /* \"#utility.yul\":7918:7927   */\n      dup4\n        /* \"#utility.yul\":7914:7932   */\n      add\n        /* \"#utility.yul\":7907:7955   */\n      mstore\n        /* \"#utility.yul\":7972:8050   */\n      tag_267\n        /* \"#utility.yul\":8045:8049   */\n      dup2\n        /* \"#utility.yul\":8036:8042   */\n      dup9\n        /* \"#utility.yul\":7972:8050   */\n      tag_152\n      jump\t// in\n    tag_267:\n        /* \"#utility.yul\":7964:8050   */\n      swap1\n      pop\n        /* \"#utility.yul\":8097:8106   */\n      dup2\n        /* \"#utility.yul\":8091:8095   */\n      dup2\n        /* \"#utility.yul\":8087:8107   */\n      sub\n        /* \"#utility.yul\":8082:8084   */\n      0x60\n        /* \"#utility.yul\":8071:8080   */\n      dup4\n        /* \"#utility.yul\":8067:8085   */\n      add\n        /* \"#utility.yul\":8060:8108   */\n      mstore\n        /* \"#utility.yul\":8125:8203   */\n      tag_268\n        /* \"#utility.yul\":8198:8202   */\n      dup2\n        /* \"#utility.yul\":8189:8195   */\n      dup8\n        /* \"#utility.yul\":8125:8203   */\n      tag_152\n      jump\t// in\n    tag_268:\n        /* \"#utility.yul\":8117:8203   */\n      swap1\n      pop\n        /* \"#utility.yul\":8251:8260   */\n      dup2\n        /* \"#utility.yul\":8245:8249   */\n      dup2\n        /* \"#utility.yul\":8241:8261   */\n      sub\n        /* \"#utility.yul\":8235:8238   */\n      0x80\n        /* \"#utility.yul\":8224:8233   */\n      dup4\n        /* \"#utility.yul\":8220:8239   */\n      add\n        /* \"#utility.yul\":8213:8262   */\n      mstore\n        /* \"#utility.yul\":8279:8357   */\n      tag_269\n        /* \"#utility.yul\":8352:8356   */\n      dup2\n        /* \"#utility.yul\":8343:8349   */\n      dup7\n        /* \"#utility.yul\":8279:8357   */\n      tag_152\n      jump\t// in\n    tag_269:\n        /* \"#utility.yul\":8271:8357   */\n      swap1\n      pop\n        /* \"#utility.yul\":8367:8440   */\n      tag_270\n        /* \"#utility.yul\":8435:8438   */\n      0xa0\n        /* \"#utility.yul\":8424:8433   */\n      dup4\n        /* \"#utility.yul\":8420:8439   */\n      add\n        /* \"#utility.yul\":8411:8417   */\n      dup6\n        /* \"#utility.yul\":8367:8440   */\n      tag_156\n      jump\t// in\n    tag_270:\n        /* \"#utility.yul\":8450:8517   */\n      tag_271\n        /* \"#utility.yul\":8512:8515   */\n      0xc0\n        /* \"#utility.yul\":8501:8510   */\n      dup4\n        /* \"#utility.yul\":8497:8516   */\n      add\n        /* \"#utility.yul\":8488:8494   */\n      dup5\n        /* \"#utility.yul\":8450:8517   */\n      tag_158\n      jump\t// in\n    tag_271:\n        /* \"#utility.yul\":7286:8524   */\n      swap9\n      swap8\n      pop\n      pop\n      pop\n      pop\n      pop\n      pop\n      pop\n      pop\n      jump\t// out\n        /* \"#utility.yul\":8530:9669   */\n    tag_37:\n        /* \"#utility.yul\":8843:8847   */\n      0x00\n        /* \"#utility.yul\":8881:8884   */\n      0xc0\n        /* \"#utility.yul\":8870:8879   */\n      dup3\n        /* \"#utility.yul\":8866:8885   */\n      add\n        /* \"#utility.yul\":8858:8885   */\n      swap1\n      pop\n        /* \"#utility.yul\":8895:8966   */\n      tag_273\n        /* \"#utility.yul\":8963:8964   */\n      0x00\n        /* \"#utility.yul\":8952:8961   */\n      dup4\n        /* \"#utility.yul\":8948:8965   */\n      add\n        /* \"#utility.yul\":8939:8945   */\n      dup10\n        /* \"#utility.yul\":8895:8966   */\n      tag_156\n      jump\t// in\n    tag_273:\n        /* \"#utility.yul\":9013:9022   */\n      dup2\n        /* \"#utility.yul\":9007:9011   */\n      dup2\n        /* \"#utility.yul\":9003:9023   */\n      sub\n        /* \"#utility.yul\":8998:9000   */\n      0x20\n        /* \"#utility.yul\":8987:8996   */\n      dup4\n        /* \"#utility.yul\":8983:9001   */\n      add\n        /* \"#utility.yul\":8976:9024   */\n      mstore\n        /* \"#utility.yul\":9041:9119   */\n      tag_274\n        /* \"#utility.yul\":9114:9118   */\n      dup2\n        /* \"#utility.yul\":9105:9111   */\n      dup9\n        /* \"#utility.yul\":9041:9119   */\n      tag_152\n      jump\t// in\n    tag_274:\n        /* \"#utility.yul\":9033:9119   */\n      swap1\n      pop\n        /* \"#utility.yul\":9166:9175   */\n      dup2\n        /* \"#utility.yul\":9160:9164   */\n      dup2\n        /* \"#utility.yul\":9156:9176   */\n      sub\n        /* \"#utility.yul\":9151:9153   */\n      0x40\n        /* \"#utility.yul\":9140:9149   */\n      dup4\n        /* \"#utility.yul\":9136:9154   */\n      add\n        /* \"#utility.yul\":9129:9177   */\n      mstore\n        /* \"#utility.yul\":9194:9272   */\n      tag_275\n        /* \"#utility.yul\":9267:9271   */\n      dup2\n        /* \"#utility.yul\":9258:9264   */\n      dup8\n        /* \"#utility.yul\":9194:9272   */\n      tag_152\n      jump\t// in\n    tag_275:\n        /* \"#utility.yul\":9186:9272   */\n      swap1\n      pop\n        /* \"#utility.yul\":9319:9328   */\n      dup2\n        /* \"#utility.yul\":9313:9317   */\n      dup2\n        /* \"#utility.yul\":9309:9329   */\n      sub\n        /* \"#utility.yul\":9304:9306   */\n      0x60\n        /* \"#utility.yul\":9293:9302   */\n      dup4\n        /* \"#utility.yul\":9289:9307   */\n      add\n        /* \"#utility.yul\":9282:9330   */\n      mstore\n        /* \"#utility.yul\":9347:9425   */\n      tag_276\n        /* \"#utility.yul\":9420:9424   */\n      dup2\n        /* \"#utility.yul\":9411:9417   */\n      dup7\n        /* \"#utility.yul\":9347:9425   */\n      tag_152\n      jump\t// in\n    tag_276:\n        /* \"#utility.yul\":9339:9425   */\n      swap1\n      pop\n        /* \"#utility.yul\":9473:9482   */\n      dup2\n        /* \"#utility.yul\":9467:9471   */\n      dup2\n        /* \"#utility.yul\":9463:9483   */\n      sub\n        /* \"#utility.yul\":9457:9460   */\n      0x80\n        /* \"#utility.yul\":9446:9455   */\n      dup4\n        /* \"#utility.yul\":9442:9461   */\n      add\n        /* \"#utility.yul\":9435:9484   */\n      mstore\n        /* \"#utility.yul\":9501:9579   */\n      tag_277\n        /* \"#utility.yul\":9574:9578   */\n      dup2\n        /* \"#utility.yul\":9565:9571   */\n      dup6\n        /* \"#utility.yul\":9501:9579   */\n      tag_152\n      jump\t// in\n    tag_277:\n        /* \"#utility.yul\":9493:9579   */\n      swap1\n      pop\n        /* \"#utility.yul\":9589:9662   */\n      tag_278\n        /* \"#utility.yul\":9657:9660   */\n      0xa0\n        /* \"#utility.yul\":9646:9655   */\n      dup4\n        /* \"#utility.yul\":9642:9661   */\n      add\n        /* \"#utility.yul\":9633:9639   */\n      dup5\n        /* \"#utility.yul\":9589:9662   */\n      tag_156\n      jump\t// in\n    tag_278:\n        /* \"#utility.yul\":8530:9669   */\n      swap8\n      swap7\n      pop\n      pop\n      pop\n      pop\n      pop\n      pop\n      pop\n      jump\t// out\n        /* \"#utility.yul\":9675:9847   */\n    tag_159:\n        /* \"#utility.yul\":9815:9839   */\n      0x50726f6475637420646f6573206e6f7420657869737400000000000000000000\n        /* \"#utility.yul\":9811:9812   */\n      0x00\n        /* \"#utility.yul\":9803:9809   */\n      dup3\n        /* \"#utility.yul\":9799:9813   */\n      add\n        /* \"#utility.yul\":9792:9840   */\n      mstore\n        /* \"#utility.yul\":9675:9847   */\n      pop\n      jump\t// out\n        /* \"#utility.yul\":9853:10219   */\n    tag_160:\n        /* \"#utility.yul\":9995:9998   */\n      0x00\n        /* \"#utility.yul\":10016:10083   */\n      tag_281\n        /* \"#utility.yul\":10080:10082   */\n      0x16\n        /* \"#utility.yul\":10075:10078   */\n      dup4\n        /* \"#utility.yul\":10016:10083   */\n      tag_150\n      jump\t// in\n    tag_281:\n        /* \"#utility.yul\":10009:10083   */\n      swap2\n      pop\n        /* \"#utility.yul\":10092:10185   */\n      tag_282\n        /* \"#utility.yul\":10181:10184   */\n      dup3\n        /* \"#utility.yul\":10092:10185   */\n      tag_159\n      jump\t// in\n    tag_282:\n        /* \"#utility.yul\":10210:10212   */\n      0x20\n        /* \"#utility.yul\":10205:10208   */\n      dup3\n        /* \"#utility.yul\":10201:10213   */\n      add\n        /* \"#utility.yul\":10194:10213   */\n      swap1\n      pop\n        /* \"#utility.yul\":9853:10219   */\n      swap2\n      swap1\n      pop\n      jump\t// out\n        /* \"#utility.yul\":10225:10644   */\n    tag_41:\n        /* \"#utility.yul\":10391:10395   */\n      0x00\n        /* \"#utility.yul\":10429:10431   */\n      0x20\n        /* \"#utility.yul\":10418:10427   */\n      dup3\n        /* \"#utility.yul\":10414:10432   */\n      add\n        /* \"#utility.yul\":10406:10432   */\n      swap1\n      pop\n        /* \"#utility.yul\":10478:10487   */\n      dup2\n        /* \"#utility.yul\":10472:10476   */\n      dup2\n        /* \"#utility.yul\":10468:10488   */\n      sub\n        /* \"#utility.yul\":10464:10465   */\n      0x00\n        /* \"#utility.yul\":10453:10462   */\n      dup4\n        /* \"#utility.yul\":10449:10466   */\n      add\n        /* \"#utility.yul\":10442:10489   */\n      mstore\n        /* \"#utility.yul\":10506:10637   */\n      tag_284\n        /* \"#utility.yul\":10632:10636   */\n      dup2\n        /* \"#utility.yul\":10506:10637   */\n      tag_160\n      jump\t// in\n    tag_284:\n        /* \"#utility.yul\":10498:10637   */\n      swap1\n      pop\n        /* \"#utility.yul\":10225:10644   */\n      swap2\n      swap1\n      pop\n      jump\t// out\n        /* \"#utility.yul\":10650:10830   */\n    tag_161:\n        /* \"#utility.yul\":10698:10775   */\n      0x4e487b7100000000000000000000000000000000000000000000000000000000\n        /* \"#utility.yul\":10695:10696   */\n      0x00\n        /* \"#utility.yul\":10688:10776   */\n      mstore\n        /* \"#utility.yul\":10795:10799   */\n      0x22\n        /* \"#utility.yul\":10792:10793   */\n      0x04\n        /* \"#utility.yul\":10785:10800   */\n      mstore\n        /* \"#utility.yul\":10819:10823   */\n      0x24\n        /* \"#utility.yul\":10816:10817   */\n      0x00\n        /* \"#utility.yul\":10809:10824   */\n      revert\n        /* \"#utility.yul\":10836:11156   */\n    tag_63:\n        /* \"#utility.yul\":10880:10886   */\n      0x00\n        /* \"#utility.yul\":10917:10918   */\n      0x02\n        /* \"#utility.yul\":10911:10915   */\n      dup3\n        /* \"#utility.yul\":10907:10919   */\n      div\n        /* \"#utility.yul\":10897:10919   */\n      swap1\n      pop\n        /* \"#utility.yul\":10964:10965   */\n      0x01\n        /* \"#utility.yul\":10958:10962   */\n      dup3\n        /* \"#utility.yul\":10954:10966   */\n      and\n        /* \"#utility.yul\":10985:11003   */\n      dup1\n        /* \"#utility.yul\":10975:11056   */\n      tag_287\n      jumpi\n        /* \"#utility.yul\":11041:11045   */\n      0x7f\n        /* \"#utility.yul\":11033:11039   */\n      dup3\n        /* \"#utility.yul\":11029:11046   */\n      and\n        /* \"#utility.yul\":11019:11046   */\n      swap2\n      pop\n        /* \"#utility.yul\":10975:11056   */\n    tag_287:\n        /* \"#utility.yul\":11103:11105   */\n      0x20\n        /* \"#utility.yul\":11095:11101   */\n      dup3\n        /* \"#utility.yul\":11092:11106   */\n      lt\n        /* \"#utility.yul\":11072:11090   */\n      dup2\n        /* \"#utility.yul\":11069:11107   */\n      sub\n        /* \"#utility.yul\":11066:11150   */\n      tag_288\n      jumpi\n        /* \"#utility.yul\":11122:11140   */\n      tag_289\n      tag_161\n      jump\t// in\n    tag_289:\n        /* \"#utility.yul\":11066:11150   */\n    tag_288:\n        /* \"#utility.yul\":10887:11156   */\n      pop\n        /* \"#utility.yul\":10836:11156   */\n      swap2\n      swap1\n      pop\n      jump\t// out\n        /* \"#utility.yul\":11162:11303   */\n    tag_162:\n        /* \"#utility.yul\":11211:11215   */\n      0x00\n        /* \"#utility.yul\":11234:11237   */\n      dup2\n        /* \"#utility.yul\":11226:11237   */\n      swap1\n      pop\n        /* \"#utility.yul\":11257:11260   */\n      dup2\n        /* \"#utility.yul\":11254:11255   */\n      0x00\n        /* \"#utility.yul\":11247:11261   */\n      mstore\n        /* \"#utility.yul\":11291:11295   */\n      0x20\n        /* \"#utility.yul\":11288:11289   */\n      0x00\n        /* \"#utility.yul\":11278:11296   */\n      keccak256\n        /* \"#utility.yul\":11270:11296   */\n      swap1\n      pop\n        /* \"#utility.yul\":11162:11303   */\n      swap2\n      swap1\n      pop\n      jump\t// out\n        /* \"#utility.yul\":11309:11402   */\n    tag_163:\n        /* \"#utility.yul\":11346:11352   */\n      0x00\n        /* \"#utility.yul\":11393:11395   */\n      0x20\n        /* \"#utility.yul\":11388:11390   */\n      0x1f\n        /* \"#utility.yul\":11381:11386   */\n      dup4\n        /* \"#utility.yul\":11377:11391   */\n      add\n        /* \"#utility.yul\":11373:11396   */\n      div\n        /* \"#utility.yul\":11363:11396   */\n      swap1\n      pop\n        /* \"#utility.yul\":11309:11402   */\n      swap2\n      swap1\n      pop\n      jump\t// out\n        /* \"#utility.yul\":11408:11515   */\n    tag_164:\n        /* \"#utility.yul\":11452:11460   */\n      0x00\n        /* \"#utility.yul\":11502:11507   */\n      dup3\n        /* \"#utility.yul\":11496:11500   */\n      dup3\n        /* \"#utility.yul\":11492:11508   */\n      shl\n        /* \"#utility.yul\":11471:11508   */\n      swap1\n      pop\n        /* \"#utility.yul\":11408:11515   */\n      swap3\n      swap2\n      pop\n      pop\n      jump\t// out\n        /* \"#utility.yul\":11521:11914   */\n    tag_165:\n        /* \"#utility.yul\":11590:11596   */\n      0x00\n        /* \"#utility.yul\":11640:11641   */\n      0x08\n        /* \"#utility.yul\":11628:11638   */\n      dup4\n        /* \"#utility.yul\":11624:11642   */\n      mul\n        /* \"#utility.yul\":11663:11760   */\n      tag_294\n        /* \"#utility.yul\":11693:11759   */\n      0xffffffffffffffffffffffffffffffffffffffffffffffffffffffffffffffff\n        /* \"#utility.yul\":11682:11691   */\n      dup3\n        /* \"#utility.yul\":11663:11760   */\n      tag_164\n      jump\t// in\n    tag_294:\n        /* \"#utility.yul\":11781:11820   */\n      tag_295\n        /* \"#utility.yul\":11811:11819   */\n      dup7\n        /* \"#utility.yul\":11800:11809   */\n      dup4\n        /* \"#utility.yul\":11781:11820   */\n      tag_164\n      jump\t// in\n    tag_295:\n        /* \"#utility.yul\":11769:11820   */\n      swap6\n      pop\n        /* \"#utility.yul\":11853:11857   */\n      dup1\n        /* \"#utility.yul\":11849:11858   */\n      not\n        /* \"#utility.yul\":11842:11847   */\n      dup5\n        /* \"#utility.yul\":11838:11859   */\n      and\n        /* \"#utility.yul\":11829:11859   */\n      swap4\n      pop\n        /* \"#utility.yul\":11902:11906   */\n      dup1\n        /* \"#utility.yul\":11892:11900   */\n      dup7\n        /* \"#utility.yul\":11888:11907   */\n      and\n        /* \"#utility.yul\":11881:11886   */\n      dup5\n        /* \"#utility.yul\":11878:11908   */\n      or\n        /* \"#utility.yul\":11868:11908   */\n      swap3\n      pop\n        /* \"#utility.yul\":11597:11914   */\n      pop\n      pop\n        /* \"#utility.yul\":11521:11914   */\n      swap4\n      swap3\n      pop\n      pop\n      pop\n      jump\t// out\n        /* \"#utility.yul\":11920:11980   */\n    tag_166:\n        /* \"#utility.yul\":11948:11951   */\n      0x00\n        /* \"#utility.yul\":11969:11974   */\n      dup2\n        /* \"#utility.yul\":11962:11974   */\n      swap1\n      pop\n        /* \"#utility.yul\":11920:11980   */\n      swap2\n      swap1\n      pop\n      jump\t// out\n        /* \"#utility.yul\":11986:12128   */\n    tag_167:\n        /* \"#utility.yul\":12036:12045   */\n      0x00\n        /* \"#utility.yul\":12069:12122   */\n      tag_298\n        /* \"#utility.yul\":12087:12121   */\n      tag_299\n        /* \"#utility.yul\":12096:12120   */\n      tag_300\n        /* \"#utility.yul\":12114:12119   */\n      dup5\n        /* \"#utility.yul\":12096:12120   */\n      tag_136\n      jump\t// in\n    tag_300:\n        /* \"#utility.yul\":12087:12121   */\n      tag_166\n      jump\t// in\n    tag_299:\n        /* \"#utility.yul\":12069:12122   */\n      tag_136\n      jump\t// in\n    tag_298:\n        /* \"#utility.yul\":12056:12122   */\n      swap1\n      pop\n        /* \"#utility.yul\":11986:12128   */\n      swap2\n      swap1\n      pop\n      jump\t// out\n        /* \"#utility.yul\":12134:12209   */\n    tag_168:\n        /* \"#utility.yul\":12177:12180   */\n      0x00\n        /* \"#utility.yul\":12198:12203   */\n      dup2\n        /* \"#utility.yul\":12191:12203   */\n      swap1\n      pop\n        /* \"#utility.yul\":12134:12209   */\n      swap2\n      swap1\n      pop\n      jump\t// out\n        /* \"#utility.yul\":12215:12484   */\n    tag_169:\n        /* \"#utility.yul\":12325:12364   */\n      tag_303\n        /* \"#utility.yul\":12356:12363   */\n      dup4\n        /* \"#utility.yul\":12325:12364   */\n      tag_167\n      jump\t// in\n    tag_303:\n        /* \"#utility.yul\":12386:12477   */\n      tag_304\n        /* \"#utility.yul\":12435:12476   */\n      tag_305\n        /* \"#utility.yul\":12459:12475   */\n      dup3\n        /* \"#utility.yul\":12435:12476   */\n      tag_168\n      jump\t// in\n    tag_305:\n        /* \"#utility.yul\":12427:12433   */\n      dup5\n        /* \"#utility.yul\":12420:12424   */\n      dup5\n        /* \"#utility.yul\":12414:12425   */\n      sload\n        /* \"#utility.yul\":12386:12477   */\n      tag_165\n      jump\t// in\n    tag_304:\n        /* \"#utility.yul\":12380:12384   */\n      dup3\n        /* \"#utility.yul\":12373:12478   */\n      sstore\n        /* \"#utility.yul\":12291:12484   */\n      pop\n        /* \"#utility.yul\":12215:12484   */\n      pop\n      pop\n      pop\n      jump\t// out\n        /* \"#utility.yul\":12490:12563   */\n    tag_170:\n        /* \"#utility.yul\":12535:12538   */\n      0x00\n        /* \"#utility.yul\":12490:12563   */\n      swap1\n      jump\t// out\n        /* \"#utility.yul\":12569:12758   */\n    tag_171:\n        /* \"#utility.yul\":12646:12678   */\n      tag_308\n      tag_170\n      jump\t// in\n    tag_308:\n        /* \"#utility.yul\":12687:12752   */\n      tag_309\n        /* \"#utility.yul\":12745:12751   */\n      dup2\n        /* \"#utility.yul\":12737:12743   */\n      dup5\n        /* \"#utility.yul\":12731:12735   */\n      dup5\n        /* \"#utility.yul\":12687:12752   */\n      tag_169\n      jump\t// in\n    tag_309:\n        /* \"#utility.yul\":12622:12758   */\n      pop\n        /* \"#utility.yul\":12569:12758   */\n      pop\n      pop\n      jump\t// out\n        /* \"#utility.yul\":12764:12950   */\n    tag_172:\n        /* \"#utility.yul\":12824:12944   */\n    tag_311:\n        /* \"#utility.yul\":12841:12844   */\n      dup2\n        /* \"#utility.yul\":12834:12839   */\n      dup2\n        /* \"#utility.yul\":12831:12845   */\n      lt\n        /* \"#utility.yul\":12824:12944   */\n      iszero\n      tag_313\n      jumpi\n        /* \"#utility.yul\":12895:12934   */\n      tag_314\n        /* \"#utility.yul\":12932:12933   */\n      0x00\n        /* \"#utility.yul\":12925:12930   */\n      dup3\n        /* \"#utility.yul\":12895:12934   */\n      tag_171\n      jump\t// in\n    tag_314:\n        /* \"#utility.yul\":12868:12869   */\n      0x01\n        /* \"#utility.yul\":12861:12866   */\n      dup2\n        /* \"#utility.yul\":12857:12870   */\n      add\n        /* \"#utility.yul\":12848:12870   */\n      swap1\n      pop\n        /* \"#utility.yul\":12824:12944   */\n      jump(tag_311)\n    tag_313:\n        /* \"#utility.yul\":12764:12950   */\n      pop\n      pop\n      jump\t// out\n        /* \"#utility.yul\":12956:13499   */\n    tag_173:\n        /* \"#utility.yul\":13057:13059   */\n      0x1f\n        /* \"#utility.yul\":13052:13055   */\n      dup3\n        /* \"#utility.yul\":13049:13060   */\n      gt\n        /* \"#utility.yul\":13046:13492   */\n      iszero\n      tag_316\n      jumpi\n        /* \"#utility.yul\":13091:13129   */\n      tag_317\n        /* \"#utility.yul\":13123:13128   */\n      dup2\n        /* \"#utility.yul\":13091:13129   */\n      tag_162\n      jump\t// in\n    tag_317:\n        /* \"#utility.yul\":13175:13204   */\n      tag_318\n        /* \"#utility.yul\":13193:13203   */\n      dup5\n        /* \"#utility.yul\":13175:13204   */\n      tag_163\n      jump\t// in\n    tag_318:\n        /* \"#utility.yul\":13165:13173   */\n      dup2\n        /* \"#utility.yul\":13161:13205   */\n      add\n        /* \"#utility.yul\":13358:13360   */\n      0x20\n        /* \"#utility.yul\":13346:13356   */\n      dup6\n        /* \"#utility.yul\":13343:13361   */\n      lt\n        /* \"#utility.yul\":13340:13389   */\n      iszero\n      tag_319\n      jumpi\n        /* \"#utility.yul\":13379:13387   */\n      dup2\n        /* \"#utility.yul\":13364:13387   */\n      swap1\n      pop\n        /* \"#utility.yul\":13340:13389   */\n    tag_319:\n        /* \"#utility.yul\":13402:13482   */\n      tag_320\n        /* \"#utility.yul\":13458:13480   */\n      tag_321\n        /* \"#utility.yul\":13476:13479   */\n      dup6\n        /* \"#utility.yul\":13458:13480   */\n      tag_163\n      jump\t// in\n    tag_321:\n        /* \"#utility.yul\":13448:13456   */\n      dup4\n        /* \"#utility.yul\":13444:13481   */\n      add\n        /* \"#utility.yul\":13431:13442   */\n      dup3\n        /* \"#utility.yul\":13402:13482   */\n      tag_172\n      jump\t// in\n    tag_320:\n        /* \"#utility.yul\":13061:13492   */\n      pop\n      pop\n        /* \"#utility.yul\":13046:13492   */\n    tag_316:\n        /* \"#utility.yul\":12956:13499   */\n      pop\n      pop\n      pop\n      jump\t// out\n        /* \"#utility.yul\":13505:13622   */\n    tag_174:\n        /* \"#utility.yul\":13559:13567   */\n      0x00\n        /* \"#utility.yul\":13609:13614   */\n      dup3\n        /* \"#utility.yul\":13603:13607   */\n      dup3\n        /* \"#utility.yul\":13599:13615   */\n      shr\n        /* \"#utility.yul\":13578:13615   */\n      swap1\n      pop\n        /* \"#utility.yul\":13505:13622   */\n      swap3\n      swap2\n      pop\n      pop\n      jump\t// out\n        /* \"#utility.yul\":13628:13797   */\n    tag_175:\n        /* \"#utility.yul\":13672:13678   */\n      0x00\n        /* \"#utility.yul\":13705:13756   */\n      tag_324\n        /* \"#utility.yul\":13753:13754   */\n      0x00\n        /* \"#utility.yul\":13749:13755   */\n      not\n        /* \"#utility.yul\":13741:13746   */\n      dup5\n        /* \"#utility.yul\":13738:13739   */\n      0x08\n        /* \"#utility.yul\":13734:13747   */\n      mul\n        /* \"#utility.yul\":13705:13756   */\n      tag_174\n      jump\t// in\n    tag_324:\n        /* \"#utility.yul\":13701:13757   */\n      not\n        /* \"#utility.yul\":13786:13790   */\n      dup1\n        /* \"#utility.yul\":13780:13784   */\n      dup4\n        /* \"#utility.yul\":13776:13791   */\n      and\n        /* \"#utility.yul\":13766:13791   */\n      swap2\n      pop\n        /* \"#utility.yul\":13679:13797   */\n      pop\n        /* \"#utility.yul\":13628:13797   */\n      swap3\n      swap2\n      pop\n      pop\n      jump\t// out\n        /* \"#utility.yul\":13802:14097   */\n    tag_176:\n        /* \"#utility.yul\":13878:13882   */\n      0x00\n        /* \"#utility.yul\":14024:14053   */\n      tag_326\n        /* \"#utility.yul\":14049:14052   */\n      dup4\n        /* \"#utility.yul\":14043:14047   */\n      dup4\n        /* \"#utility.yul\":14024:14053   */\n      tag_175\n      jump\t// in\n    tag_326:\n        /* \"#utility.yul\":14016:14053   */\n      swap2\n      pop\n        /* \"#utility.yul\":14086:14089   */\n      dup3\n        /* \"#utility.yul\":14083:14084   */\n      0x02\n        /* \"#utility.yul\":14079:14090   */\n      mul\n        /* \"#utility.yul\":14073:14077   */\n      dup3\n        /* \"#utility.yul\":14070:14091   */\n      or\n        /* \"#utility.yul\":14062:14091   */\n      swap1\n      pop\n        /* \"#utility.yul\":13802:14097   */\n      swap3\n      swap2\n      pop\n      pop\n      jump\t// out\n        /* \"#utility.yul\":14102:15497   */\n    tag_44:\n        /* \"#utility.yul\":14219:14256   */\n      tag_328\n        /* \"#utility.yul\":14252:14255   */\n      dup3\n        /* \"#utility.yul\":14219:14256   */\n      tag_149\n      jump\t// in\n    tag_328:\n        /* \"#utility.yul\":14321:14339   */\n      0xffffffffffffffff\n        /* \"#utility.yul\":14313:14319   */\n      dup2\n        /* \"#utility.yul\":14310:14340   */\n      gt\n        /* \"#utility.yul\":14307:14363   */\n      iszero\n      tag_329\n      jumpi\n        /* \"#utility.yul\":14343:14361   */\n      tag_330\n      tag_142\n      jump\t// in\n    tag_330:\n        /* \"#utility.yul\":14307:14363   */\n    tag_329:\n        /* \"#utility.yul\":14387:14425   */\n      tag_331\n        /* \"#utility.yul\":14419:14423   */\n      dup3\n        /* \"#utility.yul\":14413:14424   */\n      sload\n        /* \"#utility.yul\":14387:14425   */\n      tag_63\n      jump\t// in\n    tag_331:\n        /* \"#utility.yul\":14472:14539   */\n      tag_332\n        /* \"#utility.yul\":14532:14538   */\n      dup3\n        /* \"#utility.yul\":14524:14530   */\n      dup3\n        /* \"#utility.yul\":14518:14522   */\n      dup6\n        /* \"#utility.yul\":14472:14539   */\n      tag_173\n      jump\t// in\n    tag_332:\n        /* \"#utility.yul\":14566:14567   */\n      0x00\n        /* \"#utility.yul\":14590:14594   */\n      0x20\n        /* \"#utility.yul\":14577:14594   */\n      swap1\n      pop\n        /* \"#utility.yul\":14622:14624   */\n      0x1f\n        /* \"#utility.yul\":14614:14620   */\n      dup4\n        /* \"#utility.yul\":14611:14625   */\n      gt\n        /* \"#utility.yul\":14639:14640   */\n      0x01\n        /* \"#utility.yul\":14634:15252   */\n      dup2\n      eq\n      tag_334\n      jumpi\n        /* \"#utility.yul\":15296:15297   */\n      0x00\n        /* \"#utility.yul\":15313:15319   */\n      dup5\n        /* \"#utility.yul\":15310:15387   */\n      iszero\n      tag_335\n      jumpi\n        /* \"#utility.yul\":15362:15371   */\n      dup3\n        /* \"#utility.yul\":15357:15360   */\n      dup8\n        /* \"#utility.yul\":15353:15372   */\n      add\n        /* \"#utility.yul\":15347:15373   */\n      mload\n        /* \"#utility.yul\":15338:15373   */\n      swap1\n      pop\n        /* \"#utility.yul\":15310:15387   */\n    tag_335:\n        /* \"#utility.yul\":15413:15480   */\n      tag_336\n        /* \"#utility.yul\":15473:15479   */\n      dup6\n        /* \"#utility.yul\":15466:15471   */\n      dup3\n        /* \"#utility.yul\":15413:15480   */\n      tag_176\n      jump\t// in\n    tag_336:\n        /* \"#utility.yul\":15407:15411   */\n      dup7\n        /* \"#utility.yul\":15400:15481   */\n      sstore\n        /* \"#utility.yul\":15269:15491   */\n      pop\n        /* \"#utility.yul\":14604:15491   */\n      jump(tag_333)\n        /* \"#utility.yul\":14634:15252   */\n    tag_334:\n        /* \"#utility.yul\":14686:14690   */\n      0x1f\n        /* \"#utility.yul\":14682:14691   */\n      not\n        /* \"#utility.yul\":14674:14680   */\n      dup5\n        /* \"#utility.yul\":14670:14692   */\n      and\n        /* \"#utility.yul\":14720:14757   */\n      tag_337\n        /* \"#utility.yul\":14752:14756   */\n      dup7\n        /* \"#utility.yul\":14720:14757   */\n      tag_162\n      jump\t// in\n    tag_337:\n        /* \"#utility.yul\":14779:14780   */\n      0x00\n        /* \"#utility.yul\":14793:15001   */\n    tag_338:\n        /* \"#utility.yul\":14807:14814   */\n      dup3\n        /* \"#utility.yul\":14804:14805   */\n      dup2\n        /* \"#utility.yul\":14801:14815   */\n      lt\n        /* \"#utility.yul\":14793:15001   */\n      iszero\n      tag_340\n      jumpi\n        /* \"#utility.yul\":14886:14895   */\n      dup5\n        /* \"#utility.yul\":14881:14884   */\n      dup10\n        /* \"#utility.yul\":14877:14896   */\n      add\n        /* \"#utility.yul\":14871:14897   */\n      mload\n        /* \"#utility.yul\":14863:14869   */\n      dup3\n        /* \"#utility.yul\":14856:14898   */\n      sstore\n        /* \"#utility.yul\":14937:14938   */\n      0x01\n        /* \"#utility.yul\":14929:14935   */\n      dup3\n        /* \"#utility.yul\":14925:14939   */\n      add\n        /* \"#utility.yul\":14915:14939   */\n      swap2\n      pop\n        /* \"#utility.yul\":14984:14986   */\n      0x20\n        /* \"#utility.yul\":14973:14982   */\n      dup6\n        /* \"#utility.yul\":14969:14987   */\n      add\n        /* \"#utility.yul\":14956:14987   */\n      swap5\n      pop\n        /* \"#utility.yul\":14830:14834   */\n      0x20\n        /* \"#utility.yul\":14827:14828   */\n      dup2\n        /* \"#utility.yul\":14823:14835   */\n      add\n        /* \"#utility.yul\":14818:14835   */\n      swap1\n      pop\n        /* \"#utility.yul\":14793:15001   */\n      jump(tag_338)\n    tag_340:\n        /* \"#utility.yul\":15029:15035   */\n      dup7\n        /* \"#utility.yul\":15020:15027   */\n      dup4\n        /* \"#utility.yul\":15017:15036   */\n      lt\n        /* \"#utility.yul\":15014:15193   */\n      iszero\n      tag_341\n      jumpi\n        /* \"#utility.yul\":15087:15096   */\n      dup5\n        /* \"#utility.yul\":15082:15085   */\n      dup10\n        /* \"#utility.yul\":15078:15097   */\n      add\n        /* \"#utility.yul\":15072:15098   */\n      mload\n        /* \"#utility.yul\":15130:15178   */\n      tag_342\n        /* \"#utility.yul\":15172:15176   */\n      0x1f\n        /* \"#utility.yul\":15164:15170   */\n      dup10\n        /* \"#utility.yul\":15160:15177   */\n      and\n        /* \"#utility.yul\":15149:15158   */\n      dup3\n        /* \"#utility.yul\":15130:15178   */\n      tag_175\n      jump\t// in\n    tag_342:\n        /* \"#utility.yul\":15122:15128   */\n      dup4\n        /* \"#utility.yul\":15115:15179   */\n      sstore\n        /* \"#utility.yul\":15037:15193   */\n      pop\n        /* \"#utility.yul\":15014:15193   */\n    tag_341:\n        /* \"#utility.yul\":15239:15240   */\n      0x01\n        /* \"#utility.yul\":15235:15236   */\n      0x02\n        /* \"#utility.yul\":15227:15233   */\n      dup9\n        /* \"#utility.yul\":15223:15237   */\n      mul\n        /* \"#utility.yul\":15219:15241   */\n      add\n        /* \"#utility.yul\":15213:15217   */\n      dup9\n        /* \"#utility.yul\":15206:15242   */\n      sstore\n        /* \"#utility.yul\":14641:15252   */\n      pop\n      pop\n      pop\n        /* \"#utility.yul\":14604:15491   */\n    tag_333:\n      pop\n        /* \"#utility.yul\":14194:15497   */\n      pop\n      pop\n      pop\n        /* \"#utility.yul\":14102:15497   */\n      pop\n      pop\n      jump\t// out\n        /* \"#utility.yul\":15503:16127   */\n    tag_50:\n        /* \"#utility.yul\":15692:15696   */\n      0x00\n        /* \"#utility.yul\":15730:15732   */\n      0x60\n        /* \"#utility.yul\":15719:15728   */\n      dup3\n        /* \"#utility.yul\":15715:15733   */\n      add\n        /* \"#utility.yul\":15707:15733   */\n      swap1\n      pop\n        /* \"#utility.yul\":15743:15814   */\n      tag_344\n        /* \"#utility.yul\":15811:15812   */\n      0x00\n        /* \"#utility.yul\":15800:15809   */\n      dup4\n        /* \"#utility.yul\":15796:15813   */\n      add\n        /* \"#utility.yul\":15787:15793   */\n      dup7\n        /* \"#utility.yul\":15743:15814   */\n      tag_156\n      jump\t// in\n    tag_344:\n        /* \"#utility.yul\":15861:15870   */\n      dup2\n        /* \"#utility.yul\":15855:15859   */\n      dup2\n        /* \"#utility.yul\":15851:15871   */\n      sub\n        /* \"#utility.yul\":15846:15848   */\n      0x20\n        /* \"#utility.yul\":15835:15844   */\n      dup4\n        /* \"#utility.yul\":15831:15849   */\n      add\n        /* \"#utility.yul\":15824:15872   */\n      mstore\n        /* \"#utility.yul\":15889:15967   */\n      tag_345\n        /* \"#utility.yul\":15962:15966   */\n      dup2\n        /* \"#utility.yul\":15953:15959   */\n      dup6\n        /* \"#utility.yul\":15889:15967   */\n      tag_152\n      jump\t// in\n    tag_345:\n        /* \"#utility.yul\":15881:15967   */\n      swap1\n      pop\n        /* \"#utility.yul\":16014:16023   */\n      dup2\n        /* \"#utility.yul\":16008:16012   */\n      dup2\n        /* \"#utility.yul\":16004:16024   */\n      sub\n        /* \"#utility.yul\":15999:16001   */\n      0x40\n        /* \"#utility.yul\":15988:15997   */\n      dup4\n        /* \"#utility.yul\":15984:16002   */\n      add\n        /* \"#utility.yul\":15977:16025   */\n      mstore\n        /* \"#utility.yul\":16042:16120   */\n      tag_346\n        /* \"#utility.yul\":16115:16119   */\n      dup2\n        /* \"#utility.yul\":16106:16112   */\n      dup5\n        /* \"#utility.yul\":16042:16120   */\n      tag_152\n      jump\t// in\n    tag_346:\n        /* \"#utility.yul\":16034:16120   */\n      swap1\n      pop\n        /* \"#utility.yul\":15503:16127   */\n      swap5\n      swap4\n      pop\n      pop\n      pop\n      pop\n      jump\t// out\n        /* \"#utility.yul\":16133:16304   */\n    tag_177:\n        /* \"#utility.yul\":16273:16296   */\n      0x496e76616c696420686973746f727920696e6465780000000000000000000000\n        /* \"#utility.yul\":16269:16270   */\n      0x00\n        /* \"#utility.yul\":16261:16267   */\n      dup3\n        /* \"#utility.yul\":16257:16271   */\n      add\n        /* \"#utility.yul\":16250:16297   */\n      mstore\n        /* \"#utility.yul\":16133:16304   */\n      pop\n      jump\t// out\n        /* \"#utility.yul\":16310:16676   */\n    tag_178:\n        /* \"#utility.yul\":16452:16455   */\n      0x00\n        /* \"#utility.yul\":16473:16540   */\n      tag_349\n        /* \"#utility.yul\":16537:16539   */\n      0x15\n        /* \"#utility.yul\":16532:16535   */\n      dup4\n        /* \"#utility.yul\":16473:16540   */\n      tag_150\n      jump\t// in\n    tag_349:\n        /* \"#utility.yul\":16466:16540   */\n      swap2\n      pop\n        /* \"#utility.yul\":16549:16642   */\n      tag_350\n        /* \"#utility.yul\":16638:16641   */\n      dup3\n        /* \"#utility.yul\":16549:16642   */\n      tag_177\n      jump\t// in\n    tag_350:\n        /* \"#utility.yul\":16667:16669   */\n      0x20\n        /* \"#utility.yul\":16662:16665   */\n      dup3\n        /* \"#utility.yul\":16658:16670   */\n      add\n        /* \"#utility.yul\":16651:16670   */\n      swap1\n      pop\n        /* \"#utility.yul\":16310:16676   */\n      swap2\n      swap1\n      pop\n      jump\t// out\n        /* \"#utility.yul\":16682:17101   */\n    tag_57:\n        /* \"#utility.yul\":16848:16852   */\n      0x00\n        /* \"#utility.yul\":16886:16888   */\n      0x20\n        /* \"#utility.yul\":16875:16884   */\n      dup3\n        /* \"#utility.yul\":16871:16889   */\n      add\n        /* \"#utility.yul\":16863:16889   */\n      swap1\n      pop\n        /* \"#utility.yul\":16935:16944   */\n      dup2\n        /* \"#utility.yul\":16929:16933   */\n      dup2\n        /* \"#utility.yul\":16925:16945   */\n      sub\n        /* \"#utility.yul\":16921:16922   */\n      0x00\n        /* \"#utility.yul\":16910:16919   */\n      dup4\n        /* \"#utility.yul\":16906:16923   */\n      add\n        /* \"#utility.yul\":16899:16946   */\n      mstore\n        /* \"#utility.yul\":16963:17094   */\n      tag_352\n        /* \"#utility.yul\":17089:17093   */\n      dup2\n        /* \"#utility.yul\":16963:17094   */\n      tag_178\n      jump\t// in\n    tag_352:\n        /* \"#utility.yul\":16955:17094   */\n      swap1\n      pop\n        /* \"#utility.yul\":16682:17101   */\n      swap2\n      swap1\n      pop\n      jump\t// out\n        /* \"#utility.yul\":17107:17287   */\n    tag_60:\n        /* \"#utility.yul\":17155:17232   */\n      0x4e487b7100000000000000000000000000000000000000000000000000000000\n        /* \"#utility.yul\":17152:17153   */\n      0x00\n        /* \"#utility.yul\":17145:17233   */\n      mstore\n        /* \"#utility.yul\":17252:17256   */\n      0x32\n        /* \"#utility.yul\":17249:17250   */\n      0x04\n        /* \"#utility.yul\":17242:17257   */\n      mstore\n        /* \"#utility.yul\":17276:17280   */\n      0x24\n        /* \"#utility.yul\":17273:17274   */\n      0x00\n        /* \"#utility.yul\":17266:17281   */\n      revert\n        /* \"#utility.yul\":17293:17465   */\n    tag_179:\n        /* \"#utility.yul\":17433:17457   */\n      0x50726f6475637420616c72656164792065786973747300000000000000000000\n        /* \"#utility.yul\":17429:17430   */\n      0x00\n        /* \"#utility.yul\":17421:17427   */\n      dup3\n        /* \"#utility.yul\":17417:17431   */\n      add\n        /* \"#utility.yul\":17410:17458   */\n      mstore\n        /* \"#utility.yul\":17293:17465   */\n      pop\n      jump\t// out\n        /* \"#utility.yul\":17471:17837   */\n    tag_180:\n        /* \"#utility.yul\":17613:17616   */\n      0x00\n        /* \"#utility.yul\":17634:17701   */\n      tag_356\n        /* \"#utility.yul\":17698:17700   */\n      0x16\n        /* \"#utility.yul\":17693:17696   */\n      dup4\n        /* \"#utility.yul\":17634:17701   */\n      tag_150\n      jump\t// in\n    tag_356:\n        /* \"#utility.yul\":17627:17701   */\n      swap2\n      pop\n        /* \"#utility.yul\":17710:17803   */\n      tag_357\n        /* \"#utility.yul\":17799:17802   */\n      dup3\n        /* \"#utility.yul\":17710:17803   */\n      tag_179\n      jump\t// in\n    tag_357:\n        /* \"#utility.yul\":17828:17830   */\n      0x20\n        /* \"#utility.yul\":17823:17826   */\n      dup3\n        /* \"#utility.yul\":17819:17831   */\n      add\n        /* \"#utility.yul\":17812:17831   */\n      swap1\n      pop\n        /* \"#utility.yul\":17471:17837   */\n      swap2\n      swap1\n      pop\n      jump\t// out\n        /* \"#utility.yul\":17843:18262   */\n    tag_80:\n        /* \"#utility.yul\":18009:18013   */\n      0x00\n        /* \"#utility.yul\":18047:18049   */\n      0x20\n        /* \"#utility.yul\":18036:18045   */\n      dup3\n        /* \"#utility.yul\":18032:18050   */\n      add\n        /* \"#utility.yul\":18024:18050   */\n      swap1\n      pop\n        /* \"#utility.yul\":18096:18105   */\n      dup2\n        /* \"#utility.yul\":18090:18094   */\n      dup2\n        /* \"#utility.yul\":18086:18106   */\n      sub\n        /* \"#utility.yul\":18082:18083   */\n      0x00\n        /* \"#utility.yul\":18071:18080   */\n      dup4\n        /* \"#utility.yul\":18067:18084   */\n      add\n        /* \"#utility.yul\":18060:18107   */\n      mstore\n        /* \"#utility.yul\":18124:18255   */\n      tag_359\n        /* \"#utility.yul\":18250:18254   */\n      dup2\n        /* \"#utility.yul\":18124:18255   */\n      tag_180\n      jump\t// in\n    tag_359:\n        /* \"#utility.yul\":18116:18255   */\n      swap1\n      pop\n        /* \"#utility.yul\":17843:18262   */\n      swap2\n      swap1\n      pop\n      jump\t// out\n\n    auxdata: 0xa26469706673582212206925dfe5fb5df5937906cfec675cfcaf486eae67cd9863397fe2ef27c775380d64736f6c63430008140033\n}\n",
				"bytecode": {
					"linkReferences": {},
					"object": "608060405234801561001057600080fd5b506118ae806100206000396000f3fe608060405234801561001057600080fd5b50600436106100625760003560e01c80630ecbabff1461006757806342a333ef1461008357806378347712146100b6578063787da881146100e65780637acc0b2014610102578063b9db15b414610138575b600080fd5b610081600480360381019061007c919061108a565b61016d565b005b61009d60048036038101906100989190611115565b610349565b6040516100ad9493929190611224565b60405180910390f35b6100d060048036038101906100cb9190611277565b6105f7565b6040516100dd91906112a4565b60405180910390f35b61010060048036038101906100fb919061108a565b61067b565b005b61011c60048036038101906101179190611277565b610951565b60405161012f97969594939291906112da565b60405180910390f35b610152600480360381019061014d9190611277565b610bc0565b60405161016496959493929190611365565b60405180910390f35b8260008082815260200190815260200160002060060160009054906101000a900460ff166101d0576040517f08c379a00000000000000000000000000000000000000000000000000000000081526004016101c79061142e565b60405180910390fd5b8260008086815260200190815260200160002060030190816101f2919061165a565b50816000808681526020019081526020016000206004019081610215919061165a565b506001600085815260200190815260200160002060405180608001604052808581526020018481526020013373ffffffffffffffffffffffffffffffffffffffff168152602001428152509080600181540180825580915050600190039060005260206000209060040201600090919091909150600082015181600001908161029e919061165a565b5060208201518160010190816102b4919061165a565b5060408201518160020160006101000a81548173ffffffffffffffffffffffffffffffffffffffff021916908373ffffffffffffffffffffffffffffffffffffffff1602179055506060820151816003015550507f7271245d4c0e6ecb7b215a1e937a2779d1aeb51318c042c9b05d0a446a58800984848460405161033b9392919061172c565b60405180910390a150505050565b6060806000808560008082815260200190815260200160002060060160009054906101000a900460ff166103b2576040517f08c379a00000000000000000000000000000000000000000000000000000000081526004016103a99061142e565b60405180910390fd5b6001600088815260200190815260200160002080549050861061040a576040517f08c379a0000000000000000000000000000000000000000000000000000000008152600401610401906117bd565b60405180910390fd5b6000600160008981526020019081526020016000208781548110610431576104306117dd565b5b906000526020600020906004020160405180608001604052908160008201805461045a9061147d565b80601f01602080910402602001604051908101604052809291908181526020018280546104869061147d565b80156104d35780601f106104a8576101008083540402835291602001916104d3565b820191906000526020600020905b8154815290600101906020018083116104b657829003601f168201915b505050505081526020016001820180546104ec9061147d565b80601f01602080910402602001604051908101604052809291908181526020018280546105189061147d565b80156105655780601f1061053a57610100808354040283529160200191610565565b820191906000526020600020905b81548152906001019060200180831161054857829003601f168201915b505050505081526020016002820160009054906101000a900473ffffffffffffffffffffffffffffffffffffffff1673ffffffffffffffffffffffffffffffffffffffff1673ffffffffffffffffffffffffffffffffffffffff168152602001600382015481525050905080600001518160200151826040015183606001519550955095509550505092959194509250565b60008160008082815260200190815260200160002060060160009054906101000a900460ff1661065c576040517f08c379a00000000000000000000000000000000000000000000000000000000081526004016106539061142e565b60405180910390fd5b6001600084815260200190815260200160002080549050915050919050565b60008084815260200190815260200160002060060160009054906101000a900460ff16156106de576040517f08c379a00000000000000000000000000000000000000000000000000000000081526004016106d590611858565b60405180910390fd5b6040518060e001604052808481526020018381526020018281526020018281526020016040518060400160405280600781526020017f437265617465640000000000000000000000000000000000000000000000000081525081526020014281526020016001151581525060008085815260200190815260200160002060008201518160000155602082015181600101908161077a919061165a565b506040820151816002019081610790919061165a565b5060608201518160030190816107a6919061165a565b5060808201518160040190816107bc919061165a565b5060a0820151816005015560c08201518160060160006101000a81548160ff0219169083151502179055509050506001600084815260200190815260200160002060405180608001604052808381526020016040518060400160405280600781526020017f437265617465640000000000000000000000000000000000000000000000000081525081526020013373ffffffffffffffffffffffffffffffffffffffff16815260200142815250908060018154018082558091505060019003906000526020600020906004020160009091909190915060008201518160000190816108a7919061165a565b5060208201518160010190816108bd919061165a565b5060408201518160020160006101000a81548173ffffffffffffffffffffffffffffffffffffffff021916908373ffffffffffffffffffffffffffffffffffffffff1602179055506060820151816003015550507f2bc22403ccd085646fd0acc393542b3ca6d3f180f4fde70629d5087364decbb58383836040516109449392919061172c565b60405180910390a1505050565b600060205280600052604060002060009150905080600001549080600101805461097a9061147d565b80601f01602080910402602001604051908101604052809291908181526020018280546109a69061147d565b80156109f35780601f106109c8576101008083540402835291602001916109f3565b820191906000526020600020905b8154815290600101906020018083116109d657829003601f168201915b505050505090806002018054610a089061147d565b80601f0160208091040260200160405190810160405280929190818152602001828054610a349061147d565b8015610a815780601f10610a5657610100808354040283529160200191610a81565b820191906000526020600020905b815481529060010190602001808311610a6457829003601f168201915b505050505090806003018054610a969061147d565b80601f0160208091040260200160405190810160405280929190818152602001828054610ac29061147d565b8015610b0f5780601f10610ae457610100808354040283529160200191610b0f565b820191906000526020600020905b815481529060010190602001808311610af257829003601f168201915b505050505090806004018054610b249061147d565b80601f0160208091040260200160405190810160405280929190818152602001828054610b509061147d565b8015610b9d5780601f10610b7257610100808354040283529160200191610b9d565b820191906000526020600020905b815481529060010190602001808311610b8057829003601f168201915b5050505050908060050154908060060160009054906101000a900460ff16905087565b600060608060608060008660008082815260200190815260200160002060060160009054906101000a900460ff16610c2d576040517f08c379a0000000000000000000000000000000000000000000000000000000008152600401610c249061142e565b60405180910390fd5b60008060008a81526020019081526020016000206040518060e001604052908160008201548152602001600182018054610c669061147d565b80601f0160208091040260200160405190810160405280929190818152602001828054610c929061147d565b8015610cdf5780601f10610cb457610100808354040283529160200191610cdf565b820191906000526020600020905b815481529060010190602001808311610cc257829003601f168201915b50505050508152602001600282018054610cf89061147d565b80601f0160208091040260200160405190810160405280929190818152602001828054610d249061147d565b8015610d715780601f10610d4657610100808354040283529160200191610d71565b820191906000526020600020905b815481529060010190602001808311610d5457829003601f168201915b50505050508152602001600382018054610d8a9061147d565b80601f0160208091040260200160405190810160405280929190818152602001828054610db69061147d565b8015610e035780601f10610dd857610100808354040283529160200191610e03565b820191906000526020600020905b815481529060010190602001808311610de657829003601f168201915b50505050508152602001600482018054610e1c9061147d565b80601f0160208091040260200160405190810160405280929190818152602001828054610e489061147d565b8015610e955780601f10610e6a57610100808354040283529160200191610e95565b820191906000526020600020905b815481529060010190602001808311610e7857829003601f168201915b50505050508152602001600582015481526020016006820160009054906101000a900460ff1615151515815250509050806000015181602001518260400151836060015184608001518560a00151975097509750975097509750505091939550919395565b6000604051905090565b600080fd5b600080fd5b6000819050919050565b610f2181610f0e565b8114610f2c57600080fd5b50565b600081359050610f3e81610f18565b92915050565b600080fd5b600080fd5b6000601f19601f8301169050919050565b7f4e487b7100000000000000000000000000000000000000000000000000000000600052604160045260246000fd5b610f9782610f4e565b810181811067ffffffffffffffff82111715610fb657610fb5610f5f565b5b80604052505050565b6000610fc9610efa565b9050610fd58282610f8e565b919050565b600067ffffffffffffffff821115610ff557610ff4610f5f565b5b610ffe82610f4e565b9050602081019050919050565b82818337600083830152505050565b600061102d61102884610fda565b610fbf565b90508281526020810184848401111561104957611048610f49565b5b61105484828561100b565b509392505050565b600082601f83011261107157611070610f44565b5b813561108184826020860161101a565b91505092915050565b6000806000606084860312156110a3576110a2610f04565b5b60006110b186828701610f2f565b935050602084013567ffffffffffffffff8111156110d2576110d1610f09565b5b6110de8682870161105c565b925050604084013567ffffffffffffffff8111156110ff576110fe610f09565b5b61110b8682870161105c565b9150509250925092565b6000806040838503121561112c5761112b610f04565b5b600061113a85828601610f2f565b925050602061114b85828601610f2f565b9150509250929050565b600081519050919050565b600082825260208201905092915050565b60005b8381101561118f578082015181840152602081019050611174565b60008484015250505050565b60006111a682611155565b6111b08185611160565b93506111c0818560208601611171565b6111c981610f4e565b840191505092915050565b600073ffffffffffffffffffffffffffffffffffffffff82169050919050565b60006111ff826111d4565b9050919050565b61120f816111f4565b82525050565b61121e81610f0e565b82525050565b6000608082019050818103600083015261123e818761119b565b90508181036020830152611252818661119b565b90506112616040830185611206565b61126e6060830184611215565b95945050505050565b60006020828403121561128d5761128c610f04565b5b600061129b84828501610f2f565b91505092915050565b60006020820190506112b96000830184611215565b92915050565b60008115159050919050565b6112d4816112bf565b82525050565b600060e0820190506112ef600083018a611215565b8181036020830152611301818961119b565b90508181036040830152611315818861119b565b90508181036060830152611329818761119b565b9050818103608083015261133d818661119b565b905061134c60a0830185611215565b61135960c08301846112cb565b98975050505050505050565b600060c08201905061137a6000830189611215565b818103602083015261138c818861119b565b905081810360408301526113a0818761119b565b905081810360608301526113b4818661119b565b905081810360808301526113c8818561119b565b90506113d760a0830184611215565b979650505050505050565b7f50726f6475637420646f6573206e6f7420657869737400000000000000000000600082015250565b6000611418601683611160565b9150611423826113e2565b602082019050919050565b600060208201905081810360008301526114478161140b565b9050919050565b7f4e487b7100000000000000000000000000000000000000000000000000000000600052602260045260246000fd5b6000600282049050600182168061149557607f821691505b6020821081036114a8576114a761144e565b5b50919050565b60008190508160005260206000209050919050565b60006020601f8301049050919050565b600082821b905092915050565b6000600883026115107fffffffffffffffffffffffffffffffffffffffffffffffffffffffffffffffff826114d3565b61151a86836114d3565b95508019841693508086168417925050509392505050565b6000819050919050565b600061155761155261154d84610f0e565b611532565b610f0e565b9050919050565b6000819050919050565b6115718361153c565b61158561157d8261155e565b8484546114e0565b825550505050565b600090565b61159a61158d565b6115a5818484611568565b505050565b5b818110156115c9576115be600082611592565b6001810190506115ab565b5050565b601f82111561160e576115df816114ae565b6115e8846114c3565b810160208510156115f7578190505b61160b611603856114c3565b8301826115aa565b50505b505050565b600082821c905092915050565b600061163160001984600802611613565b1980831691505092915050565b600061164a8383611620565b9150826002028217905092915050565b61166382611155565b67ffffffffffffffff81111561167c5761167b610f5f565b5b611686825461147d565b6116918282856115cd565b600060209050601f8311600181146116c457600084156116b2578287015190505b6116bc858261163e565b865550611724565b601f1984166116d2866114ae565b60005b828110156116fa578489015182556001820191506020850194506020810190506116d5565b868310156117175784890151611713601f891682611620565b8355505b6001600288020188555050505b505050505050565b60006060820190506117416000830186611215565b8181036020830152611753818561119b565b90508181036040830152611767818461119b565b9050949350505050565b7f496e76616c696420686973746f727920696e6465780000000000000000000000600082015250565b60006117a7601583611160565b91506117b282611771565b602082019050919050565b600060208201905081810360008301526117d68161179a565b9050919050565b7f4e487b7100000000000000000000000000000000000000000000000000000000600052603260045260246000fd5b7f50726f6475637420616c72656164792065786973747300000000000000000000600082015250565b6000611842601683611160565b915061184d8261180c565b602082019050919050565b6000602082019050818103600083015261187181611835565b905091905056fea26469706673582212206925dfe5fb5df5937906cfec675cfcaf486eae67cd9863397fe2ef27c775380d64736f6c63430008140033",
					"opcodes": "PUSH1 0x80 PUSH1 0x40 MSTORE CALLVALUE DUP1 ISZERO PUSH2 0x10 JUMPI PUSH1 0x0 DUP1 REVERT JUMPDEST POP PUSH2 0x18AE DUP1 PUSH2 0x20 PUSH1 0x0 CODECOPY PUSH1 0x0 RETURN INVALID PUSH1 0x80 PUSH1 0x40 MSTORE CALLVALUE DUP1 ISZERO PUSH2 0x10 JUMPI PUSH1 0x0 DUP1 REVERT JUMPDEST POP PUSH1 0x4 CALLDATASIZE LT PUSH2 0x62 JUMPI PUSH1 0x0 CALLDATALOAD PUSH1 0xE0 SHR DUP1 PUSH4 0xECBABFF EQ PUSH2 0x67 JUMPI DUP1 PUSH4 0x42A333EF EQ PUSH2 0x83 JUMPI DUP1 PUSH4 0x78347712 EQ PUSH2 0xB6 JUMPI DUP1 PUSH4 0x787DA881 EQ PUSH2 0xE6 JUMPI DUP1 PUSH4 0x7ACC0B20 EQ PUSH2 0x102 JUMPI DUP1 PUSH4 0xB9DB15B4 EQ PUSH2 0x138 JUMPI JUMPDEST PUSH1 0x0 DUP1 REVERT JUMPDEST PUSH2 0x81 PUSH1 0x4 DUP1 CALLDATASIZE SUB DUP2 ADD SWAP1 PUSH2 0x7C SWAP2 SWAP1 PUSH2 0x108A JUMP JUMPDEST PUSH2 0x16D JUMP JUMPDEST STOP JUMPDEST PUSH2 0x9D PUSH1 0x4 DUP1 CALLDATASIZE SUB DUP2 ADD SWAP1 PUSH2 0x98 SWAP2 SWAP1 PUSH2 0x1115 JUMP JUMPDEST PUSH2 0x349 JUMP JUMPDEST PUSH1 0x40 MLOAD PUSH2 0xAD SWAP5 SWAP4 SWAP3 SWAP2 SWAP1 PUSH2 0x1224 JUMP JUMPDEST PUSH1 0x40 MLOAD DUP1 SWAP2 SUB SWAP1 RETURN JUMPDEST PUSH2 0xD0 PUSH1 0x4 DUP1 CALLDATASIZE SUB DUP2 ADD SWAP1 PUSH2 0xCB SWAP2 SWAP1 PUSH2 0x1277 JUMP JUMPDEST PUSH2 0x5F7 JUMP JUMPDEST PUSH1 0x40 MLOAD PUSH2 0xDD SWAP2 SWAP1 PUSH2 0x12A4 JUMP JUMPDEST PUSH1 0x40 MLOAD DUP1 SWAP2 SUB SWAP1 RETURN JUMPDEST PUSH2 0x100 PUSH1 0x4 DUP1 CALLDATASIZE SUB DUP2 ADD SWAP1 PUSH2 0xFB SWAP2 SWAP1 PUSH2 0x108A JUMP JUMPDEST PUSH2 0x67B JUMP JUMPDEST STOP JUMPDEST PUSH2 0x11C PUSH1 0x4 DUP1 CALLDATASIZE SUB DUP2 ADD SWAP1 PUSH2 0x117 SWAP2 SWAP1 PUSH2 0x1277 JUMP JUMPDEST PUSH2 0x951 JUMP JUMPDEST PUSH1 0x40 MLOAD PUSH2 0x12F SWAP8 SWAP7 SWAP6 SWAP5 SWAP4 SWAP3 SWAP2 SWAP1 PUSH2 0x12DA JUMP JUMPDEST PUSH1 0x40 MLOAD DUP1 SWAP2 SUB SWAP1 RETURN JUMPDEST PUSH2 0x152 PUSH1 0x4 DUP1 CALLDATASIZE SUB DUP2 ADD SWAP1 PUSH2 0x14D SWAP2 SWAP1 PUSH2 0x1277 JUMP JUMPDEST PUSH2 0xBC0 JUMP JUMPDEST PUSH1 0x40 MLOAD PUSH2 0x164 SWAP7 SWAP6 SWAP5 SWAP4 SWAP3 SWAP2 SWAP1 PUSH2 0x1365 JUMP JUMPDEST PUSH1 0x40 MLOAD DUP1 SWAP2 SUB SWAP1 RETURN JUMPDEST DUP3 PUSH1 0x0 DUP1 DUP3 DUP2 MSTORE PUSH1 0x20 ADD SWAP1 DUP2 MSTORE PUSH1 0x20 ADD PUSH1 0x0 KECCAK256 PUSH1 0x6 ADD PUSH1 0x0 SWAP1 SLOAD SWAP1 PUSH2 0x100 EXP SWAP1 DIV PUSH1 0xFF AND PUSH2 0x1D0 JUMPI PUSH1 0x40 MLOAD PUSH32 0x8C379A000000000000000000000000000000000000000000000000000000000 DUP2 MSTORE PUSH1 0x4 ADD PUSH2 0x1C7 SWAP1 PUSH2 0x142E JUMP JUMPDEST PUSH1 0x40 MLOAD DUP1 SWAP2 SUB SWAP1 REVERT JUMPDEST DUP3 PUSH1 0x0 DUP1 DUP7 DUP2 MSTORE PUSH1 0x20 ADD SWAP1 DUP2 MSTORE PUSH1 0x20 ADD PUSH1 0x0 KECCAK256 PUSH1 0x3 ADD SWAP1 DUP2 PUSH2 0x1F2 SWAP2 SWAP1 PUSH2 0x165A JUMP JUMPDEST POP DUP2 PUSH1 0x0 DUP1 DUP7 DUP2 MSTORE PUSH1 0x20 ADD SWAP1 DUP2 MSTORE PUSH1 0x20 ADD PUSH1 0x0 KECCAK256 PUSH1 0x4 ADD SWAP1 DUP2 PUSH2 0x215 SWAP2 SWAP1 PUSH2 0x165A JUMP JUMPDEST POP PUSH1 0x1 PUSH1 0x0 DUP6 DUP2 MSTORE PUSH1 0x20 ADD SWAP1 DUP2 MSTORE PUSH1 0x20 ADD PUSH1 0x0 KECCAK256 PUSH1 0x40 MLOAD DUP1 PUSH1 0x80 ADD PUSH1 0x40 MSTORE DUP1 DUP6 DUP2 MSTORE PUSH1 0x20 ADD DUP5 DUP2 MSTORE PUSH1 0x20 ADD CALLER PUSH20 0xFFFFFFFFFFFFFFFFFFFFFFFFFFFFFFFFFFFFFFFF AND DUP2 MSTORE PUSH1 0x20 ADD TIMESTAMP DUP2 MSTORE POP SWAP1 DUP1 PUSH1 0x1 DUP2 SLOAD ADD DUP1 DUP3 SSTORE DUP1 SWAP2 POP POP PUSH1 0x1 SWAP1 SUB SWAP1 PUSH1 0x0 MSTORE PUSH1 0x20 PUSH1 0x0 KECCAK256 SWAP1 PUSH1 0x4 MUL ADD PUSH1 0x0 SWAP1 SWAP2 SWAP1 SWAP2 SWAP1 SWAP2 POP PUSH1 0x0 DUP3 ADD MLOAD DUP2 PUSH1 0x0 ADD SWAP1 DUP2 PUSH2 0x29E SWAP2 SWAP1 PUSH2 0x165A JUMP JUMPDEST POP PUSH1 0x20 DUP3 ADD MLOAD DUP2 PUSH1 0x1 ADD SWAP1 DUP2 PUSH2 0x2B4 SWAP2 SWAP1 PUSH2 0x165A JUMP JUMPDEST POP PUSH1 0x40 DUP3 ADD MLOAD DUP2 PUSH1 0x2 ADD PUSH1 0x0 PUSH2 0x100 EXP DUP2 SLOAD DUP2 PUSH20 0xFFFFFFFFFFFFFFFFFFFFFFFFFFFFFFFFFFFFFFFF MUL NOT AND SWAP1 DUP4 PUSH20 0xFFFFFFFFFFFFFFFFFFFFFFFFFFFFFFFFFFFFFFFF AND MUL OR SWAP1 SSTORE POP PUSH1 0x60 DUP3 ADD MLOAD DUP2 PUSH1 0x3 ADD SSTORE POP POP PUSH32 0x7271245D4C0E6ECB7B215A1E937A2779D1AEB51318C042C9B05D0A446A588009 DUP5 DUP5 DUP5 PUSH1 0x40 MLOAD PUSH2 0x33B SWAP4 SWAP3 SWAP2 SWAP1 PUSH2 0x172C JUMP JUMPDEST PUSH1 0x40 MLOAD DUP1 SWAP2 SUB SWAP1 LOG1 POP POP POP POP JUMP JUMPDEST PUSH1 0x60 DUP1 PUSH1 0x0 DUP1 DUP6 PUSH1 0x0 DUP1 DUP3 DUP2 MSTORE PUSH1 0x20 ADD SWAP1 DUP2 MSTORE PUSH1 0x20 ADD PUSH1 0x0 KECCAK256 PUSH1 0x6 ADD PUSH1 0x0 SWAP1 SLOAD SWAP1 PUSH2 0x100 EXP SWAP1 DIV PUSH1 0xFF AND PUSH2 0x3B2 JUMPI PUSH1 0x40 MLOAD PUSH32 0x8C379A000000000000000000000000000000000000000000000000000000000 DUP2 MSTORE PUSH1 0x4 ADD PUSH2 0x3A9 SWAP1 PUSH2 0x142E JUMP JUMPDEST PUSH1 0x40 MLOAD DUP1 SWAP2 SUB SWAP1 REVERT JUMPDEST PUSH1 0x1 PUSH1 0x0 DUP9 DUP2 MSTORE PUSH1 0x20 ADD SWAP1 DUP2 MSTORE PUSH1 0x20 ADD PUSH1 0x0 KECCAK256 DUP1 SLOAD SWAP1 POP DUP7 LT PUSH2 0x40A JUMPI PUSH1 0x40 MLOAD PUSH32 0x8C379A000000000000000000000000000000000000000000000000000000000 DUP2 MSTORE PUSH1 0x4 ADD PUSH2 0x401 SWAP1 PUSH2 0x17BD JUMP JUMPDEST PUSH1 0x40 MLOAD DUP1 SWAP2 SUB SWAP1 REVERT JUMPDEST PUSH1 0x0 PUSH1 0x1 PUSH1 0x0 DUP10 DUP2 MSTORE PUSH1 0x20 ADD SWAP1 DUP2 MSTORE PUSH1 0x20 ADD PUSH1 0x0 KECCAK256 DUP8 DUP2 SLOAD DUP2 LT PUSH2 0x431 JUMPI PUSH2 0x430 PUSH2 0x17DD JUMP JUMPDEST JUMPDEST SWAP1 PUSH1 0x0 MSTORE PUSH1 0x20 PUSH1 0x0 KECCAK256 SWAP1 PUSH1 0x4 MUL ADD PUSH1 0x40 MLOAD DUP1 PUSH1 0x80 ADD PUSH1 0x40 MSTORE SWAP1 DUP2 PUSH1 0x0 DUP3 ADD DUP1 SLOAD PUSH2 0x45A SWAP1 PUSH2 0x147D JUMP JUMPDEST DUP1 PUSH1 0x1F ADD PUSH1 0x20 DUP1 SWAP2 DIV MUL PUSH1 0x20 ADD PUSH1 0x40 MLOAD SWAP1 DUP2 ADD PUSH1 0x40 MSTORE DUP1 SWAP3 SWAP2 SWAP1 DUP2 DUP2 MSTORE PUSH1 0x20 ADD DUP3 DUP1 SLOAD PUSH2 0x486 SWAP1 PUSH2 0x147D JUMP JUMPDEST DUP1 ISZERO PUSH2 0x4D3 JUMPI DUP1 PUSH1 0x1F LT PUSH2 0x4A8 JUMPI PUSH2 0x100 DUP1 DUP4 SLOAD DIV MUL DUP4 MSTORE SWAP2 PUSH1 0x20 ADD SWAP2 PUSH2 0x4D3 JUMP JUMPDEST DUP3 ADD SWAP2 SWAP1 PUSH1 0x0 MSTORE PUSH1 0x20 PUSH1 0x0 KECCAK256 SWAP1 JUMPDEST DUP2 SLOAD DUP2 MSTORE SWAP1 PUSH1 0x1 ADD SWAP1 PUSH1 0x20 ADD DUP1 DUP4 GT PUSH2 0x4B6 JUMPI DUP3 SWAP1 SUB PUSH1 0x1F AND DUP3 ADD SWAP2 JUMPDEST POP POP POP POP POP DUP2 MSTORE PUSH1 0x20 ADD PUSH1 0x1 DUP3 ADD DUP1 SLOAD PUSH2 0x4EC SWAP1 PUSH2 0x147D JUMP JUMPDEST DUP1 PUSH1 0x1F ADD PUSH1 0x20 DUP1 SWAP2 DIV MUL PUSH1 0x20 ADD PUSH1 0x40 MLOAD SWAP1 DUP2 ADD PUSH1 0x40 MSTORE DUP1 SWAP3 SWAP2 SWAP1 DUP2 DUP2 MSTORE PUSH1 0x20 ADD DUP3 DUP1 SLOAD PUSH2 0x518 SWAP1 PUSH2 0x147D JUMP JUMPDEST DUP1 ISZERO PUSH2 0x565 JUMPI DUP1 PUSH1 0x1F LT PUSH2 0x53A JUMPI PUSH2 0x100 DUP1 DUP4 SLOAD DIV MUL DUP4 MSTORE SWAP2 PUSH1 0x20 ADD SWAP2 PUSH2 0x565 JUMP JUMPDEST DUP3 ADD SWAP2 SWAP1 PUSH1 0x0 MSTORE PUSH1 0x20 PUSH1 0x0 KECCAK256 SWAP1 JUMPDEST DUP2 SLOAD DUP2 MSTORE SWAP1 PUSH1 0x1 ADD SWAP1 PUSH1 0x20 ADD DUP1 DUP4 GT PUSH2 0x548 JUMPI DUP3 SWAP1 SUB PUSH1 0x1F AND DUP3 ADD SWAP2 JUMPDEST POP POP POP POP POP DUP2 MSTORE PUSH1 0x20 ADD PUSH1 0x2 DUP3 ADD PUSH1 0x0 SWAP1 SLOAD SWAP1 PUSH2 0x100 EXP SWAP1 DIV PUSH20 0xFFFFFFFFFFFFFFFFFFFFFFFFFFFFFFFFFFFFFFFF AND PUSH20 0xFFFFFFFFFFFFFFFFFFFFFFFFFFFFFFFFFFFFFFFF AND PUSH20 0xFFFFFFFFFFFFFFFFFFFFFFFFFFFFFFFFFFFFFFFF AND DUP2 MSTORE PUSH1 0x20 ADD PUSH1 0x3 DUP3 ADD SLOAD DUP2 MSTORE POP POP SWAP1 POP DUP1 PUSH1 0x0 ADD MLOAD DUP2 PUSH1 0x20 ADD MLOAD DUP3 PUSH1 0x40 ADD MLOAD DUP4 PUSH1 0x60 ADD MLOAD SWAP6 POP SWAP6 POP SWAP6 POP SWAP6 POP POP POP SWAP3 SWAP6 SWAP2 SWAP5 POP SWAP3 POP JUMP JUMPDEST PUSH1 0x0 DUP2 PUSH1 0x0 DUP1 DUP3 DUP2 MSTORE PUSH1 0x20 ADD SWAP1 DUP2 MSTORE PUSH1 0x20 ADD PUSH1 0x0 KECCAK256 PUSH1 0x6 ADD PUSH1 0x0 SWAP1 SLOAD SWAP1 PUSH2 0x100 EXP SWAP1 DIV PUSH1 0xFF AND PUSH2 0x65C JUMPI PUSH1 0x40 MLOAD PUSH32 0x8C379A000000000000000000000000000000000000000000000000000000000 DUP2 MSTORE PUSH1 0x4 ADD PUSH2 0x653 SWAP1 PUSH2 0x142E JUMP JUMPDEST PUSH1 0x40 MLOAD DUP1 SWAP2 SUB SWAP1 REVERT JUMPDEST PUSH1 0x1 PUSH1 0x0 DUP5 DUP2 MSTORE PUSH1 0x20 ADD SWAP1 DUP2 MSTORE PUSH1 0x20 ADD PUSH1 0x0 KECCAK256 DUP1 SLOAD SWAP1 POP SWAP2 POP POP SWAP2 SWAP1 POP JUMP JUMPDEST PUSH1 0x0 DUP1 DUP5 DUP2 MSTORE PUSH1 0x20 ADD SWAP1 DUP2 MSTORE PUSH1 0x20 ADD PUSH1 0x0 KECCAK256 PUSH1 0x6 ADD PUSH1 0x0 SWAP1 SLOAD SWAP1 PUSH2 0x100 EXP SWAP1 DIV PUSH1 0xFF AND ISZERO PUSH2 0x6DE JUMPI PUSH1 0x40 MLOAD PUSH32 0x8C379A000000000000000000000000000000000000000000000000000000000 DUP2 MSTORE PUSH1 0x4 ADD PUSH2 0x6D5 SWAP1 PUSH2 0x1858 JUMP JUMPDEST PUSH1 0x40 MLOAD DUP1 SWAP2 SUB SWAP1 REVERT JUMPDEST PUSH1 0x40 MLOAD DUP1 PUSH1 0xE0 ADD PUSH1 0x40 MSTORE DUP1 DUP5 DUP2 MSTORE PUSH1 0x20 ADD DUP4 DUP2 MSTORE PUSH1 0x20 ADD DUP3 DUP2 MSTORE PUSH1 0x20 ADD DUP3 DUP2 MSTORE PUSH1 0x20 ADD PUSH1 0x40 MLOAD DUP1 PUSH1 0x40 ADD PUSH1 0x40 MSTORE DUP1 PUSH1 0x7 DUP2 MSTORE PUSH1 0x20 ADD PUSH32 0x4372656174656400000000000000000000000000000000000000000000000000 DUP2 MSTORE POP DUP2 MSTORE PUSH1 0x20 ADD TIMESTAMP DUP2 MSTORE PUSH1 0x20 ADD PUSH1 0x1 ISZERO ISZERO DUP2 MSTORE POP PUSH1 0x0 DUP1 DUP6 DUP2 MSTORE PUSH1 0x20 ADD SWAP1 DUP2 MSTORE PUSH1 0x20 ADD PUSH1 0x0 KECCAK256 PUSH1 0x0 DUP3 ADD MLOAD DUP2 PUSH1 0x0 ADD SSTORE PUSH1 0x20 DUP3 ADD MLOAD DUP2 PUSH1 0x1 ADD SWAP1 DUP2 PUSH2 0x77A SWAP2 SWAP1 PUSH2 0x165A JUMP JUMPDEST POP PUSH1 0x40 DUP3 ADD MLOAD DUP2 PUSH1 0x2 ADD SWAP1 DUP2 PUSH2 0x790 SWAP2 SWAP1 PUSH2 0x165A JUMP JUMPDEST POP PUSH1 0x60 DUP3 ADD MLOAD DUP2 PUSH1 0x3 ADD SWAP1 DUP2 PUSH2 0x7A6 SWAP2 SWAP1 PUSH2 0x165A JUMP JUMPDEST POP PUSH1 0x80 DUP3 ADD MLOAD DUP2 PUSH1 0x4 ADD SWAP1 DUP2 PUSH2 0x7BC SWAP2 SWAP1 PUSH2 0x165A JUMP JUMPDEST POP PUSH1 0xA0 DUP3 ADD MLOAD DUP2 PUSH1 0x5 ADD SSTORE PUSH1 0xC0 DUP3 ADD MLOAD DUP2 PUSH1 0x6 ADD PUSH1 0x0 PUSH2 0x100 EXP DUP2 SLOAD DUP2 PUSH1 0xFF MUL NOT AND SWAP1 DUP4 ISZERO ISZERO MUL OR SWAP1 SSTORE POP SWAP1 POP POP PUSH1 0x1 PUSH1 0x0 DUP5 DUP2 MSTORE PUSH1 0x20 ADD SWAP1 DUP2 MSTORE PUSH1 0x20 ADD PUSH1 0x0 KECCAK256 PUSH1 0x40 MLOAD DUP1 PUSH1 0x80 ADD PUSH1 0x40 MSTORE DUP1 DUP4 DUP2 MSTORE PUSH1 0x20 ADD PUSH1 0x40 MLOAD DUP1 PUSH1 0x40 ADD PUSH1 0x40 MSTORE DUP1 PUSH1 0x7 DUP2 MSTORE PUSH1 0x20 ADD PUSH32 0x4372656174656400000000000000000000000000000000000000000000000000 DUP2 MSTORE POP DUP2 MSTORE PUSH1 0x20 ADD CALLER PUSH20 0xFFFFFFFFFFFFFFFFFFFFFFFFFFFFFFFFFFFFFFFF AND DUP2 MSTORE PUSH1 0x20 ADD TIMESTAMP DUP2 MSTORE POP SWAP1 DUP1 PUSH1 0x1 DUP2 SLOAD ADD DUP1 DUP3 SSTORE DUP1 SWAP2 POP POP PUSH1 0x1 SWAP1 SUB SWAP1 PUSH1 0x0 MSTORE PUSH1 0x20 PUSH1 0x0 KECCAK256 SWAP1 PUSH1 0x4 MUL ADD PUSH1 0x0 SWAP1 SWAP2 SWAP1 SWAP2 SWAP1 SWAP2 POP PUSH1 0x0 DUP3 ADD MLOAD DUP2 PUSH1 0x0 ADD SWAP1 DUP2 PUSH2 0x8A7 SWAP2 SWAP1 PUSH2 0x165A JUMP JUMPDEST POP PUSH1 0x20 DUP3 ADD MLOAD DUP2 PUSH1 0x1 ADD SWAP1 DUP2 PUSH2 0x8BD SWAP2 SWAP1 PUSH2 0x165A JUMP JUMPDEST POP PUSH1 0x40 DUP3 ADD MLOAD DUP2 PUSH1 0x2 ADD PUSH1 0x0 PUSH2 0x100 EXP DUP2 SLOAD DUP2 PUSH20 0xFFFFFFFFFFFFFFFFFFFFFFFFFFFFFFFFFFFFFFFF MUL NOT AND SWAP1 DUP4 PUSH20 0xFFFFFFFFFFFFFFFFFFFFFFFFFFFFFFFFFFFFFFFF AND MUL OR SWAP1 SSTORE POP PUSH1 0x60 DUP3 ADD MLOAD DUP2 PUSH1 0x3 ADD SSTORE POP POP PUSH32 0x2BC22403CCD085646FD0ACC393542B3CA6D3F180F4FDE70629D5087364DECBB5 DUP4 DUP4 DUP4 PUSH1 0x40 MLOAD PUSH2 0x944 SWAP4 SWAP3 SWAP2 SWAP1 PUSH2 0x172C JUMP JUMPDEST PUSH1 0x40 MLOAD DUP1 SWAP2 SUB SWAP1 LOG1 POP POP POP JUMP JUMPDEST PUSH1 0x0 PUSH1 0x20 MSTORE DUP1 PUSH1 0x0 MSTORE PUSH1 0x40 PUSH1 0x0 KECCAK256 PUSH1 0x0 SWAP2 POP SWAP1 POP DUP1 PUSH1 0x0 ADD SLOAD SWAP1 DUP1 PUSH1 0x1 ADD DUP1 SLOAD PUSH2 0x97A SWAP1 PUSH2 0x147D JUMP JUMPDEST DUP1 PUSH1 0x1F ADD PUSH1 0x20 DUP1 SWAP2 DIV MUL PUSH1 0x20 ADD PUSH1 0x40 MLOAD SWAP1 DUP2 ADD PUSH1 0x40 MSTORE DUP1 SWAP3 SWAP2 SWAP1 DUP2 DUP2 MSTORE PUSH1 0x20 ADD DUP3 DUP1 SLOAD PUSH2 0x9A6 SWAP1 PUSH2 0x147D JUMP JUMPDEST DUP1 ISZERO PUSH2 0x9F3 JUMPI DUP1 PUSH1 0x1F LT PUSH2 0x9C8 JUMPI PUSH2 0x100 DUP1 DUP4 SLOAD DIV MUL DUP4 MSTORE SWAP2 PUSH1 0x20 ADD SWAP2 PUSH2 0x9F3 JUMP JUMPDEST DUP3 ADD SWAP2 SWAP1 PUSH1 0x0 MSTORE PUSH1 0x20 PUSH1 0x0 KECCAK256 SWAP1 JUMPDEST DUP2 SLOAD DUP2 MSTORE SWAP1 PUSH1 0x1 ADD SWAP1 PUSH1 0x20 ADD DUP1 DUP4 GT PUSH2 0x9D6 JUMPI DUP3 SWAP1 SUB PUSH1 0x1F AND DUP3 ADD SWAP2 JUMPDEST POP POP POP POP POP SWAP1 DUP1 PUSH1 0x2 ADD DUP1 SLOAD PUSH2 0xA08 SWAP1 PUSH2 0x147D JUMP JUMPDEST DUP1 PUSH1 0x1F ADD PUSH1 0x20 DUP1 SWAP2 DIV MUL PUSH1 0x20 ADD PUSH1 0x40 MLOAD SWAP1 DUP2 ADD PUSH1 0x40 MSTORE DUP1 SWAP3 SWAP2 SWAP1 DUP2 DUP2 MSTORE PUSH1 0x20 ADD DUP3 DUP1 SLOAD PUSH2 0xA34 SWAP1 PUSH2 0x147D JUMP JUMPDEST DUP1 ISZERO PUSH2 0xA81 JUMPI DUP1 PUSH1 0x1F LT PUSH2 0xA56 JUMPI PUSH2 0x100 DUP1 DUP4 SLOAD DIV MUL DUP4 MSTORE SWAP2 PUSH1 0x20 ADD SWAP2 PUSH2 0xA81 JUMP JUMPDEST DUP3 ADD SWAP2 SWAP1 PUSH1 0x0 MSTORE PUSH1 0x20 PUSH1 0x0 KECCAK256 SWAP1 JUMPDEST DUP2 SLOAD DUP2 MSTORE SWAP1 PUSH1 0x1 ADD SWAP1 PUSH1 0x20 ADD DUP1 DUP4 GT PUSH2 0xA64 JUMPI DUP3 SWAP1 SUB PUSH1 0x1F AND DUP3 ADD SWAP2 JUMPDEST POP POP POP POP POP SWAP1 DUP1 PUSH1 0x3 ADD DUP1 SLOAD PUSH2 0xA96 SWAP1 PUSH2 0x147D JUMP JUMPDEST DUP1 PUSH1 0x1F ADD PUSH1 0x20 DUP1 SWAP2 DIV MUL PUSH1 0x20 ADD PUSH1 0x40 MLOAD SWAP1 DUP2 ADD PUSH1 0x40 MSTORE DUP1 SWAP3 SWAP2 SWAP1 DUP2 DUP2 MSTORE PUSH1 0x20 ADD DUP3 DUP1 SLOAD PUSH2 0xAC2 SWAP1 PUSH2 0x147D JUMP JUMPDEST DUP1 ISZERO PUSH2 0xB0F JUMPI DUP1 PUSH1 0x1F LT PUSH2 0xAE4 JUMPI PUSH2 0x100 DUP1 DUP4 SLOAD DIV MUL DUP4 MSTORE SWAP2 PUSH1 0x20 ADD SWAP2 PUSH2 0xB0F JUMP JUMPDEST DUP3 ADD SWAP2 SWAP1 PUSH1 0x0 MSTORE PUSH1 0x20 PUSH1 0x0 KECCAK256 SWAP1 JUMPDEST DUP2 SLOAD DUP2 MSTORE SWAP1 PUSH1 0x1 ADD SWAP1 PUSH1 0x20 ADD DUP1 DUP4 GT PUSH2 0xAF2 JUMPI DUP3 SWAP1 SUB PUSH1 0x1F AND DUP3 ADD SWAP2 JUMPDEST POP POP POP POP POP SWAP1 DUP1 PUSH1 0x4 ADD DUP1 SLOAD PUSH2 0xB24 SWAP1 PUSH2 0x147D JUMP JUMPDEST DUP1 PUSH1 0x1F ADD PUSH1 0x20 DUP1 SWAP2 DIV MUL PUSH1 0x20 ADD PUSH1 0x40 MLOAD SWAP1 DUP2 ADD PUSH1 0x40 MSTORE DUP1 SWAP3 SWAP2 SWAP1 DUP2 DUP2 MSTORE PUSH1 0x20 ADD DUP3 DUP1 SLOAD PUSH2 0xB50 SWAP1 PUSH2 0x147D JUMP JUMPDEST DUP1 ISZERO PUSH2 0xB9D JUMPI DUP1 PUSH1 0x1F LT PUSH2 0xB72 JUMPI PUSH2 0x100 DUP1 DUP4 SLOAD DIV MUL DUP4 MSTORE SWAP2 PUSH1 0x20 ADD SWAP2 PUSH2 0xB9D JUMP JUMPDEST DUP3 ADD SWAP2 SWAP1 PUSH1 0x0 MSTORE PUSH1 0x20 PUSH1 0x0 KECCAK256 SWAP1 JUMPDEST DUP2 SLOAD DUP2 MSTORE SWAP1 PUSH1 0x1 ADD SWAP1 PUSH1 0x20 ADD DUP1 DUP4 GT PUSH2 0xB80 JUMPI DUP3 SWAP1 SUB PUSH1 0x1F AND DUP3 ADD SWAP2 JUMPDEST POP POP POP POP POP SWAP1 DUP1 PUSH1 0x5 ADD SLOAD SWAP1 DUP1 PUSH1 0x6 ADD PUSH1 0x0 SWAP1 SLOAD SWAP1 PUSH2 0x100 EXP SWAP1 DIV PUSH1 0xFF AND SWAP1 POP DUP8 JUMP JUMPDEST PUSH1 0x0 PUSH1 0x60 DUP1 PUSH1 0x60 DUP1 PUSH1 0x0 DUP7 PUSH1 0x0 DUP1 DUP3 DUP2 MSTORE PUSH1 0x20 ADD SWAP1 DUP2 MSTORE PUSH1 0x20 ADD PUSH1 0x0 KECCAK256 PUSH1 0x6 ADD PUSH1 0x0 SWAP1 SLOAD SWAP1 PUSH2 0x100 EXP SWAP1 DIV PUSH1 0xFF AND PUSH2 0xC2D JUMPI PUSH1 0x40 MLOAD PUSH32 0x8C379A000000000000000000000000000000000000000000000000000000000 DUP2 MSTORE PUSH1 0x4 ADD PUSH2 0xC24 SWAP1 PUSH2 0x142E JUMP JUMPDEST PUSH1 0x40 MLOAD DUP1 SWAP2 SUB SWAP1 REVERT JUMPDEST PUSH1 0x0 DUP1 PUSH1 0x0 DUP11 DUP2 MSTORE PUSH1 0x20 ADD SWAP1 DUP2 MSTORE PUSH1 0x20 ADD PUSH1 0x0 KECCAK256 PUSH1 0x40 MLOAD DUP1 PUSH1 0xE0 ADD PUSH1 0x40 MSTORE SWAP1 DUP2 PUSH1 0x0 DUP3 ADD SLOAD DUP2 MSTORE PUSH1 0x20 ADD PUSH1 0x1 DUP3 ADD DUP1 SLOAD PUSH2 0xC66 SWAP1 PUSH2 0x147D JUMP JUMPDEST DUP1 PUSH1 0x1F ADD PUSH1 0x20 DUP1 SWAP2 DIV MUL PUSH1 0x20 ADD PUSH1 0x40 MLOAD SWAP1 DUP2 ADD PUSH1 0x40 MSTORE DUP1 SWAP3 SWAP2 SWAP1 DUP2 DUP2 MSTORE PUSH1 0x20 ADD DUP3 DUP1 SLOAD PUSH2 0xC92 SWAP1 PUSH2 0x147D JUMP JUMPDEST DUP1 ISZERO PUSH2 0xCDF JUMPI DUP1 PUSH1 0x1F LT PUSH2 0xCB4 JUMPI PUSH2 0x100 DUP1 DUP4 SLOAD DIV MUL DUP4 MSTORE SWAP2 PUSH1 0x20 ADD SWAP2 PUSH2 0xCDF JUMP JUMPDEST DUP3 ADD SWAP2 SWAP1 PUSH1 0x0 MSTORE PUSH1 0x20 PUSH1 0x0 KECCAK256 SWAP1 JUMPDEST DUP2 SLOAD DUP2 MSTORE SWAP1 PUSH1 0x1 ADD SWAP1 PUSH1 0x20 ADD DUP1 DUP4 GT PUSH2 0xCC2 JUMPI DUP3 SWAP1 SUB PUSH1 0x1F AND DUP3 ADD SWAP2 JUMPDEST POP POP POP POP POP DUP2 MSTORE PUSH1 0x20 ADD PUSH1 0x2 DUP3 ADD DUP1 SLOAD PUSH2 0xCF8 SWAP1 PUSH2 0x147D JUMP JUMPDEST DUP1 PUSH1 0x1F ADD PUSH1 0x20 DUP1 SWAP2 DIV MUL PUSH1 0x20 ADD PUSH1 0x40 MLOAD SWAP1 DUP2 ADD PUSH1 0x40 MSTORE DUP1 SWAP3 SWAP2 SWAP1 DUP2 DUP2 MSTORE PUSH1 0x20 ADD DUP3 DUP1 SLOAD PUSH2 0xD24 SWAP1 PUSH2 0x147D JUMP JUMPDEST DUP1 ISZERO PUSH2 0xD71 JUMPI DUP1 PUSH1 0x1F LT PUSH2 0xD46 JUMPI PUSH2 0x100 DUP1 DUP4 SLOAD DIV MUL DUP4 MSTORE SWAP2 PUSH1 0x20 ADD SWAP2 PUSH2 0xD71 JUMP JUMPDEST DUP3 ADD SWAP2 SWAP1 PUSH1 0x0 MSTORE PUSH1 0x20 PUSH1 0x0 KECCAK256 SWAP1 JUMPDEST DUP2 SLOAD DUP2 MSTORE SWAP1 PUSH1 0x1 ADD SWAP1 PUSH1 0x20 ADD DUP1 DUP4 GT PUSH2 0xD54 JUMPI DUP3 SWAP1 SUB PUSH1 0x1F AND DUP3 ADD SWAP2 JUMPDEST POP POP POP POP POP DUP2 MSTORE PUSH1 0x20 ADD PUSH1 0x3 DUP3 ADD DUP1 SLOAD PUSH2 0xD8A SWAP1 PUSH2 0x147D JUMP JUMPDEST DUP1 PUSH1 0x1F ADD PUSH1 0x20 DUP1 SWAP2 DIV MUL PUSH1 0x20 ADD PUSH1 0x40 MLOAD SWAP1 DUP2 ADD PUSH1 0x40 MSTORE DUP1 SWAP3 SWAP2 SWAP1 DUP2 DUP2 MSTORE PUSH1 0x20 ADD DUP3 DUP1 SLOAD PUSH2 0xDB6 SWAP1 PUSH2 0x147D JUMP JUMPDEST DUP1 ISZERO PUSH2 0xE03 JUMPI DUP1 PUSH1 0x1F LT PUSH2 0xDD8 JUMPI PUSH2 0x100 DUP1 DUP4 SLOAD DIV MUL DUP4 MSTORE SWAP2 PUSH1 0x20 ADD SWAP2 PUSH2 0xE03 JUMP JUMPDEST DUP3 ADD SWAP2 SWAP1 PUSH1 0x0 MSTORE PUSH1 0x20 PUSH1 0x0 KECCAK256 SWAP1 JUMPDEST DUP2 SLOAD DUP2 MSTORE SWAP1 PUSH1 0x1 ADD SWAP1 PUSH1 0x20 ADD DUP1 DUP4 GT PUSH2 0xDE6 JUMPI DUP3 SWAP1 SUB PUSH1 0x1F AND DUP3 ADD SWAP2 JUMPDEST POP POP POP POP POP DUP2 MSTORE PUSH1 0x20 ADD PUSH1 0x4 DUP3 ADD DUP1 SLOAD PUSH2 0xE1C SWAP1 PUSH2 0x147D JUMP JUMPDEST DUP1 PUSH1 0x1F ADD PUSH1 0x20 DUP1 SWAP2 DIV MUL PUSH1 0x20 ADD PUSH1 0x40 MLOAD SWAP1 DUP2 ADD PUSH1 0x40 MSTORE DUP1 SWAP3 SWAP2 SWAP1 DUP2 DUP2 MSTORE PUSH1 0x20 ADD DUP3 DUP1 SLOAD PUSH2 0xE48 SWAP1 PUSH2 0x147D JUMP JUMPDEST DUP1 ISZERO PUSH2 0xE95 JUMPI DUP1 PUSH1 0x1F LT PUSH2 0xE6A JUMPI PUSH2 0x100 DUP1 DUP4 SLOAD DIV MUL DUP4 MSTORE SWAP2 PUSH1 0x20 ADD SWAP2 PUSH2 0xE95 JUMP JUMPDEST DUP3 ADD SWAP2 SWAP1 PUSH1 0x0 MSTORE PUSH1 0x20 PUSH1 0x0 KECCAK256 SWAP1 JUMPDEST DUP2 SLOAD DUP2 MSTORE SWAP1 PUSH1 0x1 ADD SWAP1 PUSH1 0x20 ADD DUP1 DUP4 GT PUSH2 0xE78 JUMPI DUP3 SWAP1 SUB PUSH1 0x1F AND DUP3 ADD SWAP2 JUMPDEST POP POP POP POP POP DUP2 MSTORE PUSH1 0x20 ADD PUSH1 0x5 DUP3 ADD SLOAD DUP2 MSTORE PUSH1 0x20 ADD PUSH1 0x6 DUP3 ADD PUSH1 0x0 SWAP1 SLOAD SWAP1 PUSH2 0x100 EXP SWAP1 DIV PUSH1 0xFF AND ISZERO ISZERO ISZERO ISZERO DUP2 MSTORE POP POP SWAP1 POP DUP1 PUSH1 0x0 ADD MLOAD DUP2 PUSH1 0x20 ADD MLOAD DUP3 PUSH1 0x40 ADD MLOAD DUP4 PUSH1 0x60 ADD MLOAD DUP5 PUSH1 0x80 ADD MLOAD DUP6 PUSH1 0xA0 ADD MLOAD SWAP8 POP SWAP8 POP SWAP8 POP SWAP8 POP SWAP8 POP SWAP8 POP POP POP SWAP2 SWAP4 SWAP6 POP SWAP2 SWAP4 SWAP6 JUMP JUMPDEST PUSH1 0x0 PUSH1 0x40 MLOAD SWAP1 POP SWAP1 JUMP JUMPDEST PUSH1 0x0 DUP1 REVERT JUMPDEST PUSH1 0x0 DUP1 REVERT JUMPDEST PUSH1 0x0 DUP2 SWAP1 POP SWAP2 SWAP1 POP JUMP JUMPDEST PUSH2 0xF21 DUP2 PUSH2 0xF0E JUMP JUMPDEST DUP2 EQ PUSH2 0xF2C JUMPI PUSH1 0x0 DUP1 REVERT JUMPDEST POP JUMP JUMPDEST PUSH1 0x0 DUP2 CALLDATALOAD SWAP1 POP PUSH2 0xF3E DUP2 PUSH2 0xF18 JUMP JUMPDEST SWAP3 SWAP2 POP POP JUMP JUMPDEST PUSH1 0x0 DUP1 REVERT JUMPDEST PUSH1 0x0 DUP1 REVERT JUMPDEST PUSH1 0x0 PUSH1 0x1F NOT PUSH1 0x1F DUP4 ADD AND SWAP1 POP SWAP2 SWAP1 POP JUMP JUMPDEST PUSH32 0x4E487B7100000000000000000000000000000000000000000000000000000000 PUSH1 0x0 MSTORE PUSH1 0x41 PUSH1 0x4 MSTORE PUSH1 0x24 PUSH1 0x0 REVERT JUMPDEST PUSH2 0xF97 DUP3 PUSH2 0xF4E JUMP JUMPDEST DUP2 ADD DUP2 DUP2 LT PUSH8 0xFFFFFFFFFFFFFFFF DUP3 GT OR ISZERO PUSH2 0xFB6 JUMPI PUSH2 0xFB5 PUSH2 0xF5F JUMP JUMPDEST JUMPDEST DUP1 PUSH1 0x40 MSTORE POP POP POP JUMP JUMPDEST PUSH1 0x0 PUSH2 0xFC9 PUSH2 0xEFA JUMP JUMPDEST SWAP1 POP PUSH2 0xFD5 DUP3 DUP3 PUSH2 0xF8E JUMP JUMPDEST SWAP2 SWAP1 POP JUMP JUMPDEST PUSH1 0x0 PUSH8 0xFFFFFFFFFFFFFFFF DUP3 GT ISZERO PUSH2 0xFF5 JUMPI PUSH2 0xFF4 PUSH2 0xF5F JUMP JUMPDEST JUMPDEST PUSH2 0xFFE DUP3 PUSH2 0xF4E JUMP JUMPDEST SWAP1 POP PUSH1 0x20 DUP2 ADD SWAP1 POP SWAP2 SWAP1 POP JUMP JUMPDEST DUP3 DUP2 DUP4 CALLDATACOPY PUSH1 0x0 DUP4 DUP4 ADD MSTORE POP POP POP JUMP JUMPDEST PUSH1 0x0 PUSH2 0x102D PUSH2 0x1028 DUP5 PUSH2 0xFDA JUMP JUMPDEST PUSH2 0xFBF JUMP JUMPDEST SWAP1 POP DUP3 DUP2 MSTORE PUSH1 0x20 DUP2 ADD DUP5 DUP5 DUP5 ADD GT ISZERO PUSH2 0x1049 JUMPI PUSH2 0x1048 PUSH2 0xF49 JUMP JUMPDEST JUMPDEST PUSH2 0x1054 DUP5 DUP3 DUP6 PUSH2 0x100B JUMP JUMPDEST POP SWAP4 SWAP3 POP POP POP JUMP JUMPDEST PUSH1 0x0 DUP3 PUSH1 0x1F DUP4 ADD SLT PUSH2 0x1071 JUMPI PUSH2 0x1070 PUSH2 0xF44 JUMP JUMPDEST JUMPDEST DUP2 CALLDATALOAD PUSH2 0x1081 DUP5 DUP3 PUSH1 0x20 DUP7 ADD PUSH2 0x101A JUMP JUMPDEST SWAP2 POP POP SWAP3 SWAP2 POP POP JUMP JUMPDEST PUSH1 0x0 DUP1 PUSH1 0x0 PUSH1 0x60 DUP5 DUP7 SUB SLT ISZERO PUSH2 0x10A3 JUMPI PUSH2 0x10A2 PUSH2 0xF04 JUMP JUMPDEST JUMPDEST PUSH1 0x0 PUSH2 0x10B1 DUP7 DUP3 DUP8 ADD PUSH2 0xF2F JUMP JUMPDEST SWAP4 POP POP PUSH1 0x20 DUP5 ADD CALLDATALOAD PUSH8 0xFFFFFFFFFFFFFFFF DUP2 GT ISZERO PUSH2 0x10D2 JUMPI PUSH2 0x10D1 PUSH2 0xF09 JUMP JUMPDEST JUMPDEST PUSH2 0x10DE DUP7 DUP3 DUP8 ADD PUSH2 0x105C JUMP JUMPDEST SWAP3 POP POP PUSH1 0x40 DUP5 ADD CALLDATALOAD PUSH8 0xFFFFFFFFFFFFFFFF DUP2 GT ISZERO PUSH2 0x10FF JUMPI PUSH2 0x10FE PUSH2 0xF09 JUMP JUMPDEST JUMPDEST PUSH2 0x110B DUP7 DUP3 DUP8 ADD PUSH2 0x105C JUMP JUMPDEST SWAP2 POP POP SWAP3 POP SWAP3 POP SWAP3 JUMP JUMPDEST PUSH1 0x0 DUP1 PUSH1 0x40 DUP4 DUP6 SUB SLT ISZERO PUSH2 0x112C JUMPI PUSH2 0x112B PUSH2 0xF04 JUMP JUMPDEST JUMPDEST PUSH1 0x0 PUSH2 0x113A DUP6 DUP3 DUP7 ADD PUSH2 0xF2F JUMP JUMPDEST SWAP3 POP POP PUSH1 0x20 PUSH2 0x114B DUP6 DUP3 DUP7 ADD PUSH2 0xF2F JUMP JUMPDEST SWAP2 POP POP SWAP3 POP SWAP3 SWAP1 POP JUMP JUMPDEST PUSH1 0x0 DUP2 MLOAD SWAP1 POP SWAP2 SWAP1 POP JUMP JUMPDEST PUSH1 0x0 DUP3 DUP3 MSTORE PUSH1 0x20 DUP3 ADD SWAP1 POP SWAP3 SWAP2 POP POP JUMP JUMPDEST PUSH1 0x0 JUMPDEST DUP4 DUP2 LT ISZERO PUSH2 0x118F JUMPI DUP1 DUP3 ADD MLOAD DUP2 DUP5 ADD MSTORE PUSH1 0x20 DUP2 ADD SWAP1 POP PUSH2 0x1174 JUMP JUMPDEST PUSH1 0x0 DUP5 DUP5 ADD MSTORE POP POP POP POP JUMP JUMPDEST PUSH1 0x0 PUSH2 0x11A6 DUP3 PUSH2 0x1155 JUMP JUMPDEST PUSH2 0x11B0 DUP2 DUP6 PUSH2 0x1160 JUMP JUMPDEST SWAP4 POP PUSH2 0x11C0 DUP2 DUP6 PUSH1 0x20 DUP7 ADD PUSH2 0x1171 JUMP JUMPDEST PUSH2 0x11C9 DUP2 PUSH2 0xF4E JUMP JUMPDEST DUP5 ADD SWAP2 POP POP SWAP3 SWAP2 POP POP JUMP JUMPDEST PUSH1 0x0 PUSH20 0xFFFFFFFFFFFFFFFFFFFFFFFFFFFFFFFFFFFFFFFF DUP3 AND SWAP1 POP SWAP2 SWAP1 POP JUMP JUMPDEST PUSH1 0x0 PUSH2 0x11FF DUP3 PUSH2 0x11D4 JUMP JUMPDEST SWAP1 POP SWAP2 SWAP1 POP JUMP JUMPDEST PUSH2 0x120F DUP2 PUSH2 0x11F4 JUMP JUMPDEST DUP3 MSTORE POP POP JUMP JUMPDEST PUSH2 0x121E DUP2 PUSH2 0xF0E JUMP JUMPDEST DUP3 MSTORE POP POP JUMP JUMPDEST PUSH1 0x0 PUSH1 0x80 DUP3 ADD SWAP1 POP DUP2 DUP2 SUB PUSH1 0x0 DUP4 ADD MSTORE PUSH2 0x123E DUP2 DUP8 PUSH2 0x119B JUMP JUMPDEST SWAP1 POP DUP2 DUP2 SUB PUSH1 0x20 DUP4 ADD MSTORE PUSH2 0x1252 DUP2 DUP7 PUSH2 0x119B JUMP JUMPDEST SWAP1 POP PUSH2 0x1261 PUSH1 0x40 DUP4 ADD DUP6 PUSH2 0x1206 JUMP JUMPDEST PUSH2 0x126E PUSH1 0x60 DUP4 ADD DUP5 PUSH2 0x1215 JUMP JUMPDEST SWAP6 SWAP5 POP POP POP POP POP JUMP JUMPDEST PUSH1 0x0 PUSH1 0x20 DUP3 DUP5 SUB SLT ISZERO PUSH2 0x128D JUMPI PUSH2 0x128C PUSH2 0xF04 JUMP JUMPDEST JUMPDEST PUSH1 0x0 PUSH2 0x129B DUP5 DUP3 DUP6 ADD PUSH2 0xF2F JUMP JUMPDEST SWAP2 POP POP SWAP3 SWAP2 POP POP JUMP JUMPDEST PUSH1 0x0 PUSH1 0x20 DUP3 ADD SWAP1 POP PUSH2 0x12B9 PUSH1 0x0 DUP4 ADD DUP5 PUSH2 0x1215 JUMP JUMPDEST SWAP3 SWAP2 POP POP JUMP JUMPDEST PUSH1 0x0 DUP2 ISZERO ISZERO SWAP1 POP SWAP2 SWAP1 POP JUMP JUMPDEST PUSH2 0x12D4 DUP2 PUSH2 0x12BF JUMP JUMPDEST DUP3 MSTORE POP POP JUMP JUMPDEST PUSH1 0x0 PUSH1 0xE0 DUP3 ADD SWAP1 POP PUSH2 0x12EF PUSH1 0x0 DUP4 ADD DUP11 PUSH2 0x1215 JUMP JUMPDEST DUP2 DUP2 SUB PUSH1 0x20 DUP4 ADD MSTORE PUSH2 0x1301 DUP2 DUP10 PUSH2 0x119B JUMP JUMPDEST SWAP1 POP DUP2 DUP2 SUB PUSH1 0x40 DUP4 ADD MSTORE PUSH2 0x1315 DUP2 DUP9 PUSH2 0x119B JUMP JUMPDEST SWAP1 POP DUP2 DUP2 SUB PUSH1 0x60 DUP4 ADD MSTORE PUSH2 0x1329 DUP2 DUP8 PUSH2 0x119B JUMP JUMPDEST SWAP1 POP DUP2 DUP2 SUB PUSH1 0x80 DUP4 ADD MSTORE PUSH2 0x133D DUP2 DUP7 PUSH2 0x119B JUMP JUMPDEST SWAP1 POP PUSH2 0x134C PUSH1 0xA0 DUP4 ADD DUP6 PUSH2 0x1215 JUMP JUMPDEST PUSH2 0x1359 PUSH1 0xC0 DUP4 ADD DUP5 PUSH2 0x12CB JUMP JUMPDEST SWAP9 SWAP8 POP POP POP POP POP POP POP POP JUMP JUMPDEST PUSH1 0x0 PUSH1 0xC0 DUP3 ADD SWAP1 POP PUSH2 0x137A PUSH1 0x0 DUP4 ADD DUP10 PUSH2 0x1215 JUMP JUMPDEST DUP2 DUP2 SUB PUSH1 0x20 DUP4 ADD MSTORE PUSH2 0x138C DUP2 DUP9 PUSH2 0x119B JUMP JUMPDEST SWAP1 POP DUP2 DUP2 SUB PUSH1 0x40 DUP4 ADD MSTORE PUSH2 0x13A0 DUP2 DUP8 PUSH2 0x119B JUMP JUMPDEST SWAP1 POP DUP2 DUP2 SUB PUSH1 0x60 DUP4 ADD MSTORE PUSH2 0x13B4 DUP2 DUP7 PUSH2 0x119B JUMP JUMPDEST SWAP1 POP DUP2 DUP2 SUB PUSH1 0x80 DUP4 ADD MSTORE PUSH2 0x13C8 DUP2 DUP6 PUSH2 0x119B JUMP JUMPDEST SWAP1 POP PUSH2 0x13D7 PUSH1 0xA0 DUP4 ADD DUP5 PUSH2 0x1215 JUMP JUMPDEST SWAP8 SWAP7 POP POP POP POP POP POP POP JUMP JUMPDEST PUSH32 0x50726F6475637420646F6573206E6F7420657869737400000000000000000000 PUSH1 0x0 DUP3 ADD MSTORE POP JUMP JUMPDEST PUSH1 0x0 PUSH2 0x1418 PUSH1 0x16 DUP4 PUSH2 0x1160 JUMP JUMPDEST SWAP2 POP PUSH2 0x1423 DUP3 PUSH2 0x13E2 JUMP JUMPDEST PUSH1 0x20 DUP3 ADD SWAP1 POP SWAP2 SWAP1 POP JUMP JUMPDEST PUSH1 0x0 PUSH1 0x20 DUP3 ADD SWAP1 POP DUP2 DUP2 SUB PUSH1 0x0 DUP4 ADD MSTORE PUSH2 0x1447 DUP2 PUSH2 0x140B JUMP JUMPDEST SWAP1 POP SWAP2 SWAP1 POP JUMP JUMPDEST PUSH32 0x4E487B7100000000000000000000000000000000000000000000000000000000 PUSH1 0x0 MSTORE PUSH1 0x22 PUSH1 0x4 MSTORE PUSH1 0x24 PUSH1 0x0 REVERT JUMPDEST PUSH1 0x0 PUSH1 0x2 DUP3 DIV SWAP1 POP PUSH1 0x1 DUP3 AND DUP1 PUSH2 0x1495 JUMPI PUSH1 0x7F DUP3 AND SWAP2 POP JUMPDEST PUSH1 0x20 DUP3 LT DUP2 SUB PUSH2 0x14A8 JUMPI PUSH2 0x14A7 PUSH2 0x144E JUMP JUMPDEST JUMPDEST POP SWAP2 SWAP1 POP JUMP JUMPDEST PUSH1 0x0 DUP2 SWAP1 POP DUP2 PUSH1 0x0 MSTORE PUSH1 0x20 PUSH1 0x0 KECCAK256 SWAP1 POP SWAP2 SWAP1 POP JUMP JUMPDEST PUSH1 0x0 PUSH1 0x20 PUSH1 0x1F DUP4 ADD DIV SWAP1 POP SWAP2 SWAP1 POP JUMP JUMPDEST PUSH1 0x0 DUP3 DUP3 SHL SWAP1 POP SWAP3 SWAP2 POP POP JUMP JUMPDEST PUSH1 0x0 PUSH1 0x8 DUP4 MUL PUSH2 0x1510 PUSH32 0xFFFFFFFFFFFFFFFFFFFFFFFFFFFFFFFFFFFFFFFFFFFFFFFFFFFFFFFFFFFFFFFF DUP3 PUSH2 0x14D3 JUMP JUMPDEST PUSH2 0x151A DUP7 DUP4 PUSH2 0x14D3 JUMP JUMPDEST SWAP6 POP DUP1 NOT DUP5 AND SWAP4 POP DUP1 DUP7 AND DUP5 OR SWAP3 POP POP POP SWAP4 SWAP3 POP POP POP JUMP JUMPDEST PUSH1 0x0 DUP2 SWAP1 POP SWAP2 SWAP1 POP JUMP JUMPDEST PUSH1 0x0 PUSH2 0x1557 PUSH2 0x1552 PUSH2 0x154D DUP5 PUSH2 0xF0E JUMP JUMPDEST PUSH2 0x1532 JUMP JUMPDEST PUSH2 0xF0E JUMP JUMPDEST SWAP1 POP SWAP2 SWAP1 POP JUMP JUMPDEST PUSH1 0x0 DUP2 SWAP1 POP SWAP2 SWAP1 POP JUMP JUMPDEST PUSH2 0x1571 DUP4 PUSH2 0x153C JUMP JUMPDEST PUSH2 0x1585 PUSH2 0x157D DUP3 PUSH2 0x155E JUMP JUMPDEST DUP5 DUP5 SLOAD PUSH2 0x14E0 JUMP JUMPDEST DUP3 SSTORE POP POP POP POP JUMP JUMPDEST PUSH1 0x0 SWAP1 JUMP JUMPDEST PUSH2 0x159A PUSH2 0x158D JUMP JUMPDEST PUSH2 0x15A5 DUP2 DUP5 DUP5 PUSH2 0x1568 JUMP JUMPDEST POP POP POP JUMP JUMPDEST JUMPDEST DUP2 DUP2 LT ISZERO PUSH2 0x15C9 JUMPI PUSH2 0x15BE PUSH1 0x0 DUP3 PUSH2 0x1592 JUMP JUMPDEST PUSH1 0x1 DUP2 ADD SWAP1 POP PUSH2 0x15AB JUMP JUMPDEST POP POP JUMP JUMPDEST PUSH1 0x1F DUP3 GT ISZERO PUSH2 0x160E JUMPI PUSH2 0x15DF DUP2 PUSH2 0x14AE JUMP JUMPDEST PUSH2 0x15E8 DUP5 PUSH2 0x14C3 JUMP JUMPDEST DUP2 ADD PUSH1 0x20 DUP6 LT ISZERO PUSH2 0x15F7 JUMPI DUP2 SWAP1 POP JUMPDEST PUSH2 0x160B PUSH2 0x1603 DUP6 PUSH2 0x14C3 JUMP JUMPDEST DUP4 ADD DUP3 PUSH2 0x15AA JUMP JUMPDEST POP POP JUMPDEST POP POP POP JUMP JUMPDEST PUSH1 0x0 DUP3 DUP3 SHR SWAP1 POP SWAP3 SWAP2 POP POP JUMP JUMPDEST PUSH1 0x0 PUSH2 0x1631 PUSH1 0x0 NOT DUP5 PUSH1 0x8 MUL PUSH2 0x1613 JUMP JUMPDEST NOT DUP1 DUP4 AND SWAP2 POP POP SWAP3 SWAP2 POP POP JUMP JUMPDEST PUSH1 0x0 PUSH2 0x164A DUP4 DUP4 PUSH2 0x1620 JUMP JUMPDEST SWAP2 POP DUP3 PUSH1 0x2 MUL DUP3 OR SWAP1 POP SWAP3 SWAP2 POP POP JUMP JUMPDEST PUSH2 0x1663 DUP3 PUSH2 0x1155 JUMP JUMPDEST PUSH8 0xFFFFFFFFFFFFFFFF DUP2 GT ISZERO PUSH2 0x167C JUMPI PUSH2 0x167B PUSH2 0xF5F JUMP JUMPDEST JUMPDEST PUSH2 0x1686 DUP3 SLOAD PUSH2 0x147D JUMP JUMPDEST PUSH2 0x1691 DUP3 DUP3 DUP6 PUSH2 0x15CD JUMP JUMPDEST PUSH1 0x0 PUSH1 0x20 SWAP1 POP PUSH1 0x1F DUP4 GT PUSH1 0x1 DUP2 EQ PUSH2 0x16C4 JUMPI PUSH1 0x0 DUP5 ISZERO PUSH2 0x16B2 JUMPI DUP3 DUP8 ADD MLOAD SWAP1 POP JUMPDEST PUSH2 0x16BC DUP6 DUP3 PUSH2 0x163E JUMP JUMPDEST DUP7 SSTORE POP PUSH2 0x1724 JUMP JUMPDEST PUSH1 0x1F NOT DUP5 AND PUSH2 0x16D2 DUP7 PUSH2 0x14AE JUMP JUMPDEST PUSH1 0x0 JUMPDEST DUP3 DUP2 LT ISZERO PUSH2 0x16FA JUMPI DUP5 DUP10 ADD MLOAD DUP3 SSTORE PUSH1 0x1 DUP3 ADD SWAP2 POP PUSH1 0x20 DUP6 ADD SWAP5 POP PUSH1 0x20 DUP2 ADD SWAP1 POP PUSH2 0x16D5 JUMP JUMPDEST DUP7 DUP4 LT ISZERO PUSH2 0x1717 JUMPI DUP5 DUP10 ADD MLOAD PUSH2 0x1713 PUSH1 0x1F DUP10 AND DUP3 PUSH2 0x1620 JUMP JUMPDEST DUP4 SSTORE POP JUMPDEST PUSH1 0x1 PUSH1 0x2 DUP9 MUL ADD DUP9 SSTORE POP POP POP JUMPDEST POP POP POP POP POP POP JUMP JUMPDEST PUSH1 0x0 PUSH1 0x60 DUP3 ADD SWAP1 POP PUSH2 0x1741 PUSH1 0x0 DUP4 ADD DUP7 PUSH2 0x1215 JUMP JUMPDEST DUP2 DUP2 SUB PUSH1 0x20 DUP4 ADD MSTORE PUSH2 0x1753 DUP2 DUP6 PUSH2 0x119B JUMP JUMPDEST SWAP1 POP DUP2 DUP2 SUB PUSH1 0x40 DUP4 ADD MSTORE PUSH2 0x1767 DUP2 DUP5 PUSH2 0x119B JUMP JUMPDEST SWAP1 POP SWAP5 SWAP4 POP POP POP POP JUMP JUMPDEST PUSH32 0x496E76616C696420686973746F727920696E6465780000000000000000000000 PUSH1 0x0 DUP3 ADD MSTORE POP JUMP JUMPDEST PUSH1 0x0 PUSH2 0x17A7 PUSH1 0x15 DUP4 PUSH2 0x1160 JUMP JUMPDEST SWAP2 POP PUSH2 0x17B2 DUP3 PUSH2 0x1771 JUMP JUMPDEST PUSH1 0x20 DUP3 ADD SWAP1 POP SWAP2 SWAP1 POP JUMP JUMPDEST PUSH1 0x0 PUSH1 0x20 DUP3 ADD SWAP1 POP DUP2 DUP2 SUB PUSH1 0x0 DUP4 ADD MSTORE PUSH2 0x17D6 DUP2 PUSH2 0x179A JUMP JUMPDEST SWAP1 POP SWAP2 SWAP1 POP JUMP JUMPDEST PUSH32 0x4E487B7100000000000000000000000000000000000000000000000000000000 PUSH1 0x0 MSTORE PUSH1 0x32 PUSH1 0x4 MSTORE PUSH1 0x24 PUSH1 0x0 REVERT JUMPDEST PUSH32 0x50726F6475637420616C72656164792065786973747300000000000000000000 PUSH1 0x0 DUP3 ADD MSTORE POP JUMP JUMPDEST PUSH1 0x0 PUSH2 0x1842 PUSH1 0x16 DUP4 PUSH2 0x1160 JUMP JUMPDEST SWAP2 POP PUSH2 0x184D DUP3 PUSH2 0x180C JUMP JUMPDEST PUSH1 0x20 DUP3 ADD SWAP1 POP SWAP2 SWAP1 POP JUMP JUMPDEST PUSH1 0x0 PUSH1 0x20 DUP3 ADD SWAP1 POP DUP2 DUP2 SUB PUSH1 0x0 DUP4 ADD MSTORE PUSH2 0x1871 DUP2 PUSH2 0x1835 JUMP JUMPDEST SWAP1 POP SWAP2 SWAP1 POP JUMP INVALID LOG2 PUSH5 0x6970667358 0x22 SLT KECCAK256 PUSH10 0x25DFE5FB5DF5937906CF 0xEC PUSH8 0x5CFCAF486EAE67CD SWAP9 PUSH4 0x397FE2EF 0x27 0xC7 PUSH22 0x380D64736F6C63430008140033000000000000000000 "
				},
				"gasEstimates": {
					"creation": {
						"codeDepositCost": "1263600",
						"executionCost": "1315",
						"totalCost": "1264915"
					},
					"external": {
						"createProduct(uint256,string,string)": "infinite",
						"getProduct(uint256)": "infinite",
						"getProductHistoryCount(uint256)": "infinite",
						"getProductHistoryItem(uint256,uint256)": "infinite",
						"products(uint256)": "infinite",
						"updateProduct(uint256,string,string)": "infinite"
					}
				},
				"methodIdentifiers": {
					"createProduct(uint256,string,string)": "787da881",
					"getProduct(uint256)": "b9db15b4",
					"getProductHistoryCount(uint256)": "78347712",
					"getProductHistoryItem(uint256,uint256)": "42a333ef",
					"products(uint256)": "7acc0b20",
					"updateProduct(uint256,string,string)": "0ecbabff"
				}
			},
			"storageLayout": {
				"storage": [
					{
						"astId": 30,
						"contract": "contract/SupplyChain.sol:SupplyChain",
						"label": "products",
						"offset": 0,
						"slot": "0",
						"type": "t_mapping(t_uint256,t_struct(Product)16_storage)"
					},
					{
						"astId": 36,
						"contract": "contract/SupplyChain.sol:SupplyChain",
						"label": "productHistory",
						"offset": 0,
						"slot": "1",
						"type": "t_mapping(t_uint256,t_array(t_struct(TrackingUpdate)25_storage)dyn_storage)"
					}
				],
				"types": {
					"t_address": {
						"encoding": "inplace",
						"label": "address",
						"numberOfBytes": "20"
					},
					"t_array(t_struct(TrackingUpdate)25_storage)dyn_storage": {
						"base": "t_struct(TrackingUpdate)25_storage",
						"encoding": "dynamic_array",
						"label": "struct SupplyChain.TrackingUpdate[]",
						"numberOfBytes": "32"
					},
					"t_bool": {
						"encoding": "inplace",
						"label": "bool",
						"numberOfBytes": "1"
					},
					"t_mapping(t_uint256,t_array(t_struct(TrackingUpdate)25_storage)dyn_storage)": {
						"encoding": "mapping",
						"key": "t_uint256",
						"label": "mapping(uint256 => struct SupplyChain.TrackingUpdate[])",
						"numberOfBytes": "32",
						"value": "t_array(t_struct(TrackingUpdate)25_storage)dyn_storage"
					},
					"t_mapping(t_uint256,t_struct(Product)16_storage)": {
						"encoding": "mapping",
						"key": "t_uint256",
						"label": "mapping(uint256 => struct SupplyChain.Product)",
						"numberOfBytes": "32",
						"value": "t_struct(Product)16_storage"
					},
					"t_string_storage": {
						"encoding": "bytes",
						"label": "string",
						"numberOfBytes": "32"
					},
					"t_struct(Product)16_storage": {
						"encoding": "inplace",
						"label": "struct SupplyChain.Product",
						"members": [
							{
								"astId": 3,
								"contract": "contract/SupplyChain.sol:SupplyChain",
								"label": "id",
								"offset": 0,
								"slot": "0",
								"type": "t_uint256"
							},
							{
								"astId": 5,
								"contract": "contract/SupplyChain.sol:SupplyChain",
								"label": "name",
								"offset": 0,
								"slot": "1",
								"type": "t_string_storage"
							},
							{
								"astId": 7,
								"contract": "contract/SupplyChain.sol:SupplyChain",
								"label": "origin",
								"offset": 0,
								"slot": "2",
								"type": "t_string_storage"
							},
							{
								"astId": 9,
								"contract": "contract/SupplyChain.sol:SupplyChain",
								"label": "currentLocation",
								"offset": 0,
								"slot": "3",
								"type": "t_string_storage"
							},
							{
								"astId": 11,
								"contract": "contract/SupplyChain.sol:SupplyChain",
								"label": "status",
								"offset": 0,
								"slot": "4",
								"type": "t_string_storage"
							},
							{
								"astId": 13,
								"contract": "contract/SupplyChain.sol:SupplyChain",
								"label": "createdAt",
								"offset": 0,
								"slot": "5",
								"type": "t_uint256"
							},
							{
								"astId": 15,
								"contract": "contract/SupplyChain.sol:SupplyChain",
								"label": "exists",
								"offset": 0,
								"slot": "6",
								"type": "t_bool"
							}
						],
						"numberOfBytes": "224"
					},
					"t_struct(TrackingUpdate)25_storage": {
						"encoding": "inplace",
						"label": "struct SupplyChain.TrackingUpdate",
						"members": [
							{
								"astId": 18,
								"contract": "contract/SupplyChain.sol:SupplyChain",
								"label": "location",
								"offset": 0,
								"slot": "0",
								"type": "t_string_storage"
							},
							{
								"astId": 20,
								"contract": "contract/SupplyChain.sol:SupplyChain",
								"label": "status",
								"offset": 0,
								"slot": "1",
								"type": "t_string_storage"
							},
							{
								"astId": 22,
								"contract": "contract/SupplyChain.sol:SupplyChain",
								"label": "updatedBy",
								"offset": 0,
								"slot": "2",
								"type": "t_address"
							},
							{
								"astId": 24,
								"contract": "contract/SupplyChain.sol:SupplyChain",
								"label": "timestamp",
								"offset": 0,
								"slot": "3",
								"type": "t_uint256"
							}
						],
						"numberOfBytes": "128"
					},
					"t_uint256": {
						"encoding": "inplace",
						"label": "uint256",
						"numberOfBytes": "32"
					}
				}
			},
			"userdoc": {
				"kind": "user",
				"methods": {},
				"version": 1
			}
		}
	}
}