{
	"contract/SupplyChain.sol": {
		"SupplyChain": {
			"abi": [
				{
					"anonymous": false,
					"inputs": [
						{
							"indexed": true,
							"internalType": "string",
							"name": "id",
							"type": "string"
						},
						{
							"indexed": false,
							"internalType": "string",
							"name": "name",
							"type": "string"
						},
						{
							"indexed": false,
							"internalType": "string",
							"name": "location",
							"type": "string"
						},
						{
							"indexed": false,
							"internalType": "string",
							"name": "destination",
							"type": "string"
						},
						{
							"indexed": false,
							"internalType": "uint256",
							"name": "quantity",
							"type": "uint256"
						},
						{
							"indexed": false,
							"internalType": "string",
							"name": "company",
							"type": "string"
						},
						{
							"indexed": false,
							"internalType": "string",
							"name": "status",
							"type": "string"
						}
					],
					"name": "ProductCreated",
					"type": "event"
				},
				{
					"anonymous": false,
					"inputs": [
						{
							"indexed": true,
							"internalType": "string",
							"name": "id",
							"type": "string"
						},
						{
							"indexed": false,
							"internalType": "string",
							"name": "newLocation",
							"type": "string"
						},
						{
							"indexed": false,
							"internalType": "string",
							"name": "newStatus",
							"type": "string"
						},
						{
							"indexed": false,
							"internalType": "uint256",
							"name": "updatedAt",
							"type": "uint256"
						}
					],
					"name": "ProductUpdated",
					"type": "event"
				},
				{
					"inputs": [
						{
							"internalType": "string",
							"name": "_id",
							"type": "string"
						},
						{
							"internalType": "string",
							"name": "_name",
							"type": "string"
						},
						{
							"internalType": "string",
							"name": "_location",
							"type": "string"
						},
						{
							"internalType": "string",
							"name": "_destination",
							"type": "string"
						},
						{
							"internalType": "uint256",
							"name": "_quantity",
							"type": "uint256"
						},
						{
							"internalType": "string",
							"name": "_company",
							"type": "string"
						},
						{
							"internalType": "string",
							"name": "_notes",
							"type": "string"
						}
					],
					"name": "createProduct",
					"outputs": [],
					"stateMutability": "nonpayable",
					"type": "function"
				},
				{
					"inputs": [],
					"name": "getAllProductIds",
					"outputs": [
						{
							"internalType": "string[]",
							"name": "",
							"type": "string[]"
						}
					],
					"stateMutability": "view",
					"type": "function"
				},
				{
					"inputs": [
						{
							"internalType": "string",
							"name": "_id",
							"type": "string"
						}
					],
					"name": "getProduct",
					"outputs": [
						{
							"internalType": "string",
							"name": "id",
							"type": "string"
						},
						{
							"internalType": "string",
							"name": "name",
							"type": "string"
						},
						{
							"internalType": "string",
							"name": "location",
							"type": "string"
						},
						{
							"internalType": "string",
							"name": "destination",
							"type": "string"
						},
						{
							"internalType": "uint256",
							"name": "quantity",
							"type": "uint256"
						},
						{
							"internalType": "string",
							"name": "company",
							"type": "string"
						},
						{
							"internalType": "string",
							"name": "notes",
							"type": "string"
						},
						{
							"internalType": "string",
							"name": "status",
							"type": "string"
						},
						{
							"internalType": "uint256",
							"name": "createdAt",
							"type": "uint256"
						},
						{
							"internalType": "uint256",
							"name": "updatedAt",
							"type": "uint256"
						}
					],
					"stateMutability": "view",
					"type": "function"
				},
				{
					"inputs": [],
					"name": "getProductCount",
					"outputs": [
						{
							"internalType": "uint256",
							"name": "",
							"type": "uint256"
						}
					],
					"stateMutability": "view",
					"type": "function"
				},
				{
					"inputs": [
						{
							"internalType": "string",
							"name": "_id",
							"type": "string"
						}
					],
					"name": "getProductHistoryCount",
					"outputs": [
						{
							"internalType": "uint256",
							"name": "",
							"type": "uint256"
						}
					],
					"stateMutability": "view",
					"type": "function"
				},
				{
					"inputs": [
						{
							"internalType": "string",
							"name": "_id",
							"type": "string"
						},
						{
							"internalType": "uint256",
							"name": "_index",
							"type": "uint256"
						}
					],
					"name": "getProductHistoryItem",
					"outputs": [
						{
							"internalType": "uint256",
							"name": "time",
							"type": "uint256"
						},
						{
							"internalType": "string",
							"name": "location",
							"type": "string"
						},
						{
							"internalType": "string",
							"name": "status",
							"type": "string"
						},
						{
							"internalType": "string",
							"name": "desc",
							"type": "string"
						}
					],
					"stateMutability": "view",
					"type": "function"
				},
				{
					"inputs": [
						{
							"internalType": "string",
							"name": "_id",
							"type": "string"
						}
					],
					"name": "productExists",
					"outputs": [
						{
							"internalType": "bool",
							"name": "",
							"type": "bool"
						}
					],
					"stateMutability": "view",
					"type": "function"
				},
				{
					"inputs": [
						{
							"internalType": "string",
							"name": "_id",
							"type": "string"
						},
						{
							"internalType": "string",
							"name": "_newLocation",
							"type": "string"
						},
						{
							"internalType": "string",
							"name": "_newStatus",
							"type": "string"
						}
					],
					"name": "updateProduct",
					"outputs": [],
					"stateMutability": "nonpayable",
					"type": "function"
				}
			],
			"devdoc": {
				"kind": "dev",
				"methods": {},
				"version": 1
			},
			"evm": {
				"assembly": "    /* \"contract/SupplyChain.sol\":58:6921  contract SupplyChain {... */\n  mstore(0x40, 0x80)\n  callvalue\n  dup1\n  iszero\n  tag_1\n  jumpi\n  0x00\n  dup1\n  revert\ntag_1:\n  pop\n  dataSize(sub_0)\n  dup1\n  dataOffset(sub_0)\n  0x00\n  codecopy\n  0x00\n  return\nstop\n\nsub_0: assembly {\n        /* \"contract/SupplyChain.sol\":58:6921  contract SupplyChain {... */\n      mstore(0x40, 0x80)\n      callvalue\n      dup1\n      iszero\n      tag_1\n      jumpi\n      0x00\n      dup1\n      revert\n    tag_1:\n      pop\n      jumpi(tag_2, lt(calldatasize, 0x04))\n      shr(0xe0, calldataload(0x00))\n      dup1\n      0x68111cce\n      gt\n      tag_11\n      jumpi\n      dup1\n      0x68111cce\n      eq\n      tag_7\n      jumpi\n      dup1\n      0x8addc051\n      eq\n      tag_8\n      jumpi\n      dup1\n      0xd7a2ab9b\n      eq\n      tag_9\n      jumpi\n      dup1\n      0xdadf0b73\n      eq\n      tag_10\n      jumpi\n      jump(tag_2)\n    tag_11:\n      dup1\n      0x3036451e\n      eq\n      tag_3\n      jumpi\n      dup1\n      0x416eb9f4\n      eq\n      tag_4\n      jumpi\n      dup1\n      0x4a348da9\n      eq\n      tag_5\n      jumpi\n      dup1\n      0x663c01af\n      eq\n      tag_6\n      jumpi\n    tag_2:\n      0x00\n      dup1\n      revert\n        /* \"contract/SupplyChain.sol\":5574:6061  function getProductHistoryItem(string memory _id, uint256 _index)... */\n    tag_3:\n      tag_12\n      0x04\n      dup1\n      calldatasize\n      sub\n      dup2\n      add\n      swap1\n      tag_13\n      swap2\n      swap1\n      tag_14\n      jump\t// in\n    tag_13:\n      tag_15\n      jump\t// in\n    tag_12:\n      mload(0x40)\n      tag_16\n      swap5\n      swap4\n      swap3\n      swap2\n      swap1\n      tag_17\n      jump\t// in\n    tag_16:\n      mload(0x40)\n      dup1\n      swap2\n      sub\n      swap1\n      return\n        /* \"contract/SupplyChain.sol\":5376:5568  function getProductHistoryCount(string memory _id)... */\n    tag_4:\n      tag_18\n      0x04\n      dup1\n      calldatasize\n      sub\n      dup2\n      add\n      swap1\n      tag_19\n      swap2\n      swap1\n      tag_20\n      jump\t// in\n    tag_19:\n      tag_21\n      jump\t// in\n    tag_18:\n      mload(0x40)\n      tag_22\n      swap2\n      swap1\n      tag_23\n      jump\t// in\n    tag_22:\n      mload(0x40)\n      dup1\n      swap2\n      sub\n      swap1\n      return\n        /* \"contract/SupplyChain.sol\":6173:6271  function getProductCount() public view returns (uint256) {... */\n    tag_5:\n      tag_24\n      tag_25\n      jump\t// in\n    tag_24:\n      mload(0x40)\n      tag_26\n      swap2\n      swap1\n      tag_23\n      jump\t// in\n    tag_26:\n      mload(0x40)\n      dup1\n      swap2\n      sub\n      swap1\n      return\n        /* \"contract/SupplyChain.sol\":6067:6167  function getAllProductIds() public view returns (string[] memory) {... */\n    tag_6:\n      tag_27\n      tag_28\n      jump\t// in\n    tag_27:\n      mload(0x40)\n      tag_29\n      swap2\n      swap1\n      tag_30\n      jump\t// in\n    tag_29:\n      mload(0x40)\n      dup1\n      swap2\n      sub\n      swap1\n      return\n        /* \"contract/SupplyChain.sol\":4603:5370  function getProduct(string memory _id)... */\n    tag_7:\n      tag_31\n      0x04\n      dup1\n      calldatasize\n      sub\n      dup2\n      add\n      swap1\n      tag_32\n      swap2\n      swap1\n      tag_20\n      jump\t// in\n    tag_32:\n      tag_33\n      jump\t// in\n    tag_31:\n      mload(0x40)\n      tag_34\n      swap11\n      swap10\n      swap9\n      swap8\n      swap7\n      swap6\n      swap5\n      swap4\n      swap3\n      swap2\n      swap1\n      tag_35\n      jump\t// in\n    tag_34:\n      mload(0x40)\n      dup1\n      swap2\n      sub\n      swap1\n      return\n        /* \"contract/SupplyChain.sol\":6277:6390  function productExists(string memory _id) public view returns (bool) {... */\n    tag_8:\n      tag_36\n      0x04\n      dup1\n      calldatasize\n      sub\n      dup2\n      add\n      swap1\n      tag_37\n      swap2\n      swap1\n      tag_20\n      jump\t// in\n    tag_37:\n      tag_38\n      jump\t// in\n    tag_36:\n      mload(0x40)\n      tag_39\n      swap2\n      swap1\n      tag_40\n      jump\t// in\n    tag_39:\n      mload(0x40)\n      dup1\n      swap2\n      sub\n      swap1\n      return\n        /* \"contract/SupplyChain.sol\":3077:4597  function updateProduct(... */\n    tag_9:\n      tag_41\n      0x04\n      dup1\n      calldatasize\n      sub\n      dup2\n      add\n      swap1\n      tag_42\n      swap2\n      swap1\n      tag_43\n      jump\t// in\n    tag_42:\n      tag_44\n      jump\t// in\n    tag_41:\n      stop\n        /* \"contract/SupplyChain.sol\":1153:3071  function createProduct(... */\n    tag_10:\n      tag_45\n      0x04\n      dup1\n      calldatasize\n      sub\n      dup2\n      add\n      swap1\n      tag_46\n      swap2\n      swap1\n      tag_47\n      jump\t// in\n    tag_46:\n      tag_48\n      jump\t// in\n    tag_45:\n      stop\n        /* \"contract/SupplyChain.sol\":5574:6061  function getProductHistoryItem(string memory _id, uint256 _index)... */\n    tag_15:\n        /* \"contract/SupplyChain.sol\":5731:5743  uint256 time */\n      0x00\n        /* \"contract/SupplyChain.sol\":5757:5779  string memory location */\n      0x60\n        /* \"contract/SupplyChain.sol\":5793:5813  string memory status */\n      dup1\n        /* \"contract/SupplyChain.sol\":5827:5845  string memory desc */\n      0x60\n        /* \"contract/SupplyChain.sol\":5696:5699  _id */\n      dup6\n        /* \"contract/SupplyChain.sol\":1082:1090  products */\n      0x00\n        /* \"contract/SupplyChain.sol\":1091:1094  _id */\n      dup2\n        /* \"contract/SupplyChain.sol\":1082:1095  products[_id] */\n      mload(0x40)\n      tag_50\n      swap2\n      swap1\n      tag_51\n      jump\t// in\n    tag_50:\n      swap1\n      dup2\n      mstore\n      0x20\n      add\n      mload(0x40)\n      dup1\n      swap2\n      sub\n      swap1\n      keccak256\n        /* \"contract/SupplyChain.sol\":1082:1102  products[_id].exists */\n      0x0a\n      add\n      0x00\n      swap1\n      sload\n      swap1\n      0x0100\n      exp\n      swap1\n      div\n      0xff\n      and\n        /* \"contract/SupplyChain.sol\":1074:1129  require(products[_id].exists, \"Product does not exist\") */\n      tag_52\n      jumpi\n      mload(0x40)\n      0x08c379a000000000000000000000000000000000000000000000000000000000\n      dup2\n      mstore\n      0x04\n      add\n      tag_53\n      swap1\n      tag_54\n      jump\t// in\n    tag_53:\n      mload(0x40)\n      dup1\n      swap2\n      sub\n      swap1\n      revert\n    tag_52:\n        /* \"contract/SupplyChain.sol\":5887:5901  productHistory */\n      0x01\n        /* \"contract/SupplyChain.sol\":5902:5905  _id */\n      dup8\n        /* \"contract/SupplyChain.sol\":5887:5906  productHistory[_id] */\n      mload(0x40)\n      tag_56\n      swap2\n      swap1\n      tag_51\n      jump\t// in\n    tag_56:\n      swap1\n      dup2\n      mstore\n      0x20\n      add\n      mload(0x40)\n      dup1\n      swap2\n      sub\n      swap1\n      keccak256\n        /* \"contract/SupplyChain.sol\":5887:5913  productHistory[_id].length */\n      dup1\n      sload\n      swap1\n      pop\n        /* \"contract/SupplyChain.sol\":5878:5884  _index */\n      dup7\n        /* \"contract/SupplyChain.sol\":5878:5913  _index < productHistory[_id].length */\n      lt\n        /* \"contract/SupplyChain.sol\":5870:5939  require(_index < productHistory[_id].length, \"Invalid history index\") */\n      tag_57\n      jumpi\n      mload(0x40)\n      0x08c379a000000000000000000000000000000000000000000000000000000000\n      dup2\n      mstore\n      0x04\n      add\n      tag_58\n      swap1\n      tag_59\n      jump\t// in\n    tag_58:\n      mload(0x40)\n      dup1\n      swap2\n      sub\n      swap1\n      revert\n    tag_57:\n        /* \"contract/SupplyChain.sol\":5949:5969  HistoryItem memory h */\n      0x00\n        /* \"contract/SupplyChain.sol\":5972:5986  productHistory */\n      0x01\n        /* \"contract/SupplyChain.sol\":5987:5990  _id */\n      dup9\n        /* \"contract/SupplyChain.sol\":5972:5991  productHistory[_id] */\n      mload(0x40)\n      tag_60\n      swap2\n      swap1\n      tag_51\n      jump\t// in\n    tag_60:\n      swap1\n      dup2\n      mstore\n      0x20\n      add\n      mload(0x40)\n      dup1\n      swap2\n      sub\n      swap1\n      keccak256\n        /* \"contract/SupplyChain.sol\":5992:5998  _index */\n      dup8\n        /* \"contract/SupplyChain.sol\":5972:5999  productHistory[_id][_index] */\n      dup2\n      sload\n      dup2\n      lt\n      tag_61\n      jumpi\n      tag_62\n      tag_63\n      jump\t// in\n    tag_62:\n    tag_61:\n      swap1\n      0x00\n      mstore\n      keccak256(0x00, 0x20)\n      swap1\n      0x04\n      mul\n      add\n        /* \"contract/SupplyChain.sol\":5949:5999  HistoryItem memory h = productHistory[_id][_index] */\n      mload(0x40)\n      dup1\n      0x80\n      add\n      0x40\n      mstore\n      swap1\n      dup2\n      0x00\n      dup3\n      add\n      sload\n      dup2\n      mstore\n      0x20\n      add\n      0x01\n      dup3\n      add\n      dup1\n      sload\n      tag_65\n      swap1\n      tag_66\n      jump\t// in\n    tag_65:\n      dup1\n      0x1f\n      add\n      0x20\n      dup1\n      swap2\n      div\n      mul\n      0x20\n      add\n      mload(0x40)\n      swap1\n      dup2\n      add\n      0x40\n      mstore\n      dup1\n      swap3\n      swap2\n      swap1\n      dup2\n      dup2\n      mstore\n      0x20\n      add\n      dup3\n      dup1\n      sload\n      tag_67\n      swap1\n      tag_66\n      jump\t// in\n    tag_67:\n      dup1\n      iszero\n      tag_68\n      jumpi\n      dup1\n      0x1f\n      lt\n      tag_69\n      jumpi\n      0x0100\n      dup1\n      dup4\n      sload\n      div\n      mul\n      dup4\n      mstore\n      swap2\n      0x20\n      add\n      swap2\n      jump(tag_68)\n    tag_69:\n      dup3\n      add\n      swap2\n      swap1\n      0x00\n      mstore\n      keccak256(0x00, 0x20)\n      swap1\n    tag_70:\n      dup2\n      sload\n      dup2\n      mstore\n      swap1\n      0x01\n      add\n      swap1\n      0x20\n      add\n      dup1\n      dup4\n      gt\n      tag_70\n      jumpi\n      dup3\n      swap1\n      sub\n      0x1f\n      and\n      dup3\n      add\n      swap2\n    tag_68:\n      pop\n      pop\n      pop\n      pop\n      pop\n      dup2\n      mstore\n      0x20\n      add\n      0x02\n      dup3\n      add\n      dup1\n      sload\n      tag_71\n      swap1\n      tag_66\n      jump\t// in\n    tag_71:\n      dup1\n      0x1f\n      add\n      0x20\n      dup1\n      swap2\n      div\n      mul\n      0x20\n      add\n      mload(0x40)\n      swap1\n      dup2\n      add\n      0x40\n      mstore\n      dup1\n      swap3\n      swap2\n      swap1\n      dup2\n      dup2\n      mstore\n      0x20\n      add\n      dup3\n      dup1\n      sload\n      tag_72\n      swap1\n      tag_66\n      jump\t// in\n    tag_72:\n      dup1\n      iszero\n      tag_73\n      jumpi\n      dup1\n      0x1f\n      lt\n      tag_74\n      jumpi\n      0x0100\n      dup1\n      dup4\n      sload\n      div\n      mul\n      dup4\n      mstore\n      swap2\n      0x20\n      add\n      swap2\n      jump(tag_73)\n    tag_74:\n      dup3\n      add\n      swap2\n      swap1\n      0x00\n      mstore\n      keccak256(0x00, 0x20)\n      swap1\n    tag_75:\n      dup2\n      sload\n      dup2\n      mstore\n      swap1\n      0x01\n      add\n      swap1\n      0x20\n      add\n      dup1\n      dup4\n      gt\n      tag_75\n      jumpi\n      dup3\n      swap1\n      sub\n      0x1f\n      and\n      dup3\n      add\n      swap2\n    tag_73:\n      pop\n      pop\n      pop\n      pop\n      pop\n      dup2\n      mstore\n      0x20\n      add\n      0x03\n      dup3\n      add\n      dup1\n      sload\n      tag_76\n      swap1\n      tag_66\n      jump\t// in\n    tag_76:\n      dup1\n      0x1f\n      add\n      0x20\n      dup1\n      swap2\n      div\n      mul\n      0x20\n      add\n      mload(0x40)\n      swap1\n      dup2\n      add\n      0x40\n      mstore\n      dup1\n      swap3\n      swap2\n      swap1\n      dup2\n      dup2\n      mstore\n      0x20\n      add\n      dup3\n      dup1\n      sload\n      tag_77\n      swap1\n      tag_66\n      jump\t// in\n    tag_77:\n      dup1\n      iszero\n      tag_78\n      jumpi\n      dup1\n      0x1f\n      lt\n      tag_79\n      jumpi\n      0x0100\n      dup1\n      dup4\n      sload\n      div\n      mul\n      dup4\n      mstore\n      swap2\n      0x20\n      add\n      swap2\n      jump(tag_78)\n    tag_79:\n      dup3\n      add\n      swap2\n      swap1\n      0x00\n      mstore\n      keccak256(0x00, 0x20)\n      swap1\n    tag_80:\n      dup2\n      sload\n      dup2\n      mstore\n      swap1\n      0x01\n      add\n      swap1\n      0x20\n      add\n      dup1\n      dup4\n      gt\n      tag_80\n      jumpi\n      dup3\n      swap1\n      sub\n      0x1f\n      and\n      dup3\n      add\n      swap2\n    tag_78:\n      pop\n      pop\n      pop\n      pop\n      pop\n      dup2\n      mstore\n      pop\n      pop\n      swap1\n      pop\n        /* \"contract/SupplyChain.sol\":6017:6018  h */\n      dup1\n        /* \"contract/SupplyChain.sol\":6017:6023  h.time */\n      0x00\n      add\n      mload\n        /* \"contract/SupplyChain.sol\":6025:6026  h */\n      dup2\n        /* \"contract/SupplyChain.sol\":6025:6035  h.location */\n      0x20\n      add\n      mload\n        /* \"contract/SupplyChain.sol\":6037:6038  h */\n      dup3\n        /* \"contract/SupplyChain.sol\":6037:6045  h.status */\n      0x40\n      add\n      mload\n        /* \"contract/SupplyChain.sol\":6047:6048  h */\n      dup4\n        /* \"contract/SupplyChain.sol\":6047:6053  h.desc */\n      0x60\n      add\n      mload\n        /* \"contract/SupplyChain.sol\":6009:6054  return (h.time, h.location, h.status, h.desc) */\n      swap6\n      pop\n      swap6\n      pop\n      swap6\n      pop\n      swap6\n      pop\n      pop\n        /* \"contract/SupplyChain.sol\":5574:6061  function getProductHistoryItem(string memory _id, uint256 _index)... */\n      pop\n      swap3\n      swap6\n      swap2\n      swap5\n      pop\n      swap3\n      pop\n      jump\t// out\n        /* \"contract/SupplyChain.sol\":5376:5568  function getProductHistoryCount(string memory _id)... */\n    tag_21:\n        /* \"contract/SupplyChain.sol\":5505:5512  uint256 */\n      0x00\n        /* \"contract/SupplyChain.sol\":5483:5486  _id */\n      dup2\n        /* \"contract/SupplyChain.sol\":1082:1090  products */\n      0x00\n        /* \"contract/SupplyChain.sol\":1091:1094  _id */\n      dup2\n        /* \"contract/SupplyChain.sol\":1082:1095  products[_id] */\n      mload(0x40)\n      tag_82\n      swap2\n      swap1\n      tag_51\n      jump\t// in\n    tag_82:\n      swap1\n      dup2\n      mstore\n      0x20\n      add\n      mload(0x40)\n      dup1\n      swap2\n      sub\n      swap1\n      keccak256\n        /* \"contract/SupplyChain.sol\":1082:1102  products[_id].exists */\n      0x0a\n      add\n      0x00\n      swap1\n      sload\n      swap1\n      0x0100\n      exp\n      swap1\n      div\n      0xff\n      and\n        /* \"contract/SupplyChain.sol\":1074:1129  require(products[_id].exists, \"Product does not exist\") */\n      tag_83\n      jumpi\n      mload(0x40)\n      0x08c379a000000000000000000000000000000000000000000000000000000000\n      dup2\n      mstore\n      0x04\n      add\n      tag_84\n      swap1\n      tag_54\n      jump\t// in\n    tag_84:\n      mload(0x40)\n      dup1\n      swap2\n      sub\n      swap1\n      revert\n    tag_83:\n        /* \"contract/SupplyChain.sol\":5535:5549  productHistory */\n      0x01\n        /* \"contract/SupplyChain.sol\":5550:5553  _id */\n      dup4\n        /* \"contract/SupplyChain.sol\":5535:5554  productHistory[_id] */\n      mload(0x40)\n      tag_86\n      swap2\n      swap1\n      tag_51\n      jump\t// in\n    tag_86:\n      swap1\n      dup2\n      mstore\n      0x20\n      add\n      mload(0x40)\n      dup1\n      swap2\n      sub\n      swap1\n      keccak256\n        /* \"contract/SupplyChain.sol\":5535:5561  productHistory[_id].length */\n      dup1\n      sload\n      swap1\n      pop\n        /* \"contract/SupplyChain.sol\":5528:5561  return productHistory[_id].length */\n      swap2\n      pop\n        /* \"contract/SupplyChain.sol\":5376:5568  function getProductHistoryCount(string memory _id)... */\n      pop\n      swap2\n      swap1\n      pop\n      jump\t// out\n        /* \"contract/SupplyChain.sol\":6173:6271  function getProductCount() public view returns (uint256) {... */\n    tag_25:\n        /* \"contract/SupplyChain.sol\":6221:6228  uint256 */\n      0x00\n        /* \"contract/SupplyChain.sol\":6247:6257  productIds */\n      0x02\n        /* \"contract/SupplyChain.sol\":6247:6264  productIds.length */\n      dup1\n      sload\n      swap1\n      pop\n        /* \"contract/SupplyChain.sol\":6240:6264  return productIds.length */\n      swap1\n      pop\n        /* \"contract/SupplyChain.sol\":6173:6271  function getProductCount() public view returns (uint256) {... */\n      swap1\n      jump\t// out\n        /* \"contract/SupplyChain.sol\":6067:6167  function getAllProductIds() public view returns (string[] memory) {... */\n    tag_28:\n        /* \"contract/SupplyChain.sol\":6116:6131  string[] memory */\n      0x60\n        /* \"contract/SupplyChain.sol\":6150:6160  productIds */\n      0x02\n        /* \"contract/SupplyChain.sol\":6143:6160  return productIds */\n      dup1\n      sload\n      dup1\n      0x20\n      mul\n      0x20\n      add\n      mload(0x40)\n      swap1\n      dup2\n      add\n      0x40\n      mstore\n      dup1\n      swap3\n      swap2\n      swap1\n      dup2\n      dup2\n      mstore\n      0x20\n      add\n      0x00\n      swap1\n    tag_89:\n      dup3\n      dup3\n      lt\n      iszero\n      tag_90\n      jumpi\n      dup4\n      dup3\n      swap1\n      0x00\n      mstore\n      keccak256(0x00, 0x20)\n      add\n      dup1\n      sload\n      tag_92\n      swap1\n      tag_66\n      jump\t// in\n    tag_92:\n      dup1\n      0x1f\n      add\n      0x20\n      dup1\n      swap2\n      div\n      mul\n      0x20\n      add\n      mload(0x40)\n      swap1\n      dup2\n      add\n      0x40\n      mstore\n      dup1\n      swap3\n      swap2\n      swap1\n      dup2\n      dup2\n      mstore\n      0x20\n      add\n      dup3\n      dup1\n      sload\n      tag_93\n      swap1\n      tag_66\n      jump\t// in\n    tag_93:\n      dup1\n      iszero\n      tag_94\n      jumpi\n      dup1\n      0x1f\n      lt\n      tag_95\n      jumpi\n      0x0100\n      dup1\n      dup4\n      sload\n      div\n      mul\n      dup4\n      mstore\n      swap2\n      0x20\n      add\n      swap2\n      jump(tag_94)\n    tag_95:\n      dup3\n      add\n      swap2\n      swap1\n      0x00\n      mstore\n      keccak256(0x00, 0x20)\n      swap1\n    tag_96:\n      dup2\n      sload\n      dup2\n      mstore\n      swap1\n      0x01\n      add\n      swap1\n      0x20\n      add\n      dup1\n      dup4\n      gt\n      tag_96\n      jumpi\n      dup3\n      swap1\n      sub\n      0x1f\n      and\n      dup3\n      add\n      swap2\n    tag_94:\n      pop\n      pop\n      pop\n      pop\n      pop\n      dup2\n      mstore\n      0x20\n      add\n      swap1\n      0x01\n      add\n      swap1\n      jump(tag_89)\n    tag_90:\n      pop\n      pop\n      pop\n      pop\n      swap1\n      pop\n        /* \"contract/SupplyChain.sol\":6067:6167  function getAllProductIds() public view returns (string[] memory) {... */\n      swap1\n      jump\t// out\n        /* \"contract/SupplyChain.sol\":4603:5370  function getProduct(string memory _id)... */\n    tag_33:\n        /* \"contract/SupplyChain.sol\":4733:4749  string memory id */\n      0x60\n        /* \"contract/SupplyChain.sol\":4763:4781  string memory name */\n      dup1\n        /* \"contract/SupplyChain.sol\":4795:4817  string memory location */\n      0x60\n        /* \"contract/SupplyChain.sol\":4831:4856  string memory destination */\n      dup1\n        /* \"contract/SupplyChain.sol\":4870:4886  uint256 quantity */\n      0x00\n        /* \"contract/SupplyChain.sol\":4900:4921  string memory company */\n      0x60\n        /* \"contract/SupplyChain.sol\":4935:4954  string memory notes */\n      dup1\n        /* \"contract/SupplyChain.sol\":4968:4988  string memory status */\n      0x60\n        /* \"contract/SupplyChain.sol\":5002:5019  uint256 createdAt */\n      0x00\n        /* \"contract/SupplyChain.sol\":5033:5050  uint256 updatedAt */\n      dup1\n        /* \"contract/SupplyChain.sol\":4698:4701  _id */\n      dup11\n        /* \"contract/SupplyChain.sol\":1082:1090  products */\n      0x00\n        /* \"contract/SupplyChain.sol\":1091:1094  _id */\n      dup2\n        /* \"contract/SupplyChain.sol\":1082:1095  products[_id] */\n      mload(0x40)\n      tag_98\n      swap2\n      swap1\n      tag_51\n      jump\t// in\n    tag_98:\n      swap1\n      dup2\n      mstore\n      0x20\n      add\n      mload(0x40)\n      dup1\n      swap2\n      sub\n      swap1\n      keccak256\n        /* \"contract/SupplyChain.sol\":1082:1102  products[_id].exists */\n      0x0a\n      add\n      0x00\n      swap1\n      sload\n      swap1\n      0x0100\n      exp\n      swap1\n      div\n      0xff\n      and\n        /* \"contract/SupplyChain.sol\":1074:1129  require(products[_id].exists, \"Product does not exist\") */\n      tag_99\n      jumpi\n      mload(0x40)\n      0x08c379a000000000000000000000000000000000000000000000000000000000\n      dup2\n      mstore\n      0x04\n      add\n      tag_100\n      swap1\n      tag_54\n      jump\t// in\n    tag_100:\n      mload(0x40)\n      dup1\n      swap2\n      sub\n      swap1\n      revert\n    tag_99:\n        /* \"contract/SupplyChain.sol\":5075:5091  Product memory p */\n      0x00\n        /* \"contract/SupplyChain.sol\":5094:5102  products */\n      dup1\n        /* \"contract/SupplyChain.sol\":5103:5106  _id */\n      dup14\n        /* \"contract/SupplyChain.sol\":5094:5107  products[_id] */\n      mload(0x40)\n      tag_102\n      swap2\n      swap1\n      tag_51\n      jump\t// in\n    tag_102:\n      swap1\n      dup2\n      mstore\n      0x20\n      add\n      mload(0x40)\n      dup1\n      swap2\n      sub\n      swap1\n      keccak256\n        /* \"contract/SupplyChain.sol\":5075:5107  Product memory p = products[_id] */\n      mload(0x40)\n      dup1\n      0x0160\n      add\n      0x40\n      mstore\n      swap1\n      dup2\n      0x00\n      dup3\n      add\n      dup1\n      sload\n      tag_103\n      swap1\n      tag_66\n      jump\t// in\n    tag_103:\n      dup1\n      0x1f\n      add\n      0x20\n      dup1\n      swap2\n      div\n      mul\n      0x20\n      add\n      mload(0x40)\n      swap1\n      dup2\n      add\n      0x40\n      mstore\n      dup1\n      swap3\n      swap2\n      swap1\n      dup2\n      dup2\n      mstore\n      0x20\n      add\n      dup3\n      dup1\n      sload\n      tag_104\n      swap1\n      tag_66\n      jump\t// in\n    tag_104:\n      dup1\n      iszero\n      tag_105\n      jumpi\n      dup1\n      0x1f\n      lt\n      tag_106\n      jumpi\n      0x0100\n      dup1\n      dup4\n      sload\n      div\n      mul\n      dup4\n      mstore\n      swap2\n      0x20\n      add\n      swap2\n      jump(tag_105)\n    tag_106:\n      dup3\n      add\n      swap2\n      swap1\n      0x00\n      mstore\n      keccak256(0x00, 0x20)\n      swap1\n    tag_107:\n      dup2\n      sload\n      dup2\n      mstore\n      swap1\n      0x01\n      add\n      swap1\n      0x20\n      add\n      dup1\n      dup4\n      gt\n      tag_107\n      jumpi\n      dup3\n      swap1\n      sub\n      0x1f\n      and\n      dup3\n      add\n      swap2\n    tag_105:\n      pop\n      pop\n      pop\n      pop\n      pop\n      dup2\n      mstore\n      0x20\n      add\n      0x01\n      dup3\n      add\n      dup1\n      sload\n      tag_108\n      swap1\n      tag_66\n      jump\t// in\n    tag_108:\n      dup1\n      0x1f\n      add\n      0x20\n      dup1\n      swap2\n      div\n      mul\n      0x20\n      add\n      mload(0x40)\n      swap1\n      dup2\n      add\n      0x40\n      mstore\n      dup1\n      swap3\n      swap2\n      swap1\n      dup2\n      dup2\n      mstore\n      0x20\n      add\n      dup3\n      dup1\n      sload\n      tag_109\n      swap1\n      tag_66\n      jump\t// in\n    tag_109:\n      dup1\n      iszero\n      tag_110\n      jumpi\n      dup1\n      0x1f\n      lt\n      tag_111\n      jumpi\n      0x0100\n      dup1\n      dup4\n      sload\n      div\n      mul\n      dup4\n      mstore\n      swap2\n      0x20\n      add\n      swap2\n      jump(tag_110)\n    tag_111:\n      dup3\n      add\n      swap2\n      swap1\n      0x00\n      mstore\n      keccak256(0x00, 0x20)\n      swap1\n    tag_112:\n      dup2\n      sload\n      dup2\n      mstore\n      swap1\n      0x01\n      add\n      swap1\n      0x20\n      add\n      dup1\n      dup4\n      gt\n      tag_112\n      jumpi\n      dup3\n      swap1\n      sub\n      0x1f\n      and\n      dup3\n      add\n      swap2\n    tag_110:\n      pop\n      pop\n      pop\n      pop\n      pop\n      dup2\n      mstore\n      0x20\n      add\n      0x02\n      dup3\n      add\n      dup1\n      sload\n      tag_113\n      swap1\n      tag_66\n      jump\t// in\n    tag_113:\n      dup1\n      0x1f\n      add\n      0x20\n      dup1\n      swap2\n      div\n      mul\n      0x20\n      add\n      mload(0x40)\n      swap1\n      dup2\n      add\n      0x40\n      mstore\n      dup1\n      swap3\n      swap2\n      swap1\n      dup2\n      dup2\n      mstore\n      0x20\n      add\n      dup3\n      dup1\n      sload\n      tag_114\n      swap1\n      tag_66\n      jump\t// in\n    tag_114:\n      dup1\n      iszero\n      tag_115\n      jumpi\n      dup1\n      0x1f\n      lt\n      tag_116\n      jumpi\n      0x0100\n      dup1\n      dup4\n      sload\n      div\n      mul\n      dup4\n      mstore\n      swap2\n      0x20\n      add\n      swap2\n      jump(tag_115)\n    tag_116:\n      dup3\n      add\n      swap2\n      swap1\n      0x00\n      mstore\n      keccak256(0x00, 0x20)\n      swap1\n    tag_117:\n      dup2\n      sload\n      dup2\n      mstore\n      swap1\n      0x01\n      add\n      swap1\n      0x20\n      add\n      dup1\n      dup4\n      gt\n      tag_117\n      jumpi\n      dup3\n      swap1\n      sub\n      0x1f\n      and\n      dup3\n      add\n      swap2\n    tag_115:\n      pop\n      pop\n      pop\n      pop\n      pop\n      dup2\n      mstore\n      0x20\n      add\n      0x03\n      dup3\n      add\n      dup1\n      sload\n      tag_118\n      swap1\n      tag_66\n      jump\t// in\n    tag_118:\n      dup1\n      0x1f\n      add\n      0x20\n      dup1\n      swap2\n      div\n      mul\n      0x20\n      add\n      mload(0x40)\n      swap1\n      dup2\n      add\n      0x40\n      mstore\n      dup1\n      swap3\n      swap2\n      swap1\n      dup2\n      dup2\n      mstore\n      0x20\n      add\n      dup3\n      dup1\n      sload\n      tag_119\n      swap1\n      tag_66\n      jump\t// in\n    tag_119:\n      dup1\n      iszero\n      tag_120\n      jumpi\n      dup1\n      0x1f\n      lt\n      tag_121\n      jumpi\n      0x0100\n      dup1\n      dup4\n      sload\n      div\n      mul\n      dup4\n      mstore\n      swap2\n      0x20\n      add\n      swap2\n      jump(tag_120)\n    tag_121:\n      dup3\n      add\n      swap2\n      swap1\n      0x00\n      mstore\n      keccak256(0x00, 0x20)\n      swap1\n    tag_122:\n      dup2\n      sload\n      dup2\n      mstore\n      swap1\n      0x01\n      add\n      swap1\n      0x20\n      add\n      dup1\n      dup4\n      gt\n      tag_122\n      jumpi\n      dup3\n      swap1\n      sub\n      0x1f\n      and\n      dup3\n      add\n      swap2\n    tag_120:\n      pop\n      pop\n      pop\n      pop\n      pop\n      dup2\n      mstore\n      0x20\n      add\n      0x04\n      dup3\n      add\n      sload\n      dup2\n      mstore\n      0x20\n      add\n      0x05\n      dup3\n      add\n      dup1\n      sload\n      tag_123\n      swap1\n      tag_66\n      jump\t// in\n    tag_123:\n      dup1\n      0x1f\n      add\n      0x20\n      dup1\n      swap2\n      div\n      mul\n      0x20\n      add\n      mload(0x40)\n      swap1\n      dup2\n      add\n      0x40\n      mstore\n      dup1\n      swap3\n      swap2\n      swap1\n      dup2\n      dup2\n      mstore\n      0x20\n      add\n      dup3\n      dup1\n      sload\n      tag_124\n      swap1\n      tag_66\n      jump\t// in\n    tag_124:\n      dup1\n      iszero\n      tag_125\n      jumpi\n      dup1\n      0x1f\n      lt\n      tag_126\n      jumpi\n      0x0100\n      dup1\n      dup4\n      sload\n      div\n      mul\n      dup4\n      mstore\n      swap2\n      0x20\n      add\n      swap2\n      jump(tag_125)\n    tag_126:\n      dup3\n      add\n      swap2\n      swap1\n      0x00\n      mstore\n      keccak256(0x00, 0x20)\n      swap1\n    tag_127:\n      dup2\n      sload\n      dup2\n      mstore\n      swap1\n      0x01\n      add\n      swap1\n      0x20\n      add\n      dup1\n      dup4\n      gt\n      tag_127\n      jumpi\n      dup3\n      swap1\n      sub\n      0x1f\n      and\n      dup3\n      add\n      swap2\n    tag_125:\n      pop\n      pop\n      pop\n      pop\n      pop\n      dup2\n      mstore\n      0x20\n      add\n      0x06\n      dup3\n      add\n      dup1\n      sload\n      tag_128\n      swap1\n      tag_66\n      jump\t// in\n    tag_128:\n      dup1\n      0x1f\n      add\n      0x20\n      dup1\n      swap2\n      div\n      mul\n      0x20\n      add\n      mload(0x40)\n      swap1\n      dup2\n      add\n      0x40\n      mstore\n      dup1\n      swap3\n      swap2\n      swap1\n      dup2\n      dup2\n      mstore\n      0x20\n      add\n      dup3\n      dup1\n      sload\n      tag_129\n      swap1\n      tag_66\n      jump\t// in\n    tag_129:\n      dup1\n      iszero\n      tag_130\n      jumpi\n      dup1\n      0x1f\n      lt\n      tag_131\n      jumpi\n      0x0100\n      dup1\n      dup4\n      sload\n      div\n      mul\n      dup4\n      mstore\n      swap2\n      0x20\n      add\n      swap2\n      jump(tag_130)\n    tag_131:\n      dup3\n      add\n      swap2\n      swap1\n      0x00\n      mstore\n      keccak256(0x00, 0x20)\n      swap1\n    tag_132:\n      dup2\n      sload\n      dup2\n      mstore\n      swap1\n      0x01\n      add\n      swap1\n      0x20\n      add\n      dup1\n      dup4\n      gt\n      tag_132\n      jumpi\n      dup3\n      swap1\n      sub\n      0x1f\n      and\n      dup3\n      add\n      swap2\n    tag_130:\n      pop\n      pop\n      pop\n      pop\n      pop\n      dup2\n      mstore\n      0x20\n      add\n      0x07\n      dup3\n      add\n      dup1\n      sload\n      tag_133\n      swap1\n      tag_66\n      jump\t// in\n    tag_133:\n      dup1\n      0x1f\n      add\n      0x20\n      dup1\n      swap2\n      div\n      mul\n      0x20\n      add\n      mload(0x40)\n      swap1\n      dup2\n      add\n      0x40\n      mstore\n      dup1\n      swap3\n      swap2\n      swap1\n      dup2\n      dup2\n      mstore\n      0x20\n      add\n      dup3\n      dup1\n      sload\n      tag_134\n      swap1\n      tag_66\n      jump\t// in\n    tag_134:\n      dup1\n      iszero\n      tag_135\n      jumpi\n      dup1\n      0x1f\n      lt\n      tag_136\n      jumpi\n      0x0100\n      dup1\n      dup4\n      sload\n      div\n      mul\n      dup4\n      mstore\n      swap2\n      0x20\n      add\n      swap2\n      jump(tag_135)\n    tag_136:\n      dup3\n      add\n      swap2\n      swap1\n      0x00\n      mstore\n      keccak256(0x00, 0x20)\n      swap1\n    tag_137:\n      dup2\n      sload\n      dup2\n      mstore\n      swap1\n      0x01\n      add\n      swap1\n      0x20\n      add\n      dup1\n      dup4\n      gt\n      tag_137\n      jumpi\n      dup3\n      swap1\n      sub\n      0x1f\n      and\n      dup3\n      add\n      swap2\n    tag_135:\n      pop\n      pop\n      pop\n      pop\n      pop\n      dup2\n      mstore\n      0x20\n      add\n      0x08\n      dup3\n      add\n      sload\n      dup2\n      mstore\n      0x20\n      add\n      0x09\n      dup3\n      add\n      sload\n      dup2\n      mstore\n      0x20\n      add\n      0x0a\n      dup3\n      add\n      0x00\n      swap1\n      sload\n      swap1\n      0x0100\n      exp\n      swap1\n      div\n      0xff\n      and\n      iszero\n      iszero\n      iszero\n      iszero\n      dup2\n      mstore\n      pop\n      pop\n      swap1\n      pop\n        /* \"contract/SupplyChain.sol\":5138:5139  p */\n      dup1\n        /* \"contract/SupplyChain.sol\":5138:5142  p.id */\n      0x00\n      add\n      mload\n        /* \"contract/SupplyChain.sol\":5156:5157  p */\n      dup2\n        /* \"contract/SupplyChain.sol\":5156:5162  p.name */\n      0x20\n      add\n      mload\n        /* \"contract/SupplyChain.sol\":5176:5177  p */\n      dup3\n        /* \"contract/SupplyChain.sol\":5176:5186  p.location */\n      0x40\n      add\n      mload\n        /* \"contract/SupplyChain.sol\":5200:5201  p */\n      dup4\n        /* \"contract/SupplyChain.sol\":5200:5213  p.destination */\n      0x60\n      add\n      mload\n        /* \"contract/SupplyChain.sol\":5227:5228  p */\n      dup5\n        /* \"contract/SupplyChain.sol\":5227:5237  p.quantity */\n      0x80\n      add\n      mload\n        /* \"contract/SupplyChain.sol\":5251:5252  p */\n      dup6\n        /* \"contract/SupplyChain.sol\":5251:5260  p.company */\n      0xa0\n      add\n      mload\n        /* \"contract/SupplyChain.sol\":5274:5275  p */\n      dup7\n        /* \"contract/SupplyChain.sol\":5274:5281  p.notes */\n      0xc0\n      add\n      mload\n        /* \"contract/SupplyChain.sol\":5295:5296  p */\n      dup8\n        /* \"contract/SupplyChain.sol\":5295:5303  p.status */\n      0xe0\n      add\n      mload\n        /* \"contract/SupplyChain.sol\":5317:5318  p */\n      dup9\n        /* \"contract/SupplyChain.sol\":5317:5328  p.createdAt */\n      0x0100\n      add\n      mload\n        /* \"contract/SupplyChain.sol\":5342:5343  p */\n      dup10\n        /* \"contract/SupplyChain.sol\":5342:5353  p.updatedAt */\n      0x0120\n      add\n      mload\n        /* \"contract/SupplyChain.sol\":5117:5363  return (... */\n      swap12\n      pop\n      swap12\n      pop\n      swap12\n      pop\n      swap12\n      pop\n      swap12\n      pop\n      swap12\n      pop\n      swap12\n      pop\n      swap12\n      pop\n      swap12\n      pop\n      swap12\n      pop\n      pop\n        /* \"contract/SupplyChain.sol\":4603:5370  function getProduct(string memory _id)... */\n      pop\n      swap2\n      swap4\n      swap6\n      swap8\n      swap10\n      pop\n      swap2\n      swap4\n      swap6\n      swap8\n      swap10\n      jump\t// out\n        /* \"contract/SupplyChain.sol\":6277:6390  function productExists(string memory _id) public view returns (bool) {... */\n    tag_38:\n        /* \"contract/SupplyChain.sol\":6340:6344  bool */\n      0x00\n        /* \"contract/SupplyChain.sol\":6363:6371  products */\n      dup1\n        /* \"contract/SupplyChain.sol\":6372:6375  _id */\n      dup3\n        /* \"contract/SupplyChain.sol\":6363:6376  products[_id] */\n      mload(0x40)\n      tag_139\n      swap2\n      swap1\n      tag_51\n      jump\t// in\n    tag_139:\n      swap1\n      dup2\n      mstore\n      0x20\n      add\n      mload(0x40)\n      dup1\n      swap2\n      sub\n      swap1\n      keccak256\n        /* \"contract/SupplyChain.sol\":6363:6383  products[_id].exists */\n      0x0a\n      add\n      0x00\n      swap1\n      sload\n      swap1\n      0x0100\n      exp\n      swap1\n      div\n      0xff\n      and\n        /* \"contract/SupplyChain.sol\":6356:6383  return products[_id].exists */\n      swap1\n      pop\n        /* \"contract/SupplyChain.sol\":6277:6390  function productExists(string memory _id) public view returns (bool) {... */\n      swap2\n      swap1\n      pop\n      jump\t// out\n        /* \"contract/SupplyChain.sol\":3077:4597  function updateProduct(... */\n    tag_44:\n        /* \"contract/SupplyChain.sol\":3230:3233  _id */\n      dup3\n        /* \"contract/SupplyChain.sol\":1082:1090  products */\n      0x00\n        /* \"contract/SupplyChain.sol\":1091:1094  _id */\n      dup2\n        /* \"contract/SupplyChain.sol\":1082:1095  products[_id] */\n      mload(0x40)\n      tag_141\n      swap2\n      swap1\n      tag_51\n      jump\t// in\n    tag_141:\n      swap1\n      dup2\n      mstore\n      0x20\n      add\n      mload(0x40)\n      dup1\n      swap2\n      sub\n      swap1\n      keccak256\n        /* \"contract/SupplyChain.sol\":1082:1102  products[_id].exists */\n      0x0a\n      add\n      0x00\n      swap1\n      sload\n      swap1\n      0x0100\n      exp\n      swap1\n      div\n      0xff\n      and\n        /* \"contract/SupplyChain.sol\":1074:1129  require(products[_id].exists, \"Product does not exist\") */\n      tag_142\n      jumpi\n      mload(0x40)\n      0x08c379a000000000000000000000000000000000000000000000000000000000\n      dup2\n      mstore\n      0x04\n      add\n      tag_143\n      swap1\n      tag_54\n      jump\t// in\n    tag_143:\n      mload(0x40)\n      dup1\n      swap2\n      sub\n      swap1\n      revert\n    tag_142:\n        /* \"contract/SupplyChain.sol\":3295:3296  0 */\n      0x00\n        /* \"contract/SupplyChain.sol\":3272:3284  _newLocation */\n      dup4\n        /* \"contract/SupplyChain.sol\":3266:3292  bytes(_newLocation).length */\n      mload\n        /* \"contract/SupplyChain.sol\":3266:3296  bytes(_newLocation).length > 0 */\n      gt\n        /* \"contract/SupplyChain.sol\":3266:3328  bytes(_newLocation).length > 0 || bytes(_newStatus).length > 0 */\n      dup1\n      tag_145\n      jumpi\n      pop\n        /* \"contract/SupplyChain.sol\":3327:3328  0 */\n      0x00\n        /* \"contract/SupplyChain.sol\":3306:3316  _newStatus */\n      dup3\n        /* \"contract/SupplyChain.sol\":3300:3324  bytes(_newStatus).length */\n      mload\n        /* \"contract/SupplyChain.sol\":3300:3328  bytes(_newStatus).length > 0 */\n      gt\n        /* \"contract/SupplyChain.sol\":3266:3328  bytes(_newLocation).length > 0 || bytes(_newStatus).length > 0 */\n    tag_145:\n        /* \"contract/SupplyChain.sol\":3245:3381  require(... */\n      tag_146\n      jumpi\n      mload(0x40)\n      0x08c379a000000000000000000000000000000000000000000000000000000000\n      dup2\n      mstore\n      0x04\n      add\n      tag_147\n      swap1\n      tag_148\n      jump\t// in\n    tag_147:\n      mload(0x40)\n      dup1\n      swap2\n      sub\n      swap1\n      revert\n    tag_146:\n        /* \"contract/SupplyChain.sol\":3392:3409  Product storage p */\n      0x00\n        /* \"contract/SupplyChain.sol\":3412:3420  products */\n      dup1\n        /* \"contract/SupplyChain.sol\":3421:3424  _id */\n      dup6\n        /* \"contract/SupplyChain.sol\":3412:3425  products[_id] */\n      mload(0x40)\n      tag_149\n      swap2\n      swap1\n      tag_51\n      jump\t// in\n    tag_149:\n      swap1\n      dup2\n      mstore\n      0x20\n      add\n      mload(0x40)\n      dup1\n      swap2\n      sub\n      swap1\n      keccak256\n        /* \"contract/SupplyChain.sol\":3392:3425  Product storage p = products[_id] */\n      swap1\n      pop\n        /* \"contract/SupplyChain.sol\":3435:3448  uint256 nowTs */\n      0x00\n        /* \"contract/SupplyChain.sol\":3451:3466  block.timestamp */\n      timestamp\n        /* \"contract/SupplyChain.sol\":3435:3466  uint256 nowTs = block.timestamp */\n      swap1\n      pop\n        /* \"contract/SupplyChain.sol\":3477:3504  string memory finalLocation */\n      0x00\n        /* \"contract/SupplyChain.sol\":3536:3537  0 */\n      dup1\n        /* \"contract/SupplyChain.sol\":3513:3525  _newLocation */\n      dup7\n        /* \"contract/SupplyChain.sol\":3507:3533  bytes(_newLocation).length */\n      mload\n        /* \"contract/SupplyChain.sol\":3507:3537  bytes(_newLocation).length > 0 */\n      gt\n        /* \"contract/SupplyChain.sol\":3507:3589  bytes(_newLocation).length > 0... */\n      tag_150\n      jumpi\n        /* \"contract/SupplyChain.sol\":3579:3580  p */\n      dup3\n        /* \"contract/SupplyChain.sol\":3579:3589  p.location */\n      0x02\n      add\n        /* \"contract/SupplyChain.sol\":3507:3589  bytes(_newLocation).length > 0... */\n      dup1\n      sload\n      tag_151\n      swap1\n      tag_66\n      jump\t// in\n    tag_151:\n      dup1\n      0x1f\n      add\n      0x20\n      dup1\n      swap2\n      div\n      mul\n      0x20\n      add\n      mload(0x40)\n      swap1\n      dup2\n      add\n      0x40\n      mstore\n      dup1\n      swap3\n      swap2\n      swap1\n      dup2\n      dup2\n      mstore\n      0x20\n      add\n      dup3\n      dup1\n      sload\n      tag_152\n      swap1\n      tag_66\n      jump\t// in\n    tag_152:\n      dup1\n      iszero\n      tag_153\n      jumpi\n      dup1\n      0x1f\n      lt\n      tag_154\n      jumpi\n      0x0100\n      dup1\n      dup4\n      sload\n      div\n      mul\n      dup4\n      mstore\n      swap2\n      0x20\n      add\n      swap2\n      jump(tag_153)\n    tag_154:\n      dup3\n      add\n      swap2\n      swap1\n      0x00\n      mstore\n      keccak256(0x00, 0x20)\n      swap1\n    tag_155:\n      dup2\n      sload\n      dup2\n      mstore\n      swap1\n      0x01\n      add\n      swap1\n      0x20\n      add\n      dup1\n      dup4\n      gt\n      tag_155\n      jumpi\n      dup3\n      swap1\n      sub\n      0x1f\n      and\n      dup3\n      add\n      swap2\n    tag_153:\n      pop\n      pop\n      pop\n      pop\n      pop\n      jump(tag_156)\n    tag_150:\n        /* \"contract/SupplyChain.sol\":3552:3564  _newLocation */\n      dup6\n        /* \"contract/SupplyChain.sol\":3507:3589  bytes(_newLocation).length > 0... */\n    tag_156:\n        /* \"contract/SupplyChain.sol\":3477:3589  string memory finalLocation = bytes(_newLocation).length > 0... */\n      swap1\n      pop\n        /* \"contract/SupplyChain.sol\":3600:3625  string memory finalStatus */\n      0x00\n        /* \"contract/SupplyChain.sol\":3655:3656  0 */\n      dup1\n        /* \"contract/SupplyChain.sol\":3634:3644  _newStatus */\n      dup7\n        /* \"contract/SupplyChain.sol\":3628:3652  bytes(_newStatus).length */\n      mload\n        /* \"contract/SupplyChain.sol\":3628:3656  bytes(_newStatus).length > 0 */\n      gt\n        /* \"contract/SupplyChain.sol\":3628:3704  bytes(_newStatus).length > 0... */\n      tag_157\n      jumpi\n        /* \"contract/SupplyChain.sol\":3696:3697  p */\n      dup4\n        /* \"contract/SupplyChain.sol\":3696:3704  p.status */\n      0x07\n      add\n        /* \"contract/SupplyChain.sol\":3628:3704  bytes(_newStatus).length > 0... */\n      dup1\n      sload\n      tag_158\n      swap1\n      tag_66\n      jump\t// in\n    tag_158:\n      dup1\n      0x1f\n      add\n      0x20\n      dup1\n      swap2\n      div\n      mul\n      0x20\n      add\n      mload(0x40)\n      swap1\n      dup2\n      add\n      0x40\n      mstore\n      dup1\n      swap3\n      swap2\n      swap1\n      dup2\n      dup2\n      mstore\n      0x20\n      add\n      dup3\n      dup1\n      sload\n      tag_159\n      swap1\n      tag_66\n      jump\t// in\n    tag_159:\n      dup1\n      iszero\n      tag_160\n      jumpi\n      dup1\n      0x1f\n      lt\n      tag_161\n      jumpi\n      0x0100\n      dup1\n      dup4\n      sload\n      div\n      mul\n      dup4\n      mstore\n      swap2\n      0x20\n      add\n      swap2\n      jump(tag_160)\n    tag_161:\n      dup3\n      add\n      swap2\n      swap1\n      0x00\n      mstore\n      keccak256(0x00, 0x20)\n      swap1\n    tag_162:\n      dup2\n      sload\n      dup2\n      mstore\n      swap1\n      0x01\n      add\n      swap1\n      0x20\n      add\n      dup1\n      dup4\n      gt\n      tag_162\n      jumpi\n      dup3\n      swap1\n      sub\n      0x1f\n      and\n      dup3\n      add\n      swap2\n    tag_160:\n      pop\n      pop\n      pop\n      pop\n      pop\n      jump(tag_163)\n    tag_157:\n        /* \"contract/SupplyChain.sol\":3671:3681  _newStatus */\n      dup6\n        /* \"contract/SupplyChain.sol\":3628:3704  bytes(_newStatus).length > 0... */\n    tag_163:\n        /* \"contract/SupplyChain.sol\":3600:3704  string memory finalStatus = bytes(_newStatus).length > 0... */\n      swap1\n      pop\n        /* \"contract/SupplyChain.sol\":3715:3733  string memory desc */\n      0x60\n        /* \"contract/SupplyChain.sol\":3777:3778  0 */\n      0x00\n        /* \"contract/SupplyChain.sol\":3754:3766  _newLocation */\n      dup9\n        /* \"contract/SupplyChain.sol\":3748:3774  bytes(_newLocation).length */\n      mload\n        /* \"contract/SupplyChain.sol\":3748:3778  bytes(_newLocation).length > 0 */\n      gt\n        /* \"contract/SupplyChain.sol\":3748:3810  bytes(_newLocation).length > 0 && bytes(_newStatus).length > 0 */\n      dup1\n      iszero\n      tag_164\n      jumpi\n      pop\n        /* \"contract/SupplyChain.sol\":3809:3810  0 */\n      0x00\n        /* \"contract/SupplyChain.sol\":3788:3798  _newStatus */\n      dup8\n        /* \"contract/SupplyChain.sol\":3782:3806  bytes(_newStatus).length */\n      mload\n        /* \"contract/SupplyChain.sol\":3782:3810  bytes(_newStatus).length > 0 */\n      gt\n        /* \"contract/SupplyChain.sol\":3748:3810  bytes(_newLocation).length > 0 && bytes(_newStatus).length > 0 */\n    tag_164:\n        /* \"contract/SupplyChain.sol\":3744:4202  if (bytes(_newLocation).length > 0 && bytes(_newStatus).length > 0) {... */\n      iszero\n      tag_165\n      jumpi\n        /* \"contract/SupplyChain.sol\":3896:3908  _newLocation */\n      dup8\n        /* \"contract/SupplyChain.sol\":3936:3946  _newStatus */\n      dup8\n        /* \"contract/SupplyChain.sol\":3857:3947  abi.encodePacked(unicode\"Lokasi → \", _newLocation, unicode\" · Status → \", _newStatus) */\n      add(0x20, mload(0x40))\n      tag_166\n      swap3\n      swap2\n      swap1\n      tag_167\n      jump\t// in\n    tag_166:\n      mload(0x40)\n      0x20\n      dup2\n      dup4\n      sub\n      sub\n      dup2\n      mstore\n      swap1\n      0x40\n      mstore\n        /* \"contract/SupplyChain.sol\":3826:3961  desc = string(... */\n      swap1\n      pop\n        /* \"contract/SupplyChain.sol\":3744:4202  if (bytes(_newLocation).length > 0 && bytes(_newStatus).length > 0) {... */\n      jump(tag_168)\n    tag_165:\n        /* \"contract/SupplyChain.sol\":4011:4012  0 */\n      0x00\n        /* \"contract/SupplyChain.sol\":3988:4000  _newLocation */\n      dup9\n        /* \"contract/SupplyChain.sol\":3982:4008  bytes(_newLocation).length */\n      mload\n        /* \"contract/SupplyChain.sol\":3982:4012  bytes(_newLocation).length > 0 */\n      gt\n        /* \"contract/SupplyChain.sol\":3978:4202  if (bytes(_newLocation).length > 0) {... */\n      iszero\n      tag_169\n      jumpi\n        /* \"contract/SupplyChain.sol\":4081:4093  _newLocation */\n      dup8\n        /* \"contract/SupplyChain.sol\":4042:4094  abi.encodePacked(unicode\"Lokasi → \", _newLocation) */\n      add(0x20, mload(0x40))\n      tag_170\n      swap2\n      swap1\n      tag_171\n      jump\t// in\n    tag_170:\n      mload(0x40)\n      0x20\n      dup2\n      dup4\n      sub\n      sub\n      dup2\n      mstore\n      swap1\n      0x40\n      mstore\n        /* \"contract/SupplyChain.sol\":4028:4095  desc = string(abi.encodePacked(unicode\"Lokasi → \", _newLocation)) */\n      swap1\n      pop\n        /* \"contract/SupplyChain.sol\":3978:4202  if (bytes(_newLocation).length > 0) {... */\n      jump(tag_172)\n    tag_169:\n        /* \"contract/SupplyChain.sol\":4179:4189  _newStatus */\n      dup7\n        /* \"contract/SupplyChain.sol\":4140:4190  abi.encodePacked(unicode\"Status → \", _newStatus) */\n      add(0x20, mload(0x40))\n      tag_173\n      swap2\n      swap1\n      tag_174\n      jump\t// in\n    tag_173:\n      mload(0x40)\n      0x20\n      dup2\n      dup4\n      sub\n      sub\n      dup2\n      mstore\n      swap1\n      0x40\n      mstore\n        /* \"contract/SupplyChain.sol\":4126:4191  desc = string(abi.encodePacked(unicode\"Status → \", _newStatus)) */\n      swap1\n      pop\n        /* \"contract/SupplyChain.sol\":3978:4202  if (bytes(_newLocation).length > 0) {... */\n    tag_172:\n        /* \"contract/SupplyChain.sol\":3744:4202  if (bytes(_newLocation).length > 0 && bytes(_newStatus).length > 0) {... */\n    tag_168:\n        /* \"contract/SupplyChain.sol\":4225:4238  finalLocation */\n      dup3\n        /* \"contract/SupplyChain.sol\":4212:4213  p */\n      dup6\n        /* \"contract/SupplyChain.sol\":4212:4222  p.location */\n      0x02\n      add\n        /* \"contract/SupplyChain.sol\":4212:4238  p.location = finalLocation */\n      swap1\n      dup2\n      tag_175\n      swap2\n      swap1\n      tag_176\n      jump\t// in\n    tag_175:\n      pop\n        /* \"contract/SupplyChain.sol\":4259:4270  finalStatus */\n      dup2\n        /* \"contract/SupplyChain.sol\":4248:4249  p */\n      dup6\n        /* \"contract/SupplyChain.sol\":4248:4256  p.status */\n      0x07\n      add\n        /* \"contract/SupplyChain.sol\":4248:4270  p.status = finalStatus */\n      swap1\n      dup2\n      tag_177\n      swap2\n      swap1\n      tag_176\n      jump\t// in\n    tag_177:\n      pop\n        /* \"contract/SupplyChain.sol\":4294:4299  nowTs */\n      dup4\n        /* \"contract/SupplyChain.sol\":4280:4281  p */\n      dup6\n        /* \"contract/SupplyChain.sol\":4280:4291  p.updatedAt */\n      0x09\n      add\n        /* \"contract/SupplyChain.sol\":4280:4299  p.updatedAt = nowTs */\n      dup2\n      swap1\n      sstore\n      pop\n        /* \"contract/SupplyChain.sol\":4310:4324  productHistory */\n      0x01\n        /* \"contract/SupplyChain.sol\":4325:4328  _id */\n      dup10\n        /* \"contract/SupplyChain.sol\":4310:4329  productHistory[_id] */\n      mload(0x40)\n      tag_178\n      swap2\n      swap1\n      tag_51\n      jump\t// in\n    tag_178:\n      swap1\n      dup2\n      mstore\n      0x20\n      add\n      mload(0x40)\n      dup1\n      swap2\n      sub\n      swap1\n      keccak256\n        /* \"contract/SupplyChain.sol\":4348:4510  HistoryItem({... */\n      mload(0x40)\n      dup1\n      0x80\n      add\n      0x40\n      mstore\n      dup1\n        /* \"contract/SupplyChain.sol\":4384:4389  nowTs */\n      dup7\n        /* \"contract/SupplyChain.sol\":4348:4510  HistoryItem({... */\n      dup2\n      mstore\n      0x20\n      add\n        /* \"contract/SupplyChain.sol\":4417:4430  finalLocation */\n      dup6\n        /* \"contract/SupplyChain.sol\":4348:4510  HistoryItem({... */\n      dup2\n      mstore\n      0x20\n      add\n        /* \"contract/SupplyChain.sol\":4456:4467  finalStatus */\n      dup5\n        /* \"contract/SupplyChain.sol\":4348:4510  HistoryItem({... */\n      dup2\n      mstore\n      0x20\n      add\n        /* \"contract/SupplyChain.sol\":4491:4495  desc */\n      dup4\n        /* \"contract/SupplyChain.sol\":4348:4510  HistoryItem({... */\n      dup2\n      mstore\n      pop\n        /* \"contract/SupplyChain.sol\":4310:4520  productHistory[_id].push(... */\n      swap1\n      dup1\n      0x01\n      dup2\n      sload\n      add\n      dup1\n      dup3\n      sstore\n      dup1\n      swap2\n      pop\n      pop\n      0x01\n      swap1\n      sub\n      swap1\n      0x00\n      mstore\n      keccak256(0x00, 0x20)\n      swap1\n      0x04\n      mul\n      add\n      0x00\n      swap1\n      swap2\n      swap1\n      swap2\n      swap1\n      swap2\n      pop\n      0x00\n      dup3\n      add\n      mload\n      dup2\n      0x00\n      add\n      sstore\n      0x20\n      dup3\n      add\n      mload\n      dup2\n      0x01\n      add\n      swap1\n      dup2\n      tag_180\n      swap2\n      swap1\n      tag_176\n      jump\t// in\n    tag_180:\n      pop\n      0x40\n      dup3\n      add\n      mload\n      dup2\n      0x02\n      add\n      swap1\n      dup2\n      tag_181\n      swap2\n      swap1\n      tag_176\n      jump\t// in\n    tag_181:\n      pop\n      0x60\n      dup3\n      add\n      mload\n      dup2\n      0x03\n      add\n      swap1\n      dup2\n      tag_182\n      swap2\n      swap1\n      tag_176\n      jump\t// in\n    tag_182:\n      pop\n      pop\n      pop\n        /* \"contract/SupplyChain.sol\":4551:4554  _id */\n      dup9\n        /* \"contract/SupplyChain.sol\":4536:4590  ProductUpdated(_id, finalLocation, finalStatus, nowTs) */\n      mload(0x40)\n      tag_183\n      swap2\n      swap1\n      tag_51\n      jump\t// in\n    tag_183:\n      mload(0x40)\n      dup1\n      swap2\n      sub\n      swap1\n      keccak256\n      0xa5dc66eb6128a83f690ed648445a97394e2b66104797ce5bc44e97dd6353310a\n        /* \"contract/SupplyChain.sol\":4556:4569  finalLocation */\n      dup5\n        /* \"contract/SupplyChain.sol\":4571:4582  finalStatus */\n      dup5\n        /* \"contract/SupplyChain.sol\":4584:4589  nowTs */\n      dup8\n        /* \"contract/SupplyChain.sol\":4536:4590  ProductUpdated(_id, finalLocation, finalStatus, nowTs) */\n      mload(0x40)\n      tag_184\n      swap4\n      swap3\n      swap2\n      swap1\n      tag_185\n      jump\t// in\n    tag_184:\n      mload(0x40)\n      dup1\n      swap2\n      sub\n      swap1\n      log2\n        /* \"contract/SupplyChain.sol\":3235:4597  {... */\n      pop\n      pop\n      pop\n      pop\n      pop\n        /* \"contract/SupplyChain.sol\":3077:4597  function updateProduct(... */\n      pop\n      pop\n      pop\n      pop\n      jump\t// out\n        /* \"contract/SupplyChain.sol\":1153:3071  function createProduct(... */\n    tag_48:\n        /* \"contract/SupplyChain.sol\":1441:1442  0 */\n      0x00\n        /* \"contract/SupplyChain.sol\":1427:1430  _id */\n      dup8\n        /* \"contract/SupplyChain.sol\":1421:1438  bytes(_id).length */\n      mload\n        /* \"contract/SupplyChain.sol\":1421:1442  bytes(_id).length > 0 */\n      gt\n        /* \"contract/SupplyChain.sol\":1413:1461  require(bytes(_id).length > 0, \"ID is required\") */\n      tag_187\n      jumpi\n      mload(0x40)\n      0x08c379a000000000000000000000000000000000000000000000000000000000\n      dup2\n      mstore\n      0x04\n      add\n      tag_188\n      swap1\n      tag_189\n      jump\t// in\n    tag_188:\n      mload(0x40)\n      dup1\n      swap2\n      sub\n      swap1\n      revert\n    tag_187:\n        /* \"contract/SupplyChain.sol\":1501:1502  0 */\n      0x00\n        /* \"contract/SupplyChain.sol\":1485:1490  _name */\n      dup7\n        /* \"contract/SupplyChain.sol\":1479:1498  bytes(_name).length */\n      mload\n        /* \"contract/SupplyChain.sol\":1479:1502  bytes(_name).length > 0 */\n      gt\n        /* \"contract/SupplyChain.sol\":1471:1523  require(bytes(_name).length > 0, \"Name is required\") */\n      tag_190\n      jumpi\n      mload(0x40)\n      0x08c379a000000000000000000000000000000000000000000000000000000000\n      dup2\n      mstore\n      0x04\n      add\n      tag_191\n      swap1\n      tag_192\n      jump\t// in\n    tag_191:\n      mload(0x40)\n      dup1\n      swap2\n      sub\n      swap1\n      revert\n    tag_190:\n        /* \"contract/SupplyChain.sol\":1567:1568  0 */\n      0x00\n        /* \"contract/SupplyChain.sol\":1547:1556  _location */\n      dup6\n        /* \"contract/SupplyChain.sol\":1541:1564  bytes(_location).length */\n      mload\n        /* \"contract/SupplyChain.sol\":1541:1568  bytes(_location).length > 0 */\n      gt\n        /* \"contract/SupplyChain.sol\":1533:1593  require(bytes(_location).length > 0, \"Location is required\") */\n      tag_193\n      jumpi\n      mload(0x40)\n      0x08c379a000000000000000000000000000000000000000000000000000000000\n      dup2\n      mstore\n      0x04\n      add\n      tag_194\n      swap1\n      tag_195\n      jump\t// in\n    tag_194:\n      mload(0x40)\n      dup1\n      swap2\n      sub\n      swap1\n      revert\n    tag_193:\n        /* \"contract/SupplyChain.sol\":1640:1641  0 */\n      0x00\n        /* \"contract/SupplyChain.sol\":1617:1629  _destination */\n      dup5\n        /* \"contract/SupplyChain.sol\":1611:1637  bytes(_destination).length */\n      mload\n        /* \"contract/SupplyChain.sol\":1611:1641  bytes(_destination).length > 0 */\n      gt\n        /* \"contract/SupplyChain.sol\":1603:1669  require(bytes(_destination).length > 0, \"Destination is required\") */\n      tag_196\n      jumpi\n      mload(0x40)\n      0x08c379a000000000000000000000000000000000000000000000000000000000\n      dup2\n      mstore\n      0x04\n      add\n      tag_197\n      swap1\n      tag_198\n      jump\t// in\n    tag_197:\n      mload(0x40)\n      dup1\n      swap2\n      sub\n      swap1\n      revert\n    tag_196:\n        /* \"contract/SupplyChain.sol\":1699:1700  0 */\n      0x00\n        /* \"contract/SupplyChain.sol\":1687:1696  _quantity */\n      dup4\n        /* \"contract/SupplyChain.sol\":1687:1700  _quantity > 0 */\n      gt\n        /* \"contract/SupplyChain.sol\":1679:1725  require(_quantity > 0, \"Quantity must be > 0\") */\n      tag_199\n      jumpi\n      mload(0x40)\n      0x08c379a000000000000000000000000000000000000000000000000000000000\n      dup2\n      mstore\n      0x04\n      add\n      tag_200\n      swap1\n      tag_201\n      jump\t// in\n    tag_200:\n      mload(0x40)\n      dup1\n      swap2\n      sub\n      swap1\n      revert\n    tag_199:\n        /* \"contract/SupplyChain.sol\":1768:1769  0 */\n      0x00\n        /* \"contract/SupplyChain.sol\":1749:1757  _company */\n      dup3\n        /* \"contract/SupplyChain.sol\":1743:1765  bytes(_company).length */\n      mload\n        /* \"contract/SupplyChain.sol\":1743:1769  bytes(_company).length > 0 */\n      gt\n        /* \"contract/SupplyChain.sol\":1735:1793  require(bytes(_company).length > 0, \"Company is required\") */\n      tag_202\n      jumpi\n      mload(0x40)\n      0x08c379a000000000000000000000000000000000000000000000000000000000\n      dup2\n      mstore\n      0x04\n      add\n      tag_203\n      swap1\n      tag_204\n      jump\t// in\n    tag_203:\n      mload(0x40)\n      dup1\n      swap2\n      sub\n      swap1\n      revert\n    tag_202:\n        /* \"contract/SupplyChain.sol\":1812:1820  products */\n      0x00\n        /* \"contract/SupplyChain.sol\":1821:1824  _id */\n      dup8\n        /* \"contract/SupplyChain.sol\":1812:1825  products[_id] */\n      mload(0x40)\n      tag_205\n      swap2\n      swap1\n      tag_51\n      jump\t// in\n    tag_205:\n      swap1\n      dup2\n      mstore\n      0x20\n      add\n      mload(0x40)\n      dup1\n      swap2\n      sub\n      swap1\n      keccak256\n        /* \"contract/SupplyChain.sol\":1812:1832  products[_id].exists */\n      0x0a\n      add\n      0x00\n      swap1\n      sload\n      swap1\n      0x0100\n      exp\n      swap1\n      div\n      0xff\n      and\n        /* \"contract/SupplyChain.sol\":1811:1832  !products[_id].exists */\n      iszero\n        /* \"contract/SupplyChain.sol\":1803:1859  require(!products[_id].exists, \"Product already exists\") */\n      tag_206\n      jumpi\n      mload(0x40)\n      0x08c379a000000000000000000000000000000000000000000000000000000000\n      dup2\n      mstore\n      0x04\n      add\n      tag_207\n      swap1\n      tag_208\n      jump\t// in\n    tag_207:\n      mload(0x40)\n      dup1\n      swap2\n      sub\n      swap1\n      revert\n    tag_206:\n        /* \"contract/SupplyChain.sol\":1870:1883  uint256 nowTs */\n      0x00\n        /* \"contract/SupplyChain.sol\":1886:1901  block.timestamp */\n      timestamp\n        /* \"contract/SupplyChain.sol\":1870:1901  uint256 nowTs = block.timestamp */\n      swap1\n      pop\n        /* \"contract/SupplyChain.sol\":1928:2279  Product({... */\n      mload(0x40)\n      dup1\n      0x0160\n      add\n      0x40\n      mstore\n      dup1\n        /* \"contract/SupplyChain.sol\":1954:1957  _id */\n      dup10\n        /* \"contract/SupplyChain.sol\":1928:2279  Product({... */\n      dup2\n      mstore\n      0x20\n      add\n        /* \"contract/SupplyChain.sol\":1977:1982  _name */\n      dup9\n        /* \"contract/SupplyChain.sol\":1928:2279  Product({... */\n      dup2\n      mstore\n      0x20\n      add\n        /* \"contract/SupplyChain.sol\":2006:2015  _location */\n      dup8\n        /* \"contract/SupplyChain.sol\":1928:2279  Product({... */\n      dup2\n      mstore\n      0x20\n      add\n        /* \"contract/SupplyChain.sol\":2042:2054  _destination */\n      dup7\n        /* \"contract/SupplyChain.sol\":1928:2279  Product({... */\n      dup2\n      mstore\n      0x20\n      add\n        /* \"contract/SupplyChain.sol\":2078:2087  _quantity */\n      dup6\n        /* \"contract/SupplyChain.sol\":1928:2279  Product({... */\n      dup2\n      mstore\n      0x20\n      add\n        /* \"contract/SupplyChain.sol\":2110:2118  _company */\n      dup5\n        /* \"contract/SupplyChain.sol\":1928:2279  Product({... */\n      dup2\n      mstore\n      0x20\n      add\n        /* \"contract/SupplyChain.sol\":2139:2145  _notes */\n      dup4\n        /* \"contract/SupplyChain.sol\":1928:2279  Product({... */\n      dup2\n      mstore\n      0x20\n      add\n      mload(0x40)\n      dup1\n      0x40\n      add\n      0x40\n      mstore\n      dup1\n      0x0d\n      dup2\n      mstore\n      0x20\n      add\n      0x44616c616d205472616e73697400000000000000000000000000000000000000\n      dup2\n      mstore\n      pop\n      dup2\n      mstore\n      0x20\n      add\n        /* \"contract/SupplyChain.sol\":2207:2212  nowTs */\n      dup3\n        /* \"contract/SupplyChain.sol\":1928:2279  Product({... */\n      dup2\n      mstore\n      0x20\n      add\n        /* \"contract/SupplyChain.sol\":2237:2242  nowTs */\n      dup3\n        /* \"contract/SupplyChain.sol\":1928:2279  Product({... */\n      dup2\n      mstore\n      0x20\n      add\n        /* \"contract/SupplyChain.sol\":2264:2268  true */\n      0x01\n        /* \"contract/SupplyChain.sol\":1928:2279  Product({... */\n      iszero\n      iszero\n      dup2\n      mstore\n      pop\n        /* \"contract/SupplyChain.sol\":1912:1920  products */\n      0x00\n        /* \"contract/SupplyChain.sol\":1921:1924  _id */\n      dup10\n        /* \"contract/SupplyChain.sol\":1912:1925  products[_id] */\n      mload(0x40)\n      tag_209\n      swap2\n      swap1\n      tag_51\n      jump\t// in\n    tag_209:\n      swap1\n      dup2\n      mstore\n      0x20\n      add\n      mload(0x40)\n      dup1\n      swap2\n      sub\n      swap1\n      keccak256\n        /* \"contract/SupplyChain.sol\":1912:2279  products[_id] = Product({... */\n      0x00\n      dup3\n      add\n      mload\n      dup2\n      0x00\n      add\n      swap1\n      dup2\n      tag_210\n      swap2\n      swap1\n      tag_176\n      jump\t// in\n    tag_210:\n      pop\n      0x20\n      dup3\n      add\n      mload\n      dup2\n      0x01\n      add\n      swap1\n      dup2\n      tag_211\n      swap2\n      swap1\n      tag_176\n      jump\t// in\n    tag_211:\n      pop\n      0x40\n      dup3\n      add\n      mload\n      dup2\n      0x02\n      add\n      swap1\n      dup2\n      tag_212\n      swap2\n      swap1\n      tag_176\n      jump\t// in\n    tag_212:\n      pop\n      0x60\n      dup3\n      add\n      mload\n      dup2\n      0x03\n      add\n      swap1\n      dup2\n      tag_213\n      swap2\n      swap1\n      tag_176\n      jump\t// in\n    tag_213:\n      pop\n      0x80\n      dup3\n      add\n      mload\n      dup2\n      0x04\n      add\n      sstore\n      0xa0\n      dup3\n      add\n      mload\n      dup2\n      0x05\n      add\n      swap1\n      dup2\n      tag_214\n      swap2\n      swap1\n      tag_176\n      jump\t// in\n    tag_214:\n      pop\n      0xc0\n      dup3\n      add\n      mload\n      dup2\n      0x06\n      add\n      swap1\n      dup2\n      tag_215\n      swap2\n      swap1\n      tag_176\n      jump\t// in\n    tag_215:\n      pop\n      0xe0\n      dup3\n      add\n      mload\n      dup2\n      0x07\n      add\n      swap1\n      dup2\n      tag_216\n      swap2\n      swap1\n      tag_176\n      jump\t// in\n    tag_216:\n      pop\n      0x0100\n      dup3\n      add\n      mload\n      dup2\n      0x08\n      add\n      sstore\n      0x0120\n      dup3\n      add\n      mload\n      dup2\n      0x09\n      add\n      sstore\n      0x0140\n      dup3\n      add\n      mload\n      dup2\n      0x0a\n      add\n      exp(0x0100, 0x00)\n      dup2\n      sload\n      dup2\n      0xff\n      mul\n      not\n      and\n      swap1\n      dup4\n      iszero\n      iszero\n      mul\n      or\n      swap1\n      sstore\n      pop\n      swap1\n      pop\n      pop\n        /* \"contract/SupplyChain.sol\":2290:2300  productIds */\n      0x02\n        /* \"contract/SupplyChain.sol\":2306:2309  _id */\n      dup9\n        /* \"contract/SupplyChain.sol\":2290:2310  productIds.push(_id) */\n      swap1\n      dup1\n      0x01\n      dup2\n      sload\n      add\n      dup1\n      dup3\n      sstore\n      dup1\n      swap2\n      pop\n      pop\n      0x01\n      swap1\n      sub\n      swap1\n      0x00\n      mstore\n      keccak256(0x00, 0x20)\n      add\n      0x00\n      swap1\n      swap2\n      swap1\n      swap2\n      swap1\n      swap2\n      pop\n      swap1\n      dup2\n      tag_218\n      swap2\n      swap1\n      tag_176\n      jump\t// in\n    tag_218:\n      pop\n        /* \"contract/SupplyChain.sol\":2321:2346  string memory initialDesc */\n      0x00\n        /* \"contract/SupplyChain.sol\":2453:2477  _uintToString(_quantity) */\n      tag_219\n        /* \"contract/SupplyChain.sol\":2467:2476  _quantity */\n      dup6\n        /* \"contract/SupplyChain.sol\":2453:2466  _uintToString */\n      tag_220\n        /* \"contract/SupplyChain.sol\":2453:2477  _uintToString(_quantity) */\n      jump\t// in\n    tag_219:\n        /* \"contract/SupplyChain.sol\":2532:2544  _destination */\n      dup7\n        /* \"contract/SupplyChain.sol\":2584:2592  _company */\n      dup6\n        /* \"contract/SupplyChain.sol\":2369:2627  abi.encodePacked(... */\n      add(0x20, mload(0x40))\n      tag_221\n      swap4\n      swap3\n      swap2\n      swap1\n      tag_222\n      jump\t// in\n    tag_221:\n      mload(0x40)\n      0x20\n      dup2\n      dup4\n      sub\n      sub\n      dup2\n      mstore\n      swap1\n      0x40\n      mstore\n        /* \"contract/SupplyChain.sol\":2321:2637  string memory initialDesc = string(... */\n      swap1\n      pop\n        /* \"contract/SupplyChain.sol\":2648:2662  productHistory */\n      0x01\n        /* \"contract/SupplyChain.sol\":2663:2666  _id */\n      dup10\n        /* \"contract/SupplyChain.sol\":2648:2667  productHistory[_id] */\n      mload(0x40)\n      tag_223\n      swap2\n      swap1\n      tag_51\n      jump\t// in\n    tag_223:\n      swap1\n      dup2\n      mstore\n      0x20\n      add\n      mload(0x40)\n      dup1\n      swap2\n      sub\n      swap1\n      keccak256\n        /* \"contract/SupplyChain.sol\":2686:2855  HistoryItem({... */\n      mload(0x40)\n      dup1\n      0x80\n      add\n      0x40\n      mstore\n      dup1\n        /* \"contract/SupplyChain.sol\":2722:2727  nowTs */\n      dup5\n        /* \"contract/SupplyChain.sol\":2686:2855  HistoryItem({... */\n      dup2\n      mstore\n      0x20\n      add\n        /* \"contract/SupplyChain.sol\":2755:2764  _location */\n      dup10\n        /* \"contract/SupplyChain.sol\":2686:2855  HistoryItem({... */\n      dup2\n      mstore\n      0x20\n      add\n      mload(0x40)\n      dup1\n      0x40\n      add\n      0x40\n      mstore\n      dup1\n      0x0d\n      dup2\n      mstore\n      0x20\n      add\n      0x44616c616d205472616e73697400000000000000000000000000000000000000\n      dup2\n      mstore\n      pop\n      dup2\n      mstore\n      0x20\n      add\n        /* \"contract/SupplyChain.sol\":2829:2840  initialDesc */\n      dup4\n        /* \"contract/SupplyChain.sol\":2686:2855  HistoryItem({... */\n      dup2\n      mstore\n      pop\n        /* \"contract/SupplyChain.sol\":2648:2865  productHistory[_id].push(... */\n      swap1\n      dup1\n      0x01\n      dup2\n      sload\n      add\n      dup1\n      dup3\n      sstore\n      dup1\n      swap2\n      pop\n      pop\n      0x01\n      swap1\n      sub\n      swap1\n      0x00\n      mstore\n      keccak256(0x00, 0x20)\n      swap1\n      0x04\n      mul\n      add\n      0x00\n      swap1\n      swap2\n      swap1\n      swap2\n      swap1\n      swap2\n      pop\n      0x00\n      dup3\n      add\n      mload\n      dup2\n      0x00\n      add\n      sstore\n      0x20\n      dup3\n      add\n      mload\n      dup2\n      0x01\n      add\n      swap1\n      dup2\n      tag_225\n      swap2\n      swap1\n      tag_176\n      jump\t// in\n    tag_225:\n      pop\n      0x40\n      dup3\n      add\n      mload\n      dup2\n      0x02\n      add\n      swap1\n      dup2\n      tag_226\n      swap2\n      swap1\n      tag_176\n      jump\t// in\n    tag_226:\n      pop\n      0x60\n      dup3\n      add\n      mload\n      dup2\n      0x03\n      add\n      swap1\n      dup2\n      tag_227\n      swap2\n      swap1\n      tag_176\n      jump\t// in\n    tag_227:\n      pop\n      pop\n      pop\n        /* \"contract/SupplyChain.sol\":2909:2912  _id */\n      dup9\n        /* \"contract/SupplyChain.sol\":2881:3064  ProductCreated(... */\n      mload(0x40)\n      tag_228\n      swap2\n      swap1\n      tag_51\n      jump\t// in\n    tag_228:\n      mload(0x40)\n      dup1\n      swap2\n      sub\n      swap1\n      keccak256\n      0x7fa7ef5a89b7fe34da86eeb0898416c527c4309b2b34a91167d394213d4d8965\n        /* \"contract/SupplyChain.sol\":2926:2931  _name */\n      dup10\n        /* \"contract/SupplyChain.sol\":2945:2954  _location */\n      dup10\n        /* \"contract/SupplyChain.sol\":2968:2980  _destination */\n      dup10\n        /* \"contract/SupplyChain.sol\":2994:3003  _quantity */\n      dup10\n        /* \"contract/SupplyChain.sol\":3017:3025  _company */\n      dup10\n        /* \"contract/SupplyChain.sol\":2881:3064  ProductCreated(... */\n      mload(0x40)\n      tag_229\n      swap6\n      swap5\n      swap4\n      swap3\n      swap2\n      swap1\n      tag_230\n      jump\t// in\n    tag_229:\n      mload(0x40)\n      dup1\n      swap2\n      sub\n      swap1\n      log2\n        /* \"contract/SupplyChain.sol\":1403:3071  {... */\n      pop\n      pop\n        /* \"contract/SupplyChain.sol\":1153:3071  function createProduct(... */\n      pop\n      pop\n      pop\n      pop\n      pop\n      pop\n      pop\n      jump\t// out\n        /* \"contract/SupplyChain.sol\":6396:6919  function _uintToString(uint256 value) internal pure returns (string memory) {... */\n    tag_220:\n        /* \"contract/SupplyChain.sol\":6457:6470  string memory */\n      0x60\n        /* \"contract/SupplyChain.sol\":6495:6496  0 */\n      0x00\n        /* \"contract/SupplyChain.sol\":6486:6491  value */\n      dup3\n        /* \"contract/SupplyChain.sol\":6486:6496  value == 0 */\n      sub\n        /* \"contract/SupplyChain.sol\":6482:6533  if (value == 0) {... */\n      tag_232\n      jumpi\n        /* \"contract/SupplyChain.sol\":6512:6522  return \"0\" */\n      mload(0x40)\n      dup1\n      0x40\n      add\n      0x40\n      mstore\n      dup1\n      0x01\n      dup2\n      mstore\n      0x20\n      add\n      0x3000000000000000000000000000000000000000000000000000000000000000\n      dup2\n      mstore\n      pop\n      swap1\n      pop\n      jump(tag_231)\n        /* \"contract/SupplyChain.sol\":6482:6533  if (value == 0) {... */\n    tag_232:\n        /* \"contract/SupplyChain.sol\":6543:6555  uint256 temp */\n      0x00\n        /* \"contract/SupplyChain.sol\":6558:6563  value */\n      dup3\n        /* \"contract/SupplyChain.sol\":6543:6563  uint256 temp = value */\n      swap1\n      pop\n        /* \"contract/SupplyChain.sol\":6573:6587  uint256 digits */\n      0x00\n        /* \"contract/SupplyChain.sol\":6597:6672  while (temp != 0) {... */\n    tag_233:\n        /* \"contract/SupplyChain.sol\":6612:6613  0 */\n      0x00\n        /* \"contract/SupplyChain.sol\":6604:6608  temp */\n      dup3\n        /* \"contract/SupplyChain.sol\":6604:6613  temp != 0 */\n      eq\n        /* \"contract/SupplyChain.sol\":6597:6672  while (temp != 0) {... */\n      tag_234\n      jumpi\n        /* \"contract/SupplyChain.sol\":6629:6637  digits++ */\n      dup1\n      dup1\n      tag_235\n      swap1\n      tag_236\n      jump\t// in\n    tag_235:\n      swap2\n      pop\n      pop\n        /* \"contract/SupplyChain.sol\":6659:6661  10 */\n      0x0a\n        /* \"contract/SupplyChain.sol\":6651:6661  temp /= 10 */\n      dup3\n      tag_237\n      swap2\n      swap1\n      tag_238\n      jump\t// in\n    tag_237:\n      swap2\n      pop\n        /* \"contract/SupplyChain.sol\":6597:6672  while (temp != 0) {... */\n      jump(tag_233)\n    tag_234:\n        /* \"contract/SupplyChain.sol\":6682:6701  bytes memory buffer */\n      0x00\n        /* \"contract/SupplyChain.sol\":6714:6720  digits */\n      dup2\n        /* \"contract/SupplyChain.sol\":6704:6721  new bytes(digits) */\n      0xffffffffffffffff\n      dup2\n      gt\n      iszero\n      tag_239\n      jumpi\n      tag_240\n      tag_241\n      jump\t// in\n    tag_240:\n    tag_239:\n      mload(0x40)\n      swap1\n      dup1\n      dup3\n      mstore\n      dup1\n      0x1f\n      add\n      not(0x1f)\n      and\n      0x20\n      add\n      dup3\n      add\n      0x40\n      mstore\n      dup1\n      iszero\n      tag_242\n      jumpi\n      dup2\n      0x20\n      add\n      0x01\n      dup3\n      mul\n      dup1\n      calldatasize\n      dup4\n      calldatacopy\n      dup1\n      dup3\n      add\n      swap2\n      pop\n      pop\n      swap1\n      pop\n    tag_242:\n      pop\n        /* \"contract/SupplyChain.sol\":6682:6721  bytes memory buffer = new bytes(digits) */\n      swap1\n      pop\n        /* \"contract/SupplyChain.sol\":6731:6881  while (value != 0) {... */\n    tag_243:\n        /* \"contract/SupplyChain.sol\":6747:6748  0 */\n      0x00\n        /* \"contract/SupplyChain.sol\":6738:6743  value */\n      dup6\n        /* \"contract/SupplyChain.sol\":6738:6748  value != 0 */\n      eq\n        /* \"contract/SupplyChain.sol\":6731:6881  while (value != 0) {... */\n      tag_244\n      jumpi\n        /* \"contract/SupplyChain.sol\":6774:6775  1 */\n      0x01\n        /* \"contract/SupplyChain.sol\":6764:6775  digits -= 1 */\n      dup3\n      tag_245\n      swap2\n      swap1\n      tag_246\n      jump\t// in\n    tag_245:\n      swap2\n      pop\n        /* \"contract/SupplyChain.sol\":6840:6842  10 */\n      0x0a\n        /* \"contract/SupplyChain.sol\":6832:6837  value */\n      dup6\n        /* \"contract/SupplyChain.sol\":6832:6842  value % 10 */\n      tag_247\n      swap2\n      swap1\n      tag_248\n      jump\t// in\n    tag_247:\n        /* \"contract/SupplyChain.sol\":6819:6821  48 */\n      0x30\n        /* \"contract/SupplyChain.sol\":6819:6843  48 + uint256(value % 10) */\n      tag_249\n      swap2\n      swap1\n      tag_250\n      jump\t// in\n    tag_249:\n        /* \"contract/SupplyChain.sol\":6806:6845  bytes1(uint8(48 + uint256(value % 10))) */\n      0xf8\n      shl\n        /* \"contract/SupplyChain.sol\":6789:6795  buffer */\n      dup2\n        /* \"contract/SupplyChain.sol\":6796:6802  digits */\n      dup4\n        /* \"contract/SupplyChain.sol\":6789:6803  buffer[digits] */\n      dup2\n      mload\n      dup2\n      lt\n      tag_251\n      jumpi\n      tag_252\n      tag_63\n      jump\t// in\n    tag_252:\n    tag_251:\n      0x20\n      add\n      add\n        /* \"contract/SupplyChain.sol\":6789:6845  buffer[digits] = bytes1(uint8(48 + uint256(value % 10))) */\n      swap1\n      not(0xffffffffffffffffffffffffffffffffffffffffffffffffffffffffffffff)\n      and\n      swap1\n      dup2\n      0x00\n      byte\n      swap1\n      mstore8\n      pop\n        /* \"contract/SupplyChain.sol\":6868:6870  10 */\n      0x0a\n        /* \"contract/SupplyChain.sol\":6859:6870  value /= 10 */\n      dup6\n      tag_253\n      swap2\n      swap1\n      tag_238\n      jump\t// in\n    tag_253:\n      swap5\n      pop\n        /* \"contract/SupplyChain.sol\":6731:6881  while (value != 0) {... */\n      jump(tag_243)\n    tag_244:\n        /* \"contract/SupplyChain.sol\":6905:6911  buffer */\n      dup1\n        /* \"contract/SupplyChain.sol\":6891:6912  return string(buffer) */\n      swap4\n      pop\n      pop\n      pop\n      pop\n        /* \"contract/SupplyChain.sol\":6396:6919  function _uintToString(uint256 value) internal pure returns (string memory) {... */\n    tag_231:\n      swap2\n      swap1\n      pop\n      jump\t// out\n        /* \"#utility.yul\":7:82   */\n    tag_254:\n        /* \"#utility.yul\":40:46   */\n      0x00\n        /* \"#utility.yul\":73:75   */\n      0x40\n        /* \"#utility.yul\":67:76   */\n      mload\n        /* \"#utility.yul\":57:76   */\n      swap1\n      pop\n        /* \"#utility.yul\":7:82   */\n      swap1\n      jump\t// out\n        /* \"#utility.yul\":88:205   */\n    tag_255:\n        /* \"#utility.yul\":197:198   */\n      0x00\n        /* \"#utility.yul\":194:195   */\n      dup1\n        /* \"#utility.yul\":187:199   */\n      revert\n        /* \"#utility.yul\":211:328   */\n    tag_256:\n        /* \"#utility.yul\":320:321   */\n      0x00\n        /* \"#utility.yul\":317:318   */\n      dup1\n        /* \"#utility.yul\":310:322   */\n      revert\n        /* \"#utility.yul\":334:451   */\n    tag_257:\n        /* \"#utility.yul\":443:444   */\n      0x00\n        /* \"#utility.yul\":440:441   */\n      dup1\n        /* \"#utility.yul\":433:445   */\n      revert\n        /* \"#utility.yul\":457:574   */\n    tag_258:\n        /* \"#utility.yul\":566:567   */\n      0x00\n        /* \"#utility.yul\":563:564   */\n      dup1\n        /* \"#utility.yul\":556:568   */\n      revert\n        /* \"#utility.yul\":580:682   */\n    tag_259:\n        /* \"#utility.yul\":621:627   */\n      0x00\n        /* \"#utility.yul\":672:674   */\n      0x1f\n        /* \"#utility.yul\":668:675   */\n      not\n        /* \"#utility.yul\":663:665   */\n      0x1f\n        /* \"#utility.yul\":656:661   */\n      dup4\n        /* \"#utility.yul\":652:666   */\n      add\n        /* \"#utility.yul\":648:676   */\n      and\n        /* \"#utility.yul\":638:676   */\n      swap1\n      pop\n        /* \"#utility.yul\":580:682   */\n      swap2\n      swap1\n      pop\n      jump\t// out\n        /* \"#utility.yul\":688:868   */\n    tag_241:\n        /* \"#utility.yul\":736:813   */\n      0x4e487b7100000000000000000000000000000000000000000000000000000000\n        /* \"#utility.yul\":733:734   */\n      0x00\n        /* \"#utility.yul\":726:814   */\n      mstore\n        /* \"#utility.yul\":833:837   */\n      0x41\n        /* \"#utility.yul\":830:831   */\n      0x04\n        /* \"#utility.yul\":823:838   */\n      mstore\n        /* \"#utility.yul\":857:861   */\n      0x24\n        /* \"#utility.yul\":854:855   */\n      0x00\n        /* \"#utility.yul\":847:862   */\n      revert\n        /* \"#utility.yul\":874:1155   */\n    tag_260:\n        /* \"#utility.yul\":957:984   */\n      tag_349\n        /* \"#utility.yul\":979:983   */\n      dup3\n        /* \"#utility.yul\":957:984   */\n      tag_259\n      jump\t// in\n    tag_349:\n        /* \"#utility.yul\":949:955   */\n      dup2\n        /* \"#utility.yul\":945:985   */\n      add\n        /* \"#utility.yul\":1087:1093   */\n      dup2\n        /* \"#utility.yul\":1075:1085   */\n      dup2\n        /* \"#utility.yul\":1072:1094   */\n      lt\n        /* \"#utility.yul\":1051:1069   */\n      0xffffffffffffffff\n        /* \"#utility.yul\":1039:1049   */\n      dup3\n        /* \"#utility.yul\":1036:1070   */\n      gt\n        /* \"#utility.yul\":1033:1095   */\n      or\n        /* \"#utility.yul\":1030:1118   */\n      iszero\n      tag_350\n      jumpi\n        /* \"#utility.yul\":1098:1116   */\n      tag_351\n      tag_241\n      jump\t// in\n    tag_351:\n        /* \"#utility.yul\":1030:1118   */\n    tag_350:\n        /* \"#utility.yul\":1138:1148   */\n      dup1\n        /* \"#utility.yul\":1134:1136   */\n      0x40\n        /* \"#utility.yul\":1127:1149   */\n      mstore\n        /* \"#utility.yul\":917:1155   */\n      pop\n        /* \"#utility.yul\":874:1155   */\n      pop\n      pop\n      jump\t// out\n        /* \"#utility.yul\":1161:1290   */\n    tag_261:\n        /* \"#utility.yul\":1195:1201   */\n      0x00\n        /* \"#utility.yul\":1222:1242   */\n      tag_353\n      tag_254\n      jump\t// in\n    tag_353:\n        /* \"#utility.yul\":1212:1242   */\n      swap1\n      pop\n        /* \"#utility.yul\":1251:1284   */\n      tag_354\n        /* \"#utility.yul\":1279:1283   */\n      dup3\n        /* \"#utility.yul\":1271:1277   */\n      dup3\n        /* \"#utility.yul\":1251:1284   */\n      tag_260\n      jump\t// in\n    tag_354:\n        /* \"#utility.yul\":1161:1290   */\n      swap2\n      swap1\n      pop\n      jump\t// out\n        /* \"#utility.yul\":1296:1604   */\n    tag_262:\n        /* \"#utility.yul\":1358:1362   */\n      0x00\n        /* \"#utility.yul\":1448:1466   */\n      0xffffffffffffffff\n        /* \"#utility.yul\":1440:1446   */\n      dup3\n        /* \"#utility.yul\":1437:1467   */\n      gt\n        /* \"#utility.yul\":1434:1490   */\n      iszero\n      tag_356\n      jumpi\n        /* \"#utility.yul\":1470:1488   */\n      tag_357\n      tag_241\n      jump\t// in\n    tag_357:\n        /* \"#utility.yul\":1434:1490   */\n    tag_356:\n        /* \"#utility.yul\":1508:1537   */\n      tag_358\n        /* \"#utility.yul\":1530:1536   */\n      dup3\n        /* \"#utility.yul\":1508:1537   */\n      tag_259\n      jump\t// in\n    tag_358:\n        /* \"#utility.yul\":1500:1537   */\n      swap1\n      pop\n        /* \"#utility.yul\":1592:1596   */\n      0x20\n        /* \"#utility.yul\":1586:1590   */\n      dup2\n        /* \"#utility.yul\":1582:1597   */\n      add\n        /* \"#utility.yul\":1574:1597   */\n      swap1\n      pop\n        /* \"#utility.yul\":1296:1604   */\n      swap2\n      swap1\n      pop\n      jump\t// out\n        /* \"#utility.yul\":1610:1756   */\n    tag_263:\n        /* \"#utility.yul\":1707:1713   */\n      dup3\n        /* \"#utility.yul\":1702:1705   */\n      dup2\n        /* \"#utility.yul\":1697:1700   */\n      dup4\n        /* \"#utility.yul\":1684:1714   */\n      calldatacopy\n        /* \"#utility.yul\":1748:1749   */\n      0x00\n        /* \"#utility.yul\":1739:1745   */\n      dup4\n        /* \"#utility.yul\":1734:1737   */\n      dup4\n        /* \"#utility.yul\":1730:1746   */\n      add\n        /* \"#utility.yul\":1723:1750   */\n      mstore\n        /* \"#utility.yul\":1610:1756   */\n      pop\n      pop\n      pop\n      jump\t// out\n        /* \"#utility.yul\":1762:2187   */\n    tag_264:\n        /* \"#utility.yul\":1840:1845   */\n      0x00\n        /* \"#utility.yul\":1865:1931   */\n      tag_361\n        /* \"#utility.yul\":1881:1930   */\n      tag_362\n        /* \"#utility.yul\":1923:1929   */\n      dup5\n        /* \"#utility.yul\":1881:1930   */\n      tag_262\n      jump\t// in\n    tag_362:\n        /* \"#utility.yul\":1865:1931   */\n      tag_261\n      jump\t// in\n    tag_361:\n        /* \"#utility.yul\":1856:1931   */\n      swap1\n      pop\n        /* \"#utility.yul\":1954:1960   */\n      dup3\n        /* \"#utility.yul\":1947:1952   */\n      dup2\n        /* \"#utility.yul\":1940:1961   */\n      mstore\n        /* \"#utility.yul\":1992:1996   */\n      0x20\n        /* \"#utility.yul\":1985:1990   */\n      dup2\n        /* \"#utility.yul\":1981:1997   */\n      add\n        /* \"#utility.yul\":2030:2033   */\n      dup5\n        /* \"#utility.yul\":2021:2027   */\n      dup5\n        /* \"#utility.yul\":2016:2019   */\n      dup5\n        /* \"#utility.yul\":2012:2028   */\n      add\n        /* \"#utility.yul\":2009:2034   */\n      gt\n        /* \"#utility.yul\":2006:2118   */\n      iszero\n      tag_363\n      jumpi\n        /* \"#utility.yul\":2037:2116   */\n      tag_364\n      tag_258\n      jump\t// in\n    tag_364:\n        /* \"#utility.yul\":2006:2118   */\n    tag_363:\n        /* \"#utility.yul\":2127:2181   */\n      tag_365\n        /* \"#utility.yul\":2174:2180   */\n      dup5\n        /* \"#utility.yul\":2169:2172   */\n      dup3\n        /* \"#utility.yul\":2164:2167   */\n      dup6\n        /* \"#utility.yul\":2127:2181   */\n      tag_263\n      jump\t// in\n    tag_365:\n        /* \"#utility.yul\":1846:2187   */\n      pop\n        /* \"#utility.yul\":1762:2187   */\n      swap4\n      swap3\n      pop\n      pop\n      pop\n      jump\t// out\n        /* \"#utility.yul\":2207:2547   */\n    tag_265:\n        /* \"#utility.yul\":2263:2268   */\n      0x00\n        /* \"#utility.yul\":2312:2315   */\n      dup3\n        /* \"#utility.yul\":2305:2309   */\n      0x1f\n        /* \"#utility.yul\":2297:2303   */\n      dup4\n        /* \"#utility.yul\":2293:2310   */\n      add\n        /* \"#utility.yul\":2289:2316   */\n      slt\n        /* \"#utility.yul\":2279:2401   */\n      tag_367\n      jumpi\n        /* \"#utility.yul\":2320:2399   */\n      tag_368\n      tag_257\n      jump\t// in\n    tag_368:\n        /* \"#utility.yul\":2279:2401   */\n    tag_367:\n        /* \"#utility.yul\":2437:2443   */\n      dup2\n        /* \"#utility.yul\":2424:2444   */\n      calldataload\n        /* \"#utility.yul\":2462:2541   */\n      tag_369\n        /* \"#utility.yul\":2537:2540   */\n      dup5\n        /* \"#utility.yul\":2529:2535   */\n      dup3\n        /* \"#utility.yul\":2522:2526   */\n      0x20\n        /* \"#utility.yul\":2514:2520   */\n      dup7\n        /* \"#utility.yul\":2510:2527   */\n      add\n        /* \"#utility.yul\":2462:2541   */\n      tag_264\n      jump\t// in\n    tag_369:\n        /* \"#utility.yul\":2453:2541   */\n      swap2\n      pop\n        /* \"#utility.yul\":2269:2547   */\n      pop\n        /* \"#utility.yul\":2207:2547   */\n      swap3\n      swap2\n      pop\n      pop\n      jump\t// out\n        /* \"#utility.yul\":2553:2630   */\n    tag_266:\n        /* \"#utility.yul\":2590:2597   */\n      0x00\n        /* \"#utility.yul\":2619:2624   */\n      dup2\n        /* \"#utility.yul\":2608:2624   */\n      swap1\n      pop\n        /* \"#utility.yul\":2553:2630   */\n      swap2\n      swap1\n      pop\n      jump\t// out\n        /* \"#utility.yul\":2636:2758   */\n    tag_267:\n        /* \"#utility.yul\":2709:2733   */\n      tag_372\n        /* \"#utility.yul\":2727:2732   */\n      dup2\n        /* \"#utility.yul\":2709:2733   */\n      tag_266\n      jump\t// in\n    tag_372:\n        /* \"#utility.yul\":2702:2707   */\n      dup2\n        /* \"#utility.yul\":2699:2734   */\n      eq\n        /* \"#utility.yul\":2689:2752   */\n      tag_373\n      jumpi\n        /* \"#utility.yul\":2748:2749   */\n      0x00\n        /* \"#utility.yul\":2745:2746   */\n      dup1\n        /* \"#utility.yul\":2738:2750   */\n      revert\n        /* \"#utility.yul\":2689:2752   */\n    tag_373:\n        /* \"#utility.yul\":2636:2758   */\n      pop\n      jump\t// out\n        /* \"#utility.yul\":2764:2903   */\n    tag_268:\n        /* \"#utility.yul\":2810:2815   */\n      0x00\n        /* \"#utility.yul\":2848:2854   */\n      dup2\n        /* \"#utility.yul\":2835:2855   */\n      calldataload\n        /* \"#utility.yul\":2826:2855   */\n      swap1\n      pop\n        /* \"#utility.yul\":2864:2897   */\n      tag_375\n        /* \"#utility.yul\":2891:2896   */\n      dup2\n        /* \"#utility.yul\":2864:2897   */\n      tag_267\n      jump\t// in\n    tag_375:\n        /* \"#utility.yul\":2764:2903   */\n      swap3\n      swap2\n      pop\n      pop\n      jump\t// out\n        /* \"#utility.yul\":2909:3563   */\n    tag_14:\n        /* \"#utility.yul\":2987:2993   */\n      0x00\n        /* \"#utility.yul\":2995:3001   */\n      dup1\n        /* \"#utility.yul\":3044:3046   */\n      0x40\n        /* \"#utility.yul\":3032:3041   */\n      dup4\n        /* \"#utility.yul\":3023:3030   */\n      dup6\n        /* \"#utility.yul\":3019:3042   */\n      sub\n        /* \"#utility.yul\":3015:3047   */\n      slt\n        /* \"#utility.yul\":3012:3131   */\n      iszero\n      tag_377\n      jumpi\n        /* \"#utility.yul\":3050:3129   */\n      tag_378\n      tag_255\n      jump\t// in\n    tag_378:\n        /* \"#utility.yul\":3012:3131   */\n    tag_377:\n        /* \"#utility.yul\":3198:3199   */\n      0x00\n        /* \"#utility.yul\":3187:3196   */\n      dup4\n        /* \"#utility.yul\":3183:3200   */\n      add\n        /* \"#utility.yul\":3170:3201   */\n      calldataload\n        /* \"#utility.yul\":3228:3246   */\n      0xffffffffffffffff\n        /* \"#utility.yul\":3220:3226   */\n      dup2\n        /* \"#utility.yul\":3217:3247   */\n      gt\n        /* \"#utility.yul\":3214:3331   */\n      iszero\n      tag_379\n      jumpi\n        /* \"#utility.yul\":3250:3329   */\n      tag_380\n      tag_256\n      jump\t// in\n    tag_380:\n        /* \"#utility.yul\":3214:3331   */\n    tag_379:\n        /* \"#utility.yul\":3355:3418   */\n      tag_381\n        /* \"#utility.yul\":3410:3417   */\n      dup6\n        /* \"#utility.yul\":3401:3407   */\n      dup3\n        /* \"#utility.yul\":3390:3399   */\n      dup7\n        /* \"#utility.yul\":3386:3408   */\n      add\n        /* \"#utility.yul\":3355:3418   */\n      tag_265\n      jump\t// in\n    tag_381:\n        /* \"#utility.yul\":3345:3418   */\n      swap3\n      pop\n        /* \"#utility.yul\":3141:3428   */\n      pop\n        /* \"#utility.yul\":3467:3469   */\n      0x20\n        /* \"#utility.yul\":3493:3546   */\n      tag_382\n        /* \"#utility.yul\":3538:3545   */\n      dup6\n        /* \"#utility.yul\":3529:3535   */\n      dup3\n        /* \"#utility.yul\":3518:3527   */\n      dup7\n        /* \"#utility.yul\":3514:3536   */\n      add\n        /* \"#utility.yul\":3493:3546   */\n      tag_268\n      jump\t// in\n    tag_382:\n        /* \"#utility.yul\":3483:3546   */\n      swap2\n      pop\n        /* \"#utility.yul\":3438:3556   */\n      pop\n        /* \"#utility.yul\":2909:3563   */\n      swap3\n      pop\n      swap3\n      swap1\n      pop\n      jump\t// out\n        /* \"#utility.yul\":3569:3687   */\n    tag_269:\n        /* \"#utility.yul\":3656:3680   */\n      tag_384\n        /* \"#utility.yul\":3674:3679   */\n      dup2\n        /* \"#utility.yul\":3656:3680   */\n      tag_266\n      jump\t// in\n    tag_384:\n        /* \"#utility.yul\":3651:3654   */\n      dup3\n        /* \"#utility.yul\":3644:3681   */\n      mstore\n        /* \"#utility.yul\":3569:3687   */\n      pop\n      pop\n      jump\t// out\n        /* \"#utility.yul\":3693:3792   */\n    tag_270:\n        /* \"#utility.yul\":3745:3751   */\n      0x00\n        /* \"#utility.yul\":3779:3784   */\n      dup2\n        /* \"#utility.yul\":3773:3785   */\n      mload\n        /* \"#utility.yul\":3763:3785   */\n      swap1\n      pop\n        /* \"#utility.yul\":3693:3792   */\n      swap2\n      swap1\n      pop\n      jump\t// out\n        /* \"#utility.yul\":3798:3967   */\n    tag_271:\n        /* \"#utility.yul\":3882:3893   */\n      0x00\n        /* \"#utility.yul\":3916:3922   */\n      dup3\n        /* \"#utility.yul\":3911:3914   */\n      dup3\n        /* \"#utility.yul\":3904:3923   */\n      mstore\n        /* \"#utility.yul\":3956:3960   */\n      0x20\n        /* \"#utility.yul\":3951:3954   */\n      dup3\n        /* \"#utility.yul\":3947:3961   */\n      add\n        /* \"#utility.yul\":3932:3961   */\n      swap1\n      pop\n        /* \"#utility.yul\":3798:3967   */\n      swap3\n      swap2\n      pop\n      pop\n      jump\t// out\n        /* \"#utility.yul\":3973:4219   */\n    tag_272:\n        /* \"#utility.yul\":4054:4055   */\n      0x00\n        /* \"#utility.yul\":4064:4177   */\n    tag_388:\n        /* \"#utility.yul\":4078:4084   */\n      dup4\n        /* \"#utility.yul\":4075:4076   */\n      dup2\n        /* \"#utility.yul\":4072:4085   */\n      lt\n        /* \"#utility.yul\":4064:4177   */\n      iszero\n      tag_390\n      jumpi\n        /* \"#utility.yul\":4163:4164   */\n      dup1\n        /* \"#utility.yul\":4158:4161   */\n      dup3\n        /* \"#utility.yul\":4154:4165   */\n      add\n        /* \"#utility.yul\":4148:4166   */\n      mload\n        /* \"#utility.yul\":4144:4145   */\n      dup2\n        /* \"#utility.yul\":4139:4142   */\n      dup5\n        /* \"#utility.yul\":4135:4146   */\n      add\n        /* \"#utility.yul\":4128:4167   */\n      mstore\n        /* \"#utility.yul\":4100:4102   */\n      0x20\n        /* \"#utility.yul\":4097:4098   */\n      dup2\n        /* \"#utility.yul\":4093:4103   */\n      add\n        /* \"#utility.yul\":4088:4103   */\n      swap1\n      pop\n        /* \"#utility.yul\":4064:4177   */\n      jump(tag_388)\n    tag_390:\n        /* \"#utility.yul\":4211:4212   */\n      0x00\n        /* \"#utility.yul\":4202:4208   */\n      dup5\n        /* \"#utility.yul\":4197:4200   */\n      dup5\n        /* \"#utility.yul\":4193:4209   */\n      add\n        /* \"#utility.yul\":4186:4213   */\n      mstore\n        /* \"#utility.yul\":4035:4219   */\n      pop\n        /* \"#utility.yul\":3973:4219   */\n      pop\n      pop\n      pop\n      jump\t// out\n        /* \"#utility.yul\":4225:4602   */\n    tag_273:\n        /* \"#utility.yul\":4313:4316   */\n      0x00\n        /* \"#utility.yul\":4341:4380   */\n      tag_392\n        /* \"#utility.yul\":4374:4379   */\n      dup3\n        /* \"#utility.yul\":4341:4380   */\n      tag_270\n      jump\t// in\n    tag_392:\n        /* \"#utility.yul\":4396:4467   */\n      tag_393\n        /* \"#utility.yul\":4460:4466   */\n      dup2\n        /* \"#utility.yul\":4455:4458   */\n      dup6\n        /* \"#utility.yul\":4396:4467   */\n      tag_271\n      jump\t// in\n    tag_393:\n        /* \"#utility.yul\":4389:4467   */\n      swap4\n      pop\n        /* \"#utility.yul\":4476:4541   */\n      tag_394\n        /* \"#utility.yul\":4534:4540   */\n      dup2\n        /* \"#utility.yul\":4529:4532   */\n      dup6\n        /* \"#utility.yul\":4522:4526   */\n      0x20\n        /* \"#utility.yul\":4515:4520   */\n      dup7\n        /* \"#utility.yul\":4511:4527   */\n      add\n        /* \"#utility.yul\":4476:4541   */\n      tag_272\n      jump\t// in\n    tag_394:\n        /* \"#utility.yul\":4566:4595   */\n      tag_395\n        /* \"#utility.yul\":4588:4594   */\n      dup2\n        /* \"#utility.yul\":4566:4595   */\n      tag_259\n      jump\t// in\n    tag_395:\n        /* \"#utility.yul\":4561:4564   */\n      dup5\n        /* \"#utility.yul\":4557:4596   */\n      add\n        /* \"#utility.yul\":4550:4596   */\n      swap2\n      pop\n        /* \"#utility.yul\":4317:4602   */\n      pop\n        /* \"#utility.yul\":4225:4602   */\n      swap3\n      swap2\n      pop\n      pop\n      jump\t// out\n        /* \"#utility.yul\":4608:5434   */\n    tag_17:\n        /* \"#utility.yul\":4845:4849   */\n      0x00\n        /* \"#utility.yul\":4883:4886   */\n      0x80\n        /* \"#utility.yul\":4872:4881   */\n      dup3\n        /* \"#utility.yul\":4868:4887   */\n      add\n        /* \"#utility.yul\":4860:4887   */\n      swap1\n      pop\n        /* \"#utility.yul\":4897:4968   */\n      tag_397\n        /* \"#utility.yul\":4965:4966   */\n      0x00\n        /* \"#utility.yul\":4954:4963   */\n      dup4\n        /* \"#utility.yul\":4950:4967   */\n      add\n        /* \"#utility.yul\":4941:4947   */\n      dup8\n        /* \"#utility.yul\":4897:4968   */\n      tag_269\n      jump\t// in\n    tag_397:\n        /* \"#utility.yul\":5015:5024   */\n      dup2\n        /* \"#utility.yul\":5009:5013   */\n      dup2\n        /* \"#utility.yul\":5005:5025   */\n      sub\n        /* \"#utility.yul\":5000:5002   */\n      0x20\n        /* \"#utility.yul\":4989:4998   */\n      dup4\n        /* \"#utility.yul\":4985:5003   */\n      add\n        /* \"#utility.yul\":4978:5026   */\n      mstore\n        /* \"#utility.yul\":5043:5121   */\n      tag_398\n        /* \"#utility.yul\":5116:5120   */\n      dup2\n        /* \"#utility.yul\":5107:5113   */\n      dup7\n        /* \"#utility.yul\":5043:5121   */\n      tag_273\n      jump\t// in\n    tag_398:\n        /* \"#utility.yul\":5035:5121   */\n      swap1\n      pop\n        /* \"#utility.yul\":5168:5177   */\n      dup2\n        /* \"#utility.yul\":5162:5166   */\n      dup2\n        /* \"#utility.yul\":5158:5178   */\n      sub\n        /* \"#utility.yul\":5153:5155   */\n      0x40\n        /* \"#utility.yul\":5142:5151   */\n      dup4\n        /* \"#utility.yul\":5138:5156   */\n      add\n        /* \"#utility.yul\":5131:5179   */\n      mstore\n        /* \"#utility.yul\":5196:5274   */\n      tag_399\n        /* \"#utility.yul\":5269:5273   */\n      dup2\n        /* \"#utility.yul\":5260:5266   */\n      dup6\n        /* \"#utility.yul\":5196:5274   */\n      tag_273\n      jump\t// in\n    tag_399:\n        /* \"#utility.yul\":5188:5274   */\n      swap1\n      pop\n        /* \"#utility.yul\":5321:5330   */\n      dup2\n        /* \"#utility.yul\":5315:5319   */\n      dup2\n        /* \"#utility.yul\":5311:5331   */\n      sub\n        /* \"#utility.yul\":5306:5308   */\n      0x60\n        /* \"#utility.yul\":5295:5304   */\n      dup4\n        /* \"#utility.yul\":5291:5309   */\n      add\n        /* \"#utility.yul\":5284:5332   */\n      mstore\n        /* \"#utility.yul\":5349:5427   */\n      tag_400\n        /* \"#utility.yul\":5422:5426   */\n      dup2\n        /* \"#utility.yul\":5413:5419   */\n      dup5\n        /* \"#utility.yul\":5349:5427   */\n      tag_273\n      jump\t// in\n    tag_400:\n        /* \"#utility.yul\":5341:5427   */\n      swap1\n      pop\n        /* \"#utility.yul\":4608:5434   */\n      swap6\n      swap5\n      pop\n      pop\n      pop\n      pop\n      pop\n      jump\t// out\n        /* \"#utility.yul\":5440:5949   */\n    tag_20:\n        /* \"#utility.yul\":5509:5515   */\n      0x00\n        /* \"#utility.yul\":5558:5560   */\n      0x20\n        /* \"#utility.yul\":5546:5555   */\n      dup3\n        /* \"#utility.yul\":5537:5544   */\n      dup5\n        /* \"#utility.yul\":5533:5556   */\n      sub\n        /* \"#utility.yul\":5529:5561   */\n      slt\n        /* \"#utility.yul\":5526:5645   */\n      iszero\n      tag_402\n      jumpi\n        /* \"#utility.yul\":5564:5643   */\n      tag_403\n      tag_255\n      jump\t// in\n    tag_403:\n        /* \"#utility.yul\":5526:5645   */\n    tag_402:\n        /* \"#utility.yul\":5712:5713   */\n      0x00\n        /* \"#utility.yul\":5701:5710   */\n      dup3\n        /* \"#utility.yul\":5697:5714   */\n      add\n        /* \"#utility.yul\":5684:5715   */\n      calldataload\n        /* \"#utility.yul\":5742:5760   */\n      0xffffffffffffffff\n        /* \"#utility.yul\":5734:5740   */\n      dup2\n        /* \"#utility.yul\":5731:5761   */\n      gt\n        /* \"#utility.yul\":5728:5845   */\n      iszero\n      tag_404\n      jumpi\n        /* \"#utility.yul\":5764:5843   */\n      tag_405\n      tag_256\n      jump\t// in\n    tag_405:\n        /* \"#utility.yul\":5728:5845   */\n    tag_404:\n        /* \"#utility.yul\":5869:5932   */\n      tag_406\n        /* \"#utility.yul\":5924:5931   */\n      dup5\n        /* \"#utility.yul\":5915:5921   */\n      dup3\n        /* \"#utility.yul\":5904:5913   */\n      dup6\n        /* \"#utility.yul\":5900:5922   */\n      add\n        /* \"#utility.yul\":5869:5932   */\n      tag_265\n      jump\t// in\n    tag_406:\n        /* \"#utility.yul\":5859:5932   */\n      swap2\n      pop\n        /* \"#utility.yul\":5655:5942   */\n      pop\n        /* \"#utility.yul\":5440:5949   */\n      swap3\n      swap2\n      pop\n      pop\n      jump\t// out\n        /* \"#utility.yul\":5955:6177   */\n    tag_23:\n        /* \"#utility.yul\":6048:6052   */\n      0x00\n        /* \"#utility.yul\":6086:6088   */\n      0x20\n        /* \"#utility.yul\":6075:6084   */\n      dup3\n        /* \"#utility.yul\":6071:6089   */\n      add\n        /* \"#utility.yul\":6063:6089   */\n      swap1\n      pop\n        /* \"#utility.yul\":6099:6170   */\n      tag_408\n        /* \"#utility.yul\":6167:6168   */\n      0x00\n        /* \"#utility.yul\":6156:6165   */\n      dup4\n        /* \"#utility.yul\":6152:6169   */\n      add\n        /* \"#utility.yul\":6143:6149   */\n      dup5\n        /* \"#utility.yul\":6099:6170   */\n      tag_269\n      jump\t// in\n    tag_408:\n        /* \"#utility.yul\":5955:6177   */\n      swap3\n      swap2\n      pop\n      pop\n      jump\t// out\n        /* \"#utility.yul\":6183:6307   */\n    tag_274:\n        /* \"#utility.yul\":6260:6266   */\n      0x00\n        /* \"#utility.yul\":6294:6299   */\n      dup2\n        /* \"#utility.yul\":6288:6300   */\n      mload\n        /* \"#utility.yul\":6278:6300   */\n      swap1\n      pop\n        /* \"#utility.yul\":6183:6307   */\n      swap2\n      swap1\n      pop\n      jump\t// out\n        /* \"#utility.yul\":6313:6507   */\n    tag_275:\n        /* \"#utility.yul\":6422:6433   */\n      0x00\n        /* \"#utility.yul\":6456:6462   */\n      dup3\n        /* \"#utility.yul\":6451:6454   */\n      dup3\n        /* \"#utility.yul\":6444:6463   */\n      mstore\n        /* \"#utility.yul\":6496:6500   */\n      0x20\n        /* \"#utility.yul\":6491:6494   */\n      dup3\n        /* \"#utility.yul\":6487:6501   */\n      add\n        /* \"#utility.yul\":6472:6501   */\n      swap1\n      pop\n        /* \"#utility.yul\":6313:6507   */\n      swap3\n      swap2\n      pop\n      pop\n      jump\t// out\n        /* \"#utility.yul\":6513:6655   */\n    tag_276:\n        /* \"#utility.yul\":6590:6594   */\n      0x00\n        /* \"#utility.yul\":6613:6616   */\n      dup2\n        /* \"#utility.yul\":6605:6616   */\n      swap1\n      pop\n        /* \"#utility.yul\":6643:6647   */\n      0x20\n        /* \"#utility.yul\":6638:6641   */\n      dup3\n        /* \"#utility.yul\":6634:6648   */\n      add\n        /* \"#utility.yul\":6626:6648   */\n      swap1\n      pop\n        /* \"#utility.yul\":6513:6655   */\n      swap2\n      swap1\n      pop\n      jump\t// out\n        /* \"#utility.yul\":6661:6820   */\n    tag_277:\n        /* \"#utility.yul\":6735:6746   */\n      0x00\n        /* \"#utility.yul\":6769:6775   */\n      dup3\n        /* \"#utility.yul\":6764:6767   */\n      dup3\n        /* \"#utility.yul\":6757:6776   */\n      mstore\n        /* \"#utility.yul\":6809:6813   */\n      0x20\n        /* \"#utility.yul\":6804:6807   */\n      dup3\n        /* \"#utility.yul\":6800:6814   */\n      add\n        /* \"#utility.yul\":6785:6814   */\n      swap1\n      pop\n        /* \"#utility.yul\":6661:6820   */\n      swap3\n      swap2\n      pop\n      pop\n      jump\t// out\n        /* \"#utility.yul\":6826:7183   */\n    tag_278:\n        /* \"#utility.yul\":6904:6907   */\n      0x00\n        /* \"#utility.yul\":6932:6971   */\n      tag_414\n        /* \"#utility.yul\":6965:6970   */\n      dup3\n        /* \"#utility.yul\":6932:6971   */\n      tag_270\n      jump\t// in\n    tag_414:\n        /* \"#utility.yul\":6987:7048   */\n      tag_415\n        /* \"#utility.yul\":7041:7047   */\n      dup2\n        /* \"#utility.yul\":7036:7039   */\n      dup6\n        /* \"#utility.yul\":6987:7048   */\n      tag_277\n      jump\t// in\n    tag_415:\n        /* \"#utility.yul\":6980:7048   */\n      swap4\n      pop\n        /* \"#utility.yul\":7057:7122   */\n      tag_416\n        /* \"#utility.yul\":7115:7121   */\n      dup2\n        /* \"#utility.yul\":7110:7113   */\n      dup6\n        /* \"#utility.yul\":7103:7107   */\n      0x20\n        /* \"#utility.yul\":7096:7101   */\n      dup7\n        /* \"#utility.yul\":7092:7108   */\n      add\n        /* \"#utility.yul\":7057:7122   */\n      tag_272\n      jump\t// in\n    tag_416:\n        /* \"#utility.yul\":7147:7176   */\n      tag_417\n        /* \"#utility.yul\":7169:7175   */\n      dup2\n        /* \"#utility.yul\":7147:7176   */\n      tag_259\n      jump\t// in\n    tag_417:\n        /* \"#utility.yul\":7142:7145   */\n      dup5\n        /* \"#utility.yul\":7138:7177   */\n      add\n        /* \"#utility.yul\":7131:7177   */\n      swap2\n      pop\n        /* \"#utility.yul\":6908:7183   */\n      pop\n        /* \"#utility.yul\":6826:7183   */\n      swap3\n      swap2\n      pop\n      pop\n      jump\t// out\n        /* \"#utility.yul\":7189:7385   */\n    tag_279:\n        /* \"#utility.yul\":7278:7288   */\n      0x00\n        /* \"#utility.yul\":7313:7379   */\n      tag_419\n        /* \"#utility.yul\":7375:7378   */\n      dup4\n        /* \"#utility.yul\":7367:7373   */\n      dup4\n        /* \"#utility.yul\":7313:7379   */\n      tag_278\n      jump\t// in\n    tag_419:\n        /* \"#utility.yul\":7299:7379   */\n      swap1\n      pop\n        /* \"#utility.yul\":7189:7385   */\n      swap3\n      swap2\n      pop\n      pop\n      jump\t// out\n        /* \"#utility.yul\":7391:7514   */\n    tag_280:\n        /* \"#utility.yul\":7471:7475   */\n      0x00\n        /* \"#utility.yul\":7503:7507   */\n      0x20\n        /* \"#utility.yul\":7498:7501   */\n      dup3\n        /* \"#utility.yul\":7494:7508   */\n      add\n        /* \"#utility.yul\":7486:7508   */\n      swap1\n      pop\n        /* \"#utility.yul\":7391:7514   */\n      swap2\n      swap1\n      pop\n      jump\t// out\n        /* \"#utility.yul\":7548:8539   */\n    tag_281:\n        /* \"#utility.yul\":7687:7690   */\n      0x00\n        /* \"#utility.yul\":7716:7780   */\n      tag_422\n        /* \"#utility.yul\":7774:7779   */\n      dup3\n        /* \"#utility.yul\":7716:7780   */\n      tag_274\n      jump\t// in\n    tag_422:\n        /* \"#utility.yul\":7796:7892   */\n      tag_423\n        /* \"#utility.yul\":7885:7891   */\n      dup2\n        /* \"#utility.yul\":7880:7883   */\n      dup6\n        /* \"#utility.yul\":7796:7892   */\n      tag_275\n      jump\t// in\n    tag_423:\n        /* \"#utility.yul\":7789:7892   */\n      swap4\n      pop\n        /* \"#utility.yul\":7918:7921   */\n      dup4\n        /* \"#utility.yul\":7963:7967   */\n      0x20\n        /* \"#utility.yul\":7955:7961   */\n      dup3\n        /* \"#utility.yul\":7951:7968   */\n      mul\n        /* \"#utility.yul\":7946:7949   */\n      dup6\n        /* \"#utility.yul\":7942:7969   */\n      add\n        /* \"#utility.yul\":7993:8059   */\n      tag_424\n        /* \"#utility.yul\":8053:8058   */\n      dup6\n        /* \"#utility.yul\":7993:8059   */\n      tag_276\n      jump\t// in\n    tag_424:\n        /* \"#utility.yul\":8082:8089   */\n      dup1\n        /* \"#utility.yul\":8113:8114   */\n      0x00\n        /* \"#utility.yul\":8098:8494   */\n    tag_425:\n        /* \"#utility.yul\":8123:8129   */\n      dup6\n        /* \"#utility.yul\":8120:8121   */\n      dup2\n        /* \"#utility.yul\":8117:8130   */\n      lt\n        /* \"#utility.yul\":8098:8494   */\n      iszero\n      tag_427\n      jumpi\n        /* \"#utility.yul\":8194:8203   */\n      dup5\n        /* \"#utility.yul\":8188:8192   */\n      dup5\n        /* \"#utility.yul\":8184:8204   */\n      sub\n        /* \"#utility.yul\":8179:8182   */\n      dup10\n        /* \"#utility.yul\":8172:8205   */\n      mstore\n        /* \"#utility.yul\":8245:8251   */\n      dup2\n        /* \"#utility.yul\":8239:8252   */\n      mload\n        /* \"#utility.yul\":8273:8357   */\n      tag_428\n        /* \"#utility.yul\":8352:8356   */\n      dup6\n        /* \"#utility.yul\":8337:8350   */\n      dup3\n        /* \"#utility.yul\":8273:8357   */\n      tag_279\n      jump\t// in\n    tag_428:\n        /* \"#utility.yul\":8265:8357   */\n      swap5\n      pop\n        /* \"#utility.yul\":8380:8450   */\n      tag_429\n        /* \"#utility.yul\":8443:8449   */\n      dup4\n        /* \"#utility.yul\":8380:8450   */\n      tag_280\n      jump\t// in\n    tag_429:\n        /* \"#utility.yul\":8370:8450   */\n      swap3\n      pop\n        /* \"#utility.yul\":8479:8483   */\n      0x20\n        /* \"#utility.yul\":8474:8477   */\n      dup11\n        /* \"#utility.yul\":8470:8484   */\n      add\n        /* \"#utility.yul\":8463:8484   */\n      swap10\n      pop\n        /* \"#utility.yul\":8158:8494   */\n      pop\n        /* \"#utility.yul\":8145:8146   */\n      0x01\n        /* \"#utility.yul\":8142:8143   */\n      dup2\n        /* \"#utility.yul\":8138:8147   */\n      add\n        /* \"#utility.yul\":8133:8147   */\n      swap1\n      pop\n        /* \"#utility.yul\":8098:8494   */\n      jump(tag_425)\n    tag_427:\n        /* \"#utility.yul\":8102:8116   */\n      pop\n        /* \"#utility.yul\":8510:8514   */\n      dup3\n        /* \"#utility.yul\":8503:8514   */\n      swap8\n      pop\n        /* \"#utility.yul\":8530:8533   */\n      dup8\n        /* \"#utility.yul\":8523:8533   */\n      swap6\n      pop\n        /* \"#utility.yul\":7692:8539   */\n      pop\n      pop\n      pop\n      pop\n      pop\n        /* \"#utility.yul\":7548:8539   */\n      swap3\n      swap2\n      pop\n      pop\n      jump\t// out\n        /* \"#utility.yul\":8545:8958   */\n    tag_30:\n        /* \"#utility.yul\":8708:8712   */\n      0x00\n        /* \"#utility.yul\":8746:8748   */\n      0x20\n        /* \"#utility.yul\":8735:8744   */\n      dup3\n        /* \"#utility.yul\":8731:8749   */\n      add\n        /* \"#utility.yul\":8723:8749   */\n      swap1\n      pop\n        /* \"#utility.yul\":8795:8804   */\n      dup2\n        /* \"#utility.yul\":8789:8793   */\n      dup2\n        /* \"#utility.yul\":8785:8805   */\n      sub\n        /* \"#utility.yul\":8781:8782   */\n      0x00\n        /* \"#utility.yul\":8770:8779   */\n      dup4\n        /* \"#utility.yul\":8766:8783   */\n      add\n        /* \"#utility.yul\":8759:8806   */\n      mstore\n        /* \"#utility.yul\":8823:8951   */\n      tag_431\n        /* \"#utility.yul\":8946:8950   */\n      dup2\n        /* \"#utility.yul\":8937:8943   */\n      dup5\n        /* \"#utility.yul\":8823:8951   */\n      tag_281\n      jump\t// in\n    tag_431:\n        /* \"#utility.yul\":8815:8951   */\n      swap1\n      pop\n        /* \"#utility.yul\":8545:8958   */\n      swap3\n      swap2\n      pop\n      pop\n      jump\t// out\n        /* \"#utility.yul\":8964:10820   */\n    tag_35:\n        /* \"#utility.yul\":9449:9453   */\n      0x00\n        /* \"#utility.yul\":9487:9490   */\n      0x0140\n        /* \"#utility.yul\":9476:9485   */\n      dup3\n        /* \"#utility.yul\":9472:9491   */\n      add\n        /* \"#utility.yul\":9464:9491   */\n      swap1\n      pop\n        /* \"#utility.yul\":9537:9546   */\n      dup2\n        /* \"#utility.yul\":9531:9535   */\n      dup2\n        /* \"#utility.yul\":9527:9547   */\n      sub\n        /* \"#utility.yul\":9523:9524   */\n      0x00\n        /* \"#utility.yul\":9512:9521   */\n      dup4\n        /* \"#utility.yul\":9508:9525   */\n      add\n        /* \"#utility.yul\":9501:9548   */\n      mstore\n        /* \"#utility.yul\":9565:9643   */\n      tag_433\n        /* \"#utility.yul\":9638:9642   */\n      dup2\n        /* \"#utility.yul\":9629:9635   */\n      dup14\n        /* \"#utility.yul\":9565:9643   */\n      tag_273\n      jump\t// in\n    tag_433:\n        /* \"#utility.yul\":9557:9643   */\n      swap1\n      pop\n        /* \"#utility.yul\":9690:9699   */\n      dup2\n        /* \"#utility.yul\":9684:9688   */\n      dup2\n        /* \"#utility.yul\":9680:9700   */\n      sub\n        /* \"#utility.yul\":9675:9677   */\n      0x20\n        /* \"#utility.yul\":9664:9673   */\n      dup4\n        /* \"#utility.yul\":9660:9678   */\n      add\n        /* \"#utility.yul\":9653:9701   */\n      mstore\n        /* \"#utility.yul\":9718:9796   */\n      tag_434\n        /* \"#utility.yul\":9791:9795   */\n      dup2\n        /* \"#utility.yul\":9782:9788   */\n      dup13\n        /* \"#utility.yul\":9718:9796   */\n      tag_273\n      jump\t// in\n    tag_434:\n        /* \"#utility.yul\":9710:9796   */\n      swap1\n      pop\n        /* \"#utility.yul\":9843:9852   */\n      dup2\n        /* \"#utility.yul\":9837:9841   */\n      dup2\n        /* \"#utility.yul\":9833:9853   */\n      sub\n        /* \"#utility.yul\":9828:9830   */\n      0x40\n        /* \"#utility.yul\":9817:9826   */\n      dup4\n        /* \"#utility.yul\":9813:9831   */\n      add\n        /* \"#utility.yul\":9806:9854   */\n      mstore\n        /* \"#utility.yul\":9871:9949   */\n      tag_435\n        /* \"#utility.yul\":9944:9948   */\n      dup2\n        /* \"#utility.yul\":9935:9941   */\n      dup12\n        /* \"#utility.yul\":9871:9949   */\n      tag_273\n      jump\t// in\n    tag_435:\n        /* \"#utility.yul\":9863:9949   */\n      swap1\n      pop\n        /* \"#utility.yul\":9996:10005   */\n      dup2\n        /* \"#utility.yul\":9990:9994   */\n      dup2\n        /* \"#utility.yul\":9986:10006   */\n      sub\n        /* \"#utility.yul\":9981:9983   */\n      0x60\n        /* \"#utility.yul\":9970:9979   */\n      dup4\n        /* \"#utility.yul\":9966:9984   */\n      add\n        /* \"#utility.yul\":9959:10007   */\n      mstore\n        /* \"#utility.yul\":10024:10102   */\n      tag_436\n        /* \"#utility.yul\":10097:10101   */\n      dup2\n        /* \"#utility.yul\":10088:10094   */\n      dup11\n        /* \"#utility.yul\":10024:10102   */\n      tag_273\n      jump\t// in\n    tag_436:\n        /* \"#utility.yul\":10016:10102   */\n      swap1\n      pop\n        /* \"#utility.yul\":10112:10185   */\n      tag_437\n        /* \"#utility.yul\":10180:10183   */\n      0x80\n        /* \"#utility.yul\":10169:10178   */\n      dup4\n        /* \"#utility.yul\":10165:10184   */\n      add\n        /* \"#utility.yul\":10156:10162   */\n      dup10\n        /* \"#utility.yul\":10112:10185   */\n      tag_269\n      jump\t// in\n    tag_437:\n        /* \"#utility.yul\":10233:10242   */\n      dup2\n        /* \"#utility.yul\":10227:10231   */\n      dup2\n        /* \"#utility.yul\":10223:10243   */\n      sub\n        /* \"#utility.yul\":10217:10220   */\n      0xa0\n        /* \"#utility.yul\":10206:10215   */\n      dup4\n        /* \"#utility.yul\":10202:10221   */\n      add\n        /* \"#utility.yul\":10195:10244   */\n      mstore\n        /* \"#utility.yul\":10261:10339   */\n      tag_438\n        /* \"#utility.yul\":10334:10338   */\n      dup2\n        /* \"#utility.yul\":10325:10331   */\n      dup9\n        /* \"#utility.yul\":10261:10339   */\n      tag_273\n      jump\t// in\n    tag_438:\n        /* \"#utility.yul\":10253:10339   */\n      swap1\n      pop\n        /* \"#utility.yul\":10387:10396   */\n      dup2\n        /* \"#utility.yul\":10381:10385   */\n      dup2\n        /* \"#utility.yul\":10377:10397   */\n      sub\n        /* \"#utility.yul\":10371:10374   */\n      0xc0\n        /* \"#utility.yul\":10360:10369   */\n      dup4\n        /* \"#utility.yul\":10356:10375   */\n      add\n        /* \"#utility.yul\":10349:10398   */\n      mstore\n        /* \"#utility.yul\":10415:10493   */\n      tag_439\n        /* \"#utility.yul\":10488:10492   */\n      dup2\n        /* \"#utility.yul\":10479:10485   */\n      dup8\n        /* \"#utility.yul\":10415:10493   */\n      tag_273\n      jump\t// in\n    tag_439:\n        /* \"#utility.yul\":10407:10493   */\n      swap1\n      pop\n        /* \"#utility.yul\":10541:10550   */\n      dup2\n        /* \"#utility.yul\":10535:10539   */\n      dup2\n        /* \"#utility.yul\":10531:10551   */\n      sub\n        /* \"#utility.yul\":10525:10528   */\n      0xe0\n        /* \"#utility.yul\":10514:10523   */\n      dup4\n        /* \"#utility.yul\":10510:10529   */\n      add\n        /* \"#utility.yul\":10503:10552   */\n      mstore\n        /* \"#utility.yul\":10569:10647   */\n      tag_440\n        /* \"#utility.yul\":10642:10646   */\n      dup2\n        /* \"#utility.yul\":10633:10639   */\n      dup7\n        /* \"#utility.yul\":10569:10647   */\n      tag_273\n      jump\t// in\n    tag_440:\n        /* \"#utility.yul\":10561:10647   */\n      swap1\n      pop\n        /* \"#utility.yul\":10657:10730   */\n      tag_441\n        /* \"#utility.yul\":10725:10728   */\n      0x0100\n        /* \"#utility.yul\":10714:10723   */\n      dup4\n        /* \"#utility.yul\":10710:10729   */\n      add\n        /* \"#utility.yul\":10701:10707   */\n      dup6\n        /* \"#utility.yul\":10657:10730   */\n      tag_269\n      jump\t// in\n    tag_441:\n        /* \"#utility.yul\":10740:10813   */\n      tag_442\n        /* \"#utility.yul\":10808:10811   */\n      0x0120\n        /* \"#utility.yul\":10797:10806   */\n      dup4\n        /* \"#utility.yul\":10793:10812   */\n      add\n        /* \"#utility.yul\":10784:10790   */\n      dup5\n        /* \"#utility.yul\":10740:10813   */\n      tag_269\n      jump\t// in\n    tag_442:\n        /* \"#utility.yul\":8964:10820   */\n      swap12\n      swap11\n      pop\n      pop\n      pop\n      pop\n      pop\n      pop\n      pop\n      pop\n      pop\n      pop\n      pop\n      jump\t// out\n        /* \"#utility.yul\":10826:10916   */\n    tag_282:\n        /* \"#utility.yul\":10860:10867   */\n      0x00\n        /* \"#utility.yul\":10903:10908   */\n      dup2\n        /* \"#utility.yul\":10896:10909   */\n      iszero\n        /* \"#utility.yul\":10889:10910   */\n      iszero\n        /* \"#utility.yul\":10878:10910   */\n      swap1\n      pop\n        /* \"#utility.yul\":10826:10916   */\n      swap2\n      swap1\n      pop\n      jump\t// out\n        /* \"#utility.yul\":10922:11031   */\n    tag_283:\n        /* \"#utility.yul\":11003:11024   */\n      tag_445\n        /* \"#utility.yul\":11018:11023   */\n      dup2\n        /* \"#utility.yul\":11003:11024   */\n      tag_282\n      jump\t// in\n    tag_445:\n        /* \"#utility.yul\":10998:11001   */\n      dup3\n        /* \"#utility.yul\":10991:11025   */\n      mstore\n        /* \"#utility.yul\":10922:11031   */\n      pop\n      pop\n      jump\t// out\n        /* \"#utility.yul\":11037:11247   */\n    tag_40:\n        /* \"#utility.yul\":11124:11128   */\n      0x00\n        /* \"#utility.yul\":11162:11164   */\n      0x20\n        /* \"#utility.yul\":11151:11160   */\n      dup3\n        /* \"#utility.yul\":11147:11165   */\n      add\n        /* \"#utility.yul\":11139:11165   */\n      swap1\n      pop\n        /* \"#utility.yul\":11175:11240   */\n      tag_447\n        /* \"#utility.yul\":11237:11238   */\n      0x00\n        /* \"#utility.yul\":11226:11235   */\n      dup4\n        /* \"#utility.yul\":11222:11239   */\n      add\n        /* \"#utility.yul\":11213:11219   */\n      dup5\n        /* \"#utility.yul\":11175:11240   */\n      tag_283\n      jump\t// in\n    tag_447:\n        /* \"#utility.yul\":11037:11247   */\n      swap3\n      swap2\n      pop\n      pop\n      jump\t// out\n        /* \"#utility.yul\":11253:12412   */\n    tag_43:\n        /* \"#utility.yul\":11360:11366   */\n      0x00\n        /* \"#utility.yul\":11368:11374   */\n      dup1\n        /* \"#utility.yul\":11376:11382   */\n      0x00\n        /* \"#utility.yul\":11425:11427   */\n      0x60\n        /* \"#utility.yul\":11413:11422   */\n      dup5\n        /* \"#utility.yul\":11404:11411   */\n      dup7\n        /* \"#utility.yul\":11400:11423   */\n      sub\n        /* \"#utility.yul\":11396:11428   */\n      slt\n        /* \"#utility.yul\":11393:11512   */\n      iszero\n      tag_449\n      jumpi\n        /* \"#utility.yul\":11431:11510   */\n      tag_450\n      tag_255\n      jump\t// in\n    tag_450:\n        /* \"#utility.yul\":11393:11512   */\n    tag_449:\n        /* \"#utility.yul\":11579:11580   */\n      0x00\n        /* \"#utility.yul\":11568:11577   */\n      dup5\n        /* \"#utility.yul\":11564:11581   */\n      add\n        /* \"#utility.yul\":11551:11582   */\n      calldataload\n        /* \"#utility.yul\":11609:11627   */\n      0xffffffffffffffff\n        /* \"#utility.yul\":11601:11607   */\n      dup2\n        /* \"#utility.yul\":11598:11628   */\n      gt\n        /* \"#utility.yul\":11595:11712   */\n      iszero\n      tag_451\n      jumpi\n        /* \"#utility.yul\":11631:11710   */\n      tag_452\n      tag_256\n      jump\t// in\n    tag_452:\n        /* \"#utility.yul\":11595:11712   */\n    tag_451:\n        /* \"#utility.yul\":11736:11799   */\n      tag_453\n        /* \"#utility.yul\":11791:11798   */\n      dup7\n        /* \"#utility.yul\":11782:11788   */\n      dup3\n        /* \"#utility.yul\":11771:11780   */\n      dup8\n        /* \"#utility.yul\":11767:11789   */\n      add\n        /* \"#utility.yul\":11736:11799   */\n      tag_265\n      jump\t// in\n    tag_453:\n        /* \"#utility.yul\":11726:11799   */\n      swap4\n      pop\n        /* \"#utility.yul\":11522:11809   */\n      pop\n        /* \"#utility.yul\":11876:11878   */\n      0x20\n        /* \"#utility.yul\":11865:11874   */\n      dup5\n        /* \"#utility.yul\":11861:11879   */\n      add\n        /* \"#utility.yul\":11848:11880   */\n      calldataload\n        /* \"#utility.yul\":11907:11925   */\n      0xffffffffffffffff\n        /* \"#utility.yul\":11899:11905   */\n      dup2\n        /* \"#utility.yul\":11896:11926   */\n      gt\n        /* \"#utility.yul\":11893:12010   */\n      iszero\n      tag_454\n      jumpi\n        /* \"#utility.yul\":11929:12008   */\n      tag_455\n      tag_256\n      jump\t// in\n    tag_455:\n        /* \"#utility.yul\":11893:12010   */\n    tag_454:\n        /* \"#utility.yul\":12034:12097   */\n      tag_456\n        /* \"#utility.yul\":12089:12096   */\n      dup7\n        /* \"#utility.yul\":12080:12086   */\n      dup3\n        /* \"#utility.yul\":12069:12078   */\n      dup8\n        /* \"#utility.yul\":12065:12087   */\n      add\n        /* \"#utility.yul\":12034:12097   */\n      tag_265\n      jump\t// in\n    tag_456:\n        /* \"#utility.yul\":12024:12097   */\n      swap3\n      pop\n        /* \"#utility.yul\":11819:12107   */\n      pop\n        /* \"#utility.yul\":12174:12176   */\n      0x40\n        /* \"#utility.yul\":12163:12172   */\n      dup5\n        /* \"#utility.yul\":12159:12177   */\n      add\n        /* \"#utility.yul\":12146:12178   */\n      calldataload\n        /* \"#utility.yul\":12205:12223   */\n      0xffffffffffffffff\n        /* \"#utility.yul\":12197:12203   */\n      dup2\n        /* \"#utility.yul\":12194:12224   */\n      gt\n        /* \"#utility.yul\":12191:12308   */\n      iszero\n      tag_457\n      jumpi\n        /* \"#utility.yul\":12227:12306   */\n      tag_458\n      tag_256\n      jump\t// in\n    tag_458:\n        /* \"#utility.yul\":12191:12308   */\n    tag_457:\n        /* \"#utility.yul\":12332:12395   */\n      tag_459\n        /* \"#utility.yul\":12387:12394   */\n      dup7\n        /* \"#utility.yul\":12378:12384   */\n      dup3\n        /* \"#utility.yul\":12367:12376   */\n      dup8\n        /* \"#utility.yul\":12363:12385   */\n      add\n        /* \"#utility.yul\":12332:12395   */\n      tag_265\n      jump\t// in\n    tag_459:\n        /* \"#utility.yul\":12322:12395   */\n      swap2\n      pop\n        /* \"#utility.yul\":12117:12405   */\n      pop\n        /* \"#utility.yul\":11253:12412   */\n      swap3\n      pop\n      swap3\n      pop\n      swap3\n      jump\t// out\n        /* \"#utility.yul\":12418:14701   */\n    tag_47:\n        /* \"#utility.yul\":12591:12597   */\n      0x00\n        /* \"#utility.yul\":12599:12605   */\n      dup1\n        /* \"#utility.yul\":12607:12613   */\n      0x00\n        /* \"#utility.yul\":12615:12621   */\n      dup1\n        /* \"#utility.yul\":12623:12629   */\n      0x00\n        /* \"#utility.yul\":12631:12637   */\n      dup1\n        /* \"#utility.yul\":12639:12645   */\n      0x00\n        /* \"#utility.yul\":12688:12691   */\n      0xe0\n        /* \"#utility.yul\":12676:12685   */\n      dup9\n        /* \"#utility.yul\":12667:12674   */\n      dup11\n        /* \"#utility.yul\":12663:12686   */\n      sub\n        /* \"#utility.yul\":12659:12692   */\n      slt\n        /* \"#utility.yul\":12656:12776   */\n      iszero\n      tag_461\n      jumpi\n        /* \"#utility.yul\":12695:12774   */\n      tag_462\n      tag_255\n      jump\t// in\n    tag_462:\n        /* \"#utility.yul\":12656:12776   */\n    tag_461:\n        /* \"#utility.yul\":12843:12844   */\n      0x00\n        /* \"#utility.yul\":12832:12841   */\n      dup9\n        /* \"#utility.yul\":12828:12845   */\n      add\n        /* \"#utility.yul\":12815:12846   */\n      calldataload\n        /* \"#utility.yul\":12873:12891   */\n      0xffffffffffffffff\n        /* \"#utility.yul\":12865:12871   */\n      dup2\n        /* \"#utility.yul\":12862:12892   */\n      gt\n        /* \"#utility.yul\":12859:12976   */\n      iszero\n      tag_463\n      jumpi\n        /* \"#utility.yul\":12895:12974   */\n      tag_464\n      tag_256\n      jump\t// in\n    tag_464:\n        /* \"#utility.yul\":12859:12976   */\n    tag_463:\n        /* \"#utility.yul\":13000:13063   */\n      tag_465\n        /* \"#utility.yul\":13055:13062   */\n      dup11\n        /* \"#utility.yul\":13046:13052   */\n      dup3\n        /* \"#utility.yul\":13035:13044   */\n      dup12\n        /* \"#utility.yul\":13031:13053   */\n      add\n        /* \"#utility.yul\":13000:13063   */\n      tag_265\n      jump\t// in\n    tag_465:\n        /* \"#utility.yul\":12990:13063   */\n      swap8\n      pop\n        /* \"#utility.yul\":12786:13073   */\n      pop\n        /* \"#utility.yul\":13140:13142   */\n      0x20\n        /* \"#utility.yul\":13129:13138   */\n      dup9\n        /* \"#utility.yul\":13125:13143   */\n      add\n        /* \"#utility.yul\":13112:13144   */\n      calldataload\n        /* \"#utility.yul\":13171:13189   */\n      0xffffffffffffffff\n        /* \"#utility.yul\":13163:13169   */\n      dup2\n        /* \"#utility.yul\":13160:13190   */\n      gt\n        /* \"#utility.yul\":13157:13274   */\n      iszero\n      tag_466\n      jumpi\n        /* \"#utility.yul\":13193:13272   */\n      tag_467\n      tag_256\n      jump\t// in\n    tag_467:\n        /* \"#utility.yul\":13157:13274   */\n    tag_466:\n        /* \"#utility.yul\":13298:13361   */\n      tag_468\n        /* \"#utility.yul\":13353:13360   */\n      dup11\n        /* \"#utility.yul\":13344:13350   */\n      dup3\n        /* \"#utility.yul\":13333:13342   */\n      dup12\n        /* \"#utility.yul\":13329:13351   */\n      add\n        /* \"#utility.yul\":13298:13361   */\n      tag_265\n      jump\t// in\n    tag_468:\n        /* \"#utility.yul\":13288:13361   */\n      swap7\n      pop\n        /* \"#utility.yul\":13083:13371   */\n      pop\n        /* \"#utility.yul\":13438:13440   */\n      0x40\n        /* \"#utility.yul\":13427:13436   */\n      dup9\n        /* \"#utility.yul\":13423:13441   */\n      add\n        /* \"#utility.yul\":13410:13442   */\n      calldataload\n        /* \"#utility.yul\":13469:13487   */\n      0xffffffffffffffff\n        /* \"#utility.yul\":13461:13467   */\n      dup2\n        /* \"#utility.yul\":13458:13488   */\n      gt\n        /* \"#utility.yul\":13455:13572   */\n      iszero\n      tag_469\n      jumpi\n        /* \"#utility.yul\":13491:13570   */\n      tag_470\n      tag_256\n      jump\t// in\n    tag_470:\n        /* \"#utility.yul\":13455:13572   */\n    tag_469:\n        /* \"#utility.yul\":13596:13659   */\n      tag_471\n        /* \"#utility.yul\":13651:13658   */\n      dup11\n        /* \"#utility.yul\":13642:13648   */\n      dup3\n        /* \"#utility.yul\":13631:13640   */\n      dup12\n        /* \"#utility.yul\":13627:13649   */\n      add\n        /* \"#utility.yul\":13596:13659   */\n      tag_265\n      jump\t// in\n    tag_471:\n        /* \"#utility.yul\":13586:13659   */\n      swap6\n      pop\n        /* \"#utility.yul\":13381:13669   */\n      pop\n        /* \"#utility.yul\":13736:13738   */\n      0x60\n        /* \"#utility.yul\":13725:13734   */\n      dup9\n        /* \"#utility.yul\":13721:13739   */\n      add\n        /* \"#utility.yul\":13708:13740   */\n      calldataload\n        /* \"#utility.yul\":13767:13785   */\n      0xffffffffffffffff\n        /* \"#utility.yul\":13759:13765   */\n      dup2\n        /* \"#utility.yul\":13756:13786   */\n      gt\n        /* \"#utility.yul\":13753:13870   */\n      iszero\n      tag_472\n      jumpi\n        /* \"#utility.yul\":13789:13868   */\n      tag_473\n      tag_256\n      jump\t// in\n    tag_473:\n        /* \"#utility.yul\":13753:13870   */\n    tag_472:\n        /* \"#utility.yul\":13894:13957   */\n      tag_474\n        /* \"#utility.yul\":13949:13956   */\n      dup11\n        /* \"#utility.yul\":13940:13946   */\n      dup3\n        /* \"#utility.yul\":13929:13938   */\n      dup12\n        /* \"#utility.yul\":13925:13947   */\n      add\n        /* \"#utility.yul\":13894:13957   */\n      tag_265\n      jump\t// in\n    tag_474:\n        /* \"#utility.yul\":13884:13957   */\n      swap5\n      pop\n        /* \"#utility.yul\":13679:13967   */\n      pop\n        /* \"#utility.yul\":14006:14009   */\n      0x80\n        /* \"#utility.yul\":14033:14086   */\n      tag_475\n        /* \"#utility.yul\":14078:14085   */\n      dup11\n        /* \"#utility.yul\":14069:14075   */\n      dup3\n        /* \"#utility.yul\":14058:14067   */\n      dup12\n        /* \"#utility.yul\":14054:14076   */\n      add\n        /* \"#utility.yul\":14033:14086   */\n      tag_268\n      jump\t// in\n    tag_475:\n        /* \"#utility.yul\":14023:14086   */\n      swap4\n      pop\n        /* \"#utility.yul\":13977:14096   */\n      pop\n        /* \"#utility.yul\":14163:14166   */\n      0xa0\n        /* \"#utility.yul\":14152:14161   */\n      dup9\n        /* \"#utility.yul\":14148:14167   */\n      add\n        /* \"#utility.yul\":14135:14168   */\n      calldataload\n        /* \"#utility.yul\":14195:14213   */\n      0xffffffffffffffff\n        /* \"#utility.yul\":14187:14193   */\n      dup2\n        /* \"#utility.yul\":14184:14214   */\n      gt\n        /* \"#utility.yul\":14181:14298   */\n      iszero\n      tag_476\n      jumpi\n        /* \"#utility.yul\":14217:14296   */\n      tag_477\n      tag_256\n      jump\t// in\n    tag_477:\n        /* \"#utility.yul\":14181:14298   */\n    tag_476:\n        /* \"#utility.yul\":14322:14385   */\n      tag_478\n        /* \"#utility.yul\":14377:14384   */\n      dup11\n        /* \"#utility.yul\":14368:14374   */\n      dup3\n        /* \"#utility.yul\":14357:14366   */\n      dup12\n        /* \"#utility.yul\":14353:14375   */\n      add\n        /* \"#utility.yul\":14322:14385   */\n      tag_265\n      jump\t// in\n    tag_478:\n        /* \"#utility.yul\":14312:14385   */\n      swap3\n      pop\n        /* \"#utility.yul\":14106:14395   */\n      pop\n        /* \"#utility.yul\":14462:14465   */\n      0xc0\n        /* \"#utility.yul\":14451:14460   */\n      dup9\n        /* \"#utility.yul\":14447:14466   */\n      add\n        /* \"#utility.yul\":14434:14467   */\n      calldataload\n        /* \"#utility.yul\":14494:14512   */\n      0xffffffffffffffff\n        /* \"#utility.yul\":14486:14492   */\n      dup2\n        /* \"#utility.yul\":14483:14513   */\n      gt\n        /* \"#utility.yul\":14480:14597   */\n      iszero\n      tag_479\n      jumpi\n        /* \"#utility.yul\":14516:14595   */\n      tag_480\n      tag_256\n      jump\t// in\n    tag_480:\n        /* \"#utility.yul\":14480:14597   */\n    tag_479:\n        /* \"#utility.yul\":14621:14684   */\n      tag_481\n        /* \"#utility.yul\":14676:14683   */\n      dup11\n        /* \"#utility.yul\":14667:14673   */\n      dup3\n        /* \"#utility.yul\":14656:14665   */\n      dup12\n        /* \"#utility.yul\":14652:14674   */\n      add\n        /* \"#utility.yul\":14621:14684   */\n      tag_265\n      jump\t// in\n    tag_481:\n        /* \"#utility.yul\":14611:14684   */\n      swap2\n      pop\n        /* \"#utility.yul\":14405:14694   */\n      pop\n        /* \"#utility.yul\":12418:14701   */\n      swap3\n      swap6\n      swap9\n      swap2\n      swap5\n      swap8\n      pop\n      swap3\n      swap6\n      pop\n      jump\t// out\n        /* \"#utility.yul\":14707:14855   */\n    tag_284:\n        /* \"#utility.yul\":14809:14820   */\n      0x00\n        /* \"#utility.yul\":14846:14849   */\n      dup2\n        /* \"#utility.yul\":14831:14849   */\n      swap1\n      pop\n        /* \"#utility.yul\":14707:14855   */\n      swap3\n      swap2\n      pop\n      pop\n      jump\t// out\n        /* \"#utility.yul\":14861:15251   */\n    tag_285:\n        /* \"#utility.yul\":14967:14970   */\n      0x00\n        /* \"#utility.yul\":14995:15034   */\n      tag_484\n        /* \"#utility.yul\":15028:15033   */\n      dup3\n        /* \"#utility.yul\":14995:15034   */\n      tag_270\n      jump\t// in\n    tag_484:\n        /* \"#utility.yul\":15050:15139   */\n      tag_485\n        /* \"#utility.yul\":15132:15138   */\n      dup2\n        /* \"#utility.yul\":15127:15130   */\n      dup6\n        /* \"#utility.yul\":15050:15139   */\n      tag_284\n      jump\t// in\n    tag_485:\n        /* \"#utility.yul\":15043:15139   */\n      swap4\n      pop\n        /* \"#utility.yul\":15148:15213   */\n      tag_486\n        /* \"#utility.yul\":15206:15212   */\n      dup2\n        /* \"#utility.yul\":15201:15204   */\n      dup6\n        /* \"#utility.yul\":15194:15198   */\n      0x20\n        /* \"#utility.yul\":15187:15192   */\n      dup7\n        /* \"#utility.yul\":15183:15199   */\n      add\n        /* \"#utility.yul\":15148:15213   */\n      tag_272\n      jump\t// in\n    tag_486:\n        /* \"#utility.yul\":15238:15244   */\n      dup1\n        /* \"#utility.yul\":15233:15236   */\n      dup5\n        /* \"#utility.yul\":15229:15245   */\n      add\n        /* \"#utility.yul\":15222:15245   */\n      swap2\n      pop\n        /* \"#utility.yul\":14971:15251   */\n      pop\n        /* \"#utility.yul\":14861:15251   */\n      swap3\n      swap2\n      pop\n      pop\n      jump\t// out\n        /* \"#utility.yul\":15257:15532   */\n    tag_51:\n        /* \"#utility.yul\":15389:15392   */\n      0x00\n        /* \"#utility.yul\":15411:15506   */\n      tag_488\n        /* \"#utility.yul\":15502:15505   */\n      dup3\n        /* \"#utility.yul\":15493:15499   */\n      dup5\n        /* \"#utility.yul\":15411:15506   */\n      tag_285\n      jump\t// in\n    tag_488:\n        /* \"#utility.yul\":15404:15506   */\n      swap2\n      pop\n        /* \"#utility.yul\":15523:15526   */\n      dup2\n        /* \"#utility.yul\":15516:15526   */\n      swap1\n      pop\n        /* \"#utility.yul\":15257:15532   */\n      swap3\n      swap2\n      pop\n      pop\n      jump\t// out\n        /* \"#utility.yul\":15538:15710   */\n    tag_286:\n        /* \"#utility.yul\":15678:15702   */\n      0x50726f6475637420646f6573206e6f7420657869737400000000000000000000\n        /* \"#utility.yul\":15674:15675   */\n      0x00\n        /* \"#utility.yul\":15666:15672   */\n      dup3\n        /* \"#utility.yul\":15662:15676   */\n      add\n        /* \"#utility.yul\":15655:15703   */\n      mstore\n        /* \"#utility.yul\":15538:15710   */\n      pop\n      jump\t// out\n        /* \"#utility.yul\":15716:16082   */\n    tag_287:\n        /* \"#utility.yul\":15858:15861   */\n      0x00\n        /* \"#utility.yul\":15879:15946   */\n      tag_491\n        /* \"#utility.yul\":15943:15945   */\n      0x16\n        /* \"#utility.yul\":15938:15941   */\n      dup4\n        /* \"#utility.yul\":15879:15946   */\n      tag_271\n      jump\t// in\n    tag_491:\n        /* \"#utility.yul\":15872:15946   */\n      swap2\n      pop\n        /* \"#utility.yul\":15955:16048   */\n      tag_492\n        /* \"#utility.yul\":16044:16047   */\n      dup3\n        /* \"#utility.yul\":15955:16048   */\n      tag_286\n      jump\t// in\n    tag_492:\n        /* \"#utility.yul\":16073:16075   */\n      0x20\n        /* \"#utility.yul\":16068:16071   */\n      dup3\n        /* \"#utility.yul\":16064:16076   */\n      add\n        /* \"#utility.yul\":16057:16076   */\n      swap1\n      pop\n        /* \"#utility.yul\":15716:16082   */\n      swap2\n      swap1\n      pop\n      jump\t// out\n        /* \"#utility.yul\":16088:16507   */\n    tag_54:\n        /* \"#utility.yul\":16254:16258   */\n      0x00\n        /* \"#utility.yul\":16292:16294   */\n      0x20\n        /* \"#utility.yul\":16281:16290   */\n      dup3\n        /* \"#utility.yul\":16277:16295   */\n      add\n        /* \"#utility.yul\":16269:16295   */\n      swap1\n      pop\n        /* \"#utility.yul\":16341:16350   */\n      dup2\n        /* \"#utility.yul\":16335:16339   */\n      dup2\n        /* \"#utility.yul\":16331:16351   */\n      sub\n        /* \"#utility.yul\":16327:16328   */\n      0x00\n        /* \"#utility.yul\":16316:16325   */\n      dup4\n        /* \"#utility.yul\":16312:16329   */\n      add\n        /* \"#utility.yul\":16305:16352   */\n      mstore\n        /* \"#utility.yul\":16369:16500   */\n      tag_494\n        /* \"#utility.yul\":16495:16499   */\n      dup2\n        /* \"#utility.yul\":16369:16500   */\n      tag_287\n      jump\t// in\n    tag_494:\n        /* \"#utility.yul\":16361:16500   */\n      swap1\n      pop\n        /* \"#utility.yul\":16088:16507   */\n      swap2\n      swap1\n      pop\n      jump\t// out\n        /* \"#utility.yul\":16513:16684   */\n    tag_288:\n        /* \"#utility.yul\":16653:16676   */\n      0x496e76616c696420686973746f727920696e6465780000000000000000000000\n        /* \"#utility.yul\":16649:16650   */\n      0x00\n        /* \"#utility.yul\":16641:16647   */\n      dup3\n        /* \"#utility.yul\":16637:16651   */\n      add\n        /* \"#utility.yul\":16630:16677   */\n      mstore\n        /* \"#utility.yul\":16513:16684   */\n      pop\n      jump\t// out\n        /* \"#utility.yul\":16690:17056   */\n    tag_289:\n        /* \"#utility.yul\":16832:16835   */\n      0x00\n        /* \"#utility.yul\":16853:16920   */\n      tag_497\n        /* \"#utility.yul\":16917:16919   */\n      0x15\n        /* \"#utility.yul\":16912:16915   */\n      dup4\n        /* \"#utility.yul\":16853:16920   */\n      tag_271\n      jump\t// in\n    tag_497:\n        /* \"#utility.yul\":16846:16920   */\n      swap2\n      pop\n        /* \"#utility.yul\":16929:17022   */\n      tag_498\n        /* \"#utility.yul\":17018:17021   */\n      dup3\n        /* \"#utility.yul\":16929:17022   */\n      tag_288\n      jump\t// in\n    tag_498:\n        /* \"#utility.yul\":17047:17049   */\n      0x20\n        /* \"#utility.yul\":17042:17045   */\n      dup3\n        /* \"#utility.yul\":17038:17050   */\n      add\n        /* \"#utility.yul\":17031:17050   */\n      swap1\n      pop\n        /* \"#utility.yul\":16690:17056   */\n      swap2\n      swap1\n      pop\n      jump\t// out\n        /* \"#utility.yul\":17062:17481   */\n    tag_59:\n        /* \"#utility.yul\":17228:17232   */\n      0x00\n        /* \"#utility.yul\":17266:17268   */\n      0x20\n        /* \"#utility.yul\":17255:17264   */\n      dup3\n        /* \"#utility.yul\":17251:17269   */\n      add\n        /* \"#utility.yul\":17243:17269   */\n      swap1\n      pop\n        /* \"#utility.yul\":17315:17324   */\n      dup2\n        /* \"#utility.yul\":17309:17313   */\n      dup2\n        /* \"#utility.yul\":17305:17325   */\n      sub\n        /* \"#utility.yul\":17301:17302   */\n      0x00\n        /* \"#utility.yul\":17290:17299   */\n      dup4\n        /* \"#utility.yul\":17286:17303   */\n      add\n        /* \"#utility.yul\":17279:17326   */\n      mstore\n        /* \"#utility.yul\":17343:17474   */\n      tag_500\n        /* \"#utility.yul\":17469:17473   */\n      dup2\n        /* \"#utility.yul\":17343:17474   */\n      tag_289\n      jump\t// in\n    tag_500:\n        /* \"#utility.yul\":17335:17474   */\n      swap1\n      pop\n        /* \"#utility.yul\":17062:17481   */\n      swap2\n      swap1\n      pop\n      jump\t// out\n        /* \"#utility.yul\":17487:17667   */\n    tag_63:\n        /* \"#utility.yul\":17535:17612   */\n      0x4e487b7100000000000000000000000000000000000000000000000000000000\n        /* \"#utility.yul\":17532:17533   */\n      0x00\n        /* \"#utility.yul\":17525:17613   */\n      mstore\n        /* \"#utility.yul\":17632:17636   */\n      0x32\n        /* \"#utility.yul\":17629:17630   */\n      0x04\n        /* \"#utility.yul\":17622:17637   */\n      mstore\n        /* \"#utility.yul\":17656:17660   */\n      0x24\n        /* \"#utility.yul\":17653:17654   */\n      0x00\n        /* \"#utility.yul\":17646:17661   */\n      revert\n        /* \"#utility.yul\":17673:17853   */\n    tag_290:\n        /* \"#utility.yul\":17721:17798   */\n      0x4e487b7100000000000000000000000000000000000000000000000000000000\n        /* \"#utility.yul\":17718:17719   */\n      0x00\n        /* \"#utility.yul\":17711:17799   */\n      mstore\n        /* \"#utility.yul\":17818:17822   */\n      0x22\n        /* \"#utility.yul\":17815:17816   */\n      0x04\n        /* \"#utility.yul\":17808:17823   */\n      mstore\n        /* \"#utility.yul\":17842:17846   */\n      0x24\n        /* \"#utility.yul\":17839:17840   */\n      0x00\n        /* \"#utility.yul\":17832:17847   */\n      revert\n        /* \"#utility.yul\":17859:18179   */\n    tag_66:\n        /* \"#utility.yul\":17903:17909   */\n      0x00\n        /* \"#utility.yul\":17940:17941   */\n      0x02\n        /* \"#utility.yul\":17934:17938   */\n      dup3\n        /* \"#utility.yul\":17930:17942   */\n      div\n        /* \"#utility.yul\":17920:17942   */\n      swap1\n      pop\n        /* \"#utility.yul\":17987:17988   */\n      0x01\n        /* \"#utility.yul\":17981:17985   */\n      dup3\n        /* \"#utility.yul\":17977:17989   */\n      and\n        /* \"#utility.yul\":18008:18026   */\n      dup1\n        /* \"#utility.yul\":17998:18079   */\n      tag_504\n      jumpi\n        /* \"#utility.yul\":18064:18068   */\n      0x7f\n        /* \"#utility.yul\":18056:18062   */\n      dup3\n        /* \"#utility.yul\":18052:18069   */\n      and\n        /* \"#utility.yul\":18042:18069   */\n      swap2\n      pop\n        /* \"#utility.yul\":17998:18079   */\n    tag_504:\n        /* \"#utility.yul\":18126:18128   */\n      0x20\n        /* \"#utility.yul\":18118:18124   */\n      dup3\n        /* \"#utility.yul\":18115:18129   */\n      lt\n        /* \"#utility.yul\":18095:18113   */\n      dup2\n        /* \"#utility.yul\":18092:18130   */\n      sub\n        /* \"#utility.yul\":18089:18173   */\n      tag_505\n      jumpi\n        /* \"#utility.yul\":18145:18163   */\n      tag_506\n      tag_290\n      jump\t// in\n    tag_506:\n        /* \"#utility.yul\":18089:18173   */\n    tag_505:\n        /* \"#utility.yul\":17910:18179   */\n      pop\n        /* \"#utility.yul\":17859:18179   */\n      swap2\n      swap1\n      pop\n      jump\t// out\n        /* \"#utility.yul\":18185:18362   */\n    tag_291:\n        /* \"#utility.yul\":18325:18354   */\n      0x4c6f636174696f6e206f72207374617475732072657175697265640000000000\n        /* \"#utility.yul\":18321:18322   */\n      0x00\n        /* \"#utility.yul\":18313:18319   */\n      dup3\n        /* \"#utility.yul\":18309:18323   */\n      add\n        /* \"#utility.yul\":18302:18355   */\n      mstore\n        /* \"#utility.yul\":18185:18362   */\n      pop\n      jump\t// out\n        /* \"#utility.yul\":18368:18734   */\n    tag_292:\n        /* \"#utility.yul\":18510:18513   */\n      0x00\n        /* \"#utility.yul\":18531:18598   */\n      tag_509\n        /* \"#utility.yul\":18595:18597   */\n      0x1b\n        /* \"#utility.yul\":18590:18593   */\n      dup4\n        /* \"#utility.yul\":18531:18598   */\n      tag_271\n      jump\t// in\n    tag_509:\n        /* \"#utility.yul\":18524:18598   */\n      swap2\n      pop\n        /* \"#utility.yul\":18607:18700   */\n      tag_510\n        /* \"#utility.yul\":18696:18699   */\n      dup3\n        /* \"#utility.yul\":18607:18700   */\n      tag_291\n      jump\t// in\n    tag_510:\n        /* \"#utility.yul\":18725:18727   */\n      0x20\n        /* \"#utility.yul\":18720:18723   */\n      dup3\n        /* \"#utility.yul\":18716:18728   */\n      add\n        /* \"#utility.yul\":18709:18728   */\n      swap1\n      pop\n        /* \"#utility.yul\":18368:18734   */\n      swap2\n      swap1\n      pop\n      jump\t// out\n        /* \"#utility.yul\":18740:19159   */\n    tag_148:\n        /* \"#utility.yul\":18906:18910   */\n      0x00\n        /* \"#utility.yul\":18944:18946   */\n      0x20\n        /* \"#utility.yul\":18933:18942   */\n      dup3\n        /* \"#utility.yul\":18929:18947   */\n      add\n        /* \"#utility.yul\":18921:18947   */\n      swap1\n      pop\n        /* \"#utility.yul\":18993:19002   */\n      dup2\n        /* \"#utility.yul\":18987:18991   */\n      dup2\n        /* \"#utility.yul\":18983:19003   */\n      sub\n        /* \"#utility.yul\":18979:18980   */\n      0x00\n        /* \"#utility.yul\":18968:18977   */\n      dup4\n        /* \"#utility.yul\":18964:18981   */\n      add\n        /* \"#utility.yul\":18957:19004   */\n      mstore\n        /* \"#utility.yul\":19021:19152   */\n      tag_512\n        /* \"#utility.yul\":19147:19151   */\n      dup2\n        /* \"#utility.yul\":19021:19152   */\n      tag_292\n      jump\t// in\n    tag_512:\n        /* \"#utility.yul\":19013:19152   */\n      swap1\n      pop\n        /* \"#utility.yul\":18740:19159   */\n      swap2\n      swap1\n      pop\n      jump\t// out\n        /* \"#utility.yul\":19165:19379   */\n    tag_293:\n        /* \"#utility.yul\":19305:19371   */\n      0x4c6f6b61736920e2869220000000000000000000000000000000000000000000\n        /* \"#utility.yul\":19301:19302   */\n      0x00\n        /* \"#utility.yul\":19293:19299   */\n      dup3\n        /* \"#utility.yul\":19289:19303   */\n      add\n        /* \"#utility.yul\":19282:19372   */\n      mstore\n        /* \"#utility.yul\":19165:19379   */\n      pop\n      jump\t// out\n        /* \"#utility.yul\":19385:19787   */\n    tag_294:\n        /* \"#utility.yul\":19545:19548   */\n      0x00\n        /* \"#utility.yul\":19566:19651   */\n      tag_515\n        /* \"#utility.yul\":19648:19650   */\n      0x0b\n        /* \"#utility.yul\":19643:19646   */\n      dup4\n        /* \"#utility.yul\":19566:19651   */\n      tag_284\n      jump\t// in\n    tag_515:\n        /* \"#utility.yul\":19559:19651   */\n      swap2\n      pop\n        /* \"#utility.yul\":19660:19753   */\n      tag_516\n        /* \"#utility.yul\":19749:19752   */\n      dup3\n        /* \"#utility.yul\":19660:19753   */\n      tag_293\n      jump\t// in\n    tag_516:\n        /* \"#utility.yul\":19778:19780   */\n      0x0b\n        /* \"#utility.yul\":19773:19776   */\n      dup3\n        /* \"#utility.yul\":19769:19781   */\n      add\n        /* \"#utility.yul\":19762:19781   */\n      swap1\n      pop\n        /* \"#utility.yul\":19385:19787   */\n      swap2\n      swap1\n      pop\n      jump\t// out\n        /* \"#utility.yul\":19793:20007   */\n    tag_295:\n        /* \"#utility.yul\":19933:19999   */\n      0x20c2b72053746174757320e28692200000000000000000000000000000000000\n        /* \"#utility.yul\":19929:19930   */\n      0x00\n        /* \"#utility.yul\":19921:19927   */\n      dup3\n        /* \"#utility.yul\":19917:19931   */\n      add\n        /* \"#utility.yul\":19910:20000   */\n      mstore\n        /* \"#utility.yul\":19793:20007   */\n      pop\n      jump\t// out\n        /* \"#utility.yul\":20013:20415   */\n    tag_296:\n        /* \"#utility.yul\":20173:20176   */\n      0x00\n        /* \"#utility.yul\":20194:20279   */\n      tag_519\n        /* \"#utility.yul\":20276:20278   */\n      0x0f\n        /* \"#utility.yul\":20271:20274   */\n      dup4\n        /* \"#utility.yul\":20194:20279   */\n      tag_284\n      jump\t// in\n    tag_519:\n        /* \"#utility.yul\":20187:20279   */\n      swap2\n      pop\n        /* \"#utility.yul\":20288:20381   */\n      tag_520\n        /* \"#utility.yul\":20377:20380   */\n      dup3\n        /* \"#utility.yul\":20288:20381   */\n      tag_295\n      jump\t// in\n    tag_520:\n        /* \"#utility.yul\":20406:20408   */\n      0x0f\n        /* \"#utility.yul\":20401:20404   */\n      dup3\n        /* \"#utility.yul\":20397:20409   */\n      add\n        /* \"#utility.yul\":20390:20409   */\n      swap1\n      pop\n        /* \"#utility.yul\":20013:20415   */\n      swap2\n      swap1\n      pop\n      jump\t// out\n        /* \"#utility.yul\":20421:21388   */\n    tag_167:\n        /* \"#utility.yul\":20803:20806   */\n      0x00\n        /* \"#utility.yul\":20825:20973   */\n      tag_522\n        /* \"#utility.yul\":20969:20972   */\n      dup3\n        /* \"#utility.yul\":20825:20973   */\n      tag_294\n      jump\t// in\n    tag_522:\n        /* \"#utility.yul\":20818:20973   */\n      swap2\n      pop\n        /* \"#utility.yul\":20990:21085   */\n      tag_523\n        /* \"#utility.yul\":21081:21084   */\n      dup3\n        /* \"#utility.yul\":21072:21078   */\n      dup6\n        /* \"#utility.yul\":20990:21085   */\n      tag_285\n      jump\t// in\n    tag_523:\n        /* \"#utility.yul\":20983:21085   */\n      swap2\n      pop\n        /* \"#utility.yul\":21102:21250   */\n      tag_524\n        /* \"#utility.yul\":21246:21249   */\n      dup3\n        /* \"#utility.yul\":21102:21250   */\n      tag_296\n      jump\t// in\n    tag_524:\n        /* \"#utility.yul\":21095:21250   */\n      swap2\n      pop\n        /* \"#utility.yul\":21267:21362   */\n      tag_525\n        /* \"#utility.yul\":21358:21361   */\n      dup3\n        /* \"#utility.yul\":21349:21355   */\n      dup5\n        /* \"#utility.yul\":21267:21362   */\n      tag_285\n      jump\t// in\n    tag_525:\n        /* \"#utility.yul\":21260:21362   */\n      swap2\n      pop\n        /* \"#utility.yul\":21379:21382   */\n      dup2\n        /* \"#utility.yul\":21372:21382   */\n      swap1\n      pop\n        /* \"#utility.yul\":20421:21388   */\n      swap4\n      swap3\n      pop\n      pop\n      pop\n      jump\t// out\n        /* \"#utility.yul\":21394:21935   */\n    tag_171:\n        /* \"#utility.yul\":21627:21630   */\n      0x00\n        /* \"#utility.yul\":21649:21797   */\n      tag_527\n        /* \"#utility.yul\":21793:21796   */\n      dup3\n        /* \"#utility.yul\":21649:21797   */\n      tag_294\n      jump\t// in\n    tag_527:\n        /* \"#utility.yul\":21642:21797   */\n      swap2\n      pop\n        /* \"#utility.yul\":21814:21909   */\n      tag_528\n        /* \"#utility.yul\":21905:21908   */\n      dup3\n        /* \"#utility.yul\":21896:21902   */\n      dup5\n        /* \"#utility.yul\":21814:21909   */\n      tag_285\n      jump\t// in\n    tag_528:\n        /* \"#utility.yul\":21807:21909   */\n      swap2\n      pop\n        /* \"#utility.yul\":21926:21929   */\n      dup2\n        /* \"#utility.yul\":21919:21929   */\n      swap1\n      pop\n        /* \"#utility.yul\":21394:21935   */\n      swap3\n      swap2\n      pop\n      pop\n      jump\t// out\n        /* \"#utility.yul\":21941:22155   */\n    tag_297:\n        /* \"#utility.yul\":22081:22147   */\n      0x53746174757320e2869220000000000000000000000000000000000000000000\n        /* \"#utility.yul\":22077:22078   */\n      0x00\n        /* \"#utility.yul\":22069:22075   */\n      dup3\n        /* \"#utility.yul\":22065:22079   */\n      add\n        /* \"#utility.yul\":22058:22148   */\n      mstore\n        /* \"#utility.yul\":21941:22155   */\n      pop\n      jump\t// out\n        /* \"#utility.yul\":22161:22563   */\n    tag_298:\n        /* \"#utility.yul\":22321:22324   */\n      0x00\n        /* \"#utility.yul\":22342:22427   */\n      tag_531\n        /* \"#utility.yul\":22424:22426   */\n      0x0b\n        /* \"#utility.yul\":22419:22422   */\n      dup4\n        /* \"#utility.yul\":22342:22427   */\n      tag_284\n      jump\t// in\n    tag_531:\n        /* \"#utility.yul\":22335:22427   */\n      swap2\n      pop\n        /* \"#utility.yul\":22436:22529   */\n      tag_532\n        /* \"#utility.yul\":22525:22528   */\n      dup3\n        /* \"#utility.yul\":22436:22529   */\n      tag_297\n      jump\t// in\n    tag_532:\n        /* \"#utility.yul\":22554:22556   */\n      0x0b\n        /* \"#utility.yul\":22549:22552   */\n      dup3\n        /* \"#utility.yul\":22545:22557   */\n      add\n        /* \"#utility.yul\":22538:22557   */\n      swap1\n      pop\n        /* \"#utility.yul\":22161:22563   */\n      swap2\n      swap1\n      pop\n      jump\t// out\n        /* \"#utility.yul\":22569:23110   */\n    tag_174:\n        /* \"#utility.yul\":22802:22805   */\n      0x00\n        /* \"#utility.yul\":22824:22972   */\n      tag_534\n        /* \"#utility.yul\":22968:22971   */\n      dup3\n        /* \"#utility.yul\":22824:22972   */\n      tag_298\n      jump\t// in\n    tag_534:\n        /* \"#utility.yul\":22817:22972   */\n      swap2\n      pop\n        /* \"#utility.yul\":22989:23084   */\n      tag_535\n        /* \"#utility.yul\":23080:23083   */\n      dup3\n        /* \"#utility.yul\":23071:23077   */\n      dup5\n        /* \"#utility.yul\":22989:23084   */\n      tag_285\n      jump\t// in\n    tag_535:\n        /* \"#utility.yul\":22982:23084   */\n      swap2\n      pop\n        /* \"#utility.yul\":23101:23104   */\n      dup2\n        /* \"#utility.yul\":23094:23104   */\n      swap1\n      pop\n        /* \"#utility.yul\":22569:23110   */\n      swap3\n      swap2\n      pop\n      pop\n      jump\t// out\n        /* \"#utility.yul\":23116:23257   */\n    tag_299:\n        /* \"#utility.yul\":23165:23169   */\n      0x00\n        /* \"#utility.yul\":23188:23191   */\n      dup2\n        /* \"#utility.yul\":23180:23191   */\n      swap1\n      pop\n        /* \"#utility.yul\":23211:23214   */\n      dup2\n        /* \"#utility.yul\":23208:23209   */\n      0x00\n        /* \"#utility.yul\":23201:23215   */\n      mstore\n        /* \"#utility.yul\":23245:23249   */\n      0x20\n        /* \"#utility.yul\":23242:23243   */\n      0x00\n        /* \"#utility.yul\":23232:23250   */\n      keccak256\n        /* \"#utility.yul\":23224:23250   */\n      swap1\n      pop\n        /* \"#utility.yul\":23116:23257   */\n      swap2\n      swap1\n      pop\n      jump\t// out\n        /* \"#utility.yul\":23263:23356   */\n    tag_300:\n        /* \"#utility.yul\":23300:23306   */\n      0x00\n        /* \"#utility.yul\":23347:23349   */\n      0x20\n        /* \"#utility.yul\":23342:23344   */\n      0x1f\n        /* \"#utility.yul\":23335:23340   */\n      dup4\n        /* \"#utility.yul\":23331:23345   */\n      add\n        /* \"#utility.yul\":23327:23350   */\n      div\n        /* \"#utility.yul\":23317:23350   */\n      swap1\n      pop\n        /* \"#utility.yul\":23263:23356   */\n      swap2\n      swap1\n      pop\n      jump\t// out\n        /* \"#utility.yul\":23362:23469   */\n    tag_301:\n        /* \"#utility.yul\":23406:23414   */\n      0x00\n        /* \"#utility.yul\":23456:23461   */\n      dup3\n        /* \"#utility.yul\":23450:23454   */\n      dup3\n        /* \"#utility.yul\":23446:23462   */\n      shl\n        /* \"#utility.yul\":23425:23462   */\n      swap1\n      pop\n        /* \"#utility.yul\":23362:23469   */\n      swap3\n      swap2\n      pop\n      pop\n      jump\t// out\n        /* \"#utility.yul\":23475:23868   */\n    tag_302:\n        /* \"#utility.yul\":23544:23550   */\n      0x00\n        /* \"#utility.yul\":23594:23595   */\n      0x08\n        /* \"#utility.yul\":23582:23592   */\n      dup4\n        /* \"#utility.yul\":23578:23596   */\n      mul\n        /* \"#utility.yul\":23617:23714   */\n      tag_540\n        /* \"#utility.yul\":23647:23713   */\n      0xffffffffffffffffffffffffffffffffffffffffffffffffffffffffffffffff\n        /* \"#utility.yul\":23636:23645   */\n      dup3\n        /* \"#utility.yul\":23617:23714   */\n      tag_301\n      jump\t// in\n    tag_540:\n        /* \"#utility.yul\":23735:23774   */\n      tag_541\n        /* \"#utility.yul\":23765:23773   */\n      dup7\n        /* \"#utility.yul\":23754:23763   */\n      dup4\n        /* \"#utility.yul\":23735:23774   */\n      tag_301\n      jump\t// in\n    tag_541:\n        /* \"#utility.yul\":23723:23774   */\n      swap6\n      pop\n        /* \"#utility.yul\":23807:23811   */\n      dup1\n        /* \"#utility.yul\":23803:23812   */\n      not\n        /* \"#utility.yul\":23796:23801   */\n      dup5\n        /* \"#utility.yul\":23792:23813   */\n      and\n        /* \"#utility.yul\":23783:23813   */\n      swap4\n      pop\n        /* \"#utility.yul\":23856:23860   */\n      dup1\n        /* \"#utility.yul\":23846:23854   */\n      dup7\n        /* \"#utility.yul\":23842:23861   */\n      and\n        /* \"#utility.yul\":23835:23840   */\n      dup5\n        /* \"#utility.yul\":23832:23862   */\n      or\n        /* \"#utility.yul\":23822:23862   */\n      swap3\n      pop\n        /* \"#utility.yul\":23551:23868   */\n      pop\n      pop\n        /* \"#utility.yul\":23475:23868   */\n      swap4\n      swap3\n      pop\n      pop\n      pop\n      jump\t// out\n        /* \"#utility.yul\":23874:23934   */\n    tag_303:\n        /* \"#utility.yul\":23902:23905   */\n      0x00\n        /* \"#utility.yul\":23923:23928   */\n      dup2\n        /* \"#utility.yul\":23916:23928   */\n      swap1\n      pop\n        /* \"#utility.yul\":23874:23934   */\n      swap2\n      swap1\n      pop\n      jump\t// out\n        /* \"#utility.yul\":23940:24082   */\n    tag_304:\n        /* \"#utility.yul\":23990:23999   */\n      0x00\n        /* \"#utility.yul\":24023:24076   */\n      tag_544\n        /* \"#utility.yul\":24041:24075   */\n      tag_545\n        /* \"#utility.yul\":24050:24074   */\n      tag_546\n        /* \"#utility.yul\":24068:24073   */\n      dup5\n        /* \"#utility.yul\":24050:24074   */\n      tag_266\n      jump\t// in\n    tag_546:\n        /* \"#utility.yul\":24041:24075   */\n      tag_303\n      jump\t// in\n    tag_545:\n        /* \"#utility.yul\":24023:24076   */\n      tag_266\n      jump\t// in\n    tag_544:\n        /* \"#utility.yul\":24010:24076   */\n      swap1\n      pop\n        /* \"#utility.yul\":23940:24082   */\n      swap2\n      swap1\n      pop\n      jump\t// out\n        /* \"#utility.yul\":24088:24163   */\n    tag_305:\n        /* \"#utility.yul\":24131:24134   */\n      0x00\n        /* \"#utility.yul\":24152:24157   */\n      dup2\n        /* \"#utility.yul\":24145:24157   */\n      swap1\n      pop\n        /* \"#utility.yul\":24088:24163   */\n      swap2\n      swap1\n      pop\n      jump\t// out\n        /* \"#utility.yul\":24169:24438   */\n    tag_306:\n        /* \"#utility.yul\":24279:24318   */\n      tag_549\n        /* \"#utility.yul\":24310:24317   */\n      dup4\n        /* \"#utility.yul\":24279:24318   */\n      tag_304\n      jump\t// in\n    tag_549:\n        /* \"#utility.yul\":24340:24431   */\n      tag_550\n        /* \"#utility.yul\":24389:24430   */\n      tag_551\n        /* \"#utility.yul\":24413:24429   */\n      dup3\n        /* \"#utility.yul\":24389:24430   */\n      tag_305\n      jump\t// in\n    tag_551:\n        /* \"#utility.yul\":24381:24387   */\n      dup5\n        /* \"#utility.yul\":24374:24378   */\n      dup5\n        /* \"#utility.yul\":24368:24379   */\n      sload\n        /* \"#utility.yul\":24340:24431   */\n      tag_302\n      jump\t// in\n    tag_550:\n        /* \"#utility.yul\":24334:24338   */\n      dup3\n        /* \"#utility.yul\":24327:24432   */\n      sstore\n        /* \"#utility.yul\":24245:24438   */\n      pop\n        /* \"#utility.yul\":24169:24438   */\n      pop\n      pop\n      pop\n      jump\t// out\n        /* \"#utility.yul\":24444:24517   */\n    tag_307:\n        /* \"#utility.yul\":24489:24492   */\n      0x00\n        /* \"#utility.yul\":24444:24517   */\n      swap1\n      jump\t// out\n        /* \"#utility.yul\":24523:24712   */\n    tag_308:\n        /* \"#utility.yul\":24600:24632   */\n      tag_554\n      tag_307\n      jump\t// in\n    tag_554:\n        /* \"#utility.yul\":24641:24706   */\n      tag_555\n        /* \"#utility.yul\":24699:24705   */\n      dup2\n        /* \"#utility.yul\":24691:24697   */\n      dup5\n        /* \"#utility.yul\":24685:24689   */\n      dup5\n        /* \"#utility.yul\":24641:24706   */\n      tag_306\n      jump\t// in\n    tag_555:\n        /* \"#utility.yul\":24576:24712   */\n      pop\n        /* \"#utility.yul\":24523:24712   */\n      pop\n      pop\n      jump\t// out\n        /* \"#utility.yul\":24718:24904   */\n    tag_309:\n        /* \"#utility.yul\":24778:24898   */\n    tag_557:\n        /* \"#utility.yul\":24795:24798   */\n      dup2\n        /* \"#utility.yul\":24788:24793   */\n      dup2\n        /* \"#utility.yul\":24785:24799   */\n      lt\n        /* \"#utility.yul\":24778:24898   */\n      iszero\n      tag_559\n      jumpi\n        /* \"#utility.yul\":24849:24888   */\n      tag_560\n        /* \"#utility.yul\":24886:24887   */\n      0x00\n        /* \"#utility.yul\":24879:24884   */\n      dup3\n        /* \"#utility.yul\":24849:24888   */\n      tag_308\n      jump\t// in\n    tag_560:\n        /* \"#utility.yul\":24822:24823   */\n      0x01\n        /* \"#utility.yul\":24815:24820   */\n      dup2\n        /* \"#utility.yul\":24811:24824   */\n      add\n        /* \"#utility.yul\":24802:24824   */\n      swap1\n      pop\n        /* \"#utility.yul\":24778:24898   */\n      jump(tag_557)\n    tag_559:\n        /* \"#utility.yul\":24718:24904   */\n      pop\n      pop\n      jump\t// out\n        /* \"#utility.yul\":24910:25453   */\n    tag_310:\n        /* \"#utility.yul\":25011:25013   */\n      0x1f\n        /* \"#utility.yul\":25006:25009   */\n      dup3\n        /* \"#utility.yul\":25003:25014   */\n      gt\n        /* \"#utility.yul\":25000:25446   */\n      iszero\n      tag_562\n      jumpi\n        /* \"#utility.yul\":25045:25083   */\n      tag_563\n        /* \"#utility.yul\":25077:25082   */\n      dup2\n        /* \"#utility.yul\":25045:25083   */\n      tag_299\n      jump\t// in\n    tag_563:\n        /* \"#utility.yul\":25129:25158   */\n      tag_564\n        /* \"#utility.yul\":25147:25157   */\n      dup5\n        /* \"#utility.yul\":25129:25158   */\n      tag_300\n      jump\t// in\n    tag_564:\n        /* \"#utility.yul\":25119:25127   */\n      dup2\n        /* \"#utility.yul\":25115:25159   */\n      add\n        /* \"#utility.yul\":25312:25314   */\n      0x20\n        /* \"#utility.yul\":25300:25310   */\n      dup6\n        /* \"#utility.yul\":25297:25315   */\n      lt\n        /* \"#utility.yul\":25294:25343   */\n      iszero\n      tag_565\n      jumpi\n        /* \"#utility.yul\":25333:25341   */\n      dup2\n        /* \"#utility.yul\":25318:25341   */\n      swap1\n      pop\n        /* \"#utility.yul\":25294:25343   */\n    tag_565:\n        /* \"#utility.yul\":25356:25436   */\n      tag_566\n        /* \"#utility.yul\":25412:25434   */\n      tag_567\n        /* \"#utility.yul\":25430:25433   */\n      dup6\n        /* \"#utility.yul\":25412:25434   */\n      tag_300\n      jump\t// in\n    tag_567:\n        /* \"#utility.yul\":25402:25410   */\n      dup4\n        /* \"#utility.yul\":25398:25435   */\n      add\n        /* \"#utility.yul\":25385:25396   */\n      dup3\n        /* \"#utility.yul\":25356:25436   */\n      tag_309\n      jump\t// in\n    tag_566:\n        /* \"#utility.yul\":25015:25446   */\n      pop\n      pop\n        /* \"#utility.yul\":25000:25446   */\n    tag_562:\n        /* \"#utility.yul\":24910:25453   */\n      pop\n      pop\n      pop\n      jump\t// out\n        /* \"#utility.yul\":25459:25576   */\n    tag_311:\n        /* \"#utility.yul\":25513:25521   */\n      0x00\n        /* \"#utility.yul\":25563:25568   */\n      dup3\n        /* \"#utility.yul\":25557:25561   */\n      dup3\n        /* \"#utility.yul\":25553:25569   */\n      shr\n        /* \"#utility.yul\":25532:25569   */\n      swap1\n      pop\n        /* \"#utility.yul\":25459:25576   */\n      swap3\n      swap2\n      pop\n      pop\n      jump\t// out\n        /* \"#utility.yul\":25582:25751   */\n    tag_312:\n        /* \"#utility.yul\":25626:25632   */\n      0x00\n        /* \"#utility.yul\":25659:25710   */\n      tag_570\n        /* \"#utility.yul\":25707:25708   */\n      0x00\n        /* \"#utility.yul\":25703:25709   */\n      not\n        /* \"#utility.yul\":25695:25700   */\n      dup5\n        /* \"#utility.yul\":25692:25693   */\n      0x08\n        /* \"#utility.yul\":25688:25701   */\n      mul\n        /* \"#utility.yul\":25659:25710   */\n      tag_311\n      jump\t// in\n    tag_570:\n        /* \"#utility.yul\":25655:25711   */\n      not\n        /* \"#utility.yul\":25740:25744   */\n      dup1\n        /* \"#utility.yul\":25734:25738   */\n      dup4\n        /* \"#utility.yul\":25730:25745   */\n      and\n        /* \"#utility.yul\":25720:25745   */\n      swap2\n      pop\n        /* \"#utility.yul\":25633:25751   */\n      pop\n        /* \"#utility.yul\":25582:25751   */\n      swap3\n      swap2\n      pop\n      pop\n      jump\t// out\n        /* \"#utility.yul\":25756:26051   */\n    tag_313:\n        /* \"#utility.yul\":25832:25836   */\n      0x00\n        /* \"#utility.yul\":25978:26007   */\n      tag_572\n        /* \"#utility.yul\":26003:26006   */\n      dup4\n        /* \"#utility.yul\":25997:26001   */\n      dup4\n        /* \"#utility.yul\":25978:26007   */\n      tag_312\n      jump\t// in\n    tag_572:\n        /* \"#utility.yul\":25970:26007   */\n      swap2\n      pop\n        /* \"#utility.yul\":26040:26043   */\n      dup3\n        /* \"#utility.yul\":26037:26038   */\n      0x02\n        /* \"#utility.yul\":26033:26044   */\n      mul\n        /* \"#utility.yul\":26027:26031   */\n      dup3\n        /* \"#utility.yul\":26024:26045   */\n      or\n        /* \"#utility.yul\":26016:26045   */\n      swap1\n      pop\n        /* \"#utility.yul\":25756:26051   */\n      swap3\n      swap2\n      pop\n      pop\n      jump\t// out\n        /* \"#utility.yul\":26056:27451   */\n    tag_176:\n        /* \"#utility.yul\":26173:26210   */\n      tag_574\n        /* \"#utility.yul\":26206:26209   */\n      dup3\n        /* \"#utility.yul\":26173:26210   */\n      tag_270\n      jump\t// in\n    tag_574:\n        /* \"#utility.yul\":26275:26293   */\n      0xffffffffffffffff\n        /* \"#utility.yul\":26267:26273   */\n      dup2\n        /* \"#utility.yul\":26264:26294   */\n      gt\n        /* \"#utility.yul\":26261:26317   */\n      iszero\n      tag_575\n      jumpi\n        /* \"#utility.yul\":26297:26315   */\n      tag_576\n      tag_241\n      jump\t// in\n    tag_576:\n        /* \"#utility.yul\":26261:26317   */\n    tag_575:\n        /* \"#utility.yul\":26341:26379   */\n      tag_577\n        /* \"#utility.yul\":26373:26377   */\n      dup3\n        /* \"#utility.yul\":26367:26378   */\n      sload\n        /* \"#utility.yul\":26341:26379   */\n      tag_66\n      jump\t// in\n    tag_577:\n        /* \"#utility.yul\":26426:26493   */\n      tag_578\n        /* \"#utility.yul\":26486:26492   */\n      dup3\n        /* \"#utility.yul\":26478:26484   */\n      dup3\n        /* \"#utility.yul\":26472:26476   */\n      dup6\n        /* \"#utility.yul\":26426:26493   */\n      tag_310\n      jump\t// in\n    tag_578:\n        /* \"#utility.yul\":26520:26521   */\n      0x00\n        /* \"#utility.yul\":26544:26548   */\n      0x20\n        /* \"#utility.yul\":26531:26548   */\n      swap1\n      pop\n        /* \"#utility.yul\":26576:26578   */\n      0x1f\n        /* \"#utility.yul\":26568:26574   */\n      dup4\n        /* \"#utility.yul\":26565:26579   */\n      gt\n        /* \"#utility.yul\":26593:26594   */\n      0x01\n        /* \"#utility.yul\":26588:27206   */\n      dup2\n      eq\n      tag_580\n      jumpi\n        /* \"#utility.yul\":27250:27251   */\n      0x00\n        /* \"#utility.yul\":27267:27273   */\n      dup5\n        /* \"#utility.yul\":27264:27341   */\n      iszero\n      tag_581\n      jumpi\n        /* \"#utility.yul\":27316:27325   */\n      dup3\n        /* \"#utility.yul\":27311:27314   */\n      dup8\n        /* \"#utility.yul\":27307:27326   */\n      add\n        /* \"#utility.yul\":27301:27327   */\n      mload\n        /* \"#utility.yul\":27292:27327   */\n      swap1\n      pop\n        /* \"#utility.yul\":27264:27341   */\n    tag_581:\n        /* \"#utility.yul\":27367:27434   */\n      tag_582\n        /* \"#utility.yul\":27427:27433   */\n      dup6\n        /* \"#utility.yul\":27420:27425   */\n      dup3\n        /* \"#utility.yul\":27367:27434   */\n      tag_313\n      jump\t// in\n    tag_582:\n        /* \"#utility.yul\":27361:27365   */\n      dup7\n        /* \"#utility.yul\":27354:27435   */\n      sstore\n        /* \"#utility.yul\":27223:27445   */\n      pop\n        /* \"#utility.yul\":26558:27445   */\n      jump(tag_579)\n        /* \"#utility.yul\":26588:27206   */\n    tag_580:\n        /* \"#utility.yul\":26640:26644   */\n      0x1f\n        /* \"#utility.yul\":26636:26645   */\n      not\n        /* \"#utility.yul\":26628:26634   */\n      dup5\n        /* \"#utility.yul\":26624:26646   */\n      and\n        /* \"#utility.yul\":26674:26711   */\n      tag_583\n        /* \"#utility.yul\":26706:26710   */\n      dup7\n        /* \"#utility.yul\":26674:26711   */\n      tag_299\n      jump\t// in\n    tag_583:\n        /* \"#utility.yul\":26733:26734   */\n      0x00\n        /* \"#utility.yul\":26747:26955   */\n    tag_584:\n        /* \"#utility.yul\":26761:26768   */\n      dup3\n        /* \"#utility.yul\":26758:26759   */\n      dup2\n        /* \"#utility.yul\":26755:26769   */\n      lt\n        /* \"#utility.yul\":26747:26955   */\n      iszero\n      tag_586\n      jumpi\n        /* \"#utility.yul\":26840:26849   */\n      dup5\n        /* \"#utility.yul\":26835:26838   */\n      dup10\n        /* \"#utility.yul\":26831:26850   */\n      add\n        /* \"#utility.yul\":26825:26851   */\n      mload\n        /* \"#utility.yul\":26817:26823   */\n      dup3\n        /* \"#utility.yul\":26810:26852   */\n      sstore\n        /* \"#utility.yul\":26891:26892   */\n      0x01\n        /* \"#utility.yul\":26883:26889   */\n      dup3\n        /* \"#utility.yul\":26879:26893   */\n      add\n        /* \"#utility.yul\":26869:26893   */\n      swap2\n      pop\n        /* \"#utility.yul\":26938:26940   */\n      0x20\n        /* \"#utility.yul\":26927:26936   */\n      dup6\n        /* \"#utility.yul\":26923:26941   */\n      add\n        /* \"#utility.yul\":26910:26941   */\n      swap5\n      pop\n        /* \"#utility.yul\":26784:26788   */\n      0x20\n        /* \"#utility.yul\":26781:26782   */\n      dup2\n        /* \"#utility.yul\":26777:26789   */\n      add\n        /* \"#utility.yul\":26772:26789   */\n      swap1\n      pop\n        /* \"#utility.yul\":26747:26955   */\n      jump(tag_584)\n    tag_586:\n        /* \"#utility.yul\":26983:26989   */\n      dup7\n        /* \"#utility.yul\":26974:26981   */\n      dup4\n        /* \"#utility.yul\":26971:26990   */\n      lt\n        /* \"#utility.yul\":26968:27147   */\n      iszero\n      tag_587\n      jumpi\n        /* \"#utility.yul\":27041:27050   */\n      dup5\n        /* \"#utility.yul\":27036:27039   */\n      dup10\n        /* \"#utility.yul\":27032:27051   */\n      add\n        /* \"#utility.yul\":27026:27052   */\n      mload\n        /* \"#utility.yul\":27084:27132   */\n      tag_588\n        /* \"#utility.yul\":27126:27130   */\n      0x1f\n        /* \"#utility.yul\":27118:27124   */\n      dup10\n        /* \"#utility.yul\":27114:27131   */\n      and\n        /* \"#utility.yul\":27103:27112   */\n      dup3\n        /* \"#utility.yul\":27084:27132   */\n      tag_312\n      jump\t// in\n    tag_588:\n        /* \"#utility.yul\":27076:27082   */\n      dup4\n        /* \"#utility.yul\":27069:27133   */\n      sstore\n        /* \"#utility.yul\":26991:27147   */\n      pop\n        /* \"#utility.yul\":26968:27147   */\n    tag_587:\n        /* \"#utility.yul\":27193:27194   */\n      0x01\n        /* \"#utility.yul\":27189:27190   */\n      0x02\n        /* \"#utility.yul\":27181:27187   */\n      dup9\n        /* \"#utility.yul\":27177:27191   */\n      mul\n        /* \"#utility.yul\":27173:27195   */\n      add\n        /* \"#utility.yul\":27167:27171   */\n      dup9\n        /* \"#utility.yul\":27160:27196   */\n      sstore\n        /* \"#utility.yul\":26595:27206   */\n      pop\n      pop\n      pop\n        /* \"#utility.yul\":26558:27445   */\n    tag_579:\n      pop\n        /* \"#utility.yul\":26148:27451   */\n      pop\n      pop\n      pop\n        /* \"#utility.yul\":26056:27451   */\n      pop\n      pop\n      jump\t// out\n        /* \"#utility.yul\":27457:28081   */\n    tag_185:\n        /* \"#utility.yul\":27646:27650   */\n      0x00\n        /* \"#utility.yul\":27684:27686   */\n      0x60\n        /* \"#utility.yul\":27673:27682   */\n      dup3\n        /* \"#utility.yul\":27669:27687   */\n      add\n        /* \"#utility.yul\":27661:27687   */\n      swap1\n      pop\n        /* \"#utility.yul\":27733:27742   */\n      dup2\n        /* \"#utility.yul\":27727:27731   */\n      dup2\n        /* \"#utility.yul\":27723:27743   */\n      sub\n        /* \"#utility.yul\":27719:27720   */\n      0x00\n        /* \"#utility.yul\":27708:27717   */\n      dup4\n        /* \"#utility.yul\":27704:27721   */\n      add\n        /* \"#utility.yul\":27697:27744   */\n      mstore\n        /* \"#utility.yul\":27761:27839   */\n      tag_590\n        /* \"#utility.yul\":27834:27838   */\n      dup2\n        /* \"#utility.yul\":27825:27831   */\n      dup7\n        /* \"#utility.yul\":27761:27839   */\n      tag_273\n      jump\t// in\n    tag_590:\n        /* \"#utility.yul\":27753:27839   */\n      swap1\n      pop\n        /* \"#utility.yul\":27886:27895   */\n      dup2\n        /* \"#utility.yul\":27880:27884   */\n      dup2\n        /* \"#utility.yul\":27876:27896   */\n      sub\n        /* \"#utility.yul\":27871:27873   */\n      0x20\n        /* \"#utility.yul\":27860:27869   */\n      dup4\n        /* \"#utility.yul\":27856:27874   */\n      add\n        /* \"#utility.yul\":27849:27897   */\n      mstore\n        /* \"#utility.yul\":27914:27992   */\n      tag_591\n        /* \"#utility.yul\":27987:27991   */\n      dup2\n        /* \"#utility.yul\":27978:27984   */\n      dup6\n        /* \"#utility.yul\":27914:27992   */\n      tag_273\n      jump\t// in\n    tag_591:\n        /* \"#utility.yul\":27906:27992   */\n      swap1\n      pop\n        /* \"#utility.yul\":28002:28074   */\n      tag_592\n        /* \"#utility.yul\":28070:28072   */\n      0x40\n        /* \"#utility.yul\":28059:28068   */\n      dup4\n        /* \"#utility.yul\":28055:28073   */\n      add\n        /* \"#utility.yul\":28046:28052   */\n      dup5\n        /* \"#utility.yul\":28002:28074   */\n      tag_269\n      jump\t// in\n    tag_592:\n        /* \"#utility.yul\":27457:28081   */\n      swap5\n      swap4\n      pop\n      pop\n      pop\n      pop\n      jump\t// out\n        /* \"#utility.yul\":28087:28251   */\n    tag_314:\n        /* \"#utility.yul\":28227:28243   */\n      0x4944206973207265717569726564000000000000000000000000000000000000\n        /* \"#utility.yul\":28223:28224   */\n      0x00\n        /* \"#utility.yul\":28215:28221   */\n      dup3\n        /* \"#utility.yul\":28211:28225   */\n      add\n        /* \"#utility.yul\":28204:28244   */\n      mstore\n        /* \"#utility.yul\":28087:28251   */\n      pop\n      jump\t// out\n        /* \"#utility.yul\":28257:28623   */\n    tag_315:\n        /* \"#utility.yul\":28399:28402   */\n      0x00\n        /* \"#utility.yul\":28420:28487   */\n      tag_595\n        /* \"#utility.yul\":28484:28486   */\n      0x0e\n        /* \"#utility.yul\":28479:28482   */\n      dup4\n        /* \"#utility.yul\":28420:28487   */\n      tag_271\n      jump\t// in\n    tag_595:\n        /* \"#utility.yul\":28413:28487   */\n      swap2\n      pop\n        /* \"#utility.yul\":28496:28589   */\n      tag_596\n        /* \"#utility.yul\":28585:28588   */\n      dup3\n        /* \"#utility.yul\":28496:28589   */\n      tag_314\n      jump\t// in\n    tag_596:\n        /* \"#utility.yul\":28614:28616   */\n      0x20\n        /* \"#utility.yul\":28609:28612   */\n      dup3\n        /* \"#utility.yul\":28605:28617   */\n      add\n        /* \"#utility.yul\":28598:28617   */\n      swap1\n      pop\n        /* \"#utility.yul\":28257:28623   */\n      swap2\n      swap1\n      pop\n      jump\t// out\n        /* \"#utility.yul\":28629:29048   */\n    tag_189:\n        /* \"#utility.yul\":28795:28799   */\n      0x00\n        /* \"#utility.yul\":28833:28835   */\n      0x20\n        /* \"#utility.yul\":28822:28831   */\n      dup3\n        /* \"#utility.yul\":28818:28836   */\n      add\n        /* \"#utility.yul\":28810:28836   */\n      swap1\n      pop\n        /* \"#utility.yul\":28882:28891   */\n      dup2\n        /* \"#utility.yul\":28876:28880   */\n      dup2\n        /* \"#utility.yul\":28872:28892   */\n      sub\n        /* \"#utility.yul\":28868:28869   */\n      0x00\n        /* \"#utility.yul\":28857:28866   */\n      dup4\n        /* \"#utility.yul\":28853:28870   */\n      add\n        /* \"#utility.yul\":28846:28893   */\n      mstore\n        /* \"#utility.yul\":28910:29041   */\n      tag_598\n        /* \"#utility.yul\":29036:29040   */\n      dup2\n        /* \"#utility.yul\":28910:29041   */\n      tag_315\n      jump\t// in\n    tag_598:\n        /* \"#utility.yul\":28902:29041   */\n      swap1\n      pop\n        /* \"#utility.yul\":28629:29048   */\n      swap2\n      swap1\n      pop\n      jump\t// out\n        /* \"#utility.yul\":29054:29220   */\n    tag_316:\n        /* \"#utility.yul\":29194:29212   */\n      0x4e616d6520697320726571756972656400000000000000000000000000000000\n        /* \"#utility.yul\":29190:29191   */\n      0x00\n        /* \"#utility.yul\":29182:29188   */\n      dup3\n        /* \"#utility.yul\":29178:29192   */\n      add\n        /* \"#utility.yul\":29171:29213   */\n      mstore\n        /* \"#utility.yul\":29054:29220   */\n      pop\n      jump\t// out\n        /* \"#utility.yul\":29226:29592   */\n    tag_317:\n        /* \"#utility.yul\":29368:29371   */\n      0x00\n        /* \"#utility.yul\":29389:29456   */\n      tag_601\n        /* \"#utility.yul\":29453:29455   */\n      0x10\n        /* \"#utility.yul\":29448:29451   */\n      dup4\n        /* \"#utility.yul\":29389:29456   */\n      tag_271\n      jump\t// in\n    tag_601:\n        /* \"#utility.yul\":29382:29456   */\n      swap2\n      pop\n        /* \"#utility.yul\":29465:29558   */\n      tag_602\n        /* \"#utility.yul\":29554:29557   */\n      dup3\n        /* \"#utility.yul\":29465:29558   */\n      tag_316\n      jump\t// in\n    tag_602:\n        /* \"#utility.yul\":29583:29585   */\n      0x20\n        /* \"#utility.yul\":29578:29581   */\n      dup3\n        /* \"#utility.yul\":29574:29586   */\n      add\n        /* \"#utility.yul\":29567:29586   */\n      swap1\n      pop\n        /* \"#utility.yul\":29226:29592   */\n      swap2\n      swap1\n      pop\n      jump\t// out\n        /* \"#utility.yul\":29598:30017   */\n    tag_192:\n        /* \"#utility.yul\":29764:29768   */\n      0x00\n        /* \"#utility.yul\":29802:29804   */\n      0x20\n        /* \"#utility.yul\":29791:29800   */\n      dup3\n        /* \"#utility.yul\":29787:29805   */\n      add\n        /* \"#utility.yul\":29779:29805   */\n      swap1\n      pop\n        /* \"#utility.yul\":29851:29860   */\n      dup2\n        /* \"#utility.yul\":29845:29849   */\n      dup2\n        /* \"#utility.yul\":29841:29861   */\n      sub\n        /* \"#utility.yul\":29837:29838   */\n      0x00\n        /* \"#utility.yul\":29826:29835   */\n      dup4\n        /* \"#utility.yul\":29822:29839   */\n      add\n        /* \"#utility.yul\":29815:29862   */\n      mstore\n        /* \"#utility.yul\":29879:30010   */\n      tag_604\n        /* \"#utility.yul\":30005:30009   */\n      dup2\n        /* \"#utility.yul\":29879:30010   */\n      tag_317\n      jump\t// in\n    tag_604:\n        /* \"#utility.yul\":29871:30010   */\n      swap1\n      pop\n        /* \"#utility.yul\":29598:30017   */\n      swap2\n      swap1\n      pop\n      jump\t// out\n        /* \"#utility.yul\":30023:30193   */\n    tag_318:\n        /* \"#utility.yul\":30163:30185   */\n      0x4c6f636174696f6e206973207265717569726564000000000000000000000000\n        /* \"#utility.yul\":30159:30160   */\n      0x00\n        /* \"#utility.yul\":30151:30157   */\n      dup3\n        /* \"#utility.yul\":30147:30161   */\n      add\n        /* \"#utility.yul\":30140:30186   */\n      mstore\n        /* \"#utility.yul\":30023:30193   */\n      pop\n      jump\t// out\n        /* \"#utility.yul\":30199:30565   */\n    tag_319:\n        /* \"#utility.yul\":30341:30344   */\n      0x00\n        /* \"#utility.yul\":30362:30429   */\n      tag_607\n        /* \"#utility.yul\":30426:30428   */\n      0x14\n        /* \"#utility.yul\":30421:30424   */\n      dup4\n        /* \"#utility.yul\":30362:30429   */\n      tag_271\n      jump\t// in\n    tag_607:\n        /* \"#utility.yul\":30355:30429   */\n      swap2\n      pop\n        /* \"#utility.yul\":30438:30531   */\n      tag_608\n        /* \"#utility.yul\":30527:30530   */\n      dup3\n        /* \"#utility.yul\":30438:30531   */\n      tag_318\n      jump\t// in\n    tag_608:\n        /* \"#utility.yul\":30556:30558   */\n      0x20\n        /* \"#utility.yul\":30551:30554   */\n      dup3\n        /* \"#utility.yul\":30547:30559   */\n      add\n        /* \"#utility.yul\":30540:30559   */\n      swap1\n      pop\n        /* \"#utility.yul\":30199:30565   */\n      swap2\n      swap1\n      pop\n      jump\t// out\n        /* \"#utility.yul\":30571:30990   */\n    tag_195:\n        /* \"#utility.yul\":30737:30741   */\n      0x00\n        /* \"#utility.yul\":30775:30777   */\n      0x20\n        /* \"#utility.yul\":30764:30773   */\n      dup3\n        /* \"#utility.yul\":30760:30778   */\n      add\n        /* \"#utility.yul\":30752:30778   */\n      swap1\n      pop\n        /* \"#utility.yul\":30824:30833   */\n      dup2\n        /* \"#utility.yul\":30818:30822   */\n      dup2\n        /* \"#utility.yul\":30814:30834   */\n      sub\n        /* \"#utility.yul\":30810:30811   */\n      0x00\n        /* \"#utility.yul\":30799:30808   */\n      dup4\n        /* \"#utility.yul\":30795:30812   */\n      add\n        /* \"#utility.yul\":30788:30835   */\n      mstore\n        /* \"#utility.yul\":30852:30983   */\n      tag_610\n        /* \"#utility.yul\":30978:30982   */\n      dup2\n        /* \"#utility.yul\":30852:30983   */\n      tag_319\n      jump\t// in\n    tag_610:\n        /* \"#utility.yul\":30844:30983   */\n      swap1\n      pop\n        /* \"#utility.yul\":30571:30990   */\n      swap2\n      swap1\n      pop\n      jump\t// out\n        /* \"#utility.yul\":30996:31169   */\n    tag_320:\n        /* \"#utility.yul\":31136:31161   */\n      0x44657374696e6174696f6e206973207265717569726564000000000000000000\n        /* \"#utility.yul\":31132:31133   */\n      0x00\n        /* \"#utility.yul\":31124:31130   */\n      dup3\n        /* \"#utility.yul\":31120:31134   */\n      add\n        /* \"#utility.yul\":31113:31162   */\n      mstore\n        /* \"#utility.yul\":30996:31169   */\n      pop\n      jump\t// out\n        /* \"#utility.yul\":31175:31541   */\n    tag_321:\n        /* \"#utility.yul\":31317:31320   */\n      0x00\n        /* \"#utility.yul\":31338:31405   */\n      tag_613\n        /* \"#utility.yul\":31402:31404   */\n      0x17\n        /* \"#utility.yul\":31397:31400   */\n      dup4\n        /* \"#utility.yul\":31338:31405   */\n      tag_271\n      jump\t// in\n    tag_613:\n        /* \"#utility.yul\":31331:31405   */\n      swap2\n      pop\n        /* \"#utility.yul\":31414:31507   */\n      tag_614\n        /* \"#utility.yul\":31503:31506   */\n      dup3\n        /* \"#utility.yul\":31414:31507   */\n      tag_320\n      jump\t// in\n    tag_614:\n        /* \"#utility.yul\":31532:31534   */\n      0x20\n        /* \"#utility.yul\":31527:31530   */\n      dup3\n        /* \"#utility.yul\":31523:31535   */\n      add\n        /* \"#utility.yul\":31516:31535   */\n      swap1\n      pop\n        /* \"#utility.yul\":31175:31541   */\n      swap2\n      swap1\n      pop\n      jump\t// out\n        /* \"#utility.yul\":31547:31966   */\n    tag_198:\n        /* \"#utility.yul\":31713:31717   */\n      0x00\n        /* \"#utility.yul\":31751:31753   */\n      0x20\n        /* \"#utility.yul\":31740:31749   */\n      dup3\n        /* \"#utility.yul\":31736:31754   */\n      add\n        /* \"#utility.yul\":31728:31754   */\n      swap1\n      pop\n        /* \"#utility.yul\":31800:31809   */\n      dup2\n        /* \"#utility.yul\":31794:31798   */\n      dup2\n        /* \"#utility.yul\":31790:31810   */\n      sub\n        /* \"#utility.yul\":31786:31787   */\n      0x00\n        /* \"#utility.yul\":31775:31784   */\n      dup4\n        /* \"#utility.yul\":31771:31788   */\n      add\n        /* \"#utility.yul\":31764:31811   */\n      mstore\n        /* \"#utility.yul\":31828:31959   */\n      tag_616\n        /* \"#utility.yul\":31954:31958   */\n      dup2\n        /* \"#utility.yul\":31828:31959   */\n      tag_321\n      jump\t// in\n    tag_616:\n        /* \"#utility.yul\":31820:31959   */\n      swap1\n      pop\n        /* \"#utility.yul\":31547:31966   */\n      swap2\n      swap1\n      pop\n      jump\t// out\n        /* \"#utility.yul\":31972:32142   */\n    tag_322:\n        /* \"#utility.yul\":32112:32134   */\n      0x5175616e74697479206d757374206265203e2030000000000000000000000000\n        /* \"#utility.yul\":32108:32109   */\n      0x00\n        /* \"#utility.yul\":32100:32106   */\n      dup3\n        /* \"#utility.yul\":32096:32110   */\n      add\n        /* \"#utility.yul\":32089:32135   */\n      mstore\n        /* \"#utility.yul\":31972:32142   */\n      pop\n      jump\t// out\n        /* \"#utility.yul\":32148:32514   */\n    tag_323:\n        /* \"#utility.yul\":32290:32293   */\n      0x00\n        /* \"#utility.yul\":32311:32378   */\n      tag_619\n        /* \"#utility.yul\":32375:32377   */\n      0x14\n        /* \"#utility.yul\":32370:32373   */\n      dup4\n        /* \"#utility.yul\":32311:32378   */\n      tag_271\n      jump\t// in\n    tag_619:\n        /* \"#utility.yul\":32304:32378   */\n      swap2\n      pop\n        /* \"#utility.yul\":32387:32480   */\n      tag_620\n        /* \"#utility.yul\":32476:32479   */\n      dup3\n        /* \"#utility.yul\":32387:32480   */\n      tag_322\n      jump\t// in\n    tag_620:\n        /* \"#utility.yul\":32505:32507   */\n      0x20\n        /* \"#utility.yul\":32500:32503   */\n      dup3\n        /* \"#utility.yul\":32496:32508   */\n      add\n        /* \"#utility.yul\":32489:32508   */\n      swap1\n      pop\n        /* \"#utility.yul\":32148:32514   */\n      swap2\n      swap1\n      pop\n      jump\t// out\n        /* \"#utility.yul\":32520:32939   */\n    tag_201:\n        /* \"#utility.yul\":32686:32690   */\n      0x00\n        /* \"#utility.yul\":32724:32726   */\n      0x20\n        /* \"#utility.yul\":32713:32722   */\n      dup3\n        /* \"#utility.yul\":32709:32727   */\n      add\n        /* \"#utility.yul\":32701:32727   */\n      swap1\n      pop\n        /* \"#utility.yul\":32773:32782   */\n      dup2\n        /* \"#utility.yul\":32767:32771   */\n      dup2\n        /* \"#utility.yul\":32763:32783   */\n      sub\n        /* \"#utility.yul\":32759:32760   */\n      0x00\n        /* \"#utility.yul\":32748:32757   */\n      dup4\n        /* \"#utility.yul\":32744:32761   */\n      add\n        /* \"#utility.yul\":32737:32784   */\n      mstore\n        /* \"#utility.yul\":32801:32932   */\n      tag_622\n        /* \"#utility.yul\":32927:32931   */\n      dup2\n        /* \"#utility.yul\":32801:32932   */\n      tag_323\n      jump\t// in\n    tag_622:\n        /* \"#utility.yul\":32793:32932   */\n      swap1\n      pop\n        /* \"#utility.yul\":32520:32939   */\n      swap2\n      swap1\n      pop\n      jump\t// out\n        /* \"#utility.yul\":32945:33114   */\n    tag_324:\n        /* \"#utility.yul\":33085:33106   */\n      0x436f6d70616e7920697320726571756972656400000000000000000000000000\n        /* \"#utility.yul\":33081:33082   */\n      0x00\n        /* \"#utility.yul\":33073:33079   */\n      dup3\n        /* \"#utility.yul\":33069:33083   */\n      add\n        /* \"#utility.yul\":33062:33107   */\n      mstore\n        /* \"#utility.yul\":32945:33114   */\n      pop\n      jump\t// out\n        /* \"#utility.yul\":33120:33486   */\n    tag_325:\n        /* \"#utility.yul\":33262:33265   */\n      0x00\n        /* \"#utility.yul\":33283:33350   */\n      tag_625\n        /* \"#utility.yul\":33347:33349   */\n      0x13\n        /* \"#utility.yul\":33342:33345   */\n      dup4\n        /* \"#utility.yul\":33283:33350   */\n      tag_271\n      jump\t// in\n    tag_625:\n        /* \"#utility.yul\":33276:33350   */\n      swap2\n      pop\n        /* \"#utility.yul\":33359:33452   */\n      tag_626\n        /* \"#utility.yul\":33448:33451   */\n      dup3\n        /* \"#utility.yul\":33359:33452   */\n      tag_324\n      jump\t// in\n    tag_626:\n        /* \"#utility.yul\":33477:33479   */\n      0x20\n        /* \"#utility.yul\":33472:33475   */\n      dup3\n        /* \"#utility.yul\":33468:33480   */\n      add\n        /* \"#utility.yul\":33461:33480   */\n      swap1\n      pop\n        /* \"#utility.yul\":33120:33486   */\n      swap2\n      swap1\n      pop\n      jump\t// out\n        /* \"#utility.yul\":33492:33911   */\n    tag_204:\n        /* \"#utility.yul\":33658:33662   */\n      0x00\n        /* \"#utility.yul\":33696:33698   */\n      0x20\n        /* \"#utility.yul\":33685:33694   */\n      dup3\n        /* \"#utility.yul\":33681:33699   */\n      add\n        /* \"#utility.yul\":33673:33699   */\n      swap1\n      pop\n        /* \"#utility.yul\":33745:33754   */\n      dup2\n        /* \"#utility.yul\":33739:33743   */\n      dup2\n        /* \"#utility.yul\":33735:33755   */\n      sub\n        /* \"#utility.yul\":33731:33732   */\n      0x00\n        /* \"#utility.yul\":33720:33729   */\n      dup4\n        /* \"#utility.yul\":33716:33733   */\n      add\n        /* \"#utility.yul\":33709:33756   */\n      mstore\n        /* \"#utility.yul\":33773:33904   */\n      tag_628\n        /* \"#utility.yul\":33899:33903   */\n      dup2\n        /* \"#utility.yul\":33773:33904   */\n      tag_325\n      jump\t// in\n    tag_628:\n        /* \"#utility.yul\":33765:33904   */\n      swap1\n      pop\n        /* \"#utility.yul\":33492:33911   */\n      swap2\n      swap1\n      pop\n      jump\t// out\n        /* \"#utility.yul\":33917:34089   */\n    tag_326:\n        /* \"#utility.yul\":34057:34081   */\n      0x50726f6475637420616c72656164792065786973747300000000000000000000\n        /* \"#utility.yul\":34053:34054   */\n      0x00\n        /* \"#utility.yul\":34045:34051   */\n      dup3\n        /* \"#utility.yul\":34041:34055   */\n      add\n        /* \"#utility.yul\":34034:34082   */\n      mstore\n        /* \"#utility.yul\":33917:34089   */\n      pop\n      jump\t// out\n        /* \"#utility.yul\":34095:34461   */\n    tag_327:\n        /* \"#utility.yul\":34237:34240   */\n      0x00\n        /* \"#utility.yul\":34258:34325   */\n      tag_631\n        /* \"#utility.yul\":34322:34324   */\n      0x16\n        /* \"#utility.yul\":34317:34320   */\n      dup4\n        /* \"#utility.yul\":34258:34325   */\n      tag_271\n      jump\t// in\n    tag_631:\n        /* \"#utility.yul\":34251:34325   */\n      swap2\n      pop\n        /* \"#utility.yul\":34334:34427   */\n      tag_632\n        /* \"#utility.yul\":34423:34426   */\n      dup3\n        /* \"#utility.yul\":34334:34427   */\n      tag_326\n      jump\t// in\n    tag_632:\n        /* \"#utility.yul\":34452:34454   */\n      0x20\n        /* \"#utility.yul\":34447:34450   */\n      dup3\n        /* \"#utility.yul\":34443:34455   */\n      add\n        /* \"#utility.yul\":34436:34455   */\n      swap1\n      pop\n        /* \"#utility.yul\":34095:34461   */\n      swap2\n      swap1\n      pop\n      jump\t// out\n        /* \"#utility.yul\":34467:34886   */\n    tag_208:\n        /* \"#utility.yul\":34633:34637   */\n      0x00\n        /* \"#utility.yul\":34671:34673   */\n      0x20\n        /* \"#utility.yul\":34660:34669   */\n      dup3\n        /* \"#utility.yul\":34656:34674   */\n      add\n        /* \"#utility.yul\":34648:34674   */\n      swap1\n      pop\n        /* \"#utility.yul\":34720:34729   */\n      dup2\n        /* \"#utility.yul\":34714:34718   */\n      dup2\n        /* \"#utility.yul\":34710:34730   */\n      sub\n        /* \"#utility.yul\":34706:34707   */\n      0x00\n        /* \"#utility.yul\":34695:34704   */\n      dup4\n        /* \"#utility.yul\":34691:34708   */\n      add\n        /* \"#utility.yul\":34684:34731   */\n      mstore\n        /* \"#utility.yul\":34748:34879   */\n      tag_634\n        /* \"#utility.yul\":34874:34878   */\n      dup2\n        /* \"#utility.yul\":34748:34879   */\n      tag_327\n      jump\t// in\n    tag_634:\n        /* \"#utility.yul\":34740:34879   */\n      swap1\n      pop\n        /* \"#utility.yul\":34467:34886   */\n      swap2\n      swap1\n      pop\n      jump\t// out\n        /* \"#utility.yul\":34892:35106   */\n    tag_328:\n        /* \"#utility.yul\":35032:35098   */\n      0x50726f64756b2064696461667461726b616e20e2809420000000000000000000\n        /* \"#utility.yul\":35028:35029   */\n      0x00\n        /* \"#utility.yul\":35020:35026   */\n      dup3\n        /* \"#utility.yul\":35016:35030   */\n      add\n        /* \"#utility.yul\":35009:35099   */\n      mstore\n        /* \"#utility.yul\":34892:35106   */\n      pop\n      jump\t// out\n        /* \"#utility.yul\":35112:35514   */\n    tag_329:\n        /* \"#utility.yul\":35272:35275   */\n      0x00\n        /* \"#utility.yul\":35293:35378   */\n      tag_637\n        /* \"#utility.yul\":35375:35377   */\n      0x17\n        /* \"#utility.yul\":35370:35373   */\n      dup4\n        /* \"#utility.yul\":35293:35378   */\n      tag_284\n      jump\t// in\n    tag_637:\n        /* \"#utility.yul\":35286:35378   */\n      swap2\n      pop\n        /* \"#utility.yul\":35387:35480   */\n      tag_638\n        /* \"#utility.yul\":35476:35479   */\n      dup3\n        /* \"#utility.yul\":35387:35480   */\n      tag_328\n      jump\t// in\n    tag_638:\n        /* \"#utility.yul\":35505:35507   */\n      0x17\n        /* \"#utility.yul\":35500:35503   */\n      dup3\n        /* \"#utility.yul\":35496:35508   */\n      add\n        /* \"#utility.yul\":35489:35508   */\n      swap1\n      pop\n        /* \"#utility.yul\":35112:35514   */\n      swap2\n      swap1\n      pop\n      jump\t// out\n        /* \"#utility.yul\":35520:35687   */\n    tag_330:\n        /* \"#utility.yul\":35660:35679   */\n      0x20756e69742064696b6972696d206b6520000000000000000000000000000000\n        /* \"#utility.yul\":35656:35657   */\n      0x00\n        /* \"#utility.yul\":35648:35654   */\n      dup3\n        /* \"#utility.yul\":35644:35658   */\n      add\n        /* \"#utility.yul\":35637:35680   */\n      mstore\n        /* \"#utility.yul\":35520:35687   */\n      pop\n      jump\t// out\n        /* \"#utility.yul\":35693:36095   */\n    tag_331:\n        /* \"#utility.yul\":35853:35856   */\n      0x00\n        /* \"#utility.yul\":35874:35959   */\n      tag_641\n        /* \"#utility.yul\":35956:35958   */\n      0x11\n        /* \"#utility.yul\":35951:35954   */\n      dup4\n        /* \"#utility.yul\":35874:35959   */\n      tag_284\n      jump\t// in\n    tag_641:\n        /* \"#utility.yul\":35867:35959   */\n      swap2\n      pop\n        /* \"#utility.yul\":35968:36061   */\n      tag_642\n        /* \"#utility.yul\":36057:36060   */\n      dup3\n        /* \"#utility.yul\":35968:36061   */\n      tag_330\n      jump\t// in\n    tag_642:\n        /* \"#utility.yul\":36086:36088   */\n      0x11\n        /* \"#utility.yul\":36081:36084   */\n      dup3\n        /* \"#utility.yul\":36077:36089   */\n      add\n        /* \"#utility.yul\":36070:36089   */\n      swap1\n      pop\n        /* \"#utility.yul\":35693:36095   */\n      swap2\n      swap1\n      pop\n      jump\t// out\n        /* \"#utility.yul\":36101:36257   */\n    tag_332:\n        /* \"#utility.yul\":36241:36245   */\n      0x2028000000000000000000000000000000000000000000000000000000000000\n        /* \"#utility.yul\":36237:36238   */\n      0x00\n        /* \"#utility.yul\":36229:36235   */\n      dup3\n        /* \"#utility.yul\":36225:36239   */\n      add\n        /* \"#utility.yul\":36218:36246   */\n      mstore\n        /* \"#utility.yul\":36101:36257   */\n      pop\n      jump\t// out\n        /* \"#utility.yul\":36267:36683   */\n    tag_333:\n        /* \"#utility.yul\":36427:36430   */\n      0x00\n        /* \"#utility.yul\":36452:36536   */\n      tag_645\n        /* \"#utility.yul\":36534:36535   */\n      0x02\n        /* \"#utility.yul\":36529:36532   */\n      dup4\n        /* \"#utility.yul\":36452:36536   */\n      tag_284\n      jump\t// in\n    tag_645:\n        /* \"#utility.yul\":36445:36536   */\n      swap2\n      pop\n        /* \"#utility.yul\":36549:36642   */\n      tag_646\n        /* \"#utility.yul\":36638:36641   */\n      dup3\n        /* \"#utility.yul\":36549:36642   */\n      tag_332\n      jump\t// in\n    tag_646:\n        /* \"#utility.yul\":36671:36672   */\n      0x02\n        /* \"#utility.yul\":36666:36669   */\n      dup3\n        /* \"#utility.yul\":36662:36673   */\n      add\n        /* \"#utility.yul\":36655:36673   */\n      swap1\n      pop\n        /* \"#utility.yul\":36267:36683   */\n      swap2\n      swap1\n      pop\n      jump\t// out\n        /* \"#utility.yul\":36693:36844   */\n    tag_334:\n        /* \"#utility.yul\":36833:36836   */\n      0x2900000000000000000000000000000000000000000000000000000000000000\n        /* \"#utility.yul\":36829:36830   */\n      0x00\n        /* \"#utility.yul\":36821:36827   */\n      dup3\n        /* \"#utility.yul\":36817:36831   */\n      add\n        /* \"#utility.yul\":36810:36837   */\n      mstore\n        /* \"#utility.yul\":36693:36844   */\n      pop\n      jump\t// out\n        /* \"#utility.yul\":36850:37250   */\n    tag_335:\n        /* \"#utility.yul\":37010:37013   */\n      0x00\n        /* \"#utility.yul\":37031:37115   */\n      tag_649\n        /* \"#utility.yul\":37113:37114   */\n      0x01\n        /* \"#utility.yul\":37108:37111   */\n      dup4\n        /* \"#utility.yul\":37031:37115   */\n      tag_284\n      jump\t// in\n    tag_649:\n        /* \"#utility.yul\":37024:37115   */\n      swap2\n      pop\n        /* \"#utility.yul\":37124:37217   */\n      tag_650\n        /* \"#utility.yul\":37213:37216   */\n      dup3\n        /* \"#utility.yul\":37124:37217   */\n      tag_334\n      jump\t// in\n    tag_650:\n        /* \"#utility.yul\":37242:37243   */\n      0x01\n        /* \"#utility.yul\":37237:37240   */\n      dup3\n        /* \"#utility.yul\":37233:37244   */\n      add\n        /* \"#utility.yul\":37226:37244   */\n      swap1\n      pop\n        /* \"#utility.yul\":36850:37250   */\n      swap2\n      swap1\n      pop\n      jump\t// out\n        /* \"#utility.yul\":37256:38915   */\n    tag_222:\n        /* \"#utility.yul\":37888:37891   */\n      0x00\n        /* \"#utility.yul\":37910:38058   */\n      tag_652\n        /* \"#utility.yul\":38054:38057   */\n      dup3\n        /* \"#utility.yul\":37910:38058   */\n      tag_329\n      jump\t// in\n    tag_652:\n        /* \"#utility.yul\":37903:38058   */\n      swap2\n      pop\n        /* \"#utility.yul\":38075:38170   */\n      tag_653\n        /* \"#utility.yul\":38166:38169   */\n      dup3\n        /* \"#utility.yul\":38157:38163   */\n      dup7\n        /* \"#utility.yul\":38075:38170   */\n      tag_285\n      jump\t// in\n    tag_653:\n        /* \"#utility.yul\":38068:38170   */\n      swap2\n      pop\n        /* \"#utility.yul\":38187:38335   */\n      tag_654\n        /* \"#utility.yul\":38331:38334   */\n      dup3\n        /* \"#utility.yul\":38187:38335   */\n      tag_331\n      jump\t// in\n    tag_654:\n        /* \"#utility.yul\":38180:38335   */\n      swap2\n      pop\n        /* \"#utility.yul\":38352:38447   */\n      tag_655\n        /* \"#utility.yul\":38443:38446   */\n      dup3\n        /* \"#utility.yul\":38434:38440   */\n      dup6\n        /* \"#utility.yul\":38352:38447   */\n      tag_285\n      jump\t// in\n    tag_655:\n        /* \"#utility.yul\":38345:38447   */\n      swap2\n      pop\n        /* \"#utility.yul\":38464:38612   */\n      tag_656\n        /* \"#utility.yul\":38608:38611   */\n      dup3\n        /* \"#utility.yul\":38464:38612   */\n      tag_333\n      jump\t// in\n    tag_656:\n        /* \"#utility.yul\":38457:38612   */\n      swap2\n      pop\n        /* \"#utility.yul\":38629:38724   */\n      tag_657\n        /* \"#utility.yul\":38720:38723   */\n      dup3\n        /* \"#utility.yul\":38711:38717   */\n      dup5\n        /* \"#utility.yul\":38629:38724   */\n      tag_285\n      jump\t// in\n    tag_657:\n        /* \"#utility.yul\":38622:38724   */\n      swap2\n      pop\n        /* \"#utility.yul\":38741:38889   */\n      tag_658\n        /* \"#utility.yul\":38885:38888   */\n      dup3\n        /* \"#utility.yul\":38741:38889   */\n      tag_335\n      jump\t// in\n    tag_658:\n        /* \"#utility.yul\":38734:38889   */\n      swap2\n      pop\n        /* \"#utility.yul\":38906:38909   */\n      dup2\n        /* \"#utility.yul\":38899:38909   */\n      swap1\n      pop\n        /* \"#utility.yul\":37256:38915   */\n      swap5\n      swap4\n      pop\n      pop\n      pop\n      pop\n      jump\t// out\n        /* \"#utility.yul\":38921:39084   */\n    tag_336:\n        /* \"#utility.yul\":39061:39076   */\n      0x44616c616d205472616e73697400000000000000000000000000000000000000\n        /* \"#utility.yul\":39057:39058   */\n      0x00\n        /* \"#utility.yul\":39049:39055   */\n      dup3\n        /* \"#utility.yul\":39045:39059   */\n      add\n        /* \"#utility.yul\":39038:39077   */\n      mstore\n        /* \"#utility.yul\":38921:39084   */\n      pop\n      jump\t// out\n        /* \"#utility.yul\":39090:39456   */\n    tag_337:\n        /* \"#utility.yul\":39232:39235   */\n      0x00\n        /* \"#utility.yul\":39253:39320   */\n      tag_661\n        /* \"#utility.yul\":39317:39319   */\n      0x0d\n        /* \"#utility.yul\":39312:39315   */\n      dup4\n        /* \"#utility.yul\":39253:39320   */\n      tag_271\n      jump\t// in\n    tag_661:\n        /* \"#utility.yul\":39246:39320   */\n      swap2\n      pop\n        /* \"#utility.yul\":39329:39422   */\n      tag_662\n        /* \"#utility.yul\":39418:39421   */\n      dup3\n        /* \"#utility.yul\":39329:39422   */\n      tag_336\n      jump\t// in\n    tag_662:\n        /* \"#utility.yul\":39447:39449   */\n      0x20\n        /* \"#utility.yul\":39442:39445   */\n      dup3\n        /* \"#utility.yul\":39438:39450   */\n      add\n        /* \"#utility.yul\":39431:39450   */\n      swap1\n      pop\n        /* \"#utility.yul\":39090:39456   */\n      swap2\n      swap1\n      pop\n      jump\t// out\n        /* \"#utility.yul\":39462:40798   */\n    tag_230:\n        /* \"#utility.yul\":39848:39852   */\n      0x00\n        /* \"#utility.yul\":39886:39889   */\n      0xc0\n        /* \"#utility.yul\":39875:39884   */\n      dup3\n        /* \"#utility.yul\":39871:39890   */\n      add\n        /* \"#utility.yul\":39863:39890   */\n      swap1\n      pop\n        /* \"#utility.yul\":39936:39945   */\n      dup2\n        /* \"#utility.yul\":39930:39934   */\n      dup2\n        /* \"#utility.yul\":39926:39946   */\n      sub\n        /* \"#utility.yul\":39922:39923   */\n      0x00\n        /* \"#utility.yul\":39911:39920   */\n      dup4\n        /* \"#utility.yul\":39907:39924   */\n      add\n        /* \"#utility.yul\":39900:39947   */\n      mstore\n        /* \"#utility.yul\":39964:40042   */\n      tag_664\n        /* \"#utility.yul\":40037:40041   */\n      dup2\n        /* \"#utility.yul\":40028:40034   */\n      dup9\n        /* \"#utility.yul\":39964:40042   */\n      tag_273\n      jump\t// in\n    tag_664:\n        /* \"#utility.yul\":39956:40042   */\n      swap1\n      pop\n        /* \"#utility.yul\":40089:40098   */\n      dup2\n        /* \"#utility.yul\":40083:40087   */\n      dup2\n        /* \"#utility.yul\":40079:40099   */\n      sub\n        /* \"#utility.yul\":40074:40076   */\n      0x20\n        /* \"#utility.yul\":40063:40072   */\n      dup4\n        /* \"#utility.yul\":40059:40077   */\n      add\n        /* \"#utility.yul\":40052:40100   */\n      mstore\n        /* \"#utility.yul\":40117:40195   */\n      tag_665\n        /* \"#utility.yul\":40190:40194   */\n      dup2\n        /* \"#utility.yul\":40181:40187   */\n      dup8\n        /* \"#utility.yul\":40117:40195   */\n      tag_273\n      jump\t// in\n    tag_665:\n        /* \"#utility.yul\":40109:40195   */\n      swap1\n      pop\n        /* \"#utility.yul\":40242:40251   */\n      dup2\n        /* \"#utility.yul\":40236:40240   */\n      dup2\n        /* \"#utility.yul\":40232:40252   */\n      sub\n        /* \"#utility.yul\":40227:40229   */\n      0x40\n        /* \"#utility.yul\":40216:40225   */\n      dup4\n        /* \"#utility.yul\":40212:40230   */\n      add\n        /* \"#utility.yul\":40205:40253   */\n      mstore\n        /* \"#utility.yul\":40270:40348   */\n      tag_666\n        /* \"#utility.yul\":40343:40347   */\n      dup2\n        /* \"#utility.yul\":40334:40340   */\n      dup7\n        /* \"#utility.yul\":40270:40348   */\n      tag_273\n      jump\t// in\n    tag_666:\n        /* \"#utility.yul\":40262:40348   */\n      swap1\n      pop\n        /* \"#utility.yul\":40358:40430   */\n      tag_667\n        /* \"#utility.yul\":40426:40428   */\n      0x60\n        /* \"#utility.yul\":40415:40424   */\n      dup4\n        /* \"#utility.yul\":40411:40429   */\n      add\n        /* \"#utility.yul\":40402:40408   */\n      dup6\n        /* \"#utility.yul\":40358:40430   */\n      tag_269\n      jump\t// in\n    tag_667:\n        /* \"#utility.yul\":40478:40487   */\n      dup2\n        /* \"#utility.yul\":40472:40476   */\n      dup2\n        /* \"#utility.yul\":40468:40488   */\n      sub\n        /* \"#utility.yul\":40462:40465   */\n      0x80\n        /* \"#utility.yul\":40451:40460   */\n      dup4\n        /* \"#utility.yul\":40447:40466   */\n      add\n        /* \"#utility.yul\":40440:40489   */\n      mstore\n        /* \"#utility.yul\":40506:40584   */\n      tag_668\n        /* \"#utility.yul\":40579:40583   */\n      dup2\n        /* \"#utility.yul\":40570:40576   */\n      dup5\n        /* \"#utility.yul\":40506:40584   */\n      tag_273\n      jump\t// in\n    tag_668:\n        /* \"#utility.yul\":40498:40584   */\n      swap1\n      pop\n        /* \"#utility.yul\":40632:40641   */\n      dup2\n        /* \"#utility.yul\":40626:40630   */\n      dup2\n        /* \"#utility.yul\":40622:40642   */\n      sub\n        /* \"#utility.yul\":40616:40619   */\n      0xa0\n        /* \"#utility.yul\":40605:40614   */\n      dup4\n        /* \"#utility.yul\":40601:40620   */\n      add\n        /* \"#utility.yul\":40594:40643   */\n      mstore\n        /* \"#utility.yul\":40660:40791   */\n      tag_669\n        /* \"#utility.yul\":40786:40790   */\n      dup2\n        /* \"#utility.yul\":40660:40791   */\n      tag_337\n      jump\t// in\n    tag_669:\n        /* \"#utility.yul\":40652:40791   */\n      swap1\n      pop\n        /* \"#utility.yul\":39462:40798   */\n      swap7\n      swap6\n      pop\n      pop\n      pop\n      pop\n      pop\n      pop\n      jump\t// out\n        /* \"#utility.yul\":40804:40984   */\n    tag_338:\n        /* \"#utility.yul\":40852:40929   */\n      0x4e487b7100000000000000000000000000000000000000000000000000000000\n        /* \"#utility.yul\":40849:40850   */\n      0x00\n        /* \"#utility.yul\":40842:40930   */\n      mstore\n        /* \"#utility.yul\":40949:40953   */\n      0x11\n        /* \"#utility.yul\":40946:40947   */\n      0x04\n        /* \"#utility.yul\":40939:40954   */\n      mstore\n        /* \"#utility.yul\":40973:40977   */\n      0x24\n        /* \"#utility.yul\":40970:40971   */\n      0x00\n        /* \"#utility.yul\":40963:40978   */\n      revert\n        /* \"#utility.yul\":40990:41223   */\n    tag_236:\n        /* \"#utility.yul\":41029:41032   */\n      0x00\n        /* \"#utility.yul\":41052:41076   */\n      tag_672\n        /* \"#utility.yul\":41070:41075   */\n      dup3\n        /* \"#utility.yul\":41052:41076   */\n      tag_266\n      jump\t// in\n    tag_672:\n        /* \"#utility.yul\":41043:41076   */\n      swap2\n      pop\n        /* \"#utility.yul\":41098:41164   */\n      0xffffffffffffffffffffffffffffffffffffffffffffffffffffffffffffffff\n        /* \"#utility.yul\":41091:41096   */\n      dup3\n        /* \"#utility.yul\":41088:41165   */\n      sub\n        /* \"#utility.yul\":41085:41188   */\n      tag_673\n      jumpi\n        /* \"#utility.yul\":41168:41186   */\n      tag_674\n      tag_338\n      jump\t// in\n    tag_674:\n        /* \"#utility.yul\":41085:41188   */\n    tag_673:\n        /* \"#utility.yul\":41215:41216   */\n      0x01\n        /* \"#utility.yul\":41208:41213   */\n      dup3\n        /* \"#utility.yul\":41204:41217   */\n      add\n        /* \"#utility.yul\":41197:41217   */\n      swap1\n      pop\n        /* \"#utility.yul\":40990:41223   */\n      swap2\n      swap1\n      pop\n      jump\t// out\n        /* \"#utility.yul\":41229:41409   */\n    tag_339:\n        /* \"#utility.yul\":41277:41354   */\n      0x4e487b7100000000000000000000000000000000000000000000000000000000\n        /* \"#utility.yul\":41274:41275   */\n      0x00\n        /* \"#utility.yul\":41267:41355   */\n      mstore\n        /* \"#utility.yul\":41374:41378   */\n      0x12\n        /* \"#utility.yul\":41371:41372   */\n      0x04\n        /* \"#utility.yul\":41364:41379   */\n      mstore\n        /* \"#utility.yul\":41398:41402   */\n      0x24\n        /* \"#utility.yul\":41395:41396   */\n      0x00\n        /* \"#utility.yul\":41388:41403   */\n      revert\n        /* \"#utility.yul\":41415:41600   */\n    tag_238:\n        /* \"#utility.yul\":41455:41456   */\n      0x00\n        /* \"#utility.yul\":41472:41492   */\n      tag_677\n        /* \"#utility.yul\":41490:41491   */\n      dup3\n        /* \"#utility.yul\":41472:41492   */\n      tag_266\n      jump\t// in\n    tag_677:\n        /* \"#utility.yul\":41467:41492   */\n      swap2\n      pop\n        /* \"#utility.yul\":41506:41526   */\n      tag_678\n        /* \"#utility.yul\":41524:41525   */\n      dup4\n        /* \"#utility.yul\":41506:41526   */\n      tag_266\n      jump\t// in\n    tag_678:\n        /* \"#utility.yul\":41501:41526   */\n      swap3\n      pop\n        /* \"#utility.yul\":41545:41546   */\n      dup3\n        /* \"#utility.yul\":41535:41570   */\n      tag_679\n      jumpi\n        /* \"#utility.yul\":41550:41568   */\n      tag_680\n      tag_339\n      jump\t// in\n    tag_680:\n        /* \"#utility.yul\":41535:41570   */\n    tag_679:\n        /* \"#utility.yul\":41592:41593   */\n      dup3\n        /* \"#utility.yul\":41589:41590   */\n      dup3\n        /* \"#utility.yul\":41585:41594   */\n      div\n        /* \"#utility.yul\":41580:41594   */\n      swap1\n      pop\n        /* \"#utility.yul\":41415:41600   */\n      swap3\n      swap2\n      pop\n      pop\n      jump\t// out\n        /* \"#utility.yul\":41606:41800   */\n    tag_246:\n        /* \"#utility.yul\":41646:41650   */\n      0x00\n        /* \"#utility.yul\":41666:41686   */\n      tag_682\n        /* \"#utility.yul\":41684:41685   */\n      dup3\n        /* \"#utility.yul\":41666:41686   */\n      tag_266\n      jump\t// in\n    tag_682:\n        /* \"#utility.yul\":41661:41686   */\n      swap2\n      pop\n        /* \"#utility.yul\":41700:41720   */\n      tag_683\n        /* \"#utility.yul\":41718:41719   */\n      dup4\n        /* \"#utility.yul\":41700:41720   */\n      tag_266\n      jump\t// in\n    tag_683:\n        /* \"#utility.yul\":41695:41720   */\n      swap3\n      pop\n        /* \"#utility.yul\":41744:41745   */\n      dup3\n        /* \"#utility.yul\":41741:41742   */\n      dup3\n        /* \"#utility.yul\":41737:41746   */\n      sub\n        /* \"#utility.yul\":41729:41746   */\n      swap1\n      pop\n        /* \"#utility.yul\":41768:41769   */\n      dup2\n        /* \"#utility.yul\":41762:41766   */\n      dup2\n        /* \"#utility.yul\":41759:41770   */\n      gt\n        /* \"#utility.yul\":41756:41793   */\n      iszero\n      tag_684\n      jumpi\n        /* \"#utility.yul\":41773:41791   */\n      tag_685\n      tag_338\n      jump\t// in\n    tag_685:\n        /* \"#utility.yul\":41756:41793   */\n    tag_684:\n        /* \"#utility.yul\":41606:41800   */\n      swap3\n      swap2\n      pop\n      pop\n      jump\t// out\n        /* \"#utility.yul\":41806:41982   */\n    tag_248:\n        /* \"#utility.yul\":41838:41839   */\n      0x00\n        /* \"#utility.yul\":41855:41875   */\n      tag_687\n        /* \"#utility.yul\":41873:41874   */\n      dup3\n        /* \"#utility.yul\":41855:41875   */\n      tag_266\n      jump\t// in\n    tag_687:\n        /* \"#utility.yul\":41850:41875   */\n      swap2\n      pop\n        /* \"#utility.yul\":41889:41909   */\n      tag_688\n        /* \"#utility.yul\":41907:41908   */\n      dup4\n        /* \"#utility.yul\":41889:41909   */\n      tag_266\n      jump\t// in\n    tag_688:\n        /* \"#utility.yul\":41884:41909   */\n      swap3\n      pop\n        /* \"#utility.yul\":41928:41929   */\n      dup3\n        /* \"#utility.yul\":41918:41953   */\n      tag_689\n      jumpi\n        /* \"#utility.yul\":41933:41951   */\n      tag_690\n      tag_339\n      jump\t// in\n    tag_690:\n        /* \"#utility.yul\":41918:41953   */\n    tag_689:\n        /* \"#utility.yul\":41974:41975   */\n      dup3\n        /* \"#utility.yul\":41971:41972   */\n      dup3\n        /* \"#utility.yul\":41967:41976   */\n      mod\n        /* \"#utility.yul\":41962:41976   */\n      swap1\n      pop\n        /* \"#utility.yul\":41806:41982   */\n      swap3\n      swap2\n      pop\n      pop\n      jump\t// out\n        /* \"#utility.yul\":41988:42179   */\n    tag_250:\n        /* \"#utility.yul\":42028:42031   */\n      0x00\n        /* \"#utility.yul\":42047:42067   */\n      tag_692\n        /* \"#utility.yul\":42065:42066   */\n      dup3\n        /* \"#utility.yul\":42047:42067   */\n      tag_266\n      jump\t// in\n    tag_692:\n        /* \"#utility.yul\":42042:42067   */\n      swap2\n      pop\n        /* \"#utility.yul\":42081:42101   */\n      tag_693\n        /* \"#utility.yul\":42099:42100   */\n      dup4\n        /* \"#utility.yul\":42081:42101   */\n      tag_266\n      jump\t// in\n    tag_693:\n        /* \"#utility.yul\":42076:42101   */\n      swap3\n      pop\n        /* \"#utility.yul\":42124:42125   */\n      dup3\n        /* \"#utility.yul\":42121:42122   */\n      dup3\n        /* \"#utility.yul\":42117:42126   */\n      add\n        /* \"#utility.yul\":42110:42126   */\n      swap1\n      pop\n        /* \"#utility.yul\":42145:42148   */\n      dup1\n        /* \"#utility.yul\":42142:42143   */\n      dup3\n        /* \"#utility.yul\":42139:42149   */\n      gt\n        /* \"#utility.yul\":42136:42172   */\n      iszero\n      tag_694\n      jumpi\n        /* \"#utility.yul\":42152:42170   */\n      tag_695\n      tag_338\n      jump\t// in\n    tag_695:\n        /* \"#utility.yul\":42136:42172   */\n    tag_694:\n        /* \"#utility.yul\":41988:42179   */\n      swap3\n      swap2\n      pop\n      pop\n      jump\t// out\n\n    auxdata: 0xa2646970667358221220574e5c9f0a4d88beaf640a97f5a97dd2459c5853d92d3c5e8ad8fb9cfae65f8064736f6c63430008140033\n}\n",
				"bytecode": {
					"linkReferences": {},
					"object": "608060405234801561000f575f80fd5b50612a018061001d5f395ff3fe608060405234801561000f575f80fd5b5060043610610086575f3560e01c806368111cce1161005957806368111cce146101295780638addc05114610162578063d7a2ab9b14610192578063dadf0b73146101ae57610086565b80633036451e1461008a578063416eb9f4146100bd5780634a348da9146100ed578063663c01af1461010b575b5f80fd5b6100a4600480360381019061009f919061177f565b6101ca565b6040516100b49493929190611862565b60405180910390f35b6100d760048036038101906100d291906118ba565b6104c9565b6040516100e49190611901565b60405180910390f35b6100f5610561565b6040516101029190611901565b60405180910390f35b61011361056d565b6040516101209190611a1d565b60405180910390f35b610143600480360381019061013e91906118ba565b610641565b6040516101599a99989796959493929190611a3d565b60405180910390f35b61017c600480360381019061017791906118ba565b610b65565b6040516101899190611b22565b60405180910390f35b6101ac60048036038101906101a79190611b3b565b610b9a565b005b6101c860048036038101906101c39190611bdf565b610f81565b005b5f6060806060855f816040516101e09190611d5e565b9081526020016040518091039020600a015f9054906101000a900460ff1661023d576040517f08c379a000000000000000000000000000000000000000000000000000000000815260040161023490611dbe565b60405180910390fd5b60018760405161024d9190611d5e565b90815260200160405180910390208054905086106102a0576040517f08c379a000000000000000000000000000000000000000000000000000000000815260040161029790611e26565b60405180910390fd5b5f6001886040516102b19190611d5e565b908152602001604051809103902087815481106102d1576102d0611e44565b5b905f5260205f2090600402016040518060800160405290815f820154815260200160018201805461030190611e9e565b80601f016020809104026020016040519081016040528092919081815260200182805461032d90611e9e565b80156103785780601f1061034f57610100808354040283529160200191610378565b820191905f5260205f20905b81548152906001019060200180831161035b57829003601f168201915b5050505050815260200160028201805461039190611e9e565b80601f01602080910402602001604051908101604052809291908181526020018280546103bd90611e9e565b80156104085780601f106103df57610100808354040283529160200191610408565b820191905f5260205f20905b8154815290600101906020018083116103eb57829003601f168201915b5050505050815260200160038201805461042190611e9e565b80601f016020809104026020016040519081016040528092919081815260200182805461044d90611e9e565b80156104985780601f1061046f57610100808354040283529160200191610498565b820191905f5260205f20905b81548152906001019060200180831161047b57829003601f168201915b5050505050815250509050805f01518160200151826040015183606001519550955095509550505092959194509250565b5f815f816040516104da9190611d5e565b9081526020016040518091039020600a015f9054906101000a900460ff16610537576040517f08c379a000000000000000000000000000000000000000000000000000000000815260040161052e90611dbe565b60405180910390fd5b6001836040516105479190611d5e565b908152602001604051809103902080549050915050919050565b5f600280549050905090565b60606002805480602002602001604051908101604052809291908181526020015f905b82821015610638578382905f5260205f200180546105ad90611e9e565b80601f01602080910402602001604051908101604052809291908181526020018280546105d990611e9e565b80156106245780601f106105fb57610100808354040283529160200191610624565b820191905f5260205f20905b81548152906001019060200180831161060757829003601f168201915b505050505081526020019060010190610590565b50505050905090565b6060806060805f60608060605f808a5f8160405161065f9190611d5e565b9081526020016040518091039020600a015f9054906101000a900460ff166106bc576040517f08c379a00000000000000000000000000000000000000000000000000000000081526004016106b390611dbe565b60405180910390fd5b5f808d6040516106cc9190611d5e565b9081526020016040518091039020604051806101600160405290815f820180546106f590611e9e565b80601f016020809104026020016040519081016040528092919081815260200182805461072190611e9e565b801561076c5780601f106107435761010080835404028352916020019161076c565b820191905f5260205f20905b81548152906001019060200180831161074f57829003601f168201915b5050505050815260200160018201805461078590611e9e565b80601f01602080910402602001604051908101604052809291908181526020018280546107b190611e9e565b80156107fc5780601f106107d3576101008083540402835291602001916107fc565b820191905f5260205f20905b8154815290600101906020018083116107df57829003601f168201915b5050505050815260200160028201805461081590611e9e565b80601f016020809104026020016040519081016040528092919081815260200182805461084190611e9e565b801561088c5780601f106108635761010080835404028352916020019161088c565b820191905f5260205f20905b81548152906001019060200180831161086f57829003601f168201915b505050505081526020016003820180546108a590611e9e565b80601f01602080910402602001604051908101604052809291908181526020018280546108d190611e9e565b801561091c5780601f106108f35761010080835404028352916020019161091c565b820191905f5260205f20905b8154815290600101906020018083116108ff57829003601f168201915b505050505081526020016004820154815260200160058201805461093f90611e9e565b80601f016020809104026020016040519081016040528092919081815260200182805461096b90611e9e565b80156109b65780601f1061098d576101008083540402835291602001916109b6565b820191905f5260205f20905b81548152906001019060200180831161099957829003601f168201915b505050505081526020016006820180546109cf90611e9e565b80601f01602080910402602001604051908101604052809291908181526020018280546109fb90611e9e565b8015610a465780601f10610a1d57610100808354040283529160200191610a46565b820191905f5260205f20905b815481529060010190602001808311610a2957829003601f168201915b50505050508152602001600782018054610a5f90611e9e565b80601f0160208091040260200160405190810160405280929190818152602001828054610a8b90611e9e565b8015610ad65780601f10610aad57610100808354040283529160200191610ad6565b820191905f5260205f20905b815481529060010190602001808311610ab957829003601f168201915b505050505081526020016008820154815260200160098201548152602001600a82015f9054906101000a900460ff1615151515815250509050805f015181602001518260400151836060015184608001518560a001518660c001518760e001518861010001518961012001519b509b509b509b509b509b509b509b509b509b5050509193959799509193959799565b5f8082604051610b759190611d5e565b9081526020016040518091039020600a015f9054906101000a900460ff169050919050565b825f81604051610baa9190611d5e565b9081526020016040518091039020600a015f9054906101000a900460ff16610c07576040517f08c379a0000000000000000000000000000000000000000000000000000000008152600401610bfe90611dbe565b60405180910390fd5b5f83511180610c1657505f8251115b610c55576040517f08c379a0000000000000000000000000000000000000000000000000000000008152600401610c4c90611f18565b60405180910390fd5b5f8085604051610c659190611d5e565b908152602001604051809103902090505f4290505f80865111610d1257826002018054610c9190611e9e565b80601f0160208091040260200160405190810160405280929190818152602001828054610cbd90611e9e565b8015610d085780601f10610cdf57610100808354040283529160200191610d08565b820191905f5260205f20905b815481529060010190602001808311610ceb57829003601f168201915b5050505050610d14565b855b90505f80865111610daf57836007018054610d2e90611e9e565b80601f0160208091040260200160405190810160405280929190818152602001828054610d5a90611e9e565b8015610da55780601f10610d7c57610100808354040283529160200191610da5565b820191905f5260205f20905b815481529060010190602001808311610d8857829003601f168201915b5050505050610db1565b855b905060605f8851118015610dc557505f8751115b15610df3578787604051602001610ddd929190611fca565b6040516020818303038152906040529050610e47565b5f88511115610e235787604051602001610e0d9190612003565b6040516020818303038152906040529050610e46565b86604051602001610e34919061206e565b60405160208183030381529060405290505b5b82856002019081610e58919061222c565b5081856007019081610e6a919061222c565b50838560090181905550600189604051610e849190611d5e565b9081526020016040518091039020604051806080016040528086815260200185815260200184815260200183815250908060018154018082558091505060019003905f5260205f2090600402015f909190919091505f820151815f01556020820151816001019081610ef6919061222c565b506040820151816002019081610f0c919061222c565b506060820151816003019081610f22919061222c565b50505088604051610f339190611d5e565b60405180910390207fa5dc66eb6128a83f690ed648445a97394e2b66104797ce5bc44e97dd6353310a848487604051610f6e939291906122fb565b60405180910390a2505050505050505050565b5f875111610fc4576040517f08c379a0000000000000000000000000000000000000000000000000000000008152600401610fbb90612388565b60405180910390fd5b5f865111611007576040517f08c379a0000000000000000000000000000000000000000000000000000000008152600401610ffe906123f0565b60405180910390fd5b5f85511161104a576040517f08c379a000000000000000000000000000000000000000000000000000000000815260040161104190612458565b60405180910390fd5b5f84511161108d576040517f08c379a0000000000000000000000000000000000000000000000000000000008152600401611084906124c0565b60405180910390fd5b5f83116110cf576040517f08c379a00000000000000000000000000000000000000000000000000000000081526004016110c690612528565b60405180910390fd5b5f825111611112576040517f08c379a000000000000000000000000000000000000000000000000000000000815260040161110990612590565b60405180910390fd5b5f876040516111219190611d5e565b9081526020016040518091039020600a015f9054906101000a900460ff161561117f576040517f08c379a0000000000000000000000000000000000000000000000000000000008152600401611176906125f8565b60405180910390fd5b5f4290506040518061016001604052808981526020018881526020018781526020018681526020018581526020018481526020018381526020016040518060400160405280600d81526020017f44616c616d205472616e736974000000000000000000000000000000000000008152508152602001828152602001828152602001600115158152505f896040516112169190611d5e565b90815260200160405180910390205f820151815f019081611237919061222c565b50602082015181600101908161124d919061222c565b506040820151816002019081611263919061222c565b506060820151816003019081611279919061222c565b506080820151816004015560a0820151816005019081611299919061222c565b5060c08201518160060190816112af919061222c565b5060e08201518160070190816112c5919061222c565b506101008201518160080155610120820151816009015561014082015181600a015f6101000a81548160ff021916908315150217905550905050600288908060018154018082558091505060019003905f5260205f20015f909190919091509081611330919061222c565b505f61133b856114a6565b868560405160200161134f9392919061273e565b60405160208183030381529060405290506001896040516113709190611d5e565b908152602001604051809103902060405180608001604052808481526020018981526020016040518060400160405280600d81526020017f44616c616d205472616e73697400000000000000000000000000000000000000815250815260200183815250908060018154018082558091505060019003905f5260205f2090600402015f909190919091505f820151815f01556020820151816001019081611417919061222c565b50604082015181600201908161142d919061222c565b506060820151816003019081611443919061222c565b505050886040516114549190611d5e565b60405180910390207f7fa7ef5a89b7fe34da86eeb0898416c527c4309b2b34a91167d394213d4d896589898989896040516114939594939291906127e4565b60405180910390a2505050505050505050565b60605f82036114ec576040518060400160405280600181526020017f300000000000000000000000000000000000000000000000000000000000000081525090506115fa565b5f8290505f5b5f821461151b57808061150490612891565b915050600a826115149190612905565b91506114f2565b5f8167ffffffffffffffff81111561153657611535611628565b5b6040519080825280601f01601f1916602001820160405280156115685781602001600182028036833780820191505090505b5090505b5f85146115f3576001826115809190612935565b9150600a8561158f9190612968565b603061159b9190612998565b60f81b8183815181106115b1576115b0611e44565b5b60200101907effffffffffffffffffffffffffffffffffffffffffffffffffffffffffffff191690815f1a905350600a856115ec9190612905565b945061156c565b8093505050505b919050565b5f604051905090565b5f80fd5b5f80fd5b5f80fd5b5f80fd5b5f601f19601f8301169050919050565b7f4e487b71000000000000000000000000000000000000000000000000000000005f52604160045260245ffd5b61165e82611618565b810181811067ffffffffffffffff8211171561167d5761167c611628565b5b80604052505050565b5f61168f6115ff565b905061169b8282611655565b919050565b5f67ffffffffffffffff8211156116ba576116b9611628565b5b6116c382611618565b9050602081019050919050565b828183375f83830152505050565b5f6116f06116eb846116a0565b611686565b90508281526020810184848401111561170c5761170b611614565b5b6117178482856116d0565b509392505050565b5f82601f83011261173357611732611610565b5b81356117438482602086016116de565b91505092915050565b5f819050919050565b61175e8161174c565b8114611768575f80fd5b50565b5f8135905061177981611755565b92915050565b5f806040838503121561179557611794611608565b5b5f83013567ffffffffffffffff8111156117b2576117b161160c565b5b6117be8582860161171f565b92505060206117cf8582860161176b565b9150509250929050565b6117e28161174c565b82525050565b5f81519050919050565b5f82825260208201905092915050565b5f5b8381101561181f578082015181840152602081019050611804565b5f8484015250505050565b5f611834826117e8565b61183e81856117f2565b935061184e818560208601611802565b61185781611618565b840191505092915050565b5f6080820190506118755f8301876117d9565b8181036020830152611887818661182a565b9050818103604083015261189b818561182a565b905081810360608301526118af818461182a565b905095945050505050565b5f602082840312156118cf576118ce611608565b5b5f82013567ffffffffffffffff8111156118ec576118eb61160c565b5b6118f88482850161171f565b91505092915050565b5f6020820190506119145f8301846117d9565b92915050565b5f81519050919050565b5f82825260208201905092915050565b5f819050602082019050919050565b5f82825260208201905092915050565b5f61195d826117e8565b6119678185611943565b9350611977818560208601611802565b61198081611618565b840191505092915050565b5f6119968383611953565b905092915050565b5f602082019050919050565b5f6119b48261191a565b6119be8185611924565b9350836020820285016119d085611934565b805f5b85811015611a0b57848403895281516119ec858261198b565b94506119f78361199e565b925060208a019950506001810190506119d3565b50829750879550505050505092915050565b5f6020820190508181035f830152611a3581846119aa565b905092915050565b5f610140820190508181035f830152611a56818d61182a565b90508181036020830152611a6a818c61182a565b90508181036040830152611a7e818b61182a565b90508181036060830152611a92818a61182a565b9050611aa160808301896117d9565b81810360a0830152611ab3818861182a565b905081810360c0830152611ac7818761182a565b905081810360e0830152611adb818661182a565b9050611aeb6101008301856117d9565b611af96101208301846117d9565b9b9a5050505050505050505050565b5f8115159050919050565b611b1c81611b08565b82525050565b5f602082019050611b355f830184611b13565b92915050565b5f805f60608486031215611b5257611b51611608565b5b5f84013567ffffffffffffffff811115611b6f57611b6e61160c565b5b611b7b8682870161171f565b935050602084013567ffffffffffffffff811115611b9c57611b9b61160c565b5b611ba88682870161171f565b925050604084013567ffffffffffffffff811115611bc957611bc861160c565b5b611bd58682870161171f565b9150509250925092565b5f805f805f805f60e0888a031215611bfa57611bf9611608565b5b5f88013567ffffffffffffffff811115611c1757611c1661160c565b5b611c238a828b0161171f565b975050602088013567ffffffffffffffff811115611c4457611c4361160c565b5b611c508a828b0161171f565b965050604088013567ffffffffffffffff811115611c7157611c7061160c565b5b611c7d8a828b0161171f565b955050606088013567ffffffffffffffff811115611c9e57611c9d61160c565b5b611caa8a828b0161171f565b9450506080611cbb8a828b0161176b565b93505060a088013567ffffffffffffffff811115611cdc57611cdb61160c565b5b611ce88a828b0161171f565b92505060c088013567ffffffffffffffff811115611d0957611d0861160c565b5b611d158a828b0161171f565b91505092959891949750929550565b5f81905092915050565b5f611d38826117e8565b611d428185611d24565b9350611d52818560208601611802565b80840191505092915050565b5f611d698284611d2e565b915081905092915050565b7f50726f6475637420646f6573206e6f74206578697374000000000000000000005f82015250565b5f611da86016836117f2565b9150611db382611d74565b602082019050919050565b5f6020820190508181035f830152611dd581611d9c565b9050919050565b7f496e76616c696420686973746f727920696e64657800000000000000000000005f82015250565b5f611e106015836117f2565b9150611e1b82611ddc565b602082019050919050565b5f6020820190508181035f830152611e3d81611e04565b9050919050565b7f4e487b71000000000000000000000000000000000000000000000000000000005f52603260045260245ffd5b7f4e487b71000000000000000000000000000000000000000000000000000000005f52602260045260245ffd5b5f6002820490506001821680611eb557607f821691505b602082108103611ec857611ec7611e71565b5b50919050565b7f4c6f636174696f6e206f722073746174757320726571756972656400000000005f82015250565b5f611f02601b836117f2565b9150611f0d82611ece565b602082019050919050565b5f6020820190508181035f830152611f2f81611ef6565b9050919050565b7f4c6f6b61736920e28692200000000000000000000000000000000000000000005f82015250565b5f611f6a600b83611d24565b9150611f7582611f36565b600b82019050919050565b7f20c2b72053746174757320e286922000000000000000000000000000000000005f82015250565b5f611fb4600f83611d24565b9150611fbf82611f80565b600f82019050919050565b5f611fd482611f5e565b9150611fe08285611d2e565b9150611feb82611fa8565b9150611ff78284611d2e565b91508190509392505050565b5f61200d82611f5e565b91506120198284611d2e565b915081905092915050565b7f53746174757320e28692200000000000000000000000000000000000000000005f82015250565b5f612058600b83611d24565b915061206382612024565b600b82019050919050565b5f6120788261204c565b91506120848284611d2e565b915081905092915050565b5f819050815f5260205f209050919050565b5f6020601f8301049050919050565b5f82821b905092915050565b5f600883026120eb7fffffffffffffffffffffffffffffffffffffffffffffffffffffffffffffffff826120b0565b6120f586836120b0565b95508019841693508086168417925050509392505050565b5f819050919050565b5f61213061212b6121268461174c565b61210d565b61174c565b9050919050565b5f819050919050565b61214983612116565b61215d61215582612137565b8484546120bc565b825550505050565b5f90565b612171612165565b61217c818484612140565b505050565b5b8181101561219f576121945f82612169565b600181019050612182565b5050565b601f8211156121e4576121b58161208f565b6121be846120a1565b810160208510156121cd578190505b6121e16121d9856120a1565b830182612181565b50505b505050565b5f82821c905092915050565b5f6122045f19846008026121e9565b1980831691505092915050565b5f61221c83836121f5565b9150826002028217905092915050565b612235826117e8565b67ffffffffffffffff81111561224e5761224d611628565b5b6122588254611e9e565b6122638282856121a3565b5f60209050601f831160018114612294575f8415612282578287015190505b61228c8582612211565b8655506122f3565b601f1984166122a28661208f565b5f5b828110156122c9578489015182556001820191506020850194506020810190506122a4565b868310156122e657848901516122e2601f8916826121f5565b8355505b6001600288020188555050505b505050505050565b5f6060820190508181035f830152612313818661182a565b90508181036020830152612327818561182a565b905061233660408301846117d9565b949350505050565b7f49442069732072657175697265640000000000000000000000000000000000005f82015250565b5f612372600e836117f2565b915061237d8261233e565b602082019050919050565b5f6020820190508181035f83015261239f81612366565b9050919050565b7f4e616d65206973207265717569726564000000000000000000000000000000005f82015250565b5f6123da6010836117f2565b91506123e5826123a6565b602082019050919050565b5f6020820190508181035f830152612407816123ce565b9050919050565b7f4c6f636174696f6e2069732072657175697265640000000000000000000000005f82015250565b5f6124426014836117f2565b915061244d8261240e565b602082019050919050565b5f6020820190508181035f83015261246f81612436565b9050919050565b7f44657374696e6174696f6e2069732072657175697265640000000000000000005f82015250565b5f6124aa6017836117f2565b91506124b582612476565b602082019050919050565b5f6020820190508181035f8301526124d78161249e565b9050919050565b7f5175616e74697479206d757374206265203e20300000000000000000000000005f82015250565b5f6125126014836117f2565b915061251d826124de565b602082019050919050565b5f6020820190508181035f83015261253f81612506565b9050919050565b7f436f6d70616e79206973207265717569726564000000000000000000000000005f82015250565b5f61257a6013836117f2565b915061258582612546565b602082019050919050565b5f6020820190508181035f8301526125a78161256e565b9050919050565b7f50726f6475637420616c726561647920657869737473000000000000000000005f82015250565b5f6125e26016836117f2565b91506125ed826125ae565b602082019050919050565b5f6020820190508181035f83015261260f816125d6565b9050919050565b7f50726f64756b2064696461667461726b616e20e28094200000000000000000005f82015250565b5f61264a601783611d24565b915061265582612616565b601782019050919050565b7f20756e69742064696b6972696d206b65200000000000000000000000000000005f82015250565b5f612694601183611d24565b915061269f82612660565b601182019050919050565b7f20280000000000000000000000000000000000000000000000000000000000005f82015250565b5f6126de600283611d24565b91506126e9826126aa565b600282019050919050565b7f29000000000000000000000000000000000000000000000000000000000000005f82015250565b5f612728600183611d24565b9150612733826126f4565b600182019050919050565b5f6127488261263e565b91506127548286611d2e565b915061275f82612688565b915061276b8285611d2e565b9150612776826126d2565b91506127828284611d2e565b915061278d8261271c565b9150819050949350505050565b7f44616c616d205472616e736974000000000000000000000000000000000000005f82015250565b5f6127ce600d836117f2565b91506127d98261279a565b602082019050919050565b5f60c0820190508181035f8301526127fc818861182a565b90508181036020830152612810818761182a565b90508181036040830152612824818661182a565b905061283360608301856117d9565b8181036080830152612845818461182a565b905081810360a0830152612858816127c2565b90509695505050505050565b7f4e487b71000000000000000000000000000000000000000000000000000000005f52601160045260245ffd5b5f61289b8261174c565b91507fffffffffffffffffffffffffffffffffffffffffffffffffffffffffffffffff82036128cd576128cc612864565b5b600182019050919050565b7f4e487b71000000000000000000000000000000000000000000000000000000005f52601260045260245ffd5b5f61290f8261174c565b915061291a8361174c565b92508261292a576129296128d8565b5b828204905092915050565b5f61293f8261174c565b915061294a8361174c565b925082820390508181111561296257612961612864565b5b92915050565b5f6129728261174c565b915061297d8361174c565b92508261298d5761298c6128d8565b5b828206905092915050565b5f6129a28261174c565b91506129ad8361174c565b92508282019050808211156129c5576129c4612864565b5b9291505056fea2646970667358221220574e5c9f0a4d88beaf640a97f5a97dd2459c5853d92d3c5e8ad8fb9cfae65f8064736f6c63430008140033",
					"opcodes": "PUSH1 0x80 PUSH1 0x40 MSTORE CALLVALUE DUP1 ISZERO PUSH2 0xF JUMPI PUSH0 DUP1 REVERT JUMPDEST POP PUSH2 0x2A01 DUP1 PUSH2 0x1D PUSH0 CODECOPY PUSH0 RETURN INVALID PUSH1 0x80 PUSH1 0x40 MSTORE CALLVALUE DUP1 ISZERO PUSH2 0xF JUMPI PUSH0 DUP1 REVERT JUMPDEST POP PUSH1 0x4 CALLDATASIZE LT PUSH2 0x86 JUMPI PUSH0 CALLDATALOAD PUSH1 0xE0 SHR DUP1 PUSH4 0x68111CCE GT PUSH2 0x59 JUMPI DUP1 PUSH4 0x68111CCE EQ PUSH2 0x129 JUMPI DUP1 PUSH4 0x8ADDC051 EQ PUSH2 0x162 JUMPI DUP1 PUSH4 0xD7A2AB9B EQ PUSH2 0x192 JUMPI DUP1 PUSH4 0xDADF0B73 EQ PUSH2 0x1AE JUMPI PUSH2 0x86 JUMP JUMPDEST DUP1 PUSH4 0x3036451E EQ PUSH2 0x8A JUMPI DUP1 PUSH4 0x416EB9F4 EQ PUSH2 0xBD JUMPI DUP1 PUSH4 0x4A348DA9 EQ PUSH2 0xED JUMPI DUP1 PUSH4 0x663C01AF EQ PUSH2 0x10B JUMPI JUMPDEST PUSH0 DUP1 REVERT JUMPDEST PUSH2 0xA4 PUSH1 0x4 DUP1 CALLDATASIZE SUB DUP2 ADD SWAP1 PUSH2 0x9F SWAP2 SWAP1 PUSH2 0x177F JUMP JUMPDEST PUSH2 0x1CA JUMP JUMPDEST PUSH1 0x40 MLOAD PUSH2 0xB4 SWAP5 SWAP4 SWAP3 SWAP2 SWAP1 PUSH2 0x1862 JUMP JUMPDEST PUSH1 0x40 MLOAD DUP1 SWAP2 SUB SWAP1 RETURN JUMPDEST PUSH2 0xD7 PUSH1 0x4 DUP1 CALLDATASIZE SUB DUP2 ADD SWAP1 PUSH2 0xD2 SWAP2 SWAP1 PUSH2 0x18BA JUMP JUMPDEST PUSH2 0x4C9 JUMP JUMPDEST PUSH1 0x40 MLOAD PUSH2 0xE4 SWAP2 SWAP1 PUSH2 0x1901 JUMP JUMPDEST PUSH1 0x40 MLOAD DUP1 SWAP2 SUB SWAP1 RETURN JUMPDEST PUSH2 0xF5 PUSH2 0x561 JUMP JUMPDEST PUSH1 0x40 MLOAD PUSH2 0x102 SWAP2 SWAP1 PUSH2 0x1901 JUMP JUMPDEST PUSH1 0x40 MLOAD DUP1 SWAP2 SUB SWAP1 RETURN JUMPDEST PUSH2 0x113 PUSH2 0x56D JUMP JUMPDEST PUSH1 0x40 MLOAD PUSH2 0x120 SWAP2 SWAP1 PUSH2 0x1A1D JUMP JUMPDEST PUSH1 0x40 MLOAD DUP1 SWAP2 SUB SWAP1 RETURN JUMPDEST PUSH2 0x143 PUSH1 0x4 DUP1 CALLDATASIZE SUB DUP2 ADD SWAP1 PUSH2 0x13E SWAP2 SWAP1 PUSH2 0x18BA JUMP JUMPDEST PUSH2 0x641 JUMP JUMPDEST PUSH1 0x40 MLOAD PUSH2 0x159 SWAP11 SWAP10 SWAP9 SWAP8 SWAP7 SWAP6 SWAP5 SWAP4 SWAP3 SWAP2 SWAP1 PUSH2 0x1A3D JUMP JUMPDEST PUSH1 0x40 MLOAD DUP1 SWAP2 SUB SWAP1 RETURN JUMPDEST PUSH2 0x17C PUSH1 0x4 DUP1 CALLDATASIZE SUB DUP2 ADD SWAP1 PUSH2 0x177 SWAP2 SWAP1 PUSH2 0x18BA JUMP JUMPDEST PUSH2 0xB65 JUMP JUMPDEST PUSH1 0x40 MLOAD PUSH2 0x189 SWAP2 SWAP1 PUSH2 0x1B22 JUMP JUMPDEST PUSH1 0x40 MLOAD DUP1 SWAP2 SUB SWAP1 RETURN JUMPDEST PUSH2 0x1AC PUSH1 0x4 DUP1 CALLDATASIZE SUB DUP2 ADD SWAP1 PUSH2 0x1A7 SWAP2 SWAP1 PUSH2 0x1B3B JUMP JUMPDEST PUSH2 0xB9A JUMP JUMPDEST STOP JUMPDEST PUSH2 0x1C8 PUSH1 0x4 DUP1 CALLDATASIZE SUB DUP2 ADD SWAP1 PUSH2 0x1C3 SWAP2 SWAP1 PUSH2 0x1BDF JUMP JUMPDEST PUSH2 0xF81 JUMP JUMPDEST STOP JUMPDEST PUSH0 PUSH1 0x60 DUP1 PUSH1 0x60 DUP6 PUSH0 DUP2 PUSH1 0x40 MLOAD PUSH2 0x1E0 SWAP2 SWAP1 PUSH2 0x1D5E JUMP JUMPDEST SWAP1 DUP2 MSTORE PUSH1 0x20 ADD PUSH1 0x40 MLOAD DUP1 SWAP2 SUB SWAP1 KECCAK256 PUSH1 0xA ADD PUSH0 SWAP1 SLOAD SWAP1 PUSH2 0x100 EXP SWAP1 DIV PUSH1 0xFF AND PUSH2 0x23D JUMPI PUSH1 0x40 MLOAD PUSH32 0x8C379A000000000000000000000000000000000000000000000000000000000 DUP2 MSTORE PUSH1 0x4 ADD PUSH2 0x234 SWAP1 PUSH2 0x1DBE JUMP JUMPDEST PUSH1 0x40 MLOAD DUP1 SWAP2 SUB SWAP1 REVERT JUMPDEST PUSH1 0x1 DUP8 PUSH1 0x40 MLOAD PUSH2 0x24D SWAP2 SWAP1 PUSH2 0x1D5E JUMP JUMPDEST SWAP1 DUP2 MSTORE PUSH1 0x20 ADD PUSH1 0x40 MLOAD DUP1 SWAP2 SUB SWAP1 KECCAK256 DUP1 SLOAD SWAP1 POP DUP7 LT PUSH2 0x2A0 JUMPI PUSH1 0x40 MLOAD PUSH32 0x8C379A000000000000000000000000000000000000000000000000000000000 DUP2 MSTORE PUSH1 0x4 ADD PUSH2 0x297 SWAP1 PUSH2 0x1E26 JUMP JUMPDEST PUSH1 0x40 MLOAD DUP1 SWAP2 SUB SWAP1 REVERT JUMPDEST PUSH0 PUSH1 0x1 DUP9 PUSH1 0x40 MLOAD PUSH2 0x2B1 SWAP2 SWAP1 PUSH2 0x1D5E JUMP JUMPDEST SWAP1 DUP2 MSTORE PUSH1 0x20 ADD PUSH1 0x40 MLOAD DUP1 SWAP2 SUB SWAP1 KECCAK256 DUP8 DUP2 SLOAD DUP2 LT PUSH2 0x2D1 JUMPI PUSH2 0x2D0 PUSH2 0x1E44 JUMP JUMPDEST JUMPDEST SWAP1 PUSH0 MSTORE PUSH1 0x20 PUSH0 KECCAK256 SWAP1 PUSH1 0x4 MUL ADD PUSH1 0x40 MLOAD DUP1 PUSH1 0x80 ADD PUSH1 0x40 MSTORE SWAP1 DUP2 PUSH0 DUP3 ADD SLOAD DUP2 MSTORE PUSH1 0x20 ADD PUSH1 0x1 DUP3 ADD DUP1 SLOAD PUSH2 0x301 SWAP1 PUSH2 0x1E9E JUMP JUMPDEST DUP1 PUSH1 0x1F ADD PUSH1 0x20 DUP1 SWAP2 DIV MUL PUSH1 0x20 ADD PUSH1 0x40 MLOAD SWAP1 DUP2 ADD PUSH1 0x40 MSTORE DUP1 SWAP3 SWAP2 SWAP1 DUP2 DUP2 MSTORE PUSH1 0x20 ADD DUP3 DUP1 SLOAD PUSH2 0x32D SWAP1 PUSH2 0x1E9E JUMP JUMPDEST DUP1 ISZERO PUSH2 0x378 JUMPI DUP1 PUSH1 0x1F LT PUSH2 0x34F JUMPI PUSH2 0x100 DUP1 DUP4 SLOAD DIV MUL DUP4 MSTORE SWAP2 PUSH1 0x20 ADD SWAP2 PUSH2 0x378 JUMP JUMPDEST DUP3 ADD SWAP2 SWAP1 PUSH0 MSTORE PUSH1 0x20 PUSH0 KECCAK256 SWAP1 JUMPDEST DUP2 SLOAD DUP2 MSTORE SWAP1 PUSH1 0x1 ADD SWAP1 PUSH1 0x20 ADD DUP1 DUP4 GT PUSH2 0x35B JUMPI DUP3 SWAP1 SUB PUSH1 0x1F AND DUP3 ADD SWAP2 JUMPDEST POP POP POP POP POP DUP2 MSTORE PUSH1 0x20 ADD PUSH1 0x2 DUP3 ADD DUP1 SLOAD PUSH2 0x391 SWAP1 PUSH2 0x1E9E JUMP JUMPDEST DUP1 PUSH1 0x1F ADD PUSH1 0x20 DUP1 SWAP2 DIV MUL PUSH1 0x20 ADD PUSH1 0x40 MLOAD SWAP1 DUP2 ADD PUSH1 0x40 MSTORE DUP1 SWAP3 SWAP2 SWAP1 DUP2 DUP2 MSTORE PUSH1 0x20 ADD DUP3 DUP1 SLOAD PUSH2 0x3BD SWAP1 PUSH2 0x1E9E JUMP JUMPDEST DUP1 ISZERO PUSH2 0x408 JUMPI DUP1 PUSH1 0x1F LT PUSH2 0x3DF JUMPI PUSH2 0x100 DUP1 DUP4 SLOAD DIV MUL DUP4 MSTORE SWAP2 PUSH1 0x20 ADD SWAP2 PUSH2 0x408 JUMP JUMPDEST DUP3 ADD SWAP2 SWAP1 PUSH0 MSTORE PUSH1 0x20 PUSH0 KECCAK256 SWAP1 JUMPDEST DUP2 SLOAD DUP2 MSTORE SWAP1 PUSH1 0x1 ADD SWAP1 PUSH1 0x20 ADD DUP1 DUP4 GT PUSH2 0x3EB JUMPI DUP3 SWAP1 SUB PUSH1 0x1F AND DUP3 ADD SWAP2 JUMPDEST POP POP POP POP POP DUP2 MSTORE PUSH1 0x20 ADD PUSH1 0x3 DUP3 ADD DUP1 SLOAD PUSH2 0x421 SWAP1 PUSH2 0x1E9E JUMP JUMPDEST DUP1 PUSH1 0x1F ADD PUSH1 0x20 DUP1 SWAP2 DIV MUL PUSH1 0x20 ADD PUSH1 0x40 MLOAD SWAP1 DUP2 ADD PUSH1 0x40 MSTORE DUP1 SWAP3 SWAP2 SWAP1 DUP2 DUP2 MSTORE PUSH1 0x20 ADD DUP3 DUP1 SLOAD PUSH2 0x44D SWAP1 PUSH2 0x1E9E JUMP JUMPDEST DUP1 ISZERO PUSH2 0x498 JUMPI DUP1 PUSH1 0x1F LT PUSH2 0x46F JUMPI PUSH2 0x100 DUP1 DUP4 SLOAD DIV MUL DUP4 MSTORE SWAP2 PUSH1 0x20 ADD SWAP2 PUSH2 0x498 JUMP JUMPDEST DUP3 ADD SWAP2 SWAP1 PUSH0 MSTORE PUSH1 0x20 PUSH0 KECCAK256 SWAP1 JUMPDEST DUP2 SLOAD DUP2 MSTORE SWAP1 PUSH1 0x1 ADD SWAP1 PUSH1 0x20 ADD DUP1 DUP4 GT PUSH2 0x47B JUMPI DUP3 SWAP1 SUB PUSH1 0x1F AND DUP3 ADD SWAP2 JUMPDEST POP POP POP POP POP DUP2 MSTORE POP POP SWAP1 POP DUP1 PUSH0 ADD MLOAD DUP2 PUSH1 0x20 ADD MLOAD DUP3 PUSH1 0x40 ADD MLOAD DUP4 PUSH1 0x60 ADD MLOAD SWAP6 POP SWAP6 POP SWAP6 POP SWAP6 POP POP POP SWAP3 SWAP6 SWAP2 SWAP5 POP SWAP3 POP JUMP JUMPDEST PUSH0 DUP2 PUSH0 DUP2 PUSH1 0x40 MLOAD PUSH2 0x4DA SWAP2 SWAP1 PUSH2 0x1D5E JUMP JUMPDEST SWAP1 DUP2 MSTORE PUSH1 0x20 ADD PUSH1 0x40 MLOAD DUP1 SWAP2 SUB SWAP1 KECCAK256 PUSH1 0xA ADD PUSH0 SWAP1 SLOAD SWAP1 PUSH2 0x100 EXP SWAP1 DIV PUSH1 0xFF AND PUSH2 0x537 JUMPI PUSH1 0x40 MLOAD PUSH32 0x8C379A000000000000000000000000000000000000000000000000000000000 DUP2 MSTORE PUSH1 0x4 ADD PUSH2 0x52E SWAP1 PUSH2 0x1DBE JUMP JUMPDEST PUSH1 0x40 MLOAD DUP1 SWAP2 SUB SWAP1 REVERT JUMPDEST PUSH1 0x1 DUP4 PUSH1 0x40 MLOAD PUSH2 0x547 SWAP2 SWAP1 PUSH2 0x1D5E JUMP JUMPDEST SWAP1 DUP2 MSTORE PUSH1 0x20 ADD PUSH1 0x40 MLOAD DUP1 SWAP2 SUB SWAP1 KECCAK256 DUP1 SLOAD SWAP1 POP SWAP2 POP POP SWAP2 SWAP1 POP JUMP JUMPDEST PUSH0 PUSH1 0x2 DUP1 SLOAD SWAP1 POP SWAP1 POP SWAP1 JUMP JUMPDEST PUSH1 0x60 PUSH1 0x2 DUP1 SLOAD DUP1 PUSH1 0x20 MUL PUSH1 0x20 ADD PUSH1 0x40 MLOAD SWAP1 DUP2 ADD PUSH1 0x40 MSTORE DUP1 SWAP3 SWAP2 SWAP1 DUP2 DUP2 MSTORE PUSH1 0x20 ADD PUSH0 SWAP1 JUMPDEST DUP3 DUP3 LT ISZERO PUSH2 0x638 JUMPI DUP4 DUP3 SWAP1 PUSH0 MSTORE PUSH1 0x20 PUSH0 KECCAK256 ADD DUP1 SLOAD PUSH2 0x5AD SWAP1 PUSH2 0x1E9E JUMP JUMPDEST DUP1 PUSH1 0x1F ADD PUSH1 0x20 DUP1 SWAP2 DIV MUL PUSH1 0x20 ADD PUSH1 0x40 MLOAD SWAP1 DUP2 ADD PUSH1 0x40 MSTORE DUP1 SWAP3 SWAP2 SWAP1 DUP2 DUP2 MSTORE PUSH1 0x20 ADD DUP3 DUP1 SLOAD PUSH2 0x5D9 SWAP1 PUSH2 0x1E9E JUMP JUMPDEST DUP1 ISZERO PUSH2 0x624 JUMPI DUP1 PUSH1 0x1F LT PUSH2 0x5FB JUMPI PUSH2 0x100 DUP1 DUP4 SLOAD DIV MUL DUP4 MSTORE SWAP2 PUSH1 0x20 ADD SWAP2 PUSH2 0x624 JUMP JUMPDEST DUP3 ADD SWAP2 SWAP1 PUSH0 MSTORE PUSH1 0x20 PUSH0 KECCAK256 SWAP1 JUMPDEST DUP2 SLOAD DUP2 MSTORE SWAP1 PUSH1 0x1 ADD SWAP1 PUSH1 0x20 ADD DUP1 DUP4 GT PUSH2 0x607 JUMPI DUP3 SWAP1 SUB PUSH1 0x1F AND DUP3 ADD SWAP2 JUMPDEST POP POP POP POP POP DUP2 MSTORE PUSH1 0x20 ADD SWAP1 PUSH1 0x1 ADD SWAP1 PUSH2 0x590 JUMP JUMPDEST POP POP POP POP SWAP1 POP SWAP1 JUMP JUMPDEST PUSH1 0x60 DUP1 PUSH1 0x60 DUP1 PUSH0 PUSH1 0x60 DUP1 PUSH1 0x60 PUSH0 DUP1 DUP11 PUSH0 DUP2 PUSH1 0x40 MLOAD PUSH2 0x65F SWAP2 SWAP1 PUSH2 0x1D5E JUMP JUMPDEST SWAP1 DUP2 MSTORE PUSH1 0x20 ADD PUSH1 0x40 MLOAD DUP1 SWAP2 SUB SWAP1 KECCAK256 PUSH1 0xA ADD PUSH0 SWAP1 SLOAD SWAP1 PUSH2 0x100 EXP SWAP1 DIV PUSH1 0xFF AND PUSH2 0x6BC JUMPI PUSH1 0x40 MLOAD PUSH32 0x8C379A000000000000000000000000000000000000000000000000000000000 DUP2 MSTORE PUSH1 0x4 ADD PUSH2 0x6B3 SWAP1 PUSH2 0x1DBE JUMP JUMPDEST PUSH1 0x40 MLOAD DUP1 SWAP2 SUB SWAP1 REVERT JUMPDEST PUSH0 DUP1 DUP14 PUSH1 0x40 MLOAD PUSH2 0x6CC SWAP2 SWAP1 PUSH2 0x1D5E JUMP JUMPDEST SWAP1 DUP2 MSTORE PUSH1 0x20 ADD PUSH1 0x40 MLOAD DUP1 SWAP2 SUB SWAP1 KECCAK256 PUSH1 0x40 MLOAD DUP1 PUSH2 0x160 ADD PUSH1 0x40 MSTORE SWAP1 DUP2 PUSH0 DUP3 ADD DUP1 SLOAD PUSH2 0x6F5 SWAP1 PUSH2 0x1E9E JUMP JUMPDEST DUP1 PUSH1 0x1F ADD PUSH1 0x20 DUP1 SWAP2 DIV MUL PUSH1 0x20 ADD PUSH1 0x40 MLOAD SWAP1 DUP2 ADD PUSH1 0x40 MSTORE DUP1 SWAP3 SWAP2 SWAP1 DUP2 DUP2 MSTORE PUSH1 0x20 ADD DUP3 DUP1 SLOAD PUSH2 0x721 SWAP1 PUSH2 0x1E9E JUMP JUMPDEST DUP1 ISZERO PUSH2 0x76C JUMPI DUP1 PUSH1 0x1F LT PUSH2 0x743 JUMPI PUSH2 0x100 DUP1 DUP4 SLOAD DIV MUL DUP4 MSTORE SWAP2 PUSH1 0x20 ADD SWAP2 PUSH2 0x76C JUMP JUMPDEST DUP3 ADD SWAP2 SWAP1 PUSH0 MSTORE PUSH1 0x20 PUSH0 KECCAK256 SWAP1 JUMPDEST DUP2 SLOAD DUP2 MSTORE SWAP1 PUSH1 0x1 ADD SWAP1 PUSH1 0x20 ADD DUP1 DUP4 GT PUSH2 0x74F JUMPI DUP3 SWAP1 SUB PUSH1 0x1F AND DUP3 ADD SWAP2 JUMPDEST POP POP POP POP POP DUP2 MSTORE PUSH1 0x20 ADD PUSH1 0x1 DUP3 ADD DUP1 SLOAD PUSH2 0x785 SWAP1 PUSH2 0x1E9E JUMP JUMPDEST DUP1 PUSH1 0x1F ADD PUSH1 0x20 DUP1 SWAP2 DIV MUL PUSH1 0x20 ADD PUSH1 0x40 MLOAD SWAP1 DUP2 ADD PUSH1 0x40 MSTORE DUP1 SWAP3 SWAP2 SWAP1 DUP2 DUP2 MSTORE PUSH1 0x20 ADD DUP3 DUP1 SLOAD PUSH2 0x7B1 SWAP1 PUSH2 0x1E9E JUMP JUMPDEST DUP1 ISZERO PUSH2 0x7FC JUMPI DUP1 PUSH1 0x1F LT PUSH2 0x7D3 JUMPI PUSH2 0x100 DUP1 DUP4 SLOAD DIV MUL DUP4 MSTORE SWAP2 PUSH1 0x20 ADD SWAP2 PUSH2 0x7FC JUMP JUMPDEST DUP3 ADD SWAP2 SWAP1 PUSH0 MSTORE PUSH1 0x20 PUSH0 KECCAK256 SWAP1 JUMPDEST DUP2 SLOAD DUP2 MSTORE SWAP1 PUSH1 0x1 ADD SWAP1 PUSH1 0x20 ADD DUP1 DUP4 GT PUSH2 0x7DF JUMPI DUP3 SWAP1 SUB PUSH1 0x1F AND DUP3 ADD SWAP2 JUMPDEST POP POP POP POP POP DUP2 MSTORE PUSH1 0x20 ADD PUSH1 0x2 DUP3 ADD DUP1 SLOAD PUSH2 0x815 SWAP1 PUSH2 0x1E9E JUMP JUMPDEST DUP1 PUSH1 0x1F ADD PUSH1 0x20 DUP1 SWAP2 DIV MUL PUSH1 0x20 ADD PUSH1 0x40 MLOAD SWAP1 DUP2 ADD PUSH1 0x40 MSTORE DUP1 SWAP3 SWAP2 SWAP1 DUP2 DUP2 MSTORE PUSH1 0x20 ADD DUP3 DUP1 SLOAD PUSH2 0x841 SWAP1 PUSH2 0x1E9E JUMP JUMPDEST DUP1 ISZERO PUSH2 0x88C JUMPI DUP1 PUSH1 0x1F LT PUSH2 0x863 JUMPI PUSH2 0x100 DUP1 DUP4 SLOAD DIV MUL DUP4 MSTORE SWAP2 PUSH1 0x20 ADD SWAP2 PUSH2 0x88C JUMP JUMPDEST DUP3 ADD SWAP2 SWAP1 PUSH0 MSTORE PUSH1 0x20 PUSH0 KECCAK256 SWAP1 JUMPDEST DUP2 SLOAD DUP2 MSTORE SWAP1 PUSH1 0x1 ADD SWAP1 PUSH1 0x20 ADD DUP1 DUP4 GT PUSH2 0x86F JUMPI DUP3 SWAP1 SUB PUSH1 0x1F AND DUP3 ADD SWAP2 JUMPDEST POP POP POP POP POP DUP2 MSTORE PUSH1 0x20 ADD PUSH1 0x3 DUP3 ADD DUP1 SLOAD PUSH2 0x8A5 SWAP1 PUSH2 0x1E9E JUMP JUMPDEST DUP1 PUSH1 0x1F ADD PUSH1 0x20 DUP1 SWAP2 DIV MUL PUSH1 0x20 ADD PUSH1 0x40 MLOAD SWAP1 DUP2 ADD PUSH1 0x40 MSTORE DUP1 SWAP3 SWAP2 SWAP1 DUP2 DUP2 MSTORE PUSH1 0x20 ADD DUP3 DUP1 SLOAD PUSH2 0x8D1 SWAP1 PUSH2 0x1E9E JUMP JUMPDEST DUP1 ISZERO PUSH2 0x91C JUMPI DUP1 PUSH1 0x1F LT PUSH2 0x8F3 JUMPI PUSH2 0x100 DUP1 DUP4 SLOAD DIV MUL DUP4 MSTORE SWAP2 PUSH1 0x20 ADD SWAP2 PUSH2 0x91C JUMP JUMPDEST DUP3 ADD SWAP2 SWAP1 PUSH0 MSTORE PUSH1 0x20 PUSH0 KECCAK256 SWAP1 JUMPDEST DUP2 SLOAD DUP2 MSTORE SWAP1 PUSH1 0x1 ADD SWAP1 PUSH1 0x20 ADD DUP1 DUP4 GT PUSH2 0x8FF JUMPI DUP3 SWAP1 SUB PUSH1 0x1F AND DUP3 ADD SWAP2 JUMPDEST POP POP POP POP POP DUP2 MSTORE PUSH1 0x20 ADD PUSH1 0x4 DUP3 ADD SLOAD DUP2 MSTORE PUSH1 0x20 ADD PUSH1 0x5 DUP3 ADD DUP1 SLOAD PUSH2 0x93F SWAP1 PUSH2 0x1E9E JUMP JUMPDEST DUP1 PUSH1 0x1F ADD PUSH1 0x20 DUP1 SWAP2 DIV MUL PUSH1 0x20 ADD PUSH1 0x40 MLOAD SWAP1 DUP2 ADD PUSH1 0x40 MSTORE DUP1 SWAP3 SWAP2 SWAP1 DUP2 DUP2 MSTORE PUSH1 0x20 ADD DUP3 DUP1 SLOAD PUSH2 0x96B SWAP1 PUSH2 0x1E9E JUMP JUMPDEST DUP1 ISZERO PUSH2 0x9B6 JUMPI DUP1 PUSH1 0x1F LT PUSH2 0x98D JUMPI PUSH2 0x100 DUP1 DUP4 SLOAD DIV MUL DUP4 MSTORE SWAP2 PUSH1 0x20 ADD SWAP2 PUSH2 0x9B6 JUMP JUMPDEST DUP3 ADD SWAP2 SWAP1 PUSH0 MSTORE PUSH1 0x20 PUSH0 KECCAK256 SWAP1 JUMPDEST DUP2 SLOAD DUP2 MSTORE SWAP1 PUSH1 0x1 ADD SWAP1 PUSH1 0x20 ADD DUP1 DUP4 GT PUSH2 0x999 JUMPI DUP3 SWAP1 SUB PUSH1 0x1F AND DUP3 ADD SWAP2 JUMPDEST POP POP POP POP POP DUP2 MSTORE PUSH1 0x20 ADD PUSH1 0x6 DUP3 ADD DUP1 SLOAD PUSH2 0x9CF SWAP1 PUSH2 0x1E9E JUMP JUMPDEST DUP1 PUSH1 0x1F ADD PUSH1 0x20 DUP1 SWAP2 DIV MUL PUSH1 0x20 ADD PUSH1 0x40 MLOAD SWAP1 DUP2 ADD PUSH1 0x40 MSTORE DUP1 SWAP3 SWAP2 SWAP1 DUP2 DUP2 MSTORE PUSH1 0x20 ADD DUP3 DUP1 SLOAD PUSH2 0x9FB SWAP1 PUSH2 0x1E9E JUMP JUMPDEST DUP1 ISZERO PUSH2 0xA46 JUMPI DUP1 PUSH1 0x1F LT PUSH2 0xA1D JUMPI PUSH2 0x100 DUP1 DUP4 SLOAD DIV MUL DUP4 MSTORE SWAP2 PUSH1 0x20 ADD SWAP2 PUSH2 0xA46 JUMP JUMPDEST DUP3 ADD SWAP2 SWAP1 PUSH0 MSTORE PUSH1 0x20 PUSH0 KECCAK256 SWAP1 JUMPDEST DUP2 SLOAD DUP2 MSTORE SWAP1 PUSH1 0x1 ADD SWAP1 PUSH1 0x20 ADD DUP1 DUP4 GT PUSH2 0xA29 JUMPI DUP3 SWAP1 SUB PUSH1 0x1F AND DUP3 ADD SWAP2 JUMPDEST POP POP POP POP POP DUP2 MSTORE PUSH1 0x20 ADD PUSH1 0x7 DUP3 ADD DUP1 SLOAD PUSH2 0xA5F SWAP1 PUSH2 0x1E9E JUMP JUMPDEST DUP1 PUSH1 0x1F ADD PUSH1 0x20 DUP1 SWAP2 DIV MUL PUSH1 0x20 ADD PUSH1 0x40 MLOAD SWAP1 DUP2 ADD PUSH1 0x40 MSTORE DUP1 SWAP3 SWAP2 SWAP1 DUP2 DUP2 MSTORE PUSH1 0x20 ADD DUP3 DUP1 SLOAD PUSH2 0xA8B SWAP1 PUSH2 0x1E9E JUMP JUMPDEST DUP1 ISZERO PUSH2 0xAD6 JUMPI DUP1 PUSH1 0x1F LT PUSH2 0xAAD JUMPI PUSH2 0x100 DUP1 DUP4 SLOAD DIV MUL DUP4 MSTORE SWAP2 PUSH1 0x20 ADD SWAP2 PUSH2 0xAD6 JUMP JUMPDEST DUP3 ADD SWAP2 SWAP1 PUSH0 MSTORE PUSH1 0x20 PUSH0 KECCAK256 SWAP1 JUMPDEST DUP2 SLOAD DUP2 MSTORE SWAP1 PUSH1 0x1 ADD SWAP1 PUSH1 0x20 ADD DUP1 DUP4 GT PUSH2 0xAB9 JUMPI DUP3 SWAP1 SUB PUSH1 0x1F AND DUP3 ADD SWAP2 JUMPDEST POP POP POP POP POP DUP2 MSTORE PUSH1 0x20 ADD PUSH1 0x8 DUP3 ADD SLOAD DUP2 MSTORE PUSH1 0x20 ADD PUSH1 0x9 DUP3 ADD SLOAD DUP2 MSTORE PUSH1 0x20 ADD PUSH1 0xA DUP3 ADD PUSH0 SWAP1 SLOAD SWAP1 PUSH2 0x100 EXP SWAP1 DIV PUSH1 0xFF AND ISZERO ISZERO ISZERO ISZERO DUP2 MSTORE POP POP SWAP1 POP DUP1 PUSH0 ADD MLOAD DUP2 PUSH1 0x20 ADD MLOAD DUP3 PUSH1 0x40 ADD MLOAD DUP4 PUSH1 0x60 ADD MLOAD DUP5 PUSH1 0x80 ADD MLOAD DUP6 PUSH1 0xA0 ADD MLOAD DUP7 PUSH1 0xC0 ADD MLOAD DUP8 PUSH1 0xE0 ADD MLOAD DUP9 PUSH2 0x100 ADD MLOAD DUP10 PUSH2 0x120 ADD MLOAD SWAP12 POP SWAP12 POP SWAP12 POP SWAP12 POP SWAP12 POP SWAP12 POP SWAP12 POP SWAP12 POP SWAP12 POP SWAP12 POP POP POP SWAP2 SWAP4 SWAP6 SWAP8 SWAP10 POP SWAP2 SWAP4 SWAP6 SWAP8 SWAP10 JUMP JUMPDEST PUSH0 DUP1 DUP3 PUSH1 0x40 MLOAD PUSH2 0xB75 SWAP2 SWAP1 PUSH2 0x1D5E JUMP JUMPDEST SWAP1 DUP2 MSTORE PUSH1 0x20 ADD PUSH1 0x40 MLOAD DUP1 SWAP2 SUB SWAP1 KECCAK256 PUSH1 0xA ADD PUSH0 SWAP1 SLOAD SWAP1 PUSH2 0x100 EXP SWAP1 DIV PUSH1 0xFF AND SWAP1 POP SWAP2 SWAP1 POP JUMP JUMPDEST DUP3 PUSH0 DUP2 PUSH1 0x40 MLOAD PUSH2 0xBAA SWAP2 SWAP1 PUSH2 0x1D5E JUMP JUMPDEST SWAP1 DUP2 MSTORE PUSH1 0x20 ADD PUSH1 0x40 MLOAD DUP1 SWAP2 SUB SWAP1 KECCAK256 PUSH1 0xA ADD PUSH0 SWAP1 SLOAD SWAP1 PUSH2 0x100 EXP SWAP1 DIV PUSH1 0xFF AND PUSH2 0xC07 JUMPI PUSH1 0x40 MLOAD PUSH32 0x8C379A000000000000000000000000000000000000000000000000000000000 DUP2 MSTORE PUSH1 0x4 ADD PUSH2 0xBFE SWAP1 PUSH2 0x1DBE JUMP JUMPDEST PUSH1 0x40 MLOAD DUP1 SWAP2 SUB SWAP1 REVERT JUMPDEST PUSH0 DUP4 MLOAD GT DUP1 PUSH2 0xC16 JUMPI POP PUSH0 DUP3 MLOAD GT JUMPDEST PUSH2 0xC55 JUMPI PUSH1 0x40 MLOAD PUSH32 0x8C379A000000000000000000000000000000000000000000000000000000000 DUP2 MSTORE PUSH1 0x4 ADD PUSH2 0xC4C SWAP1 PUSH2 0x1F18 JUMP JUMPDEST PUSH1 0x40 MLOAD DUP1 SWAP2 SUB SWAP1 REVERT JUMPDEST PUSH0 DUP1 DUP6 PUSH1 0x40 MLOAD PUSH2 0xC65 SWAP2 SWAP1 PUSH2 0x1D5E JUMP JUMPDEST SWAP1 DUP2 MSTORE PUSH1 0x20 ADD PUSH1 0x40 MLOAD DUP1 SWAP2 SUB SWAP1 KECCAK256 SWAP1 POP PUSH0 TIMESTAMP SWAP1 POP PUSH0 DUP1 DUP7 MLOAD GT PUSH2 0xD12 JUMPI DUP3 PUSH1 0x2 ADD DUP1 SLOAD PUSH2 0xC91 SWAP1 PUSH2 0x1E9E JUMP JUMPDEST DUP1 PUSH1 0x1F ADD PUSH1 0x20 DUP1 SWAP2 DIV MUL PUSH1 0x20 ADD PUSH1 0x40 MLOAD SWAP1 DUP2 ADD PUSH1 0x40 MSTORE DUP1 SWAP3 SWAP2 SWAP1 DUP2 DUP2 MSTORE PUSH1 0x20 ADD DUP3 DUP1 SLOAD PUSH2 0xCBD SWAP1 PUSH2 0x1E9E JUMP JUMPDEST DUP1 ISZERO PUSH2 0xD08 JUMPI DUP1 PUSH1 0x1F LT PUSH2 0xCDF JUMPI PUSH2 0x100 DUP1 DUP4 SLOAD DIV MUL DUP4 MSTORE SWAP2 PUSH1 0x20 ADD SWAP2 PUSH2 0xD08 JUMP JUMPDEST DUP3 ADD SWAP2 SWAP1 PUSH0 MSTORE PUSH1 0x20 PUSH0 KECCAK256 SWAP1 JUMPDEST DUP2 SLOAD DUP2 MSTORE SWAP1 PUSH1 0x1 ADD SWAP1 PUSH1 0x20 ADD DUP1 DUP4 GT PUSH2 0xCEB JUMPI DUP3 SWAP1 SUB PUSH1 0x1F AND DUP3 ADD SWAP2 JUMPDEST POP POP POP POP POP PUSH2 0xD14 JUMP JUMPDEST DUP6 JUMPDEST SWAP1 POP PUSH0 DUP1 DUP7 MLOAD GT PUSH2 0xDAF JUMPI DUP4 PUSH1 0x7 ADD DUP1 SLOAD PUSH2 0xD2E SWAP1 PUSH2 0x1E9E JUMP JUMPDEST DUP1 PUSH1 0x1F ADD PUSH1 0x20 DUP1 SWAP2 DIV MUL PUSH1 0x20 ADD PUSH1 0x40 MLOAD SWAP1 DUP2 ADD PUSH1 0x40 MSTORE DUP1 SWAP3 SWAP2 SWAP1 DUP2 DUP2 MSTORE PUSH1 0x20 ADD DUP3 DUP1 SLOAD PUSH2 0xD5A SWAP1 PUSH2 0x1E9E JUMP JUMPDEST DUP1 ISZERO PUSH2 0xDA5 JUMPI DUP1 PUSH1 0x1F LT PUSH2 0xD7C JUMPI PUSH2 0x100 DUP1 DUP4 SLOAD DIV MUL DUP4 MSTORE SWAP2 PUSH1 0x20 ADD SWAP2 PUSH2 0xDA5 JUMP JUMPDEST DUP3 ADD SWAP2 SWAP1 PUSH0 MSTORE PUSH1 0x20 PUSH0 KECCAK256 SWAP1 JUMPDEST DUP2 SLOAD DUP2 MSTORE SWAP1 PUSH1 0x1 ADD SWAP1 PUSH1 0x20 ADD DUP1 DUP4 GT PUSH2 0xD88 JUMPI DUP3 SWAP1 SUB PUSH1 0x1F AND DUP3 ADD SWAP2 JUMPDEST POP POP POP POP POP PUSH2 0xDB1 JUMP JUMPDEST DUP6 JUMPDEST SWAP1 POP PUSH1 0x60 PUSH0 DUP9 MLOAD GT DUP1 ISZERO PUSH2 0xDC5 JUMPI POP PUSH0 DUP8 MLOAD GT JUMPDEST ISZERO PUSH2 0xDF3 JUMPI DUP8 DUP8 PUSH1 0x40 MLOAD PUSH1 0x20 ADD PUSH2 0xDDD SWAP3 SWAP2 SWAP1 PUSH2 0x1FCA JUMP JUMPDEST PUSH1 0x40 MLOAD PUSH1 0x20 DUP2 DUP4 SUB SUB DUP2 MSTORE SWAP1 PUSH1 0x40 MSTORE SWAP1 POP PUSH2 0xE47 JUMP JUMPDEST PUSH0 DUP9 MLOAD GT ISZERO PUSH2 0xE23 JUMPI DUP8 PUSH1 0x40 MLOAD PUSH1 0x20 ADD PUSH2 0xE0D SWAP2 SWAP1 PUSH2 0x2003 JUMP JUMPDEST PUSH1 0x40 MLOAD PUSH1 0x20 DUP2 DUP4 SUB SUB DUP2 MSTORE SWAP1 PUSH1 0x40 MSTORE SWAP1 POP PUSH2 0xE46 JUMP JUMPDEST DUP7 PUSH1 0x40 MLOAD PUSH1 0x20 ADD PUSH2 0xE34 SWAP2 SWAP1 PUSH2 0x206E JUMP JUMPDEST PUSH1 0x40 MLOAD PUSH1 0x20 DUP2 DUP4 SUB SUB DUP2 MSTORE SWAP1 PUSH1 0x40 MSTORE SWAP1 POP JUMPDEST JUMPDEST DUP3 DUP6 PUSH1 0x2 ADD SWAP1 DUP2 PUSH2 0xE58 SWAP2 SWAP1 PUSH2 0x222C JUMP JUMPDEST POP DUP2 DUP6 PUSH1 0x7 ADD SWAP1 DUP2 PUSH2 0xE6A SWAP2 SWAP1 PUSH2 0x222C JUMP JUMPDEST POP DUP4 DUP6 PUSH1 0x9 ADD DUP2 SWAP1 SSTORE POP PUSH1 0x1 DUP10 PUSH1 0x40 MLOAD PUSH2 0xE84 SWAP2 SWAP1 PUSH2 0x1D5E JUMP JUMPDEST SWAP1 DUP2 MSTORE PUSH1 0x20 ADD PUSH1 0x40 MLOAD DUP1 SWAP2 SUB SWAP1 KECCAK256 PUSH1 0x40 MLOAD DUP1 PUSH1 0x80 ADD PUSH1 0x40 MSTORE DUP1 DUP7 DUP2 MSTORE PUSH1 0x20 ADD DUP6 DUP2 MSTORE PUSH1 0x20 ADD DUP5 DUP2 MSTORE PUSH1 0x20 ADD DUP4 DUP2 MSTORE POP SWAP1 DUP1 PUSH1 0x1 DUP2 SLOAD ADD DUP1 DUP3 SSTORE DUP1 SWAP2 POP POP PUSH1 0x1 SWAP1 SUB SWAP1 PUSH0 MSTORE PUSH1 0x20 PUSH0 KECCAK256 SWAP1 PUSH1 0x4 MUL ADD PUSH0 SWAP1 SWAP2 SWAP1 SWAP2 SWAP1 SWAP2 POP PUSH0 DUP3 ADD MLOAD DUP2 PUSH0 ADD SSTORE PUSH1 0x20 DUP3 ADD MLOAD DUP2 PUSH1 0x1 ADD SWAP1 DUP2 PUSH2 0xEF6 SWAP2 SWAP1 PUSH2 0x222C JUMP JUMPDEST POP PUSH1 0x40 DUP3 ADD MLOAD DUP2 PUSH1 0x2 ADD SWAP1 DUP2 PUSH2 0xF0C SWAP2 SWAP1 PUSH2 0x222C JUMP JUMPDEST POP PUSH1 0x60 DUP3 ADD MLOAD DUP2 PUSH1 0x3 ADD SWAP1 DUP2 PUSH2 0xF22 SWAP2 SWAP1 PUSH2 0x222C JUMP JUMPDEST POP POP POP DUP9 PUSH1 0x40 MLOAD PUSH2 0xF33 SWAP2 SWAP1 PUSH2 0x1D5E JUMP JUMPDEST PUSH1 0x40 MLOAD DUP1 SWAP2 SUB SWAP1 KECCAK256 PUSH32 0xA5DC66EB6128A83F690ED648445A97394E2B66104797CE5BC44E97DD6353310A DUP5 DUP5 DUP8 PUSH1 0x40 MLOAD PUSH2 0xF6E SWAP4 SWAP3 SWAP2 SWAP1 PUSH2 0x22FB JUMP JUMPDEST PUSH1 0x40 MLOAD DUP1 SWAP2 SUB SWAP1 LOG2 POP POP POP POP POP POP POP POP POP JUMP JUMPDEST PUSH0 DUP8 MLOAD GT PUSH2 0xFC4 JUMPI PUSH1 0x40 MLOAD PUSH32 0x8C379A000000000000000000000000000000000000000000000000000000000 DUP2 MSTORE PUSH1 0x4 ADD PUSH2 0xFBB SWAP1 PUSH2 0x2388 JUMP JUMPDEST PUSH1 0x40 MLOAD DUP1 SWAP2 SUB SWAP1 REVERT JUMPDEST PUSH0 DUP7 MLOAD GT PUSH2 0x1007 JUMPI PUSH1 0x40 MLOAD PUSH32 0x8C379A000000000000000000000000000000000000000000000000000000000 DUP2 MSTORE PUSH1 0x4 ADD PUSH2 0xFFE SWAP1 PUSH2 0x23F0 JUMP JUMPDEST PUSH1 0x40 MLOAD DUP1 SWAP2 SUB SWAP1 REVERT JUMPDEST PUSH0 DUP6 MLOAD GT PUSH2 0x104A JUMPI PUSH1 0x40 MLOAD PUSH32 0x8C379A000000000000000000000000000000000000000000000000000000000 DUP2 MSTORE PUSH1 0x4 ADD PUSH2 0x1041 SWAP1 PUSH2 0x2458 JUMP JUMPDEST PUSH1 0x40 MLOAD DUP1 SWAP2 SUB SWAP1 REVERT JUMPDEST PUSH0 DUP5 MLOAD GT PUSH2 0x108D JUMPI PUSH1 0x40 MLOAD PUSH32 0x8C379A000000000000000000000000000000000000000000000000000000000 DUP2 MSTORE PUSH1 0x4 ADD PUSH2 0x1084 SWAP1 PUSH2 0x24C0 JUMP JUMPDEST PUSH1 0x40 MLOAD DUP1 SWAP2 SUB SWAP1 REVERT JUMPDEST PUSH0 DUP4 GT PUSH2 0x10CF JUMPI PUSH1 0x40 MLOAD PUSH32 0x8C379A000000000000000000000000000000000000000000000000000000000 DUP2 MSTORE PUSH1 0x4 ADD PUSH2 0x10C6 SWAP1 PUSH2 0x2528 JUMP JUMPDEST PUSH1 0x40 MLOAD DUP1 SWAP2 SUB SWAP1 REVERT JUMPDEST PUSH0 DUP3 MLOAD GT PUSH2 0x1112 JUMPI PUSH1 0x40 MLOAD PUSH32 0x8C379A000000000000000000000000000000000000000000000000000000000 DUP2 MSTORE PUSH1 0x4 ADD PUSH2 0x1109 SWAP1 PUSH2 0x2590 JUMP JUMPDEST PUSH1 0x40 MLOAD DUP1 SWAP2 SUB SWAP1 REVERT JUMPDEST PUSH0 DUP8 PUSH1 0x40 MLOAD PUSH2 0x1121 SWAP2 SWAP1 PUSH2 0x1D5E JUMP JUMPDEST SWAP1 DUP2 MSTORE PUSH1 0x20 ADD PUSH1 0x40 MLOAD DUP1 SWAP2 SUB SWAP1 KECCAK256 PUSH1 0xA ADD PUSH0 SWAP1 SLOAD SWAP1 PUSH2 0x100 EXP SWAP1 DIV PUSH1 0xFF AND ISZERO PUSH2 0x117F JUMPI PUSH1 0x40 MLOAD PUSH32 0x8C379A000000000000000000000000000000000000000000000000000000000 DUP2 MSTORE PUSH1 0x4 ADD PUSH2 0x1176 SWAP1 PUSH2 0x25F8 JUMP JUMPDEST PUSH1 0x40 MLOAD DUP1 SWAP2 SUB SWAP1 REVERT JUMPDEST PUSH0 TIMESTAMP SWAP1 POP PUSH1 0x40 MLOAD DUP1 PUSH2 0x160 ADD PUSH1 0x40 MSTORE DUP1 DUP10 DUP2 MSTORE PUSH1 0x20 ADD DUP9 DUP2 MSTORE PUSH1 0x20 ADD DUP8 DUP2 MSTORE PUSH1 0x20 ADD DUP7 DUP2 MSTORE PUSH1 0x20 ADD DUP6 DUP2 MSTORE PUSH1 0x20 ADD DUP5 DUP2 MSTORE PUSH1 0x20 ADD DUP4 DUP2 MSTORE PUSH1 0x20 ADD PUSH1 0x40 MLOAD DUP1 PUSH1 0x40 ADD PUSH1 0x40 MSTORE DUP1 PUSH1 0xD DUP2 MSTORE PUSH1 0x20 ADD PUSH32 0x44616C616D205472616E73697400000000000000000000000000000000000000 DUP2 MSTORE POP DUP2 MSTORE PUSH1 0x20 ADD DUP3 DUP2 MSTORE PUSH1 0x20 ADD DUP3 DUP2 MSTORE PUSH1 0x20 ADD PUSH1 0x1 ISZERO ISZERO DUP2 MSTORE POP PUSH0 DUP10 PUSH1 0x40 MLOAD PUSH2 0x1216 SWAP2 SWAP1 PUSH2 0x1D5E JUMP JUMPDEST SWAP1 DUP2 MSTORE PUSH1 0x20 ADD PUSH1 0x40 MLOAD DUP1 SWAP2 SUB SWAP1 KECCAK256 PUSH0 DUP3 ADD MLOAD DUP2 PUSH0 ADD SWAP1 DUP2 PUSH2 0x1237 SWAP2 SWAP1 PUSH2 0x222C JUMP JUMPDEST POP PUSH1 0x20 DUP3 ADD MLOAD DUP2 PUSH1 0x1 ADD SWAP1 DUP2 PUSH2 0x124D SWAP2 SWAP1 PUSH2 0x222C JUMP JUMPDEST POP PUSH1 0x40 DUP3 ADD MLOAD DUP2 PUSH1 0x2 ADD SWAP1 DUP2 PUSH2 0x1263 SWAP2 SWAP1 PUSH2 0x222C JUMP JUMPDEST POP PUSH1 0x60 DUP3 ADD MLOAD DUP2 PUSH1 0x3 ADD SWAP1 DUP2 PUSH2 0x1279 SWAP2 SWAP1 PUSH2 0x222C JUMP JUMPDEST POP PUSH1 0x80 DUP3 ADD MLOAD DUP2 PUSH1 0x4 ADD SSTORE PUSH1 0xA0 DUP3 ADD MLOAD DUP2 PUSH1 0x5 ADD SWAP1 DUP2 PUSH2 0x1299 SWAP2 SWAP1 PUSH2 0x222C JUMP JUMPDEST POP PUSH1 0xC0 DUP3 ADD MLOAD DUP2 PUSH1 0x6 ADD SWAP1 DUP2 PUSH2 0x12AF SWAP2 SWAP1 PUSH2 0x222C JUMP JUMPDEST POP PUSH1 0xE0 DUP3 ADD MLOAD DUP2 PUSH1 0x7 ADD SWAP1 DUP2 PUSH2 0x12C5 SWAP2 SWAP1 PUSH2 0x222C JUMP JUMPDEST POP PUSH2 0x100 DUP3 ADD MLOAD DUP2 PUSH1 0x8 ADD SSTORE PUSH2 0x120 DUP3 ADD MLOAD DUP2 PUSH1 0x9 ADD SSTORE PUSH2 0x140 DUP3 ADD MLOAD DUP2 PUSH1 0xA ADD PUSH0 PUSH2 0x100 EXP DUP2 SLOAD DUP2 PUSH1 0xFF MUL NOT AND SWAP1 DUP4 ISZERO ISZERO MUL OR SWAP1 SSTORE POP SWAP1 POP POP PUSH1 0x2 DUP9 SWAP1 DUP1 PUSH1 0x1 DUP2 SLOAD ADD DUP1 DUP3 SSTORE DUP1 SWAP2 POP POP PUSH1 0x1 SWAP1 SUB SWAP1 PUSH0 MSTORE PUSH1 0x20 PUSH0 KECCAK256 ADD PUSH0 SWAP1 SWAP2 SWAP1 SWAP2 SWAP1 SWAP2 POP SWAP1 DUP2 PUSH2 0x1330 SWAP2 SWAP1 PUSH2 0x222C JUMP JUMPDEST POP PUSH0 PUSH2 0x133B DUP6 PUSH2 0x14A6 JUMP JUMPDEST DUP7 DUP6 PUSH1 0x40 MLOAD PUSH1 0x20 ADD PUSH2 0x134F SWAP4 SWAP3 SWAP2 SWAP1 PUSH2 0x273E JUMP JUMPDEST PUSH1 0x40 MLOAD PUSH1 0x20 DUP2 DUP4 SUB SUB DUP2 MSTORE SWAP1 PUSH1 0x40 MSTORE SWAP1 POP PUSH1 0x1 DUP10 PUSH1 0x40 MLOAD PUSH2 0x1370 SWAP2 SWAP1 PUSH2 0x1D5E JUMP JUMPDEST SWAP1 DUP2 MSTORE PUSH1 0x20 ADD PUSH1 0x40 MLOAD DUP1 SWAP2 SUB SWAP1 KECCAK256 PUSH1 0x40 MLOAD DUP1 PUSH1 0x80 ADD PUSH1 0x40 MSTORE DUP1 DUP5 DUP2 MSTORE PUSH1 0x20 ADD DUP10 DUP2 MSTORE PUSH1 0x20 ADD PUSH1 0x40 MLOAD DUP1 PUSH1 0x40 ADD PUSH1 0x40 MSTORE DUP1 PUSH1 0xD DUP2 MSTORE PUSH1 0x20 ADD PUSH32 0x44616C616D205472616E73697400000000000000000000000000000000000000 DUP2 MSTORE POP DUP2 MSTORE PUSH1 0x20 ADD DUP4 DUP2 MSTORE POP SWAP1 DUP1 PUSH1 0x1 DUP2 SLOAD ADD DUP1 DUP3 SSTORE DUP1 SWAP2 POP POP PUSH1 0x1 SWAP1 SUB SWAP1 PUSH0 MSTORE PUSH1 0x20 PUSH0 KECCAK256 SWAP1 PUSH1 0x4 MUL ADD PUSH0 SWAP1 SWAP2 SWAP1 SWAP2 SWAP1 SWAP2 POP PUSH0 DUP3 ADD MLOAD DUP2 PUSH0 ADD SSTORE PUSH1 0x20 DUP3 ADD MLOAD DUP2 PUSH1 0x1 ADD SWAP1 DUP2 PUSH2 0x1417 SWAP2 SWAP1 PUSH2 0x222C JUMP JUMPDEST POP PUSH1 0x40 DUP3 ADD MLOAD DUP2 PUSH1 0x2 ADD SWAP1 DUP2 PUSH2 0x142D SWAP2 SWAP1 PUSH2 0x222C JUMP JUMPDEST POP PUSH1 0x60 DUP3 ADD MLOAD DUP2 PUSH1 0x3 ADD SWAP1 DUP2 PUSH2 0x1443 SWAP2 SWAP1 PUSH2 0x222C JUMP JUMPDEST POP POP POP DUP9 PUSH1 0x40 MLOAD PUSH2 0x1454 SWAP2 SWAP1 PUSH2 0x1D5E JUMP JUMPDEST PUSH1 0x40 MLOAD DUP1 SWAP2 SUB SWAP1 KECCAK256 PUSH32 0x7FA7EF5A89B7FE34DA86EEB0898416C527C4309B2B34A91167D394213D4D8965 DUP10 DUP10 DUP10 DUP10 DUP10 PUSH1 0x40 MLOAD PUSH2 0x1493 SWAP6 SWAP5 SWAP4 SWAP3 SWAP2 SWAP1 PUSH2 0x27E4 JUMP JUMPDEST PUSH1 0x40 MLOAD DUP1 SWAP2 SUB SWAP1 LOG2 POP POP POP POP POP POP POP POP POP JUMP JUMPDEST PUSH1 0x60 PUSH0 DUP3 SUB PUSH2 0x14EC JUMPI PUSH1 0x40 MLOAD DUP1 PUSH1 0x40 ADD PUSH1 0x40 MSTORE DUP1 PUSH1 0x1 DUP2 MSTORE PUSH1 0x20 ADD PUSH32 0x3000000000000000000000000000000000000000000000000000000000000000 DUP2 MSTORE POP SWAP1 POP PUSH2 0x15FA JUMP JUMPDEST PUSH0 DUP3 SWAP1 POP PUSH0 JUMPDEST PUSH0 DUP3 EQ PUSH2 0x151B JUMPI DUP1 DUP1 PUSH2 0x1504 SWAP1 PUSH2 0x2891 JUMP JUMPDEST SWAP2 POP POP PUSH1 0xA DUP3 PUSH2 0x1514 SWAP2 SWAP1 PUSH2 0x2905 JUMP JUMPDEST SWAP2 POP PUSH2 0x14F2 JUMP JUMPDEST PUSH0 DUP2 PUSH8 0xFFFFFFFFFFFFFFFF DUP2 GT ISZERO PUSH2 0x1536 JUMPI PUSH2 0x1535 PUSH2 0x1628 JUMP JUMPDEST JUMPDEST PUSH1 0x40 MLOAD SWAP1 DUP1 DUP3 MSTORE DUP1 PUSH1 0x1F ADD PUSH1 0x1F NOT AND PUSH1 0x20 ADD DUP3 ADD PUSH1 0x40 MSTORE DUP1 ISZERO PUSH2 0x1568 JUMPI DUP2 PUSH1 0x20 ADD PUSH1 0x1 DUP3 MUL DUP1 CALLDATASIZE DUP4 CALLDATACOPY DUP1 DUP3 ADD SWAP2 POP POP SWAP1 POP JUMPDEST POP SWAP1 POP JUMPDEST PUSH0 DUP6 EQ PUSH2 0x15F3 JUMPI PUSH1 0x1 DUP3 PUSH2 0x1580 SWAP2 SWAP1 PUSH2 0x2935 JUMP JUMPDEST SWAP2 POP PUSH1 0xA DUP6 PUSH2 0x158F SWAP2 SWAP1 PUSH2 0x2968 JUMP JUMPDEST PUSH1 0x30 PUSH2 0x159B SWAP2 SWAP1 PUSH2 0x2998 JUMP JUMPDEST PUSH1 0xF8 SHL DUP2 DUP4 DUP2 MLOAD DUP2 LT PUSH2 0x15B1 JUMPI PUSH2 0x15B0 PUSH2 0x1E44 JUMP JUMPDEST JUMPDEST PUSH1 0x20 ADD ADD SWAP1 PUSH31 0xFFFFFFFFFFFFFFFFFFFFFFFFFFFFFFFFFFFFFFFFFFFFFFFFFFFFFFFFFFFFFF NOT AND SWAP1 DUP2 PUSH0 BYTE SWAP1 MSTORE8 POP PUSH1 0xA DUP6 PUSH2 0x15EC SWAP2 SWAP1 PUSH2 0x2905 JUMP JUMPDEST SWAP5 POP PUSH2 0x156C JUMP JUMPDEST DUP1 SWAP4 POP POP POP POP JUMPDEST SWAP2 SWAP1 POP JUMP JUMPDEST PUSH0 PUSH1 0x40 MLOAD SWAP1 POP SWAP1 JUMP JUMPDEST PUSH0 DUP1 REVERT JUMPDEST PUSH0 DUP1 REVERT JUMPDEST PUSH0 DUP1 REVERT JUMPDEST PUSH0 DUP1 REVERT JUMPDEST PUSH0 PUSH1 0x1F NOT PUSH1 0x1F DUP4 ADD AND SWAP1 POP SWAP2 SWAP1 POP JUMP JUMPDEST PUSH32 0x4E487B7100000000000000000000000000000000000000000000000000000000 PUSH0 MSTORE PUSH1 0x41 PUSH1 0x4 MSTORE PUSH1 0x24 PUSH0 REVERT JUMPDEST PUSH2 0x165E DUP3 PUSH2 0x1618 JUMP JUMPDEST DUP2 ADD DUP2 DUP2 LT PUSH8 0xFFFFFFFFFFFFFFFF DUP3 GT OR ISZERO PUSH2 0x167D JUMPI PUSH2 0x167C PUSH2 0x1628 JUMP JUMPDEST JUMPDEST DUP1 PUSH1 0x40 MSTORE POP POP POP JUMP JUMPDEST PUSH0 PUSH2 0x168F PUSH2 0x15FF JUMP JUMPDEST SWAP1 POP PUSH2 0x169B DUP3 DUP3 PUSH2 0x1655 JUMP JUMPDEST SWAP2 SWAP1 POP JUMP JUMPDEST PUSH0 PUSH8 0xFFFFFFFFFFFFFFFF DUP3 GT ISZERO PUSH2 0x16BA JUMPI PUSH2 0x16B9 PUSH2 0x1628 JUMP JUMPDEST JUMPDEST PUSH2 0x16C3 DUP3 PUSH2 0x1618 JUMP JUMPDEST SWAP1 POP PUSH1 0x20 DUP2 ADD SWAP1 POP SWAP2 SWAP1 POP JUMP JUMPDEST DUP3 DUP2 DUP4 CALLDATACOPY PUSH0 DUP4 DUP4 ADD MSTORE POP POP POP JUMP JUMPDEST PUSH0 PUSH2 0x16F0 PUSH2 0x16EB DUP5 PUSH2 0x16A0 JUMP JUMPDEST PUSH2 0x1686 JUMP JUMPDEST SWAP1 POP DUP3 DUP2 MSTORE PUSH1 0x20 DUP2 ADD DUP5 DUP5 DUP5 ADD GT ISZERO PUSH2 0x170C JUMPI PUSH2 0x170B PUSH2 0x1614 JUMP JUMPDEST JUMPDEST PUSH2 0x1717 DUP5 DUP3 DUP6 PUSH2 0x16D0 JUMP JUMPDEST POP SWAP4 SWAP3 POP POP POP JUMP JUMPDEST PUSH0 DUP3 PUSH1 0x1F DUP4 ADD SLT PUSH2 0x1733 JUMPI PUSH2 0x1732 PUSH2 0x1610 JUMP JUMPDEST JUMPDEST DUP2 CALLDATALOAD PUSH2 0x1743 DUP5 DUP3 PUSH1 0x20 DUP7 ADD PUSH2 0x16DE JUMP JUMPDEST SWAP2 POP POP SWAP3 SWAP2 POP POP JUMP JUMPDEST PUSH0 DUP2 SWAP1 POP SWAP2 SWAP1 POP JUMP JUMPDEST PUSH2 0x175E DUP2 PUSH2 0x174C JUMP JUMPDEST DUP2 EQ PUSH2 0x1768 JUMPI PUSH0 DUP1 REVERT JUMPDEST POP JUMP JUMPDEST PUSH0 DUP2 CALLDATALOAD SWAP1 POP PUSH2 0x1779 DUP2 PUSH2 0x1755 JUMP JUMPDEST SWAP3 SWAP2 POP POP JUMP JUMPDEST PUSH0 DUP1 PUSH1 0x40 DUP4 DUP6 SUB SLT ISZERO PUSH2 0x1795 JUMPI PUSH2 0x1794 PUSH2 0x1608 JUMP JUMPDEST JUMPDEST PUSH0 DUP4 ADD CALLDATALOAD PUSH8 0xFFFFFFFFFFFFFFFF DUP2 GT ISZERO PUSH2 0x17B2 JUMPI PUSH2 0x17B1 PUSH2 0x160C JUMP JUMPDEST JUMPDEST PUSH2 0x17BE DUP6 DUP3 DUP7 ADD PUSH2 0x171F JUMP JUMPDEST SWAP3 POP POP PUSH1 0x20 PUSH2 0x17CF DUP6 DUP3 DUP7 ADD PUSH2 0x176B JUMP JUMPDEST SWAP2 POP POP SWAP3 POP SWAP3 SWAP1 POP JUMP JUMPDEST PUSH2 0x17E2 DUP2 PUSH2 0x174C JUMP JUMPDEST DUP3 MSTORE POP POP JUMP JUMPDEST PUSH0 DUP2 MLOAD SWAP1 POP SWAP2 SWAP1 POP JUMP JUMPDEST PUSH0 DUP3 DUP3 MSTORE PUSH1 0x20 DUP3 ADD SWAP1 POP SWAP3 SWAP2 POP POP JUMP JUMPDEST PUSH0 JUMPDEST DUP4 DUP2 LT ISZERO PUSH2 0x181F JUMPI DUP1 DUP3 ADD MLOAD DUP2 DUP5 ADD MSTORE PUSH1 0x20 DUP2 ADD SWAP1 POP PUSH2 0x1804 JUMP JUMPDEST PUSH0 DUP5 DUP5 ADD MSTORE POP POP POP POP JUMP JUMPDEST PUSH0 PUSH2 0x1834 DUP3 PUSH2 0x17E8 JUMP JUMPDEST PUSH2 0x183E DUP2 DUP6 PUSH2 0x17F2 JUMP JUMPDEST SWAP4 POP PUSH2 0x184E DUP2 DUP6 PUSH1 0x20 DUP7 ADD PUSH2 0x1802 JUMP JUMPDEST PUSH2 0x1857 DUP2 PUSH2 0x1618 JUMP JUMPDEST DUP5 ADD SWAP2 POP POP SWAP3 SWAP2 POP POP JUMP JUMPDEST PUSH0 PUSH1 0x80 DUP3 ADD SWAP1 POP PUSH2 0x1875 PUSH0 DUP4 ADD DUP8 PUSH2 0x17D9 JUMP JUMPDEST DUP2 DUP2 SUB PUSH1 0x20 DUP4 ADD MSTORE PUSH2 0x1887 DUP2 DUP7 PUSH2 0x182A JUMP JUMPDEST SWAP1 POP DUP2 DUP2 SUB PUSH1 0x40 DUP4 ADD MSTORE PUSH2 0x189B DUP2 DUP6 PUSH2 0x182A JUMP JUMPDEST SWAP1 POP DUP2 DUP2 SUB PUSH1 0x60 DUP4 ADD MSTORE PUSH2 0x18AF DUP2 DUP5 PUSH2 0x182A JUMP JUMPDEST SWAP1 POP SWAP6 SWAP5 POP POP POP POP POP JUMP JUMPDEST PUSH0 PUSH1 0x20 DUP3 DUP5 SUB SLT ISZERO PUSH2 0x18CF JUMPI PUSH2 0x18CE PUSH2 0x1608 JUMP JUMPDEST JUMPDEST PUSH0 DUP3 ADD CALLDATALOAD PUSH8 0xFFFFFFFFFFFFFFFF DUP2 GT ISZERO PUSH2 0x18EC JUMPI PUSH2 0x18EB PUSH2 0x160C JUMP JUMPDEST JUMPDEST PUSH2 0x18F8 DUP5 DUP3 DUP6 ADD PUSH2 0x171F JUMP JUMPDEST SWAP2 POP POP SWAP3 SWAP2 POP POP JUMP JUMPDEST PUSH0 PUSH1 0x20 DUP3 ADD SWAP1 POP PUSH2 0x1914 PUSH0 DUP4 ADD DUP5 PUSH2 0x17D9 JUMP JUMPDEST SWAP3 SWAP2 POP POP JUMP JUMPDEST PUSH0 DUP2 MLOAD SWAP1 POP SWAP2 SWAP1 POP JUMP JUMPDEST PUSH0 DUP3 DUP3 MSTORE PUSH1 0x20 DUP3 ADD SWAP1 POP SWAP3 SWAP2 POP POP JUMP JUMPDEST PUSH0 DUP2 SWAP1 POP PUSH1 0x20 DUP3 ADD SWAP1 POP SWAP2 SWAP1 POP JUMP JUMPDEST PUSH0 DUP3 DUP3 MSTORE PUSH1 0x20 DUP3 ADD SWAP1 POP SWAP3 SWAP2 POP POP JUMP JUMPDEST PUSH0 PUSH2 0x195D DUP3 PUSH2 0x17E8 JUMP JUMPDEST PUSH2 0x1967 DUP2 DUP6 PUSH2 0x1943 JUMP JUMPDEST SWAP4 POP PUSH2 0x1977 DUP2 DUP6 PUSH1 0x20 DUP7 ADD PUSH2 0x1802 JUMP JUMPDEST PUSH2 0x1980 DUP2 PUSH2 0x1618 JUMP JUMPDEST DUP5 ADD SWAP2 POP POP SWAP3 SWAP2 POP POP JUMP JUMPDEST PUSH0 PUSH2 0x1996 DUP4 DUP4 PUSH2 0x1953 JUMP JUMPDEST SWAP1 POP SWAP3 SWAP2 POP POP JUMP JUMPDEST PUSH0 PUSH1 0x20 DUP3 ADD SWAP1 POP SWAP2 SWAP1 POP JUMP JUMPDEST PUSH0 PUSH2 0x19B4 DUP3 PUSH2 0x191A JUMP JUMPDEST PUSH2 0x19BE DUP2 DUP6 PUSH2 0x1924 JUMP JUMPDEST SWAP4 POP DUP4 PUSH1 0x20 DUP3 MUL DUP6 ADD PUSH2 0x19D0 DUP6 PUSH2 0x1934 JUMP JUMPDEST DUP1 PUSH0 JUMPDEST DUP6 DUP2 LT ISZERO PUSH2 0x1A0B JUMPI DUP5 DUP5 SUB DUP10 MSTORE DUP2 MLOAD PUSH2 0x19EC DUP6 DUP3 PUSH2 0x198B JUMP JUMPDEST SWAP5 POP PUSH2 0x19F7 DUP4 PUSH2 0x199E JUMP JUMPDEST SWAP3 POP PUSH1 0x20 DUP11 ADD SWAP10 POP POP PUSH1 0x1 DUP2 ADD SWAP1 POP PUSH2 0x19D3 JUMP JUMPDEST POP DUP3 SWAP8 POP DUP8 SWAP6 POP POP POP POP POP POP SWAP3 SWAP2 POP POP JUMP JUMPDEST PUSH0 PUSH1 0x20 DUP3 ADD SWAP1 POP DUP2 DUP2 SUB PUSH0 DUP4 ADD MSTORE PUSH2 0x1A35 DUP2 DUP5 PUSH2 0x19AA JUMP JUMPDEST SWAP1 POP SWAP3 SWAP2 POP POP JUMP JUMPDEST PUSH0 PUSH2 0x140 DUP3 ADD SWAP1 POP DUP2 DUP2 SUB PUSH0 DUP4 ADD MSTORE PUSH2 0x1A56 DUP2 DUP14 PUSH2 0x182A JUMP JUMPDEST SWAP1 POP DUP2 DUP2 SUB PUSH1 0x20 DUP4 ADD MSTORE PUSH2 0x1A6A DUP2 DUP13 PUSH2 0x182A JUMP JUMPDEST SWAP1 POP DUP2 DUP2 SUB PUSH1 0x40 DUP4 ADD MSTORE PUSH2 0x1A7E DUP2 DUP12 PUSH2 0x182A JUMP JUMPDEST SWAP1 POP DUP2 DUP2 SUB PUSH1 0x60 DUP4 ADD MSTORE PUSH2 0x1A92 DUP2 DUP11 PUSH2 0x182A JUMP JUMPDEST SWAP1 POP PUSH2 0x1AA1 PUSH1 0x80 DUP4 ADD DUP10 PUSH2 0x17D9 JUMP JUMPDEST DUP2 DUP2 SUB PUSH1 0xA0 DUP4 ADD MSTORE PUSH2 0x1AB3 DUP2 DUP9 PUSH2 0x182A JUMP JUMPDEST SWAP1 POP DUP2 DUP2 SUB PUSH1 0xC0 DUP4 ADD MSTORE PUSH2 0x1AC7 DUP2 DUP8 PUSH2 0x182A JUMP JUMPDEST SWAP1 POP DUP2 DUP2 SUB PUSH1 0xE0 DUP4 ADD MSTORE PUSH2 0x1ADB DUP2 DUP7 PUSH2 0x182A JUMP JUMPDEST SWAP1 POP PUSH2 0x1AEB PUSH2 0x100 DUP4 ADD DUP6 PUSH2 0x17D9 JUMP JUMPDEST PUSH2 0x1AF9 PUSH2 0x120 DUP4 ADD DUP5 PUSH2 0x17D9 JUMP JUMPDEST SWAP12 SWAP11 POP POP POP POP POP POP POP POP POP POP POP JUMP JUMPDEST PUSH0 DUP2 ISZERO ISZERO SWAP1 POP SWAP2 SWAP1 POP JUMP JUMPDEST PUSH2 0x1B1C DUP2 PUSH2 0x1B08 JUMP JUMPDEST DUP3 MSTORE POP POP JUMP JUMPDEST PUSH0 PUSH1 0x20 DUP3 ADD SWAP1 POP PUSH2 0x1B35 PUSH0 DUP4 ADD DUP5 PUSH2 0x1B13 JUMP JUMPDEST SWAP3 SWAP2 POP POP JUMP JUMPDEST PUSH0 DUP1 PUSH0 PUSH1 0x60 DUP5 DUP7 SUB SLT ISZERO PUSH2 0x1B52 JUMPI PUSH2 0x1B51 PUSH2 0x1608 JUMP JUMPDEST JUMPDEST PUSH0 DUP5 ADD CALLDATALOAD PUSH8 0xFFFFFFFFFFFFFFFF DUP2 GT ISZERO PUSH2 0x1B6F JUMPI PUSH2 0x1B6E PUSH2 0x160C JUMP JUMPDEST JUMPDEST PUSH2 0x1B7B DUP7 DUP3 DUP8 ADD PUSH2 0x171F JUMP JUMPDEST SWAP4 POP POP PUSH1 0x20 DUP5 ADD CALLDATALOAD PUSH8 0xFFFFFFFFFFFFFFFF DUP2 GT ISZERO PUSH2 0x1B9C JUMPI PUSH2 0x1B9B PUSH2 0x160C JUMP JUMPDEST JUMPDEST PUSH2 0x1BA8 DUP7 DUP3 DUP8 ADD PUSH2 0x171F JUMP JUMPDEST SWAP3 POP POP PUSH1 0x40 DUP5 ADD CALLDATALOAD PUSH8 0xFFFFFFFFFFFFFFFF DUP2 GT ISZERO PUSH2 0x1BC9 JUMPI PUSH2 0x1BC8 PUSH2 0x160C JUMP JUMPDEST JUMPDEST PUSH2 0x1BD5 DUP7 DUP3 DUP8 ADD PUSH2 0x171F JUMP JUMPDEST SWAP2 POP POP SWAP3 POP SWAP3 POP SWAP3 JUMP JUMPDEST PUSH0 DUP1 PUSH0 DUP1 PUSH0 DUP1 PUSH0 PUSH1 0xE0 DUP9 DUP11 SUB SLT ISZERO PUSH2 0x1BFA JUMPI PUSH2 0x1BF9 PUSH2 0x1608 JUMP JUMPDEST JUMPDEST PUSH0 DUP9 ADD CALLDATALOAD PUSH8 0xFFFFFFFFFFFFFFFF DUP2 GT ISZERO PUSH2 0x1C17 JUMPI PUSH2 0x1C16 PUSH2 0x160C JUMP JUMPDEST JUMPDEST PUSH2 0x1C23 DUP11 DUP3 DUP12 ADD PUSH2 0x171F JUMP JUMPDEST SWAP8 POP POP PUSH1 0x20 DUP9 ADD CALLDATALOAD PUSH8 0xFFFFFFFFFFFFFFFF DUP2 GT ISZERO PUSH2 0x1C44 JUMPI PUSH2 0x1C43 PUSH2 0x160C JUMP JUMPDEST JUMPDEST PUSH2 0x1C50 DUP11 DUP3 DUP12 ADD PUSH2 0x171F JUMP JUMPDEST SWAP7 POP POP PUSH1 0x40 DUP9 ADD CALLDATALOAD PUSH8 0xFFFFFFFFFFFFFFFF DUP2 GT ISZERO PUSH2 0x1C71 JUMPI PUSH2 0x1C70 PUSH2 0x160C JUMP JUMPDEST JUMPDEST PUSH2 0x1C7D DUP11 DUP3 DUP12 ADD PUSH2 0x171F JUMP JUMPDEST SWAP6 POP POP PUSH1 0x60 DUP9 ADD CALLDATALOAD PUSH8 0xFFFFFFFFFFFFFFFF DUP2 GT ISZERO PUSH2 0x1C9E JUMPI PUSH2 0x1C9D PUSH2 0x160C JUMP JUMPDEST JUMPDEST PUSH2 0x1CAA DUP11 DUP3 DUP12 ADD PUSH2 0x171F JUMP JUMPDEST SWAP5 POP POP PUSH1 0x80 PUSH2 0x1CBB DUP11 DUP3 DUP12 ADD PUSH2 0x176B JUMP JUMPDEST SWAP4 POP POP PUSH1 0xA0 DUP9 ADD CALLDATALOAD PUSH8 0xFFFFFFFFFFFFFFFF DUP2 GT ISZERO PUSH2 0x1CDC JUMPI PUSH2 0x1CDB PUSH2 0x160C JUMP JUMPDEST JUMPDEST PUSH2 0x1CE8 DUP11 DUP3 DUP12 ADD PUSH2 0x171F JUMP JUMPDEST SWAP3 POP POP PUSH1 0xC0 DUP9 ADD CALLDATALOAD PUSH8 0xFFFFFFFFFFFFFFFF DUP2 GT ISZERO PUSH2 0x1D09 JUMPI PUSH2 0x1D08 PUSH2 0x160C JUMP JUMPDEST JUMPDEST PUSH2 0x1D15 DUP11 DUP3 DUP12 ADD PUSH2 0x171F JUMP JUMPDEST SWAP2 POP POP SWAP3 SWAP6 SWAP9 SWAP2 SWAP5 SWAP8 POP SWAP3 SWAP6 POP JUMP JUMPDEST PUSH0 DUP2 SWAP1 POP SWAP3 SWAP2 POP POP JUMP JUMPDEST PUSH0 PUSH2 0x1D38 DUP3 PUSH2 0x17E8 JUMP JUMPDEST PUSH2 0x1D42 DUP2 DUP6 PUSH2 0x1D24 JUMP JUMPDEST SWAP4 POP PUSH2 0x1D52 DUP2 DUP6 PUSH1 0x20 DUP7 ADD PUSH2 0x1802 JUMP JUMPDEST DUP1 DUP5 ADD SWAP2 POP POP SWAP3 SWAP2 POP POP JUMP JUMPDEST PUSH0 PUSH2 0x1D69 DUP3 DUP5 PUSH2 0x1D2E JUMP JUMPDEST SWAP2 POP DUP2 SWAP1 POP SWAP3 SWAP2 POP POP JUMP JUMPDEST PUSH32 0x50726F6475637420646F6573206E6F7420657869737400000000000000000000 PUSH0 DUP3 ADD MSTORE POP JUMP JUMPDEST PUSH0 PUSH2 0x1DA8 PUSH1 0x16 DUP4 PUSH2 0x17F2 JUMP JUMPDEST SWAP2 POP PUSH2 0x1DB3 DUP3 PUSH2 0x1D74 JUMP JUMPDEST PUSH1 0x20 DUP3 ADD SWAP1 POP SWAP2 SWAP1 POP JUMP JUMPDEST PUSH0 PUSH1 0x20 DUP3 ADD SWAP1 POP DUP2 DUP2 SUB PUSH0 DUP4 ADD MSTORE PUSH2 0x1DD5 DUP2 PUSH2 0x1D9C JUMP JUMPDEST SWAP1 POP SWAP2 SWAP1 POP JUMP JUMPDEST PUSH32 0x496E76616C696420686973746F727920696E6465780000000000000000000000 PUSH0 DUP3 ADD MSTORE POP JUMP JUMPDEST PUSH0 PUSH2 0x1E10 PUSH1 0x15 DUP4 PUSH2 0x17F2 JUMP JUMPDEST SWAP2 POP PUSH2 0x1E1B DUP3 PUSH2 0x1DDC JUMP JUMPDEST PUSH1 0x20 DUP3 ADD SWAP1 POP SWAP2 SWAP1 POP JUMP JUMPDEST PUSH0 PUSH1 0x20 DUP3 ADD SWAP1 POP DUP2 DUP2 SUB PUSH0 DUP4 ADD MSTORE PUSH2 0x1E3D DUP2 PUSH2 0x1E04 JUMP JUMPDEST SWAP1 POP SWAP2 SWAP1 POP JUMP JUMPDEST PUSH32 0x4E487B7100000000000000000000000000000000000000000000000000000000 PUSH0 MSTORE PUSH1 0x32 PUSH1 0x4 MSTORE PUSH1 0x24 PUSH0 REVERT JUMPDEST PUSH32 0x4E487B7100000000000000000000000000000000000000000000000000000000 PUSH0 MSTORE PUSH1 0x22 PUSH1 0x4 MSTORE PUSH1 0x24 PUSH0 REVERT JUMPDEST PUSH0 PUSH1 0x2 DUP3 DIV SWAP1 POP PUSH1 0x1 DUP3 AND DUP1 PUSH2 0x1EB5 JUMPI PUSH1 0x7F DUP3 AND SWAP2 POP JUMPDEST PUSH1 0x20 DUP3 LT DUP2 SUB PUSH2 0x1EC8 JUMPI PUSH2 0x1EC7 PUSH2 0x1E71 JUMP JUMPDEST JUMPDEST POP SWAP2 SWAP1 POP JUMP JUMPDEST PUSH32 0x4C6F636174696F6E206F72207374617475732072657175697265640000000000 PUSH0 DUP3 ADD MSTORE POP JUMP JUMPDEST PUSH0 PUSH2 0x1F02 PUSH1 0x1B DUP4 PUSH2 0x17F2 JUMP JUMPDEST SWAP2 POP PUSH2 0x1F0D DUP3 PUSH2 0x1ECE JUMP JUMPDEST PUSH1 0x20 DUP3 ADD SWAP1 POP SWAP2 SWAP1 POP JUMP JUMPDEST PUSH0 PUSH1 0x20 DUP3 ADD SWAP1 POP DUP2 DUP2 SUB PUSH0 DUP4 ADD MSTORE PUSH2 0x1F2F DUP2 PUSH2 0x1EF6 JUMP JUMPDEST SWAP1 POP SWAP2 SWAP1 POP JUMP JUMPDEST PUSH32 0x4C6F6B61736920E2869220000000000000000000000000000000000000000000 PUSH0 DUP3 ADD MSTORE POP JUMP JUMPDEST PUSH0 PUSH2 0x1F6A PUSH1 0xB DUP4 PUSH2 0x1D24 JUMP JUMPDEST SWAP2 POP PUSH2 0x1F75 DUP3 PUSH2 0x1F36 JUMP JUMPDEST PUSH1 0xB DUP3 ADD SWAP1 POP SWAP2 SWAP1 POP JUMP JUMPDEST PUSH32 0x20C2B72053746174757320E28692200000000000000000000000000000000000 PUSH0 DUP3 ADD MSTORE POP JUMP JUMPDEST PUSH0 PUSH2 0x1FB4 PUSH1 0xF DUP4 PUSH2 0x1D24 JUMP JUMPDEST SWAP2 POP PUSH2 0x1FBF DUP3 PUSH2 0x1F80 JUMP JUMPDEST PUSH1 0xF DUP3 ADD SWAP1 POP SWAP2 SWAP1 POP JUMP JUMPDEST PUSH0 PUSH2 0x1FD4 DUP3 PUSH2 0x1F5E JUMP JUMPDEST SWAP2 POP PUSH2 0x1FE0 DUP3 DUP6 PUSH2 0x1D2E JUMP JUMPDEST SWAP2 POP PUSH2 0x1FEB DUP3 PUSH2 0x1FA8 JUMP JUMPDEST SWAP2 POP PUSH2 0x1FF7 DUP3 DUP5 PUSH2 0x1D2E JUMP JUMPDEST SWAP2 POP DUP2 SWAP1 POP SWAP4 SWAP3 POP POP POP JUMP JUMPDEST PUSH0 PUSH2 0x200D DUP3 PUSH2 0x1F5E JUMP JUMPDEST SWAP2 POP PUSH2 0x2019 DUP3 DUP5 PUSH2 0x1D2E JUMP JUMPDEST SWAP2 POP DUP2 SWAP1 POP SWAP3 SWAP2 POP POP JUMP JUMPDEST PUSH32 0x53746174757320E2869220000000000000000000000000000000000000000000 PUSH0 DUP3 ADD MSTORE POP JUMP JUMPDEST PUSH0 PUSH2 0x2058 PUSH1 0xB DUP4 PUSH2 0x1D24 JUMP JUMPDEST SWAP2 POP PUSH2 0x2063 DUP3 PUSH2 0x2024 JUMP JUMPDEST PUSH1 0xB DUP3 ADD SWAP1 POP SWAP2 SWAP1 POP JUMP JUMPDEST PUSH0 PUSH2 0x2078 DUP3 PUSH2 0x204C JUMP JUMPDEST SWAP2 POP PUSH2 0x2084 DUP3 DUP5 PUSH2 0x1D2E JUMP JUMPDEST SWAP2 POP DUP2 SWAP1 POP SWAP3 SWAP2 POP POP JUMP JUMPDEST PUSH0 DUP2 SWAP1 POP DUP2 PUSH0 MSTORE PUSH1 0x20 PUSH0 KECCAK256 SWAP1 POP SWAP2 SWAP1 POP JUMP JUMPDEST PUSH0 PUSH1 0x20 PUSH1 0x1F DUP4 ADD DIV SWAP1 POP SWAP2 SWAP1 POP JUMP JUMPDEST PUSH0 DUP3 DUP3 SHL SWAP1 POP SWAP3 SWAP2 POP POP JUMP JUMPDEST PUSH0 PUSH1 0x8 DUP4 MUL PUSH2 0x20EB PUSH32 0xFFFFFFFFFFFFFFFFFFFFFFFFFFFFFFFFFFFFFFFFFFFFFFFFFFFFFFFFFFFFFFFF DUP3 PUSH2 0x20B0 JUMP JUMPDEST PUSH2 0x20F5 DUP7 DUP4 PUSH2 0x20B0 JUMP JUMPDEST SWAP6 POP DUP1 NOT DUP5 AND SWAP4 POP DUP1 DUP7 AND DUP5 OR SWAP3 POP POP POP SWAP4 SWAP3 POP POP POP JUMP JUMPDEST PUSH0 DUP2 SWAP1 POP SWAP2 SWAP1 POP JUMP JUMPDEST PUSH0 PUSH2 0x2130 PUSH2 0x212B PUSH2 0x2126 DUP5 PUSH2 0x174C JUMP JUMPDEST PUSH2 0x210D JUMP JUMPDEST PUSH2 0x174C JUMP JUMPDEST SWAP1 POP SWAP2 SWAP1 POP JUMP JUMPDEST PUSH0 DUP2 SWAP1 POP SWAP2 SWAP1 POP JUMP JUMPDEST PUSH2 0x2149 DUP4 PUSH2 0x2116 JUMP JUMPDEST PUSH2 0x215D PUSH2 0x2155 DUP3 PUSH2 0x2137 JUMP JUMPDEST DUP5 DUP5 SLOAD PUSH2 0x20BC JUMP JUMPDEST DUP3 SSTORE POP POP POP POP JUMP JUMPDEST PUSH0 SWAP1 JUMP JUMPDEST PUSH2 0x2171 PUSH2 0x2165 JUMP JUMPDEST PUSH2 0x217C DUP2 DUP5 DUP5 PUSH2 0x2140 JUMP JUMPDEST POP POP POP JUMP JUMPDEST JUMPDEST DUP2 DUP2 LT ISZERO PUSH2 0x219F JUMPI PUSH2 0x2194 PUSH0 DUP3 PUSH2 0x2169 JUMP JUMPDEST PUSH1 0x1 DUP2 ADD SWAP1 POP PUSH2 0x2182 JUMP JUMPDEST POP POP JUMP JUMPDEST PUSH1 0x1F DUP3 GT ISZERO PUSH2 0x21E4 JUMPI PUSH2 0x21B5 DUP2 PUSH2 0x208F JUMP JUMPDEST PUSH2 0x21BE DUP5 PUSH2 0x20A1 JUMP JUMPDEST DUP2 ADD PUSH1 0x20 DUP6 LT ISZERO PUSH2 0x21CD JUMPI DUP2 SWAP1 POP JUMPDEST PUSH2 0x21E1 PUSH2 0x21D9 DUP6 PUSH2 0x20A1 JUMP JUMPDEST DUP4 ADD DUP3 PUSH2 0x2181 JUMP JUMPDEST POP POP JUMPDEST POP POP POP JUMP JUMPDEST PUSH0 DUP3 DUP3 SHR SWAP1 POP SWAP3 SWAP2 POP POP JUMP JUMPDEST PUSH0 PUSH2 0x2204 PUSH0 NOT DUP5 PUSH1 0x8 MUL PUSH2 0x21E9 JUMP JUMPDEST NOT DUP1 DUP4 AND SWAP2 POP POP SWAP3 SWAP2 POP POP JUMP JUMPDEST PUSH0 PUSH2 0x221C DUP4 DUP4 PUSH2 0x21F5 JUMP JUMPDEST SWAP2 POP DUP3 PUSH1 0x2 MUL DUP3 OR SWAP1 POP SWAP3 SWAP2 POP POP JUMP JUMPDEST PUSH2 0x2235 DUP3 PUSH2 0x17E8 JUMP JUMPDEST PUSH8 0xFFFFFFFFFFFFFFFF DUP2 GT ISZERO PUSH2 0x224E JUMPI PUSH2 0x224D PUSH2 0x1628 JUMP JUMPDEST JUMPDEST PUSH2 0x2258 DUP3 SLOAD PUSH2 0x1E9E JUMP JUMPDEST PUSH2 0x2263 DUP3 DUP3 DUP6 PUSH2 0x21A3 JUMP JUMPDEST PUSH0 PUSH1 0x20 SWAP1 POP PUSH1 0x1F DUP4 GT PUSH1 0x1 DUP2 EQ PUSH2 0x2294 JUMPI PUSH0 DUP5 ISZERO PUSH2 0x2282 JUMPI DUP3 DUP8 ADD MLOAD SWAP1 POP JUMPDEST PUSH2 0x228C DUP6 DUP3 PUSH2 0x2211 JUMP JUMPDEST DUP7 SSTORE POP PUSH2 0x22F3 JUMP JUMPDEST PUSH1 0x1F NOT DUP5 AND PUSH2 0x22A2 DUP7 PUSH2 0x208F JUMP JUMPDEST PUSH0 JUMPDEST DUP3 DUP2 LT ISZERO PUSH2 0x22C9 JUMPI DUP5 DUP10 ADD MLOAD DUP3 SSTORE PUSH1 0x1 DUP3 ADD SWAP2 POP PUSH1 0x20 DUP6 ADD SWAP5 POP PUSH1 0x20 DUP2 ADD SWAP1 POP PUSH2 0x22A4 JUMP JUMPDEST DUP7 DUP4 LT ISZERO PUSH2 0x22E6 JUMPI DUP5 DUP10 ADD MLOAD PUSH2 0x22E2 PUSH1 0x1F DUP10 AND DUP3 PUSH2 0x21F5 JUMP JUMPDEST DUP4 SSTORE POP JUMPDEST PUSH1 0x1 PUSH1 0x2 DUP9 MUL ADD DUP9 SSTORE POP POP POP JUMPDEST POP POP POP POP POP POP JUMP JUMPDEST PUSH0 PUSH1 0x60 DUP3 ADD SWAP1 POP DUP2 DUP2 SUB PUSH0 DUP4 ADD MSTORE PUSH2 0x2313 DUP2 DUP7 PUSH2 0x182A JUMP JUMPDEST SWAP1 POP DUP2 DUP2 SUB PUSH1 0x20 DUP4 ADD MSTORE PUSH2 0x2327 DUP2 DUP6 PUSH2 0x182A JUMP JUMPDEST SWAP1 POP PUSH2 0x2336 PUSH1 0x40 DUP4 ADD DUP5 PUSH2 0x17D9 JUMP JUMPDEST SWAP5 SWAP4 POP POP POP POP JUMP JUMPDEST PUSH32 0x4944206973207265717569726564000000000000000000000000000000000000 PUSH0 DUP3 ADD MSTORE POP JUMP JUMPDEST PUSH0 PUSH2 0x2372 PUSH1 0xE DUP4 PUSH2 0x17F2 JUMP JUMPDEST SWAP2 POP PUSH2 0x237D DUP3 PUSH2 0x233E JUMP JUMPDEST PUSH1 0x20 DUP3 ADD SWAP1 POP SWAP2 SWAP1 POP JUMP JUMPDEST PUSH0 PUSH1 0x20 DUP3 ADD SWAP1 POP DUP2 DUP2 SUB PUSH0 DUP4 ADD MSTORE PUSH2 0x239F DUP2 PUSH2 0x2366 JUMP JUMPDEST SWAP1 POP SWAP2 SWAP1 POP JUMP JUMPDEST PUSH32 0x4E616D6520697320726571756972656400000000000000000000000000000000 PUSH0 DUP3 ADD MSTORE POP JUMP JUMPDEST PUSH0 PUSH2 0x23DA PUSH1 0x10 DUP4 PUSH2 0x17F2 JUMP JUMPDEST SWAP2 POP PUSH2 0x23E5 DUP3 PUSH2 0x23A6 JUMP JUMPDEST PUSH1 0x20 DUP3 ADD SWAP1 POP SWAP2 SWAP1 POP JUMP JUMPDEST PUSH0 PUSH1 0x20 DUP3 ADD SWAP1 POP DUP2 DUP2 SUB PUSH0 DUP4 ADD MSTORE PUSH2 0x2407 DUP2 PUSH2 0x23CE JUMP JUMPDEST SWAP1 POP SWAP2 SWAP1 POP JUMP JUMPDEST PUSH32 0x4C6F636174696F6E206973207265717569726564000000000000000000000000 PUSH0 DUP3 ADD MSTORE POP JUMP JUMPDEST PUSH0 PUSH2 0x2442 PUSH1 0x14 DUP4 PUSH2 0x17F2 JUMP JUMPDEST SWAP2 POP PUSH2 0x244D DUP3 PUSH2 0x240E JUMP JUMPDEST PUSH1 0x20 DUP3 ADD SWAP1 POP SWAP2 SWAP1 POP JUMP JUMPDEST PUSH0 PUSH1 0x20 DUP3 ADD SWAP1 POP DUP2 DUP2 SUB PUSH0 DUP4 ADD MSTORE PUSH2 0x246F DUP2 PUSH2 0x2436 JUMP JUMPDEST SWAP1 POP SWAP2 SWAP1 POP JUMP JUMPDEST PUSH32 0x44657374696E6174696F6E206973207265717569726564000000000000000000 PUSH0 DUP3 ADD MSTORE POP JUMP JUMPDEST PUSH0 PUSH2 0x24AA PUSH1 0x17 DUP4 PUSH2 0x17F2 JUMP JUMPDEST SWAP2 POP PUSH2 0x24B5 DUP3 PUSH2 0x2476 JUMP JUMPDEST PUSH1 0x20 DUP3 ADD SWAP1 POP SWAP2 SWAP1 POP JUMP JUMPDEST PUSH0 PUSH1 0x20 DUP3 ADD SWAP1 POP DUP2 DUP2 SUB PUSH0 DUP4 ADD MSTORE PUSH2 0x24D7 DUP2 PUSH2 0x249E JUMP JUMPDEST SWAP1 POP SWAP2 SWAP1 POP JUMP JUMPDEST PUSH32 0x5175616E74697479206D757374206265203E2030000000000000000000000000 PUSH0 DUP3 ADD MSTORE POP JUMP JUMPDEST PUSH0 PUSH2 0x2512 PUSH1 0x14 DUP4 PUSH2 0x17F2 JUMP JUMPDEST SWAP2 POP PUSH2 0x251D DUP3 PUSH2 0x24DE JUMP JUMPDEST PUSH1 0x20 DUP3 ADD SWAP1 POP SWAP2 SWAP1 POP JUMP JUMPDEST PUSH0 PUSH1 0x20 DUP3 ADD SWAP1 POP DUP2 DUP2 SUB PUSH0 DUP4 ADD MSTORE PUSH2 0x253F DUP2 PUSH2 0x2506 JUMP JUMPDEST SWAP1 POP SWAP2 SWAP1 POP JUMP JUMPDEST PUSH32 0x436F6D70616E7920697320726571756972656400000000000000000000000000 PUSH0 DUP3 ADD MSTORE POP JUMP JUMPDEST PUSH0 PUSH2 0x257A PUSH1 0x13 DUP4 PUSH2 0x17F2 JUMP JUMPDEST SWAP2 POP PUSH2 0x2585 DUP3 PUSH2 0x2546 JUMP JUMPDEST PUSH1 0x20 DUP3 ADD SWAP1 POP SWAP2 SWAP1 POP JUMP JUMPDEST PUSH0 PUSH1 0x20 DUP3 ADD SWAP1 POP DUP2 DUP2 SUB PUSH0 DUP4 ADD MSTORE PUSH2 0x25A7 DUP2 PUSH2 0x256E JUMP JUMPDEST SWAP1 POP SWAP2 SWAP1 POP JUMP JUMPDEST PUSH32 0x50726F6475637420616C72656164792065786973747300000000000000000000 PUSH0 DUP3 ADD MSTORE POP JUMP JUMPDEST PUSH0 PUSH2 0x25E2 PUSH1 0x16 DUP4 PUSH2 0x17F2 JUMP JUMPDEST SWAP2 POP PUSH2 0x25ED DUP3 PUSH2 0x25AE JUMP JUMPDEST PUSH1 0x20 DUP3 ADD SWAP1 POP SWAP2 SWAP1 POP JUMP JUMPDEST PUSH0 PUSH1 0x20 DUP3 ADD SWAP1 POP DUP2 DUP2 SUB PUSH0 DUP4 ADD MSTORE PUSH2 0x260F DUP2 PUSH2 0x25D6 JUMP JUMPDEST SWAP1 POP SWAP2 SWAP1 POP JUMP JUMPDEST PUSH32 0x50726F64756B2064696461667461726B616E20E2809420000000000000000000 PUSH0 DUP3 ADD MSTORE POP JUMP JUMPDEST PUSH0 PUSH2 0x264A PUSH1 0x17 DUP4 PUSH2 0x1D24 JUMP JUMPDEST SWAP2 POP PUSH2 0x2655 DUP3 PUSH2 0x2616 JUMP JUMPDEST PUSH1 0x17 DUP3 ADD SWAP1 POP SWAP2 SWAP1 POP JUMP JUMPDEST PUSH32 0x20756E69742064696B6972696D206B6520000000000000000000000000000000 PUSH0 DUP3 ADD MSTORE POP JUMP JUMPDEST PUSH0 PUSH2 0x2694 PUSH1 0x11 DUP4 PUSH2 0x1D24 JUMP JUMPDEST SWAP2 POP PUSH2 0x269F DUP3 PUSH2 0x2660 JUMP JUMPDEST PUSH1 0x11 DUP3 ADD SWAP1 POP SWAP2 SWAP1 POP JUMP JUMPDEST PUSH32 0x2028000000000000000000000000000000000000000000000000000000000000 PUSH0 DUP3 ADD MSTORE POP JUMP JUMPDEST PUSH0 PUSH2 0x26DE PUSH1 0x2 DUP4 PUSH2 0x1D24 JUMP JUMPDEST SWAP2 POP PUSH2 0x26E9 DUP3 PUSH2 0x26AA JUMP JUMPDEST PUSH1 0x2 DUP3 ADD SWAP1 POP SWAP2 SWAP1 POP JUMP JUMPDEST PUSH32 0x2900000000000000000000000000000000000000000000000000000000000000 PUSH0 DUP3 ADD MSTORE POP JUMP JUMPDEST PUSH0 PUSH2 0x2728 PUSH1 0x1 DUP4 PUSH2 0x1D24 JUMP JUMPDEST SWAP2 POP PUSH2 0x2733 DUP3 PUSH2 0x26F4 JUMP JUMPDEST PUSH1 0x1 DUP3 ADD SWAP1 POP SWAP2 SWAP1 POP JUMP JUMPDEST PUSH0 PUSH2 0x2748 DUP3 PUSH2 0x263E JUMP JUMPDEST SWAP2 POP PUSH2 0x2754 DUP3 DUP7 PUSH2 0x1D2E JUMP JUMPDEST SWAP2 POP PUSH2 0x275F DUP3 PUSH2 0x2688 JUMP JUMPDEST SWAP2 POP PUSH2 0x276B DUP3 DUP6 PUSH2 0x1D2E JUMP JUMPDEST SWAP2 POP PUSH2 0x2776 DUP3 PUSH2 0x26D2 JUMP JUMPDEST SWAP2 POP PUSH2 0x2782 DUP3 DUP5 PUSH2 0x1D2E JUMP JUMPDEST SWAP2 POP PUSH2 0x278D DUP3 PUSH2 0x271C JUMP JUMPDEST SWAP2 POP DUP2 SWAP1 POP SWAP5 SWAP4 POP POP POP POP JUMP JUMPDEST PUSH32 0x44616C616D205472616E73697400000000000000000000000000000000000000 PUSH0 DUP3 ADD MSTORE POP JUMP JUMPDEST PUSH0 PUSH2 0x27CE PUSH1 0xD DUP4 PUSH2 0x17F2 JUMP JUMPDEST SWAP2 POP PUSH2 0x27D9 DUP3 PUSH2 0x279A JUMP JUMPDEST PUSH1 0x20 DUP3 ADD SWAP1 POP SWAP2 SWAP1 POP JUMP JUMPDEST PUSH0 PUSH1 0xC0 DUP3 ADD SWAP1 POP DUP2 DUP2 SUB PUSH0 DUP4 ADD MSTORE PUSH2 0x27FC DUP2 DUP9 PUSH2 0x182A JUMP JUMPDEST SWAP1 POP DUP2 DUP2 SUB PUSH1 0x20 DUP4 ADD MSTORE PUSH2 0x2810 DUP2 DUP8 PUSH2 0x182A JUMP JUMPDEST SWAP1 POP DUP2 DUP2 SUB PUSH1 0x40 DUP4 ADD MSTORE PUSH2 0x2824 DUP2 DUP7 PUSH2 0x182A JUMP JUMPDEST SWAP1 POP PUSH2 0x2833 PUSH1 0x60 DUP4 ADD DUP6 PUSH2 0x17D9 JUMP JUMPDEST DUP2 DUP2 SUB PUSH1 0x80 DUP4 ADD MSTORE PUSH2 0x2845 DUP2 DUP5 PUSH2 0x182A JUMP JUMPDEST SWAP1 POP DUP2 DUP2 SUB PUSH1 0xA0 DUP4 ADD MSTORE PUSH2 0x2858 DUP2 PUSH2 0x27C2 JUMP JUMPDEST SWAP1 POP SWAP7 SWAP6 POP POP POP POP POP POP JUMP JUMPDEST PUSH32 0x4E487B7100000000000000000000000000000000000000000000000000000000 PUSH0 MSTORE PUSH1 0x11 PUSH1 0x4 MSTORE PUSH1 0x24 PUSH0 REVERT JUMPDEST PUSH0 PUSH2 0x289B DUP3 PUSH2 0x174C JUMP JUMPDEST SWAP2 POP PUSH32 0xFFFFFFFFFFFFFFFFFFFFFFFFFFFFFFFFFFFFFFFFFFFFFFFFFFFFFFFFFFFFFFFF DUP3 SUB PUSH2 0x28CD JUMPI PUSH2 0x28CC PUSH2 0x2864 JUMP JUMPDEST JUMPDEST PUSH1 0x1 DUP3 ADD SWAP1 POP SWAP2 SWAP1 POP JUMP JUMPDEST PUSH32 0x4E487B7100000000000000000000000000000000000000000000000000000000 PUSH0 MSTORE PUSH1 0x12 PUSH1 0x4 MSTORE PUSH1 0x24 PUSH0 REVERT JUMPDEST PUSH0 PUSH2 0x290F DUP3 PUSH2 0x174C JUMP JUMPDEST SWAP2 POP PUSH2 0x291A DUP4 PUSH2 0x174C JUMP JUMPDEST SWAP3 POP DUP3 PUSH2 0x292A JUMPI PUSH2 0x2929 PUSH2 0x28D8 JUMP JUMPDEST JUMPDEST DUP3 DUP3 DIV SWAP1 POP SWAP3 SWAP2 POP POP JUMP JUMPDEST PUSH0 PUSH2 0x293F DUP3 PUSH2 0x174C JUMP JUMPDEST SWAP2 POP PUSH2 0x294A DUP4 PUSH2 0x174C JUMP JUMPDEST SWAP3 POP DUP3 DUP3 SUB SWAP1 POP DUP2 DUP2 GT ISZERO PUSH2 0x2962 JUMPI PUSH2 0x2961 PUSH2 0x2864 JUMP JUMPDEST JUMPDEST SWAP3 SWAP2 POP POP JUMP JUMPDEST PUSH0 PUSH2 0x2972 DUP3 PUSH2 0x174C JUMP JUMPDEST SWAP2 POP PUSH2 0x297D DUP4 PUSH2 0x174C JUMP JUMPDEST SWAP3 POP DUP3 PUSH2 0x298D JUMPI PUSH2 0x298C PUSH2 0x28D8 JUMP JUMPDEST JUMPDEST DUP3 DUP3 MOD SWAP1 POP SWAP3 SWAP2 POP POP JUMP JUMPDEST PUSH0 PUSH2 0x29A2 DUP3 PUSH2 0x174C JUMP JUMPDEST SWAP2 POP PUSH2 0x29AD DUP4 PUSH2 0x174C JUMP JUMPDEST SWAP3 POP DUP3 DUP3 ADD SWAP1 POP DUP1 DUP3 GT ISZERO PUSH2 0x29C5 JUMPI PUSH2 0x29C4 PUSH2 0x2864 JUMP JUMPDEST JUMPDEST SWAP3 SWAP2 POP POP JUMP INVALID LOG2 PUSH5 0x6970667358 0x22 SLT KECCAK256 JUMPI 0x4E 0x5C SWAP16 EXP 0x4D DUP9 0xBE 0xAF PUSH5 0xA97F5A97D 0xD2 GASLIMIT SWAP13 PC MSTORE8 0xD9 0x2D EXTCODECOPY 0x5E DUP11 0xD8 0xFB SWAP13 STATICCALL 0xE6 PUSH0 DUP1 PUSH5 0x736F6C6343 STOP ADDMOD EQ STOP CALLER "
				},
				"gasEstimates": {
					"creation": {
						"codeDepositCost": "2150600",
						"executionCost": "2292",
						"totalCost": "2152892"
					},
					"external": {
						"createProduct(string,string,string,string,uint256,string,string)": "infinite",
						"getAllProductIds()": "infinite",
						"getProduct(string)": "infinite",
						"getProductCount()": "2485",
						"getProductHistoryCount(string)": "infinite",
						"getProductHistoryItem(string,uint256)": "infinite",
						"productExists(string)": "infinite",
						"updateProduct(string,string,string)": "infinite"
					},
					"internal": {
						"_uintToString(uint256)": "infinite"
					}
				},
				"methodIdentifiers": {
					"createProduct(string,string,string,string,uint256,string,string)": "dadf0b73",
					"getAllProductIds()": "663c01af",
					"getProduct(string)": "68111cce",
					"getProductCount()": "4a348da9",
					"getProductHistoryCount(string)": "416eb9f4",
					"getProductHistoryItem(string,uint256)": "3036451e",
					"productExists(string)": "8addc051",
					"updateProduct(string,string,string)": "d7a2ab9b"
				}
			},
			"storageLayout": {
				"storage": [
					{
						"astId": 38,
						"contract": "contract/SupplyChain.sol:SupplyChain",
						"label": "products",
						"offset": 0,
						"slot": "0",
						"type": "t_mapping(t_string_memory_ptr,t_struct(Product)24_storage)"
					},
					{
						"astId": 44,
						"contract": "contract/SupplyChain.sol:SupplyChain",
						"label": "productHistory",
						"offset": 0,
						"slot": "1",
						"type": "t_mapping(t_string_memory_ptr,t_array(t_struct(HistoryItem)33_storage)dyn_storage)"
					},
					{
						"astId": 47,
						"contract": "contract/SupplyChain.sol:SupplyChain",
						"label": "productIds",
						"offset": 0,
						"slot": "2",
						"type": "t_array(t_string_storage)dyn_storage"
					}
				],
				"types": {
					"t_array(t_string_storage)dyn_storage": {
						"base": "t_string_storage",
						"encoding": "dynamic_array",
						"label": "string[]",
						"numberOfBytes": "32"
					},
					"t_array(t_struct(HistoryItem)33_storage)dyn_storage": {
						"base": "t_struct(HistoryItem)33_storage",
						"encoding": "dynamic_array",
						"label": "struct SupplyChain.HistoryItem[]",
						"numberOfBytes": "32"
					},
					"t_bool": {
						"encoding": "inplace",
						"label": "bool",
						"numberOfBytes": "1"
					},
					"t_mapping(t_string_memory_ptr,t_array(t_struct(HistoryItem)33_storage)dyn_storage)": {
						"encoding": "mapping",
						"key": "t_string_memory_ptr",
						"label": "mapping(string => struct SupplyChain.HistoryItem[])",
						"numberOfBytes": "32",
						"value": "t_array(t_struct(HistoryItem)33_storage)dyn_storage"
					},
					"t_mapping(t_string_memory_ptr,t_struct(Product)24_storage)": {
						"encoding": "mapping",
						"key": "t_string_memory_ptr",
						"label": "mapping(string => struct SupplyChain.Product)",
						"numberOfBytes": "32",
						"value": "t_struct(Product)24_storage"
					},
					"t_string_memory_ptr": {
						"encoding": "bytes",
						"label": "string",
						"numberOfBytes": "32"
					},
					"t_string_storage": {
						"encoding": "bytes",
						"label": "string",
						"numberOfBytes": "32"
					},
					"t_struct(HistoryItem)33_storage": {
						"encoding": "inplace",
						"label": "struct SupplyChain.HistoryItem",
						"members": [
							{
								"astId": 26,
								"contract": "contract/SupplyChain.sol:SupplyChain",
								"label": "time",
								"offset": 0,
								"slot": "0",
								"type": "t_uint256"
							},
							{
								"astId": 28,
								"contract": "contract/SupplyChain.sol:SupplyChain",
								"label": "location",
								"offset": 0,
								"slot": "1",
								"type": "t_string_storage"
							},
							{
								"astId": 30,
								"contract": "contract/SupplyChain.sol:SupplyChain",
								"label": "status",
								"offset": 0,
								"slot": "2",
								"type": "t_string_storage"
							},
							{
								"astId": 32,
								"contract": "contract/SupplyChain.sol:SupplyChain",
								"label": "desc",
								"offset": 0,
								"slot": "3",
								"type": "t_string_storage"
							}
						],
						"numberOfBytes": "128"
					},
					"t_struct(Product)24_storage": {
						"encoding": "inplace",
						"label": "struct SupplyChain.Product",
						"members": [
							{
								"astId": 3,
								"contract": "contract/SupplyChain.sol:SupplyChain",
								"label": "id",
								"offset": 0,
								"slot": "0",
								"type": "t_string_storage"
							},
							{
								"astId": 5,
								"contract": "contract/SupplyChain.sol:SupplyChain",
								"label": "name",
								"offset": 0,
								"slot": "1",
								"type": "t_string_storage"
							},
							{
								"astId": 7,
								"contract": "contract/SupplyChain.sol:SupplyChain",
								"label": "location",
								"offset": 0,
								"slot": "2",
								"type": "t_string_storage"
							},
							{
								"astId": 9,
								"contract": "contract/SupplyChain.sol:SupplyChain",
								"label": "destination",
								"offset": 0,
								"slot": "3",
								"type": "t_string_storage"
							},
							{
								"astId": 11,
								"contract": "contract/SupplyChain.sol:SupplyChain",
								"label": "quantity",
								"offset": 0,
								"slot": "4",
								"type": "t_uint256"
							},
							{
								"astId": 13,
								"contract": "contract/SupplyChain.sol:SupplyChain",
								"label": "company",
								"offset": 0,
								"slot": "5",
								"type": "t_string_storage"
							},
							{
								"astId": 15,
								"contract": "contract/SupplyChain.sol:SupplyChain",
								"label": "notes",
								"offset": 0,
								"slot": "6",
								"type": "t_string_storage"
							},
							{
								"astId": 17,
								"contract": "contract/SupplyChain.sol:SupplyChain",
								"label": "status",
								"offset": 0,
								"slot": "7",
								"type": "t_string_storage"
							},
							{
								"astId": 19,
								"contract": "contract/SupplyChain.sol:SupplyChain",
								"label": "createdAt",
								"offset": 0,
								"slot": "8",
								"type": "t_uint256"
							},
							{
								"astId": 21,
								"contract": "contract/SupplyChain.sol:SupplyChain",
								"label": "updatedAt",
								"offset": 0,
								"slot": "9",
								"type": "t_uint256"
							},
							{
								"astId": 23,
								"contract": "contract/SupplyChain.sol:SupplyChain",
								"label": "exists",
								"offset": 0,
								"slot": "10",
								"type": "t_bool"
							}
						],
						"numberOfBytes": "352"
					},
					"t_uint256": {
						"encoding": "inplace",
						"label": "uint256",
						"numberOfBytes": "32"
					}
				}
			},
			"userdoc": {
				"kind": "user",
				"methods": {},
				"version": 1
			}
		}
	}
}